:020000040800F2
:10000000A825002049010008431200084B0B0008F6
:1000100041120008410700081721000800000000F5
:100020000000000000000000000000002114000893
:100030003109000800000000C9120008DD150008A1
:100040006301000863010008630100086301000800
:1000500063010008630100086301000863010008F0
:1000600063010008630100086301000863010008E0
:1000700063010008630100086301000863010008D0
:1000800063010008630100086301000863010008C0
:1000900063010008630100086301000863010008B0
:1000A00063010008630100086301000863010008A0
:1000B000B9160008B51800082119000863010008E6
:1000C0006301000863010008630100086301000880
:1000D00063010008711D000863010008991D0008F4
:1000E0006301000863010008630100086301000860
:1000F0006301000863010008630100086301000850
:10010000630100086301000863010008630100083F
:10011000630100086301000863010008630100082F
:10012000630100086301000863010008630100081F
:10013000DFF810D000F064FA004800475D30000896
:10014000AFF30080A82500200648804706480047F6
:10015000FEE7FEE7FEE7FEE7FEE7FEE7FEE7FEE777
:10016000FEE7FEE7E11500083101000840EA01035F
:100170009B0703D009E008C9121F08C0042AFAD25D
:1001800003E011F8013B00F8013B521EF9D2704721
:10019000D2B201E000F8012B491EFBD270470022C9
:1001A000F6E710B513460A4604461946FFF7F0FF76
:1001B000204610BD30B505462A460B4612F8010B05
:1001C00013F8014B08B1A042F8D01CB1002802D0AE
:1001D0006D1CF1E7284630BD421C10F8011B0029B8
:1001E000FBD1801A704730B504460020034600E07A
:1001F0005B1C934203D2E05CCD5C401BF8D030BD69
:1002000030B50B46014600202022012409E021FAE6
:1002100002F59D4205D303FA02F5491B04FA02F5E3
:100220002844151EA2F10102F1DC30BD2DE9F05F7A
:100230000546002092469B46884606468146402455
:100240001BE0284641464746224600F0FAF953464D
:100250005A46C01A914110D311461846224600F062
:10026000E1F92D1A67EB01084F46224601200021D3
:1002700000F0D8F917EB00094E41201EA4F101044B
:10028000DFDC484631462A464346BDE8F09F2DE96B
:10029000FE4F804681EA0300C00F0C46009021F01B
:1002A000004123F00045B8EB0200A94105D24046C9
:1002B000214690461C460B46024623F00040104360
:1002C00047D0270DC7F30A00C3F30A510290401A22
:1002D000019040286BDAC3F3130040F4801B0098B0
:1002E000924620B10023D2EB030A63EB0B0B01987B
:1002F0005946C0F14002504600F094F906460D46BA
:1003000050465946019A00F0ACF910EB08006141E3
:10031000002487EA115284EAE7731A4340D0009A16
:1003200062B3019A012A4FEA075215DC001B61EB08
:1003300002014FF0004202EA0752CDE90042001CE0
:1003400041F5801132462B4600F0ACF903B0BDE810
:10035000F08F40462146F9E7001B61EB0201001CCB
:1003600041F5801300185B412018A2F5001747EBF8
:10037000030140EAD570B6196D4111E06D084FEAEE
:10038000360645EAC0754FEA0752001B61EB0201D1
:10039000001C41F5801149084FEA30000019514115
:1003A00032462B4603B0BDE8F04F00F06CB9009820
:1003B000012240000023D0EB020263EBE0730098BF
:1003C00021464FEAE074B8EB000061EB0401E9E775
:1003D00083F000435BE781F0004158E72DE9FE4FD1
:1003E00081EA030404F0004421F0004100944FF03E
:1003F000000B23F0004350EA01045ED052EA0304EC
:100400005BD0C3F30A54C1F30A552C44A4F2F3346D
:100410000194A0FB0254C1F3130141F48011C3F312
:10042000130343F4801301FB024400FB034E840AD0
:10043000970A44EA815447EA8357A4FB0768029568
:100440008D0A05FB07854FEA932C04FB0C54270506
:10045000029D4FEA065847EA1637B5EB08056EEBE2
:10046000070C870E920E47EA811742EA8312A7FB18
:100470000201B6EB0B0164EB00042B0D43EA0C33D5
:100480005E1844EB1C50DA465146E7FB0201C5F307
:1004900013044FEA0B3343EA14534FEA0432019C2E
:1004A00043EA0603A4F10C040294009CCDE900B4D5
:1004B00000F0F8F803B0BDE8F08F00200146F9E73E
:1004C0002DE9F04D81EA030404F0004B21F00045D2
:1004D00014464FF0000A23F0004150EA050220D0F4
:1004E00054EA01021DD0C5F30A570246C5F31303AF
:1004F000C1F31300C1F30A5640F4801543F480138E
:10050000A7EB0608101BD64608F2FD3873EB050072
:1005100002D308F1010801E092185B41B8F1000F25
:1005200003DA00200146BDE8F08D00204FF4801171
:10053000064684460EE0171B73EB050705D3121B16
:1005400063EB050306434CEA010C49084FEA30000F
:1005500092185B4150EA0107EDD152EA030012D034
:1005600082EA040083EA0501084305D0101BAB4171
:1005700006D20122002306E000224FF0004302E0F1
:100580006FF0010253101AEB06004CEB085110EB10
:100590000A0041EB0B01BDE8F04D00F074B8C1F367
:1005A0000A52C1F3130140F2FF3341F480119A4221
:1005B00002DA00200146704740F233439A42A2F229
:1005C000334202DC524200F03CB800F02BB800008D
:1005D00030B5041E71F1000404DB4FF000444042CA
:1005E00064EB0101141E73F1000405DB1C464FF09F
:1005F0000043524263EB0403994208BF904230BD6E
:10060000064C074D06E0E06840F0010394E807005F
:1006100098471034AC42F6D3FFF78EFDAC36000895
:10062000CC360008202A04DB203A00FA02F1002030
:1006300070479140C2F1200320FA03F31943904020
:100640007047202A04DB203A21FA02F0002170478B
:1006500021FA02F3D040C2F120029140084319462A
:100660007047202A06DBCB17203A41FA02F043EA12
:10067000E07306E041FA02F3D040C2F1200291405B
:1006800008431946704710B5141E73F1000408DAC8
:10069000401C41F1000192185B411A4301D120F046
:1006A000010010BD2DE9F04D92469B4611B1B1FA03
:1006B00081F202E0B0FA80F220329046FFF7B2FFFA
:1006C00004460F4640EA0A0041EA0B0153465A46E7
:1006D000084313D0114653EA010019D0C8F1400273
:1006E0005046FFF7AEFF05460E4650465946424675
:1006F000FFF798FF084305D0012004E02046394663
:10070000BDE8F08D0020054346EAE0762C433743F0
:100710000A986305E40AA0EB08000022FD0A44EAF7
:1007200047540A3002D500200146E9E701051019B7
:100730006941DDE9084500196941BDE8F04DA2E7CE
:100740007047000070B505460C46224629461548FC
:100750000068801CFFF70AFD2046E11704EB1161D9
:10076000090A104A12681170E11704EB11610912AD
:10077000A4EB01210B4A126851700021094802685C
:10078000A01C11540748006800F5967005490860E0
:100790000846006804490968884202D103480149B3
:1007A000086070BD8C00002094000020A01800207C
:1007B00010B500241848006820F0706016490860E1
:1007C0000846006840F00060086004E0601CC4B2A5
:1007D000012000F0D5F840210F4800F0A4F90128CD
:1007E00001D1462CF2DB462C01DB012010BD002498
:1007F00004E0601CC4B2012000F0C2F840210648A9
:1008000000F091F908B9462CF3DB462C01DB0220FD
:10081000ECE70020EAE700000008014010B50024E2
:1008200004E0601CC4B2012000F0AAF84021104886
:1008300000F079F9012801D1282CF2DB002404E032
:10084000601CC4B2012000F09BF84021084800F071
:100850006AF908B93C2CF3DB232000F091F8402121
:10086000034800F060F908B1012010BD0020FCE74A
:100870000008014070B50024002506E06006040E63
:10088000FFF7CCFF0443681CC5B2082DF6DB2046F9
:1008900070BD7CB505460E4600F02AF8FFF788FFCC
:1008A00008BB002405E0FFF7E5FF0DF80400601C1D
:1008B000C4B2052CF7DB9DF800009DF80110084438
:1008C0009DF8021008449DF8031008449DF8041098
:1008D000884206D19DF8000030709DF80200287013
:1008E00003E001207CBD0220FCE70020FAE70000C5
:1008F00010B50E48006820F070600C49086008468A
:10090000006840F04070086000224021074800F075
:1009100017F91E2000F00EF801224021034800F0D4
:100920000FF91E2000F02CF810BD00000008014057
:10093000704700000146114A12884A434FF0E023F5
:100940005A6100229A611A46126942F001021A6144
:1009500000BF4FF0E022106900F001021AB100F46C
:100960008032002AF5D04FF0E022126922F0010215
:100970004FF0E0231A6100229A6170477000002056
:100980000146114A12784A434FF0E0235A6100228F
:100990009A611A46126942F001021A6100BF4FF0D3
:1009A000E022106900F001021AB100F48032002A3E
:1009B000F5D04FF0E022126922F001024FF0E0235F
:1009C0001A6100229A6170476E00002010B56FF026
:1009D000040000F0EFFD0A4800680A49B0FBF1F09E
:1009E000094908700846007800EB4001C1EBC010CF
:1009F0004FF6FF7101EAC0000449088010BD0000F5
:100A0000B800002000127A006E0000207000002064
:100A10002DE9F04102460025002600200023002495
:100A2000002791F803C00CF00F0591F803C00CF0FB
:100A3000100CBCF1000F03D091F802C04CEA050580
:100A400091F800C0BCF1000F31D0146800202BE0F9
:100A50004FF0010C0CFA00F3B1F800C00CEA0306E9
:100A60009E4220D183004FF00F0C0CFA03F7BC43D9
:100A700005FA03FC4CEA040491F803C0BCF1280F0A
:100A800006D14FF0010C0CFA00FCC2F814C00AE0C9
:100A900091F803C0BCF1480F05D14FF0010C0CFADE
:100AA00000FCC2F810C0401C0828D1D31460B1F873
:100AB00000C0BCF1FF0F34DD546800202EE000F1CF
:100AC000080C4FF0010808FA0CF3B1F800C00CEA6A
:100AD00003069E4221D183004FF00F0C0CFA03F75E
:100AE000BC4305FA03FC4CEA040491F803C0BCF1D2
:100AF000280F05D100F1080C08FA0CF8C2F8148090
:100B000091F803C0BCF1480F07D100F1080C4FF079
:100B1000010808FA0CF8C2F81080401C0828CED34F
:100B20005460BDE8F0810246002093680B400BB191
:100B3000012000E00020704741617047016170476B
:100B40000AB1016100E041617047704710B5802132
:100B50002448FFF724FB24A226A1224801F0ECFD43
:100B60002048FFF739FB2449086080212348FFF71C
:100B700016FB23A21FA1214801F0DEFD1F48FFF74D
:100B80002BFB2149086080212048FFF708FB20A2A9
:100B900018A11E4801F0D0FD1C48FFF71DFB1F499E
:100BA000086080211E48FFF7FAFA1EA211A11C4816
:100BB00001F0C2FD41F272701E49086008461849F2
:100BC00002681DA001F0A8FD064920A001F0A4FDC7
:100BD0000A4922A001F0A0FD0C4924A001F09CFDCF
:100BE00010BD00007C1E00203937333839363131D2
:100BF000310000002573000098000020FC1E00203A
:100C000035333630323800009C0000207C1F002035
:100C1000323632383538373338360000A0000020FD
:100C2000FC1F00203138332E3233302E34302E3337
:100C300039000000A4000020B7FE20CEF120C6F746
:100C4000A3BA25733A25640D0A000000BFCDBBA7E7
:100C5000B6CB4944A3BA25730D0A0000D3C320BB09
:100C6000A720C3FBA3BA25730D0A0000C3DC202014
:100C70002020C2EBA3BA25730D0A000008B501219C
:100C8000202000F043FB0420ADF8000003208DF885
:100C9000020010208DF8030069460448FFF7B8FEF3
:100CA00004210248FFF748FF08BD0000001401407E
:100CB00010B504210148FFF73FFF10BD00140140AB
:100CC00010B504210148FFF739FF10BD00140140A1
:100CD00010B51648164908600846006815490860AE
:100CE0001548164908601648164908600846006805
:100CF00015490860154816490860164816490860E5
:100D0000084600681549086015481649086000F053
:100D100037F8002114A000F047FA002015490870A8
:100D2000154908701549087010BD0000E80C002036
:100D30007400002078000020981100207C00002022
:100D4000C4120020800000208400002074170020BE
:100D500088000020A01800208C00002090000020B7
:100D6000501D002094000020746F7069635F6F6EE7
:100D700065000000B7000020B6000020B40000208D
:100D800070B501207A4908600A207A4908607A48DB
:100D90000068001D794909680844801C7849096881
:100DA00008447849086073480068096844181020AE
:100DB0007549087000BF2046E11704EB5161C91165
:100DC000A4EBC115E11704EB5161CC11002C01DD3E
:100DD00045F080056C48664A12688554644800688E
:100DE000401C63490860002CE5DC0021664A60482D
:100DF0000068115404215E480068401C11544D21C4
:100E00005B480068801C1154512159480068C01C7F
:100E10001154542156480068001D1154544800686C
:100E2000401D1154042152480068801D1154C221F4
:100E30004F480068C01D115400214D48006808301B
:100E4000115464214A480068093011544A4908681D
:100E5000C11700EB1161C1F307224B4B44490968EC
:100E60000A315A5444490868C11700EB116109124C
:100E7000A0EB0121CAB23E4909680B315A541A4607
:100E80003B4909680C3150183B490A683F49FFF754
:100E90006DF93A490868C11700EB1161C1F30722E7
:100EA000334909680C31344B1B681944364B5A548A
:100EB00032490868C11700EB11610912A0EB01214A
:100EC000CAB22B4909680D312B4B1B6819442E4BB4
:100ED0005A54274909680E31274A126811441A46A4
:100EE000881826490A682A49FFF740F92449086802
:100EF000C11700EB1161C1F307221D4909680E31CA
:100F00001D4B1B6819441D4B1B6819441E4B5A543A
:100F10001B490868C11700EB11610912A0EB012100
:100F2000CAB2134909680F31134B1B681944134B9C
:100F30001B681944144B5A540D49096810310E4A64
:100F4000126811440D4A126811441A4688180C4957
:100F50000A681049FFF70AF905480068054A12684F
:100F60001044084A12688118074800F0CFFE70BD8F
:100F7000A8000020AC000020980000209C00002069
:100F8000A0000020B00000207C2000207C1E00205B
:100F9000FC1E00207C1F00202DE9F04FD1B08046C0
:100FA00098F8011098F8000001EB0020509008F12B
:100FB00002070020814605460646834601244FF07D
:100FC000010A00BF0BF1010B00BF281917F80090B0
:100FD00009F07F0000FB0A664FEACA1A641C09F098
:100FE00080000028F1D13019054431195098401A79
:100FF00050900124A246002650980028E2D159467C
:1010000020A001F089FB00200546064600BF00BF76
:101010004C9030E000BF281917F8009009F07F00CD
:1010200000FB0A664FEACA1A641C09F08000002817
:10103000F1D1601C2844395C6019385C01EB002058
:10104000801C4F904F98301A4E9029194F980844A1
:101050004D904D98391801A84E9AFFF787F801A8CE
:101060004E99FFF76FFB301905440124A246002674
:101070004C98401C4C904C985845CBDB51B0BDE887
:10108000F08F0000B1BEB4CEBDD3CAD5C1CB2564AC
:10109000B8F6CDC6CBCDCAFDBEDD0D0A00000000FE
:1010A00010B5C02004490870002048700221024891
:1010B00000F02CFE10BD00007C2000202DE9F04740
:1010C0000546884616460120334908602846FFF742
:1010D00083F8801C31490860314806600846006882
:1010E0002F490968441830202E49087000BF204657
:1010F000E11704EB5161C911A4EBC117E11704EB2F
:101100005161CC11002C01DD47F080072548224AAF
:101110001268875420480068401C1F490860002C52
:10112000E5DC2846FFF758F8C0F307211D4A1A48A6
:10113000006811542846FFF74FF8C1B2194A164803
:101140000068401C11542846FFF746F88146154AAE
:1011500011490968891C50184A462946FFF706F8C4
:101160002846FFF739F80C490968891C08440D49DD
:1011700000EB0109324641464846FEF7F7FF0648B4
:101180000068064A12681044054A1268811805482A
:1011900000F0BCFDBDE8F087A8000020AC000020F6
:1011A000B00000207C20002070B504460D460220CF
:1011B0001F4908601F4908602046FFF70DF8C01C52
:1011C0001D49086082201D4908701A4800781A4994
:1011D0000978084419494870002088700120C870B7
:1011E0002046FEF7F9FF000A144908712046FEF771
:1011F000F3FF124948712046FEF7EEFF06463246DD
:1012000021460E48801DFEF7B1FF2046FEF7E4FFA1
:10121000801D0A490D5406480068064A12681044A9
:10122000054A12688118054800F070FD70BD000085
:10123000A8000020AC000020B00000207C2000208E
:101240007047704770B5002100230F22C47804B3A3
:10125000154C246804F4E064C4F5E064210AC1F18B
:101260000403CA40447804FA03F18478144021430B
:1012700009010E4C0678A155047804F01F050124DD
:10128000AC4005786D11AD0005F1E025C5F80041D1
:1012900009E0047804F01F050124AC40044D0678F1
:1012A000761145F8264070BD0CED00E000E400E04A
:1012B00080E100E002490143024A116070470000EA
:1012C0000000FA050CED00E07047000029B1064A65
:1012D000D2690243044BDA6104E0034AD2698243D3
:1012E000014BDA61704700000010024029B1064A44
:1012F00012690243044B1A6104E0034A12698243F3
:10130000014B1A61704700000010024029B1064AE3
:1013100092690243044B9A6104E0034A9269824352
:10132000014B9A61704700000010024029B1064A43
:10133000D2680243044BDA6004E0034AD268824375
:10134000014BDA60704700000010024030B5002108
:101350000022002400232D4D6D6805F00C0121B101
:10136000042905D0082923D105E0294D056022E094
:10137000274D05601FE0254D6D6805F47012234D63
:101380006D6805F48034022505EB92421CB9214DAD
:10139000554305600BE01D4D6D6805F400351DB12A
:1013A0001C4D5543056002E0194D5543056002E0B0
:1013B000174D056000BF00BF144D6D6805F0F001CA
:1013C0000909154D6B5C0568DD4045600F4D6D6882
:1013D00005F4E061090A104D6B5C4568DD408560ED
:1013E0000A4D6D6805F46051C90A0B4D6B5C456888
:1013F000DD40C560054D6D6805F44041890B074D22
:101400006B5CC568B5FBF3F5056130BD00100240AB
:1014100000127A0000093D00CC000020DC00002012
:101420007047000010B5AAB034211CA8FEF7B7FE23
:10143000642103A8FEF7B3FE00202990174818A1E5
:1014400002681CA801F078F903208DF8A4000020A0
:101450008DF8A5001CA8FEF7BFFEC0B28DF8A6004F
:101460001CA99DF8A600CDE900019DF8A5309DF8C6
:10147000A42010A103A801F05FF91CA8FEF7ACFEA0
:10148000C41C0DF10F010EA001F046F9224603A97C
:101490000DA0FFF713FE2AB010BD000010000020C1
:1014A0007B226C6564466C6167223A222573227D3B
:1014B00000000000256325632563257300000000FC
:1014C00025730D0A000000002464700010B500F0C0
:1014D00001F810BD0CB50020019000903348006861
:1014E00040F480303149086000BF3048006800F4A3
:1014F000003000900198401C0190009818B90198A4
:10150000B0F5A06FF1D12948006800F4003010B1A7
:101510000120009001E0002000900098012843D1B4
:101520002348006840F01000214908600846006820
:1015300020F0030008600846006840F002000860E0
:101540001A4840681949486008464068486008469B
:10155000406840F4806048600846406820F47C1091
:1015600048600846406840F4E81048600846006853
:1015700040F08070086000BF0C48006800F0007008
:101580000028F9D00948406820F003000749486066
:101590000846406840F00200486000BF03484068C9
:1015A00000F00C000828F9D10CBD0000001002402A
:1015B00000200240042808D14FF0E021096941F0E1
:1015C00004014FF0E022116107E04FF0E0210969CA
:1015D00021F004014FF0E0221161704770470000D4
:1015E00010B51348006840F0010011490860084632
:1015F0004068104908400E494860084600680E4996
:1016000008400B4908600846006820F48020086004
:101610000846406820F4FE0048604FF41F008860D0
:10162000FFF754FF4FF000600449086010BD000050
:10163000001002400000FFF8FFFFF6FE08ED00E09A
:101640001FB54FF4A060FFF735FE01210846FFF7F4
:101650003DFE4FF0804000F0F7F944F61F60ADF812
:10166000080048F69F40ADF804000020ADF80600E1
:10167000ADF80A0001A94FF0804000F0F5FA012111
:10168000880700F0D1F901221146900700F0E1FA35
:101690000121880700F0CBF91C208DF80000022002
:1016A0008DF8010001208DF802008DF803006846D6
:1016B000FFF7C8FD1FBD00002DE9F041ACB00024CC
:1016C0000121880700F0B4FA002854D02BA92AA8D9
:1016D000FFF7DFF834211CA8FEF761FD642103A8A1
:1016E000FEF75DFD002029909DF8AC000A2190FBDB
:1016F000F1F201FB120590FBF1F69DF8A80090FBBA
:10170000F1F201FB120790FBF1F83B4642461BA1A8
:101710001CA8CDE9006501F00FF803208DF8A400A6
:1017200000208DF8A5001CA8FEF756FDC0B28DF86C
:10173000A6001CA99DF8A600CDE900019DF8A530E2
:101740009DF8A42018A103A800F0F6FF19A000F04E
:10175000E3FF0DF10F0118A000F0DEFF1CA8FEF75B
:101760003BFDC41C224603A915A0FFF7A7FC0121DD
:10177000880700F059F92CB0BDE8F0817B22746530
:101780006D7065726174757265223A2225642564F4
:10179000222C2268756D6964697479223A22256465
:1017A0002564227D000000002563256325632573E1
:1017B000000000000D0A000025730D0A0000000063
:1017C000246470001FB54FF4A060FFF773FD012182
:1017D0000220FFF77BFD184800F036F944F61F6041
:1017E000ADF8080041F61F40ADF804000020ADF848
:1017F0000600ADF80A0001A90F4800F035FA0121F2
:101800000D4800F011F9012211460B4800F021FAB1
:101810000121094800F00BF91D208DF8000001207E
:101820008DF8010000208DF8020001208DF80300E2
:101830006846FFF707FD1FBD000400401FB54FF4C9
:10184000A060FFF737FD01210220FFF73FFD184898
:1018500000F0FAF84EF65F20ADF8080048F69F4019
:10186000ADF804000020ADF80600ADF80A0001A9AB
:101870000F4800F0F9F901210D4800F0D5F80122D8
:1018800011460B4800F0E5F90121094800F0CFF8B6
:101890001D208DF8000002208DF8010001208DF838
:1018A00002008DF803006846FFF7CCFC1FBD000066
:1018B0000004004010B50121164800F0B9F938B312
:1018C00015480078062819D2DFE800F003060B0C53
:1018D0000D10FFF7E5FB11E0FFF774FFFFF7E0FBEA
:1018E0000CE000BF00BFFFF7DBFB07E000200B4967
:1018F00008700021074800F09AF800BF00BF0648B2
:101900000078401C044908700121024800F08CF85E
:1019100010BD000000040040B4000020B50000200D
:1019200010B501211D4800F083F9002834D01C486F
:101930001C4902681C480068801CFEF717FC184808
:101940000088000A18490968087015480078164987
:10195000096848701448006800F5967012490860DC
:101960000846006811490968884202D110480E49AA
:10197000086000200A49086000210E4800F072F952
:101980000021064800F053F80021044800F06AF9ED
:101990000121024800F048F810BD00000008004096
:1019A00068000020E8040020740000207C00002073
:1019B000E80C0020000400407FB505460C464FF4BB
:1019C000A060FFF777FC01210420FFF77FFCADF852
:1019D0000850ADF804400020ADF80600ADF80A004C
:1019E00001A9104800F040F901210E4800F01CF850
:1019F000012211460B4800F02CF90021094800F0A3
:101A000016F81E208DF8000001208DF8010000203E
:101A10008DF8020001208DF803006846FFF712FCE4
:101A20007FBD000000080040CA430282704721B118
:101A3000028842F00102028004E002884FF6FE7341
:101A40001A4002807047000010B50446684884427E
:101A500008D10121C014FFF769FC0021E014FFF751
:101A600065FCC4E0B4F1804F08D101210846FFF7BE
:101A70003DFC00210120FFF739FCB8E05D488442BD
:101A800008D101210220FFF731FC00210220FFF7DD
:101A90002DFCACE05848844208D101210420FFF716
:101AA00025FC00210420FFF721FCA0E053488442DC
:101AB00008D101210820FFF719FC00210820FFF7B9
:101AC00015FC94E04E48844208D101211020FFF714
:101AD0000DFC00211020FFF709FC88E049488442F2
:101AE00008D101212020FFF701FC00212020FFF771
:101AF000FDFB7CE04448844208D101214014FFF7FB
:101B000015FC00216014FFF711FC70E03F4884428F
:101B100009D10121C804FFF709FC00214FF400207E
:101B2000FFF704FC63E03A48844209D1012108052B
:101B3000FFF7FCFB00214FF48010FFF7F7FB56E0A6
:101B40003448844209D101214805FFF7EFFB002109
:101B50004FF40010FFF7EAFB49E02F48844208D118
:101B600001214020FFF7C2FB00214020FFF7BEFB10
:101B70003DE02A48844208D101218020FFF7B6FBCE
:101B800000218020FFF7B2FB31E02548844208D1D4
:101B900001218015FFF7AAFB0021A015FFF7A6FB86
:101BA00025E02048844209D101210804FFF7BEFB4B
:101BB00000214FF48030FFF7B9FB18E01A48844247
:101BC00009D101214804FFF7B1FB00214FF4003097
:101BD000FFF7ACFB0BE01548844208D101218804D3
:101BE000FFF7A4FB00214FF48020FFF79FFB10BDFF
:101BF000002C01400004004000080040000C0040A0
:101C0000001000400014004000340140004C01402E
:101C1000005001400054014000180040001C0040EA
:101C200000200040004001400044014000480140C5
:101C300030B50246002000230024158A05EA01037E
:101C4000958905EA010413B10CB1012000E00020E0
:101C500030BD1AB183890B43838102E083898B43B2
:101C60008381704781847047002202881D4B98420F
:101C70000ED01D4B98420BD0B0F1804F08D01B4BBB
:101C8000984205D01A4B984202D01A4B984204D180
:101C90004FF68F731A404B881A43174B984207D060
:101CA000164B984204D04FF6FF431A40CB881A4394
:101CB00002808B8883850B8803850A4B98420BD062
:101CC000094B984208D00E4B984205D00D4B9842D4
:101CD00002D00D4B984201D10B7A038601238382F7
:101CE00070470000002C0140003401400004004017
:101CF00000080040000C00400010004000140040AC
:101D000000400140004401400048014070B50546D4
:101D10000C462246294613480068801CFEF726FA26
:101D20002046E11704EB1161090A0E4A126811708E
:101D3000E11704EB11610912A4EB0121094A1268B1
:101D400051700848006800F596700649086008461A
:101D5000006805490968884202D1044801490860C1
:101D600070BD00008000002088000020C412002008
:101D700010B540F22551064800F0E7F838B10448A4
:101D800000F0C0F9C4B22146024800F0C0F910BD0D
:101D9000003801400048004010B540F225511E486F
:101DA00000F0D3F8002835D01C48007880B91A48D4
:101DB000001D008820B31848001D00881849194AE2
:101DC0001268885417480068401C1649086017E0DC
:101DD0001148001D00881249124A1268885411489F
:101DE000006820B901211048FFF721FE03E000211F
:101DF0000D48FFF737FF0B480068401C0949086091
:101E0000054800F07FF9094908700846017808483C
:101E100000F07DF910BD000000480040B500002032
:101E2000E804002068000020000800406C0000204A
:101E30000038014021B1828942F40052828104E0DD
:101E400082894DF6FF731A408281704770B586B063
:101E500004460D4616462F4951F824000121FFF78C
:101E600055FA34B92C4951F824000121FFF74EFAF4
:101E700011E0012C01D1012000E00020022C01D151
:101E8000012100E00021084328B1234951F8240032
:101E90000121FFF71BFA214830F81400ADF81400B7
:101EA00018208DF8170003208DF816001C4951F8F2
:101EB000240005A9FEF7ACFD1A4830F81400ADF86F
:101EC000140004208DF81700174951F8240005A9C3
:101ED000FEF79EFD01960020ADF80800ADF80A005F
:101EE000ADF80C00ADF810000C20ADF80E000F4955
:101EF00051F8240001A900F077F8012D02D1204605
:101F000000F0DEF8094951F824000121FFF792FFA3
:101F100006B070BD18000020240000203C00002006
:101F20003000002050000020440000205800002015
:101F300002460020B1F5007F00D100BF13880B409E
:101F40000BB1012000E00020704770B5024600246C
:101F500000230025002040F66A16B14200D100BFE0
:101F6000C1F3421501F01F03012606FA03F3012D08
:101F700002D19689334006E0022D02D1168A334001
:101F800001E0968A33400C12012606FA04F4168802
:101F9000344013B10CB1012000E0002070BDF0B559
:101FA0000346002400260025002040F66A17B942A7
:101FB00000D100BF1846C1F3421401F01F060127EB
:101FC00007FA06F5012C01D10C3004E0022C01D1F6
:101FD000103000E014301AB107682F43076002E0A8
:101FE0000768AF430760F0BD2DE9F04786B00546AE
:101FF0000E460024A24600BFA1460027B08900B1CA
:1020000000BF2F462C8A4CF6FF700440F088044332
:102010002C82AC894EF6F3100440B0883189084315
:10202000718908430443AC81AC8A4FF6FF400440F9
:10203000B0890443AC8201A8FFF788F91F488742A2
:1020400002D1DDF810A001E0DDF80CA0A88900F4B1
:10205000004040B10AEBCA0000EB0A1031684900A9
:10206000B0FBF1F807E00AEBCA0000EB0A10316898
:102070008900B0FBF1F86420B8FBF0F004012009FE
:10208000642101FB1089A88900F4004040B132208E
:1020900000EBC900B0FBF1F000F00700044308E0DA
:1020A000322000EB09106421B0FBF1F000F00F00CA
:1020B00004432C8106B0BDE8F087000000380140E1
:1020C00038B504464FF4A060FFF7F4F80B48005D04
:1020D0008DF8000001208DF801008DF802008DF8C8
:1020E00003006846FFF7AEF8054951F824000122C5
:1020F00040F22551FFF753FF38BD00006400002077
:102100005800002001468888C0F308007047C1F3DA
:10211000080282807047704710B539A000F0FCFAC1
:10212000322000F06DFA20B139A000F0F5FA01205C
:1021300010BD3DA000F0F0FA3EA000F0EDFA322113
:1021400041A000F0AFFA20B142A000F0E5FA022071
:10215000EEE747A000F0E0FA4A48007800281ED1D8
:1021600049A000F0D9FA32214CA000F09BFA20B12E
:102170004EA000F0D1FA0320DAE754A000F0CCFA28
:1021800057A000F0C9FA1E2000F0E8F920B159A0CC
:1021900000F0C2FA0420CBE75DA000F0BDFA61A018
:1021A00000F0BAFA322163A000F07CFA20B165A0F9
:1021B00000F0B2FA0820BBE769A000F0ADFA6CA00D
:1021C00000F0AAFA32216FA000F06CFA20B170A0E2
:1021D00000F0A2FA0920ABE775A000F09DFA79A003
:1021E00000F09AFA642000F00FF920B17AA000F014
:1021F00093FA0A209CE77FA000F08EFA002097E770
:10220000D7BCB1B8B8B4CEBBC4A3BFE90D0A0000B7
:10221000B8B4CEBBCAA7B0DCA3ACD7BCB1B8D6D8D3
:10222000C6F40D0A00000000B8B4CEBBB3C9B9A60D
:102230000D0A0000D7BCB1B8C9E8D6C3535441C495
:10224000A3CABD0D0A00000041542B43574D4F4413
:10225000453D3100C9E8D6C3535441C4A3CABDCAE1
:10226000A7B0DCA3ACD7BCB1B8D6D8C6F40D0A0071
:10227000C9E8D6C3535441C4A3CABDB3C9B9A60D56
:102280000A00000072000020D7BCB1B8C8A1CFFB83
:10229000D7D4B6AFC1ACBDD30D0A000041542B4317
:1022A000574155544F434F4E4E3D3000C8A1CFFBD0
:1022B000D7D4B6AFC1ACBDD3CAA7B0DCA3ACD7BC32
:1022C000B1B8D6D8C6F40D0A00000000C8A1CFFBF3
:1022D000D7D4B6AFC1ACBDD3B3C9B9A60D0A0000FF
:1022E000D7BCB1B8C1ACBDD3C2B7D3C9C6F70D0A0C
:1022F00000000000C1ACBDD3C2B7D3C9C6F7CAA79E
:10230000B0DCA3ACD7BCB1B8D6D8C6F40D0A000077
:10231000C1ACBDD3C2B7D3C9C6F7B3C9B9A60D0AFC
:1023200000000000D7BCB1B8C9E8D6C3CDB8B4AB83
:102330000D0A000041542B4349504D4F44453D3157
:1023400000000000C9E8D6C3CDB8B4ABCAA7B0DC62
:10235000A3ACD7BCB1B8D6D8C6F40D0A00000000B3
:10236000C9E8D6C3CDB8B4ABB3C9B9A60D0A00004D
:10237000D7BCB1B8B9D8B1D5B6E0C2B7C1ACBDD33E
:102380000D0A000041542B4349504D55583D300033
:10239000B9D8B1D5B6E0C2B7C1ACBDD3CAA7B0DC1D
:1023A000A3ACD7BCB1B8D6D8C6F40D0A0000000063
:1023B000B9D8B1D5B6E0C2B7C1ACBDD3B3C9B9A61F
:1023C0000D0A0000D7BCB1B8C1ACBDD3B7FECEF189
:1023D000C6F70D0A00000000C1ACBDD3B7FECEF1B8
:1023E000C6F7CAA7B0DCA3ACD7BCB1B8D6D8C6F480
:1023F0000D0A0000C1ACBDD3B7FECEF1C6F7B3C91C
:10240000B9A60D0A0000000010B5044600202E49B0
:1024100008604FF480612D48FDF7C1FE2C482D491E
:1024200002682DA001F004F91AE06420FEF782FA98
:1024300030A12648FDF7BEFE00B115E02FA12348CC
:10244000FDF7B8FE08B1012010BD2EA11F48FDF711
:10245000B1FE08B10220F7E721462FA000F05CF999
:10246000201EA4F10104E0D100BF2CA000F054F91B
:10247000002C01DC0320E7E729A000F04DF9002043
:10248000114908604FF480611048FDF788FE2CA0C8
:1024900001F0CEF80CE06420FEF74CFA2CA10B48BA
:1024A000FDF788FE00B107E021461BA000F034F9DB
:1024B000201EA4F10104EED100BF002C01DC042099
:1024C000C2E70020C0E7000068000020E804002008
:1024D000A4000020FC1F002041542B4349505354BA
:1024E0004152543D22544350222C222573222C2544
:1024F000640D0A00434F4E4E45435400434C4F5326
:1025000045440000414C524541445920434F4E4EF2
:102510004543544544000000256420000D0A000096
:10252000C1ACBDD3B7FECEF1C6F7B3C9B9A6A3AC53
:10253000D7BCB1B8BDF8C8EBCDB8B4AB0D0A00003C
:1025400041542B43495053454E440D0A00000000AE
:102550000D0A4F4B0D0A0D0A3E00000010B504464F
:102560000020164908604FF480611548FDF717FEFA
:1025700014A217A118A001F05BF80DE04FF47A70D7
:10258000FEF7D8F91AA10E48FDF714FE00B107E0D6
:10259000214618A000F0C0F8201EA4F10104EDD1DE
:1025A00000BF074914A000F0B7F814A000F0B4F879
:1025B000002C01DC012010BD0020FCE76800002099
:1025C000E8040020313837343930323332383100C2
:1025D0004D4957494649000041542B43574A415001
:1025E0003D222573222C222573220D0A00000000B3
:1025F0004F4B0000256420000D0A25730D0A0000D2
:1026000010B50446002202211348FEF799FA4FF450
:10261000FA70FEF78FF9012202210F48FEF790FAB7
:102620000CE06420FEF786F90CA10E48FDF7C2FD10
:1026300000B107E021460CA000F06EF8201EA4F1C6
:102640000104EED100BF09A000F066F8002C01DC07
:10265000012010BD0020FCE7000C014072656164A0
:1026600079000000E8040020256420000D0A000025
:1026700008B501210820FEF749FE0220ADF8000050
:1026800003208DF8020010208DF8030069460448ED
:10269000FEF7BEF9012202210148FEF751FA08BDFA
:1026A000000C014070B505460C4600201349086037
:1026B0004FF480611248FDF772FD294611A000F029
:1026C000B7FF0CE06420FEF735F910A10C48FDF7C8
:1026D00071FD00B107E021460DA000F01DF8201E9D
:1026E000A4F10104EED100BF0AA000F015F8002CFF
:1026F00001DC012070BD0020FCE700006800002024
:10270000E804002025730D0A000000004F4B000074
:10271000256420000D0A00000FB4054B10B503A975
:10272000044A029800F000F910BC5DF814FB0000A8
:1027300039300008E00000200FB4084B10B504A9A0
:1027400002AA039800F0F0F8044602A9002000F065
:102750006EFC204610BC5DF814FB00002F30000812
:1027600037B514460846064B6A46214600F0DCF8A9
:1027700004466946002000F05AFC20463EBD000099
:102780002F30000802E008C8121F08C1002AFAD141
:1027900070477047002001E001C1121F002AFBD1E1
:1027A000704700002DE9FF5F82B00021DDE90430B1
:1027B000020DDDF840B0034318D044F61050A2F2E9
:1027C000FF3242431514119801281FD0A5EB0B00CE
:1027D000401C5FEA000A4FF000064E4FDFF83891C8
:1027E000B046504615D5CAF1000413E011980124F3
:1027F0004AA3012801D16FEA0B010298119AC0E99E
:102800000031C0E9024206B0BDE8F09FCBF1000004
:10281000DFE704460021404A491842EB0450CDE965
:10282000001012E0E00707D032463B4640464946DA
:10283000FDF7D4FD8046894632463B461046194690
:10284000FDF7CCFD06460F466410002CEAD1DDE909
:102850000401DDE90023BAF1000F06DAFDF7BEFD41
:1028600042464B46FDF7BAFD05E0FDF729FE42461C
:102870004B46FDF725FE04460E460022284BFDF789
:10288000A7FE03D84FF0FF30014607E00022254B9A
:1028900020463146FDF7FBFCFDF781FE102409E0E0
:1028A000002C0ADB0A220023FDF7C0FC039B303218
:1028B0001A55641E50EA0102F2D1641C039AC4F155
:1028C00011031444119A012A03D0012208430DD1A7
:1028D0000AE0084304D000204FF0110B119072E77A
:1028E000A3EB0B056D1E0DE05B4504DD4FF0000210
:1028F00005F1010504E003DA4FF00002A5F101053E
:10290000002AECD002981199C0E90231C0E90045D3
:1029100079E70000000014400000F03F30000000A4
:102920000000F0430000E03F2DE9FF4F95B09A46CC
:10293000884606460025EEE1252877D10024274663
:10294000F94A0121039400E0044316F8013F203BBB
:1029500001FA03F01042F7D130782A2811D06FF035
:102960002F033078A0F13002092A16D8039A44F0D8
:10297000020402EB820203EB42021044761C039035
:10298000EFE758F8042B0392002A03DA504244F48C
:102990000054039044F00204761C30782E2816D19F
:1029A00016F8010F44F004042A280DD06FF02F020E
:1029B0003078A0F13003092B09D807EB870302EB2D
:1029C0004303C718761CF3E758F8047B761C30786D
:1029D0006C280FD006DC4C2817D068280DD06A2848
:1029E00014D104E0742810D07A280FD10DE044F4FB
:1029F00000140AE044F4801401E044F440147278B6
:102A0000824202D104F58014761C761C3078662848
:102A10000BD013DC582877D009DC002875D0452866
:102A2000F6D04628F4D047281AD193E118E063285D
:102A300035D0642879D0652812D18BE1702873D005
:102A400008DC6728F1D069286FD06E280DD06F2878
:102A500006D1ACE073282CD0752874D0782853D0D8
:102A60005246179990476D1C54E1C4F30250022856
:102A700009D003280DD0D8F8001004280DD00D601F
:102A800008F1040846E1D8F80010EA17C1E900523D
:102A9000F6E7D8F800100D80F2E70D70F0E718F8AF
:102AA000041B8DF8001000208DF80100EB4601207A
:102AB00003E058F804BB4FF0FF3061074FF000010E
:102AC00002D40DE009F101018946B9420FDA8145CE
:102AD000F8DB1BF809100029F4D108E009F1010125
:102AE00089468142FADB1BF809100029F6D10398C8
:102AF0005346A0EB090721463846179A00F080FAA2
:102B0000284400EB090507E044E008E10DE01BF86C
:102B1000010B524617999047B9F10109F7D2534674
:102B200021463846179AF2E039E00A21C4F30252EE
:102B30004FF0000B0091022A06D058F8040BC11781
:102B4000032A09D00AE023E008F1070020F0070279
:102B5000F2E80201904605E000B2C117042A01D153
:102B600040B2C117002906DA0A460021404261EB53
:102B700002012D2202E0220504D52B228DF804202B
:102B8000012203E0E20701D02022F7E7914657E057
:102B90000A2100E010214FF0000B00910BE0102102
:102BA0004FF0000B44F004040827009103E00820D4
:102BB0004FF0000B0090C4F30252022A05D058F8DF
:102BC000040B0021032A08D008E008F1070020F0D8
:102BD0000702F2E80201904603E080B2042A00D125
:102BE000C0B24FF0000922072AD53278702A07D0E8
:102BF000DDF800C08CF0100C5CEA0B0C05D00EE088
:102C000040228DF80420012208E050EA010306D09A
:102C100030238DF804308DF8052002229146009B68
:102C200083F0080353EA0B030AD150EA010201D1F1
:102C3000620705D530228DF804204FF001097F1E70
:102C40003278582A04D039A20C920CAA02920BE0D6
:102C50003BA2F9E75B46009AFDF7E8FA0C9B9B5C08
:102C6000029A521E0292137050EA0102F2D10298A7
:102C700004A9081A00F1200B600702D524F480345F
:102C800000E001275F4502DDA7EB0B0000E000201C
:102C900000EB0B01009003984944401A0390E003B5
:102CA00006D453462146179A039800F0A9F9054423
:102CB000002706E001A85246C05D179990476D1C99
:102CC0007F1C4F45F6DBE0030CD553462146179A8F
:102CD000039800F095F9054404E030205246179916
:102CE00090476D1C0099481E00900029F5DC08E013
:102CF0000298029952460078491C02911799904710
:102D00006D1CBBF10001ABF1010BF1DC5BE100F0EC
:102D100065F90544761C307800287FF40DAE19B0B3
:102D20002846BDE8F08F0000092801003031323319
:102D300034353637383961626364656600000000F7
:102D400030313233343536373839414243444546E1
:102D500000000000600700D4062708F1070020F0FB
:102D60000700F0E80223804603F0004C5FEA0C0005
:102D700001D097A009E0200501D596A005E0E00765
:102D800001D095A001E0AFF24C001390307823F011
:102D9000004365280CD006DC452809D046281DD004
:102DA00047287FD13BE0662818D067287AD136E0E3
:102DB0000021112F01DB112000E0781CCDE900017A
:102DC00004A90CA8FFF7EEFCDDE90D010C9A4FF009
:102DD000000B07F10109109200914EE04FF0004006
:102DE0000097CDE9011004A90CA8FFF7DBFCDDE991
:102DF0000D020C9B0F994FF0000B9146109300921F
:102E000011B9791C00EB0109B7EB090003D4C0F13B
:102E1000FF3B07F10109A9EB0700019042E0012FF8
:102E200000DA01270021112F01DD112000E03846D2
:102E3000CDE9000104A90CA8FFF7B4FCDDE90D0100
:102E40000C9A00914FF0000BB946109221070FD455
:102E5000009A4A4503DA914601E0A9F10109B9F166
:102E6000010F05DD109AA9F10101515C3029F4D060
:102E7000B84202DA10F1040F03DA0121CDE90110A2
:102E800010E0002803DC8344A9EB000102E0411CB0
:102E9000494500DD8946A0EB0B00401C01904FF036
:102EA00000400290200705D40198484502DB4FF00E
:102EB000FF30019000208DF84B0002980DF14B0778
:102EC000B0F1004F25D002200C902B200D900298DD
:102ED00000280CDA404202902D200D9007E00A21D4
:102EE0000298FDF78DF93031029007F8011D0C9919
:102EF000481E0C900029F2DC02980028EFD1791EC0
:102F00000D980870307800F0200040F0450007F878
:102F1000020D11A8C01BC01D02901398007800B1CB
:102F2000012000EB0901019801EBE07102980144D6
:102F30000398401A401E0390E00306D453462146EE
:102F4000179A039800F05CF805441398007818B1BC
:102F50005246179990476D1CE00323D553462146EE
:102F6000179A039800F04CF805441BE0BBF1000FE2
:102F700007DB0098584504DD1098179910F80B00EE
:102F800001E0179930205246904701980BF1010B50
:102F9000401E05F10105019004D12E2052461799DB
:102FA00090476D1CB9F10001A9F10109DEDC05E0D3
:102FB00017F8010B5246179990476D1C0299481E4D
:102FC00002900029F4DC53462146179A03989EE6A6
:102FD0002D0000002B000000200000002DE9F04132
:102FE000044600251E461746880404D405E03946E9
:102FF0002020B0476D1C641EF9D52846BDE8F0813D
:103000002DE9F041044600251E469046C80301D52F
:10301000302700E02027880404D505E041463846E3
:10302000B0476D1C641EF9D52846BDE8F0810A68DA
:10303000531C0B601070704770B504460D46E1B22A
:103040000548FFF764F800BF80210348FEF770FFD2
:103050000028F9D0204670BD00380140FDF7B6FCCD
:103060004FF4E13201210020FEF7F0FE4FF4E1328F
:1030700001210220FEF7EAFE4FF4E1514FF4FA700D
:10308000FEF79AFCFDF7FAFDFFF7F2FAFDF75EFD99
:1030900084E1C348007801286DD1C2480068C24964
:1030A0000968884239D0BF480068807810280CD061
:1030B000BC4800688078822803D1BC480078012889
:1030C00003D0BB480078012827D1B6480068807833
:1030D000302809D1B34800688178B6A0FFF71CFBFF
:1030E000BEA0FFF719FB05E0AE4800688178BCA0E0
:1030F000FFF712FBAB48006800F07AFAA9480068B5
:1031000000F59670A749086008460068B849096844
:10311000884202D1B748A3490860B7480068B74958
:10312000096888427AD0B6A0FFF7F6FAB24800687C
:10313000807820283DD1B04800684079062830D2F8
:10314000DFE800F0030A11182128B0A0FFF7E4FA25
:103150000120964908702BE0B1A0FFF7DDFA0020AE
:103160008F49087024E0B9A0FFF7D6FA00208C49F7
:1031700008701DE000E0EBE0C0A0FFF7CDFA0020F2
:103180008749087014E0C7A0FFF7C6FA00208449F9
:1031900008700DE0CEA0FFF7BFFA0020804908704C
:1031A00006E0D3A0FFF7B8FA00207D49087000BF01
:1031B0004BE091480068807890281FD18E480068C5
:1031C000807910B1012811D100E000BFD1A0FFF734
:1031D000A3FA0120764908700020D1490870FEF753
:1031E0002DFBFEF71FF9FEF72BFA06E0CDA0FFF747
:1031F00093FA00206A49087000BF26E07E48006804
:103200008078D02815D1CDA0FFF786FAC448007881
:10321000012804D10020C249087016E024E0C0480B
:103220000078012811DD0020BD490870FEF706FB7B
:103230000BE0714800688078302806D1C3A0FFF702
:103240006BFA6D480068FDF7A7FE6B48006800F553
:1032500096706949086008460068C1490968884253
:1032600002D1C04864490860BF480068BF49096886
:1032700088426CD0BC480168891CBDA0FFF74CFA9D
:10328000BE480068FCF7A8FF04462246BB48016818
:10329000B5480068801CFCF7A6FF28B9B8A0BA4959
:1032A0000860FDF70DFD41E0B8480068FCF794FFA9
:1032B00004462246B5480168AB480068801CFCF70C
:1032C00092FF28B9B2A0B0490860FDF7F1FC2DE0EB
:1032D000B1480068FCF780FF04462246AE4801680A
:1032E000A1480068801CFCF77EFF28B90120AB498B
:1032F0000860FEF7A5F919E0A9480068FCF76CFF23
:1033000004462246A648016897480068801CFCF7DE
:103310006AFF40B90020A149086000214FF08040B9
:10332000FEF785FB02E09FA0FFF7F6F98E480068E4
:1033300000F596708C490860084600689C49096849
:10334000884202D19B4888490860FEF76BF825E067
:1033500099A0FFF7E1F900219C48FEF768FB0021E6
:103360009B48FEF764FB00209A4908604FF4806197
:103370009948FCF714FFFEF7CFFE78B997A0FFF746
:10338000CBF90120064908700020924908604FF4EB
:1033900080619148FCF703FFFDF79AFC79E6000095
:1033A000B50000208400002080000020B60000202E
:1033B000B7000020B7A2CBCDCAFDBEDD3A307825DC
:1033C00078A3ACB5A5C6ACBBFACAFDBEDDCDC6CBF5
:1033D000CDD6C1B7FECEF1C6F70D0A000D0A00002A
:1033E000B7A2CBCDCAFDBEDD3A307825780D0A00F4
:1033F00088000020C4120020780000207400002003
:10340000BDD3CAD5B5BDCAFDBEDD3A00434F4E4E51
:10341000454354B1A8CEC4B3C9B9A60D0A000000F3
:10342000C1ACBDD3D2D1BEDCBEF8A3ACB2BBD6A773
:10343000B3D6B5C4D0ADD2E9B0E6B1BEA3ACD7BC6B
:10344000B1B8D6D8C6F40D0A00000000C1ACBDD397
:10345000D2D1BEDCBEF8A3ACB2BBBACFB8F1B5C412
:10346000BFCDBBA7B6CBB1EACAB6B7FBA3ACD7BC3E
:10347000B1B8D6D8C6F40D0A00000000C1ACBDD367
:10348000D2D1BEDCBEF8A3ACB7FECEF1B6CBB2BB98
:10349000BFC9D3C3A3ACD7BCB1B8D6D8C6F40D0A44
:1034A00000000000C1ACBDD3D2D1BEDCBEF8A3ACDD
:1034B000CEDED0A7B5C4D3C3BBA7C3FBBBF2C3DC6E
:1034C000C2EBA3ACD7BCB1B8D6D8C6F40D0A000085
:1034D000C1ACBDD3D2D1BEDCBEF8A3ACCEB4CADA87
:1034E000C8A8A3ACD7BCB1B8D6D8C6F40D0A0000A2
:1034F000C1ACBDD3D2D1BEDCBEF8A3ACCEB4D6AA8B
:10350000D7B4CCACA3ACD7BCB1B8D6D8C6F40D0AEE
:1035100000000000B6A9D4C4B3C9B9A60D0A0000C2
:10352000B4000020B6A9D4C4CAA7B0DCA3ACD7BCF1
:10353000B1B8D6D8C6F40D0A0000000050494E4775
:10354000B1A8CEC4BBD8B8B40D0A0000B7FECEF106
:10355000C6F7B5C8BCB630CDC6CBCD0D0A0000004D
:103560007C000020E80C0020900000208C0000204F
:10357000C3FCC1EE3A25730D0A00000000000020D4
:103580004C45444F4E000000100000200400002075
:103590004C45444F4646000008000020140000201F
:1035A0000C000020CEB4D6AAD6B8C1EE0D0A000099
:1035B00094000020A0180020D0E8D2AAC1ACBDD34E
:1035C000B7FECEF1C6F70D0A00000000000800406B
:1035D0000004004068000020E8040020BDA8C1A24B
:1035E000544350C1ACBDD3B3C9B9A60D0A00000005
:1035F00000BF0E4A128802F04002002AF9D00121D1
:103600000CE04A1C825C094B1B1D1A8000BF074A54
:10361000128802F04002002AF9D0491C437802784F
:1036200003EB02228A42ECDA7047000000480040B7
:103630000FB438B505A800901248009A0499FFF716
:103640008FF8002000900F48FCF7C6FD054600BF2C
:103650000D48008800F040000028F9D000240CE05C
:103660000848005D0849091D088000BF0648008819
:1036700000F040000028F9D0641CAC42F0D338BC04
:103680005DF814FBE8080020004800404C45444F1A
:10369000464600004448544F464600004C45444FBF
:1036A0004E0000004448544F4E000000CC36000845
:1036B00000000020E400000084270008B037000864
:1036C000E4000020C4240000942700089C36000871
:1036D0008C360008A4360008943600088C360008A2
:1036E00000000000040000000400000008000000CA
:1036F000004000000000020000000400000801403B
:1037000000080140000C0140000204000004000019
:103710000008014000080140000C014000040800BE
:10372000000800000038014000440040004800400C
:103730002526270000000000000000000000000017
:103740000000000000000000000000000000000079
:103750000000000000000000000000000000000069
:103760000000000000000000000000000000000059
:103770000000000000000000000000000000000049
:103780000000000000A24A04000000000000000049
:1037900001020304060708090000000001020304F7
:1037A00001020304060708090204060800000000DD
:0400000508000149A5
:00000001FF
