:020000040800F2
:100000000828002079020008BB2F00084D240008B2
:10001000B92F00084521000829440008000000000D
:10002000000000000000000000000000213A00086D
:10003000B52100080000000041300008493B0008DD
:10004000930200089302000893020008930200083C
:10005000930200089302000893020008930200082C
:10006000930200089302000893020008930200081C
:10007000930200089302000893020008930200080C
:1000800093020008930200089302000893020008FC
:1000900093020008930200089302000893020008EC
:1000A00093020008930200089302000893020008DC
:1000B0009302000893020008AD3B00089302000879
:1000C00093020008930200089302000893020008BC
:1000D0009302000893020008930200085D410008A3
:1000E000930200089302000893020008930200089C
:1000F000930200089302000893020008930200088C
:10010000930200089302000893020008930200087B
:100110009302000893020008A93D0008930200081A
:10012000930200089302000893020008930200085B
:1001300000F002F800F090F80AA090E8000C824469
:100140008344AAF10107DA4501D100F085F8AFF246
:10015000090EBAE80F0013F0010F18BFFB1A43F0A5
:10016000010318470C6D00002C6D0000103A24BFED
:1001700078C878C1FAD8520724BF30C830C144BF0C
:1001800004680C607047000000230024002500264E
:10019000103A28BF78C1FBD8520728BF30C148BFEA
:1001A0000B6070476E2900F0ED83702900F04585E3
:1001B000662906F0DF83652906F0DC83672906F0EF
:1001C000D9836129AFF3008003681B0A28BF41F07F
:1001D0008001692900F0C280642900F0BF80752980
:1001E00000F0BC806F2900F0D384782900F01185DD
:1001F000E92900F06D84E42900F06A84F52900F013
:100200006784EF2900F0D084F82900F01085036896
:10021000DB0928BF41F08001632900F0EE837329D8
:1002200000F0F383E32900F0AE87F32900F0B387F1
:10023000002070471FB501F0BBF904000020002129
:1002400006F082FB401C60600020002106F066FB87
:10025000E0601FBD10B510BD01F07CF91146FFF73D
:10026000E9FF04F0A3F901F055FA03B4FFF7F2FF38
:1002700003BC01F099FA000009488047094800478B
:10028000FEE7FEE7FEE7FEE7FEE7FEE7FEE7FEE746
:10029000FEE7FEE704480549054A064B70470000A3
:1002A0004D3B0008310100080822002008280020EA
:1002B00008240020082400201CB50C46064B7B4473
:1002C00069460090204600F076FB0446002069460F
:1002D00000F084FB20461CBD1B0700000FB41CB5BA
:1002E000084B06AA7B4469460090059800F063FB22
:1002F00004460020694600F071FB20461CBC5DF8F6
:1003000014FB0000F506000070B50C460546012AF6
:1003100005D02878800600D5EA69002302E0012391
:1003200005E05B1C934202D2E05C0028F9D1A86989
:10033000E618C01AA861286A18442862284600F006
:100340008FFA04E0D5E9012114F8010B9047B4427B
:10035000F8D3284600F09AFA70BD00002DE9F0416C
:100360000646002410687529314616A510D000F005
:100370009EFA002802DA404213A507E031688A0796
:1003800001D512A502E0490704D511A5012401E019
:1003900000F096FA00210A2206F1240709E0B0FBDA
:1003A000F2FCB0FBF2F302FB1C003030785418462C
:1003B000491C0028F3D123462A463046BDE8F041C7
:1003C00000F087BA000000002D0000002B000000A4
:1003D000200000002DE9F05F894604464FF0000A36
:1003E000DFF874B1FB44C0F820A02046E1688847DC
:1003F000002874D0252806D0D4E901219047206A2E
:10040000401C2062F1E700265F462046E1688847ED
:100410002028054607DB312D05D2781910F8200C6D
:1004200008B10643F1E7B00701D526F00406C4F889
:100430001CA00027C4F818A02A2D09D0284604F0D3
:10044000ADF838B304EB8708303DC8F8185019E010
:1004500059F8041B204604EB87029161E168884744
:10046000012F054618D1E069002820DA26F0200681
:100470001DE0D8F8180000EB800005EB4000303894
:10048000C8F818002046E1688847054604F086F859
:100490000028EED1012F0AD02E2D08D12046E16888
:1004A00088477F1C0546022F46F02006C4DBA06962
:1004B000002803DA404246F00106A061F00701D0AF
:1004C00026F010066C2D0BD0682D09D04C2D39D09C
:1004D0006A2D35D0742D35D07A2D33D016E038E022
:1004E000E1682F4620468847B842054609D16C2F5F
:1004F00026D04FF48060E1680643204688470546D1
:1005000004E06C2F1AD04FF4807006430DB3A5F1B0
:100510004100192802D8203546F400664A4629468B
:10052000204626604E46FFF73DFE80B101280BD0E5
:10053000F61D26F0070000F1080956E74020E4E721
:100540008020D8E70020D6E706F104094DE72846C9
:1005500052E7206ABDE8F09FD06500000FB400B5F7
:100560008DB010A9099000910B904FF0FF300A90C8
:1005700000200C90064878440690064878446A4665
:1005800007900F9909A800F069FB0DB05DF814FB06
:10059000030700001B0700002DE9FF5F4FF0000874
:1005A0009946144646469169D2E901A7DDF838B06C
:1005B00001988847054659EA0B0005D009E0A16972
:1005C0000198761C88470546216A284688470028F6
:1005D000F5D1681C03D05FEACA7005D015E04FF072
:1005E000FF3004B0BDE8F09F2068011D2160D0F805
:1005F00000800AE05FEACA7001D108F8015BA169D6
:10060000761C01987F1E88470546002F1ADD681C5E
:1006100018D0B9F1000F0DD0E81705EBD0604211EA
:1006200020F01F0059F822102A1A012090400142A0
:10063000E0D107E0BBF1000FDCD12846216A8847F2
:100640000028D7D0E16901988847BBF1000F07D196
:10065000002E05DD5FEACA7002D1002188F8001083
:10066000A068B84203DDBBF1000F03D017B16FF0F3
:100670000100B6E73046B4E730B505460B462A46DA
:1006800013F8014B12F8010B08B1A042F8D01CB1CD
:10069000002802D06D1CF1E7284630BD10B5431C80
:1006A00002E010F8011B71B18107FAD14FF001325D
:1006B00002C88C1A8C4314EAC211F9D0C01A0A0677
:1006C00003D0C01E10BDC01A10BD0A0401D0801E88
:1006D00010BD0902FCD0401E10BD032A40F230803C
:1006E00010F0030C00F0158011F8013BBCF1020F73
:1006F000624498BF11F801CB00F8013B38BF11F8F4
:10070000013BA2F1040298BF00F801CB38BF00F80A
:10071000013B11F0030300F02580083AC0F0088087
:1007200051F8043B083A51F804CBA0E80810F5E76B
:10073000121D5CBF51F8043B40F8043BAFF300804E
:10074000D20724BF11F8013B11F801CB48BF11F8C3
:10075000012B24BF00F8013B00F801CB48BF00F893
:10076000012B704710B5203AC0F00B80B1E818504B
:10077000203AA0E81850B1E81850A0E81850BFF48B
:10078000F5AF5FEA027C24BFB1E81850A0E818502A
:1007900044BF18C918C0BDE810405FEA827C24BF7E
:1007A00051F8043B40F8043B08BF7047D20728BF0C
:1007B00031F8023B48BF11F8012B28BF20F8023B5B
:1007C00048BF00F8012B70474FF000020429C0F029
:1007D000128010F0030C00F01B80CCF1040CBCF173
:1007E000020F18BF00F8012BA8BF20F8022BA1EBC5
:1007F0000C0100F00DB85FEAC17C24BF00F8012BAA
:1008000000F8012B48BF00F8012B70474FF00002A1
:1008100000B5134694469646203922BFA0E80C50F6
:10082000A0E80C50B1F12001BFF4F7AF090728BFD1
:10083000A0E80C5048BF0CC05DF804EB890028BF4D
:1008400040F8042B08BF704748BF20F8022B11F076
:10085000804F18BF00F8012B7047704770477047F2
:1008600070B5044685690068C10601D5302600E0F0
:100870002026C00707D070BDD4E90121304690473B
:10088000206A401C20626D1EF6D570BD70B504460E
:1008900085690078C00707D170BDD4E90121202007
:1008A0009047206A401C20626D1EF6D570BD096815
:1008B0004A0501D540B27047C905FCD500B2704762
:1008C00009684A0501D5C0B27047C905FCD580B298
:1008D00070472DE9F0470D4699469246044600F1CF
:1008E00024080168880604D5E06921F01001216020
:1008F00000E00120A84201DD471B00E00027A169BC
:100900007A1902EB0900081AA0612078C00602D407
:100910002046FFF7A5FF002608E0D4E901211AF8D8
:1009200006009047206A401C761C20624E45F4DB8E
:100930002078C0060AD52046FFF792FF06E0D4E9EA
:10094000012130209047206A401C2062381EA7F108
:100950000107F4DC07E0D4E9012118F8050090470D
:10096000206A401C2062281EA5F10105F3DC204608
:10097000FFF78CFF2078000602D50220BDE8F08743
:100980000120FBE711680268006A530501D5087071
:100990000AE0D30501D5088006E0130603D5C21787
:1009A000C1E9000200E008600120704701694A1CAB
:1009B00002610878704700B58FB0CDE901310021A0
:1009C000059105497944CDE9031011466846FFF7C2
:1009D00001FD0FB000BD0000E5FFFFFF0A6802F84F
:1009E000010B0A60704710B5436913B1AFF3008083
:1009F00001E0FFF789FC012010BD127800F124010D
:100A00000A7000224A700122EDE711684FF0FF32B0
:100A1000E9E700002DE9FF5F15468A460446DFF846
:100A2000AC80F8440027D8E900103E46CDE900101C
:100A300010E03AF816106A4602A800F06BFD411C5F
:100A400007D02178890603D5E269391891420DD87B
:100A50000744761C2078800602D5E069B84205DD9F
:100A6000AE42E6DB3AF816000028E2D1A069C01BCE
:100A7000A0612046FFF7F4FED8E90010CDE9001090
:100A8000002017E03AF818106A4602A800F042FD6C
:100A9000B0F1FF3F81460BD000250DF1080B05E0BA
:100AA000D4E901211BF8050090476D1C4D45F7D393
:100AB00008F10100B0428046E4DB206A384420623D
:100AC0002046FFF7E3FEBDE8FF9F0000A65F0000A1
:100AD0002DE9F0418046D21D22F007020025D2E91F
:100AE0000002F52915A614D0011E72F1000106DAE4
:100AF0000023D0EB030063EB020211A608E0D8F854
:100B000000108B0701D50FA602E0490701D50EA6FC
:100B100001251146002408F1240704E000F0CEF876
:100B200030323A55641C50EA0102F7D12B46324666
:100B300021464046BDE8F041FFF7CBBE0000000073
:100B40002D0000002B0000002000000030B4002128
:100B500000F1240408E002F00705D208303542EA2B
:100B60004372DB086554491C52EA0305F3D104685B
:100B7000002310A2250708D504F020040C4304D05C
:100B8000C46901230CA2641EC46130BCFFF7A1BE7E
:100B900010B5044621461068FFF792FE0246204633
:100BA000BDE810400023D1E7D21D22F00701D1E9B2
:100BB0000023CBE70000000030000000F0B40D4639
:100BC0000188090502D5214C7C4402E01F4C7C447D
:100BD0000E34002100F1240608E002F00F0712098C
:100BE000E75D42EA03721B097754491C52EA030786
:100BF000F3D102780023120704D5702D06D009B175
:100C0000022311342246F0BCFFF763BE01231034E7
:100C1000F8E770B504460D4621461068FFF750FE10
:100C2000024629462046BDE870400023C6E7D21D93
:100C300022F00703D3E90023C0E70368126843F0FA
:100C4000200303600823C3610023B7E7085E0000A8
:100C5000026811441378016018467047D160054955
:100C600079445161044979441162002111611146AE
:100C700000F096BAEDFFFFFFDD000000426842B1D0
:100C8000016811F8013B23B1521EC0E90012184659
:100C900070470121C160881E704742685AB1C3681D
:100CA000016843B983688B4205D0491E521CC0E9D4
:100CB0000012002070474FF0FF30704730B5B0F1A0
:100CC0000A024FEA900E71F100034EEA817EB0EB0A
:100CD0000E0061EB91014FEA101E4EEA017E10EB0F
:100CE0000E0041EB11114FEA102E4EEA016E10EB8F
:100CF0000E0041EB11214FEA104E4EEA014E10EB6F
:100D00000E0041EB1141401841F100014FEAD000C3
:100D100040EA41704FEAD10110EB80054FEA8104AF
:100D200044EA907444EB01046D1944EB0404521B33
:100D3000A3414FF0000348BF0A3200D530BD401C2C
:100D400041F1000130BD10B5044600F029FC0068F7
:100D5000005D00F0010010BD70472DE9FF4F0C460B
:100D60001E464FF0FF378BB0D2E90001DDF86080FE
:100D70000A908A46C1F30A5505B93D460021084646
:100D80004FF00000BAF1000F00F4400005DA00EB6C
:100D900080004FF4400101EA50004FEA9059B9F148
:100DA000010F00DDB9460A9850EA4A000ED044F619
:100DB0001050A5F2FF3545432F14B8F1000F1ED097
:100DC0007542291E1EDDC9F100021CE0B8F1010FB9
:100DD0004FF0000001D0302103E0F24305E0215440
:100DE000401CB042FBDB30460022002121540B990D
:100DF000C1F80880C1E900200FB0BDE8F08FBD1B2D
:100E00006D1CDEE74A4600DA694206A800F014FCD1
:100E100006AB93E8070003AB83E8070050460A9946
:100E200000F0C9FC8DE80700A0F500501F380090C5
:100E30000398002D09DD42F21F014A46084403A928
:100E40000390684600F028FF08E0A0F500504A46ED
:100E50001F3803A90390684600F032FF8DE80700B1
:100E60000004000C03D04FF0FF30410800E01046B2
:100E7000B8F1000F03D00022009215461EE0751E47
:100E800005D4FFF71BFF303262556D1EF9D5B3460E
:100E90000122084302D000227F1C04E02078302881
:100EA00001D100227F1E002A099786D01DE0112D56
:100EB00007DAFFF703FF303262556D1C50EA01027A
:100EC000F5D1084302D00098C8B10EE00021681E99
:100ED00005E0235C625C63542254401E491C81423D
:100EE000F7DBAB46A81B401E0990002004F80B005E
:100EF0000B98099AC0F80880C0E9002B7CE71126FE
:100F00004FF0000859E72DE9F04F88460446D21DFE
:100F100022F0070191B0D1E90001CDE90A0103F007
:100F200029FB02460B98C00F01D02D2007E0206856
:100F3000810701D52B2002E0202101EAC000032A0D
:100F4000099001D0072A05DB03464146204600F000
:100F500033FB0BE12078800601D5E06900E0062034
:100F6000B8F1650F814606D0B8F1660F18D0B8F118
:100F7000670F70D131E00020B9F1110F009001DB53
:100F8000112301E009F101030AAA01A90CA8FFF746
:100F9000E4FEDDE90C70002609F10105834647E017
:100FA00001204B4600904FF000470AAA01A90CA867
:100FB000FFF7D3FEDDE90DB00C995D46002610B9B0
:100FC00009F101000D18B9EB050003D4C0F1FF369B
:100FD00009F10105A5EB09002BE0B9F1010F01DAD8
:100FE0004FF001090020B9F1110F0090484601DDD2
:100FF000112300E003460AAA01A90CA8FFF7ADFEE1
:10100000DDE90C704D4600268346207800070AD49F
:10101000AB4500DA5D4601A8012D04DD411911F848
:10102000011C302907D04F4502DA17F1040F04DA0A
:10103000012082460FE06D1EEEE7002F02DCED1B63
:101040003E4403E0781CA84200DD7D1CB81B00F183
:10105000010A4FF000472078000703D4AA4501DBBE
:101060004FF0FF3A0021B7F1004F0DF143088DF822
:10107000431024D002202B23002F01DA7F422D239E
:101080000A21021EA0F1010000DC5FB197FBF1FC18
:1010900097FBF1F201FB1C7C17460CF1300C08F8B1
:1010A00001CDEEE7A8F1010003702188090501D503
:1010B000452100E06521A0F1010800F8011C099814
:1010C0000FA9A1EB0807FF1D00B10120411901EB99
:1010D000EA70A1693844081A401EA0612078C00651
:1010E00002D42046FFF7BCFB099828B1D4E90121BE
:1010F0009047206A401C20622078C00622D52046F6
:10110000FFF7AEFB1EE0002E04DBB34502DD01A8B5
:10111000805D00E03020D4E901219047206A401C26
:101120002062761CAAF101005FEA000A0AD100F0F1
:101130003FFAC0680168405CD4E901219047206A09
:10114000401C2062281EA5F10105DCDC07E0D4E983
:10115000012118F8010B9047206A401C2062381EBC
:10116000A7F10107F3DC2046FFF790FB032011B045
:1011700043E610B5436913B1AFF3008001E0FFF718
:1011800049FC012010BD128800F124018284002254
:10119000C2840122EDE711684FF0FF32E9E7000059
:1011A0002DE9F34F4FF0000A0C4656468DB0012052
:1011B0000C9001F10C000B9062690B980121904793
:1011C00005002DD0252D2CD0216A8847C0B1626939
:1011D0000B9801219047216A88470028F7D162695E
:1011E000411E0B98904700E0761CA1690D98884736
:1011F000216A88470028F7D1E1690D988847DBE725
:10120000A1690D988847A842074601D1761CD3E70B
:10121000E1690D9888477F1C02D1BAF1000F6FD0A9
:101220006BE162690B9800273D46394690472A28B2
:1012300004D162690B98012190470125DFF8D08223
:1012400062690B9801219047A0F130010A290AD266
:101250004745E5DC07EB870100EB4107303FDFD472
:1012600045F01005ECE7E90601D46FF000476C2863
:101270000AD04C2814D0682815D06A280DD07428BC
:101280001CD07A281AD01DE062690B980121904782
:101290006C2802D045F0040514E045F002050DE08D
:1012A00045F020050AE062690B9801219047682803
:1012B00002D045F0080505E045F4006562690B9829
:1012C00001219047C4E9015765283DD019DC582811
:1012D0007AD00CDC452837D004DC252826D04128DC
:1012E0009ED131E046282FD0472899D12CE05B28A9
:1012F00077D0612828D063287CD0642823D15AE095
:10130000F6E06F2848D008DC66281DD067281BD07F
:10131000692821D06E2816D127E0702845D073287F
:1013200068D0752847D078280DD14DE0A1690D9877
:101330008847252805463FF469AFE1690D9888473D
:101340006D1C3FF46AAFD8E00D9923466A466FF0F2
:101350000100AFF30080C5E045F0400023464FF0A8
:1013600000026060A80736D43EE0E8077FF447AF8C
:101370002068011D21600068290501D506701BE762
:10138000290701D5068017E7A90703D5F117C0E99A
:10139000006111E706600FE745F0400023464FF07B
:1013A00008026060A80716D41EE040F60E0125EA88
:1013B0000100606016E045F0400023464FF00A024D
:1013C0006060A80707D40FE045F040006060A80700
:1013D00008D5234610220D996FF00100AFF300806D
:1013E00080E007E0102223460D996FF00100AFF373
:1013F000008077E04FF0000963284F46C8464B460F
:10140000CB4602D05B2806D038E0E80601D40120A4
:10141000A060012732E06269D4F80CB00B9801217A
:1014200090475E2807D14FF0010949466269D4F818
:101430000CB00B989047216939B900210A4603ABDB
:1014400043F82120491C0829FADBD8B3216949B3A4
:1014500008F1010862690B98012190475D28F4D1D9
:10146000B9F1000F09D0002003A951F82020D24380
:1014700041F82020401C0828F7DB03AB2069002836
:1014800020794FEA40701ED05B462246CDF800809E
:10149000CDE901970D9900286FF0010020DAAFF334
:1014A00000801FE0C11703AA00EBD1614B1121F0AE
:1014B0001F0102EB8302411A136801208840034395
:1014C0001360C7E719E00D99224600286FF001006C
:1014D000009702DAAFF3008004E0FFF75DF801E067
:1014E000AFF3008000280ADA401C06D10C9820B126
:1014F0004FF0FF300FB0BDE8F08F5046FAE7E90734
:1015000001D10AF1010A064400200C9054E60000C3
:10151000CCCCCC0C70B516460C46054600F040F815
:10152000036893F80101012806D0FF2C0FD8185D3D
:1015300068B101202C7070BDD3F8070132462146F6
:1015400003F2071303442846BDE8704018474FF0E4
:10155000FF3070BD754600F0E3F8AE460500694601
:10156000534620F00700854618B020B5FEF792FEDE
:10157000BDE820404FF000064FF000074FF0000894
:101580004FF0000B21F00701AC46ACE8C009ACE815
:10159000C009ACE8C009ACE8C0098D46704700003E
:1015A00010B500F005F8001D10BD00BF9D530000F0
:1015B00000487047C82100202DE9F0411F4604462D
:1015C00003260168072A01F4006004DB08B116A5B0
:1015D00005E016A503E008B115A500E015A521F06A
:1015E00010002060A069C01EA0610FB1401EA06164
:1015F0002046FFF735F94FB1D4E90121384690472D
:10160000206A401C2062C01C206206E0206AFAE7C3
:10161000D4E9012115F8010B9047761EF8D2204637
:10162000FFF734F9BDE8F0814E414E006E616E0067
:10163000494E4600696E66002DE9F0478146164620
:101640008AB0334878440DC88DE80D00304878449E
:10165000801C03AC0DC884E80D0041F69B300844A3
:10166000372190FBF1F290FBF1F5A5F1800501FB2C
:1016700012041B3C02D56442012000E00020DFF888
:1016800090A080460027FA44AAF1BE0A0DE0E007C8
:1016900009D03246684607EB47010AEB810100F0AA
:1016A0000FFB8DE8070064107F1C002CEFD1184F52
:1016B0007F44AC3F18E0E80714D007EB04100DF1AD
:1016C000180A90E80E008AE80E00C068F04201D1C6
:1016D00098190890324606A903A800F0F1FA03AB66
:1016E00083E807006D10641C002DE4D13246694682
:1016F000B8F1000F03A802D000F0CEFA01E000F02C
:10170000DFFAC9E90001C9F808200AB0BDE8F0878E
:10171000305400000446AFF300802046FEF7A5FDDC
:1017200000487047A82100204FF0013C50F8042BDE
:1017300051F8043B9A4221D1A2EB0C03934313EAE4
:10174000CC1317D150F8042B51F8043B9A4215D111
:10175000A2EB0C03934313EACC130BD150F8042BE8
:1017600051F8043B9A4209D1A2EB0C03934313EACC
:10177000CC13DBD04FF00000704700BFD01A01BA85
:10178000B1FA81F101F0180122FA01F0CB40C1F168
:101790002001DBB2C0B2C01A2CFA01F3D11A914376
:1017A00011EAC311E6D1704701491820ABBEFEE72C
:1017B0002600020070475FEA400C08BF91F0000F5E
:1017C0004FEA8C234FEAC12243EA51514FEA1C50A1
:1017D00018BF00F5F0404FEA300018BF41F000415B
:1017E0005FEA6C5C00F02980BCF1FF3F08BF40F06D
:1017F00080407047130C06BF12044FF0100C4FF0DE
:10180000000C130E04BF12020CF1080C130F04BFDE
:1018100012010CF1040C930F04BF92000CF1020CA6
:10182000D30F04BF52000CF1010C11464FF000021F
:10183000A0F11F00A0EB0C00704711F0004F08BF93
:10184000704731F000413FF4D5AF0B0C06BF0904DF
:101850004FF0100C4FF0000C0B0E04BF09020CF1FE
:10186000080C0B0F04BF09010CF1040C8B0F04BF13
:1018700089000CF1020CCB0F04BF49000CF1010CE4
:10188000CCF12003A0EB0C0022FA03F302FA0CF2D5
:1018900041EA030100F10100704720F07F4C80EA2B
:1018A000030023F07F47ACEB070303F57C5300F004
:1018B000004003F1FF032DE980494FEA154B09B4BD
:1018C0004FEA144325EA0B4E24EA03480FF204269C
:1018D00006EB132749083E785FEA320203FB0667EE
:1018E000C7F5000707FB06F64FEA54374FEAD6461E
:1018F00006F1020607FB066CCCF1005C4FEA1C47C0
:101900002CEA074C07FB06F40CFB06F504EB154626
:101910004FEA961634BF00204FF000404FEAD1370F
:1019200006FB07FC4FEA1C4C0CFB0BF7D21B03FB1E
:101930000CF761EB07010CFB0EF7B0EB074072EB05
:1019400017420CFB08F734BFA2EB0742B2EB074289
:1019500061EB17414FEA0C444FEA910706FB07FC85
:101960004FEA1C4C0CFB0BF7B0EBC74072EB573245
:1019700003FB0CF734BFA2EBC742B2EBC74261EBEB
:1019800057310CFB0EF7B0EBC70072EB57720CFB34
:1019900008F734BFA2EBC702B2EBC70261EB577185
:1019A000039F4FEA816141EA921104EBCC044FEAB4
:1019B000D1374FEA826206FB07FC42EA90124FEAF7
:1019C00080604FEA1C4C0CFB0BF7D21B03FB0CF79F
:1019D00061EB07010CFB0EF7B0EB074072EB17420F
:1019E0000CFB08F734BFA2EB0742B2EB074261EBF6
:1019F00017414FEA8C554FEA910704EB9C2406FBF4
:101A000007FC4FEA1C4C0CFB0BF7B0EBC74072EB2A
:101A1000573203FB0CF734BFA2EBC742B2EBC7420D
:101A200061EB57310CFB0EF7B0EBC70072EB57724E
:101A30000CFB08F734BFA2EBC702B2EBC70261EBA5
:101A4000577115EB4C254FEA816141EA92114FEA3B
:101A500082624FEAD13742EA901206FB07FC44F15A
:101A600000044FEA80604FEA1C4C0CFB0BF7D21BC2
:101A700003FB0CF761EB07010CFB0EF7B0EB074023
:101A800072EB17420CFB08F734BFA2EB0742B2EB34
:101A9000074261EB174115EB1C154FEA813141EA12
:101AA00092414FEA823242EA90424FEA80304FEA56
:101AB0000C7644F1000448EA03434EEA0B484FF029
:101AC000000EB2EB080C71EB030724BF62463946E7
:101AD0004EEB0E0E4FF0000B0018524149414BEBFC
:101AE0000B0BB2EB080C71EB03077BF1000B24BF6F
:101AF000624639464EEB0E0E4FF0000B0018524175
:101B000049414BEB0B0BB2EB080C71EB03077BF17C
:101B1000000B24BF624639464EEB0E0E51EA020717
:101B200018BF46F0010616EB0E7655F1000254F18F
:101B3000000103D5BDE88901BDE80088BDE8890141
:101B4000BDE80048B619524141EB0101A3F1010380
:101B5000704780807F7E7D7C7B7A7978777676751A
:101B60007473727171706F6E6E6D6C6C6B6A6A6992
:101B70006868676666656464636362616160605F2C
:101B80005F5E5E5D5D5C5C5B5B5A5A5959585857A5
:101B9000575656555555545453535252525151500D
:101BA00050504F4F4F4E4E4D4D4D4C4C4C4B4B4B60
:101BB0004A4A4A49494948484847474747464646A6
:101BC00045454544444444434343434242424241E1
:101BD0004141002B26D4770021D01CB54FEA3707AE
:101BE00003B44FF010004FF010014FF000000FBC95
:101BF000BDE810400BF1010BBBF1010F08BF5FEA1C
:101C0000170722BF12F1010211F101014FF000414B
:101C100043F1000300F0004043EA00007047F9D3AD
:101C20005708DAE746EA064613F1400F4FEA164630
:101C30001FDD13F1200FDFBF16430A4600212033BA
:101C40005B42C8D0C3F1200746EA064602FA07F70E
:101C50004FEA164646EA0706C3F1200722FA03F2C6
:101C600001FA07F721FA03F14FF0000342EA0702F5
:101C7000B1E746EA020646EA06464FEA164646EA53
:101C80000106BCBF46EA0646360C4FF000034FF093
:101C900000024FF000019EE72DE9C048934630B4A2
:101CA00091E8380007C831EA400C48BF34EA430CD9
:101CB00003D5FFF7F2FDFFF78CFFF0BCBDE800880D
:101CC0002DE9C048934630B491E8380007C810F0B9
:101CD000804F08BF13F0804F03D100F005F8FFF7E5
:101CE00078FFF0BCBDE8008820F07F4780EA030061
:101CF00023F07F4C07EB0C03A3F57C5300F000406E
:101D0000A3F1FE0392F0000F00F0B38095F0000FF6
:101D100000F077802DE901494FEA11404FEA14465F
:101D200021EA004800FB06FC24EA064708FB06F609
:101D300007FB08F800FB07F718EB06484CEB164CBE
:101D40004FEA124B18EB07484FEA15464CEB174089
:101D500022EA0B4E0BFB06FC25EA06470EFB06F6B5
:101D600007FB0EFE0BFB07F71EEB064E4CEB164C6B
:101D70004FF000061EEB074E4CEB174B18EB0B0811
:101D800040F1000018EB0E0B58EB000840F100008A
:101D90008F1A4FF000013CBFC943661B14BFB5EB5F
:101DA000040C00213CBFC943F61B4FEA17444EEA1E
:101DB0008E0E27EA04454FEA1C4704FB07622CEA13
:101DC000074C05FB07F70CFB05F604FB0CFC16EBB8
:101DD000074642EB174216EB0C4642EB1C421BEB4C
:101DE000060658EB0202414146EA9E0601D5BDE8CF
:101DF0000189B619524141EB0101A3F10103BDE88C
:101E000001894FEA14454FEA114724EA054621EAC1
:101E1000074C05FB07F406FB07F70CFB06F105FB77
:101E20000CFC11EB074144EB17444FEA124711EB4E
:101E30000C4144EB1C4422EA074C05FB07F206FB6D
:101E400007F70CFB06F605FB0CFC16EB074642EB0E
:101E5000174216EB0C4642EB1C456A1854F1000180
:101E600048BF7047B619524141EB0101A3F101038C
:101E7000704795F0000F37D04FEA11424FEA1447F0
:101E800021EA024624EA074C02FB07F106FB07F7AA
:101E90000CFB06F402FB0CFC14EB074441EB17416E
:101EA0004FEA154714EB0C4441EB1C4125EA074C63
:101EB00002FB07F506FB07F70CFB06F602FB0CFC22
:101EC00016EB074645EB174516EB0C4645EB1C4257
:101ED000121951F1000148BF7047B619524141EB48
:101EE0000101A3F1010370474FEA14454FEA11477E
:101EF00024EA054621EA074C05FB07F106FB07F734
:101F00000CFB06F24FF0000605FB0CFC12EB07423F
:101F100041EB174112EB0C4251EB1C4148BF70479B
:101F2000921841EB0101A3F10103704770B504461B
:101F3000002500F07FFBA02000F04AFB00F0BAFB78
:101F4000204600F045FB00F0B5FB00F073FBA1203C
:101F500000F03EFB00F0AEFB002000F0BBFA0546AF
:101F600000F088FB052000F02DF9284670BD000028
:101F700010B5A2B080212D48FEF726FC2CA22EA180
:101F80002A48FEF7ABF92948FEF788FB3449086078
:101F900080213448FEF718FC33A325A235A131482F
:101FA000FEF79CF92F48FEF779FB34490860802141
:101FB00002A8FEF72BFC2CA01DA31DA230A10090AF
:101FC00002A8FEF78BF902A8FEF768FB0446202062
:101FD00034A33D4A2146009002A802F0CDFE3A48C3
:101FE000FEF75CFB3949086080213948FEF7ECFBBD
:101FF0001DA238A13648FEF771F940F25B703F49E7
:1020000008600846324902683DA002F02DFE0749EB
:1020100040A002F029FE134942A002F025FE2A4901
:1020200044A002F021FE22B010BD0000781600206E
:10203000443030310000000025737C736563757295
:10204000656D6F64653D322C7369676E6D6574688C
:102050006F643D686D6163736861317C00000000EE
:1020600024000020F8160020613179543259793764
:102070004B4A5400257326257300000028000020D9
:10208000636C69656E74496425736465766963651C
:102090004E616D65257370726F647563744B6579FD
:1020A00025730000376D6736536551314E32514705
:1020B00065694A3167674446626E764F446171676D
:1020C0006257303600000000781700202C000020F6
:1020D000F817002025732E696F742D61732D6D71B3
:1020E00074742E636E2D7368616E676861692E610A
:1020F0006C6979756E63732E636F6D00300000201C
:10210000B7FE20CEF120C6F7A3BA25733A25640D99
:102110000A000000BFCDBBA7B6CB4944A3BA2573C4
:102120000D0A0000D3C320BBA720C3FBA3BA2573AD
:102130000D0A0000C3DC20202020C2EBA3BA2573C7
:102140000D0A00007047000070B505460C46224697
:10215000294615480068801CFEF7BFFA2046E117A3
:1021600004EB1161090A104A12681170E11704EBBF
:1021700011610912A4EB01210B4A12685170002170
:1021800009480268A01C11540748006800F59670C1
:10219000054908600846006804490968884202D178
:1021A00003480149086070BD18000020200000208D
:1021B000180D0020704710B56FF0040001F0A6FC68
:1021C00010BD000010B50146B1F5E16F22D201EB60
:1021D000C1034FF47A7463434FF0E024636100233A
:1021E000A36123461B6943F00103236100BF4FF045
:1021F000E023186900F001031BB100F48033002BC9
:10220000F5D04FF0E0231B6923F001034FF0E024E9
:1022100023614FE000221FE0274B4FF0E024636171
:102220000023A36123461B6943F00103236100BF20
:102230004FF0E023186900F001031BB100F4803374
:10224000002BF5D04FF0E0231B6923F001034FF082
:10225000E0242361531CDAB24FF4E163B1FBF3F3E2
:102260009342D9D84FF4E163B1FBF3F403FB1413A9
:1022700003EBC3034FF47A7463434FF0E0246361CC
:102280000023A36123461B6943F00103236100BFC0
:102290004FF0E023186900F001031BB100F4803314
:1022A000002BF5D04FF0E0231B6923F001034FF022
:1022B000E024236110BD00004031F700014601EB2E
:1022C000C1024FF0E0235A6100229A611A46126956
:1022D00042F001021A6100BF4FF0E022106900F0E5
:1022E00001021AB100F48032002AF5D04FF0E0224A
:1022F000126922F001024FF0E0231A6170472DE9C4
:10230000F04102460025002600200023002400277B
:1023100091F803C00CF00F0591F803C00CF0100CFD
:10232000BCF1000F03D091F802C04CEA050591F80A
:1023300000C0BCF1000F31D0146800202BE04FF03A
:10234000010C0CFA00F3B1F800C00CEA03069E423F
:1023500020D183004FF00F0C0CFA03F7BC4305FAB1
:1023600003FC4CEA040491F803C0BCF1280F06D129
:102370004FF0010C0CFA00FCC2F814C00AE091F80E
:1023800003C0BCF1480F05D14FF0010C0CFA00FC62
:10239000C2F810C0401C0828D1D31460B1F800C0A6
:1023A000BCF1FF0F34DD546800202EE000F1080C72
:1023B0004FF0010808FA0CF3B1F800C00CEA03066C
:1023C0009E4221D183004FF00F0C0CFA03F7BC435F
:1023D00005FA03FC4CEA040491F803C0BCF1280F91
:1023E00005D100F1080C08FA0CF8C2F8148091F835
:1023F00003C0BCF1480F07D100F1080C4FF00108F1
:1024000008FA0CF8C2F81080401C0828CED354609B
:10241000BDE8F0810246002093680B400BB101201B
:1024200000E00020704702460020D3680B400BB14B
:10243000012000E000207047416170470161704752
:102440000AB1016100E041617047000008A002F09C
:102450000BFC00BF0D48006800F4E0600C49084325
:10246000001D0A490860BFF3408F00BF00BFFEE7B0
:10247000B3CCD0F2C5DCB7C9A3ACD7BCB1B8D6D801
:10248000C6F4BFAAB7A2B0E5000000000CED00E062
:102490000000FA0508B50121102000F0F3FD4FF40B
:1024A000C050ADF8000010208DF8030003208DF817
:1024B000020069460648FFF722FF4FF480510448A6
:1024C000FFF7BCFF4FF400610148FFF7B7FF08BDFD
:1024D0000010014070B5054600243C48406820F4D7
:1024E00070403A4948600846406840F400404860FF
:1024F000C814086141003548FFF79EFF1420FFF71C
:10250000DDFE00261EE04FF480513048FFF796FFB5
:102510001420FFF7D3FE6006040E4FF400612B4831
:10252000FFF778FF08B1601CC4B21420FFF7C6FEA5
:102530004FF480512548FFF77FFF1420FFF7BEFEC0
:10254000701CC6B2082EDEDBE5B92048406820F4D6
:1025500070401E4948600846406840F4405048605A
:10256000C9141A48FFF76AFF4FF480511748FFF764
:1025700065FF0220FFF7A2FE4FF480511348FFF7DA
:102580005BFF20E01148406820F470400F4948602C
:102590000846406840F440504860C9140B48FFF7B3
:1025A0004BFF4FF480510948FFF748FF0220FFF727
:1025B00085FE4FF480510548FFF73EFF4FF4006160
:1025C0000248FFF73BFF204670BD000000100140AD
:1025D00070B504461648406820F4704014494860BD
:1025E0000846406840F44050486089141048FFF79E
:1025F00023FF002519E0E2094FF400610C48FFF7C2
:102600001FFF6006040E0220FFF758FE4FF48051B2
:102610000748FFF713FF0220FFF750FE4FF48051E9
:102620000348FFF709FF681CC5B2082DE3DB70BD46
:102630000010014010B50E48406820F470400C496D
:1026400048600846406840F440504860C914084853
:10265000FFF7F4FE4FF480510548FFF7EFFE04202A
:10266000FFF72CFE4FF400610148FFF7E5FE10BDB7
:102670000010014010B50E48406820F470400C492D
:1026800048600846406840F440504860C914084813
:10269000FFF7D2FE4FF480510548FFF7CFFE04202C
:1026A000FFF70CFE4FF400610148FFF7C7FE10BDB5
:1026B0000010014010B500244FF400611848FFF7E6
:1026C000BDFE1748406820F4704015494860084630
:1026D000406840F400404860C81408614100104858
:1026E000FFF7ACFE0AE0601CC4B2FA2C03DDFFF772
:1026F000C1FF012010BD0220FFF7E0FD4FF4006193
:102700000748FFF787FE0028EDD14FF480510448B9
:10271000FFF792FE1420FFF7D1FD0020EAE700004A
:102720000010014010B5CCB002210C48FFF77BFE31
:1027300020B10B4901A8FDF7D1FD03E0094901A82B
:10274000FDF7CCFD01A8FDF7A9FF0446224601A92B
:1027500005A000F06FFB4CB010BD0000000C014064
:10276000C86B0008686D00082F7379732F61317989
:1027700054325979374B4A542F443030312F7468D2
:10278000696E672F6576656E742F70726F706572F3
:1027900074792F706F73740010B5CCB001210C48A0
:1027A000FFF741FE20B10B4901A8FDF797FD03E0BB
:1027B000094901A8FDF792FD01A8FDF76FFF044646
:1027C000224601A905A000F035FB4CB010BD000069
:1027D000000C0140906A0008306C00082F73797378
:1027E0002F61317954325979374B4A542F44303064
:1027F000312F7468696E672F6576656E742F7072FD
:102800006F70657274792F706F73740010B5CCB0EF
:1028100020210C48FFF707FE20B10B4901A8FDF766
:102820005DFD03E0094901A8FDF758FD01A8FDF78A
:1028300035FF0446224601A905A000F0FBFA4CB082
:1028400010BD000000100140F86A0008986C0008F4
:102850002F7379732F61317954325979374B4A5438
:102860002F443030312F7468696E672F6576656E3E
:10287000742F70726F70657274792F706F7374003B
:1028800010B5CCB010210C48FFF7CDFD20B10B499D
:1028900001A8FDF723FD03E0094901A8FDF71EFD8E
:1028A00001A8FDF7FBFE0446224601A905A000F0A1
:1028B000C1FA4CB010BD000000100140606B000870
:1028C000006D00082F7379732F6131795432597973
:1028D000374B4A542F443030312F7468696E672F5C
:1028E0006576656E742F70726F70657274792F7073
:1028F0006F73740010B502210748FFF79FFD012197
:102900000548FFF79BFD20210448FFF797FD1021A4
:102910000248FFF793FD10BD000C0140001001407C
:1029200008B50121082000F0ADFB0121102000F0C6
:10293000A9FB0320ADF800008DF8020010208DF8EF
:10294000030069460948FFF7DAFC3020ADF80000C3
:1029500003208DF8020010208DF80300694604481A
:10296000FFF7CDFCFFF7C6FF08BD0000000C0140DB
:10297000001001402DE9F041CEB002211948FFF7C7
:1029800052FD08B1002400E0012401211548FFF7A1
:102990004AFD08B1002500E0012520211248FFF77B
:1029A00042FD08B1002600E0012610210E48FFF785
:1029B0003AFD08B1002700E001272B4622460B49CB
:1029C00003A8CDE90067FDF789FC03A8FDF766FEC3
:1029D0008046424603A906A000F02CFA4EB0BDE89E
:1029E000F0810000000C014000100140D06D000893
:1029F0002F7379732F61317954325979374B4A5497
:102A00002F443030312F7468696E672F6576656E9C
:102A1000742F70726F70657274792F706F73740099
:102A200010B5164816490860084600681549086040
:102A30001548164908601648164908600846006897
:102A40001549086015481649086016481649086077
:102A5000084600681549086015481649086000F0E6
:102A60004BF8002114A000F05BFA00201F49087009
:102A70001F4908701F49087010BD00006001002048
:102A800000000020040000201006002008000020A4
:102A90003C0700200C00002010000020EC0B002060
:102AA00014000020180D0020180000201C00002039
:102AB0004C150020200000202F7379732F6131798D
:102AC00054325979374B4A542F443030312F74687F
:102AD000696E672F736572766963652F70726F70A8
:102AE000657274792F736574000000004300002044
:102AF000420000204000002070B501207A490860A3
:102B00000A207A4908607A480068001D79490968F6
:102B10000844801C7849096808447849086073486B
:102B200000680968441810207549087000BF2046E5
:102B3000E11704EB5161C911A4EBC115E11704EBD6
:102B40005161CC11002C01DD45F080056C48664ACE
:102B50001268855464480068401C63490860002C72
:102B6000E5DC0021664A60480068115404215E4893
:102B70000068401C11544D215B480068801C1154B2
:102B8000512159480068C01C11545421564800680E
:102B9000001D115454480068401D1154042152482E
:102BA0000068801D1154C2214F480068C01D115497
:102BB00000214D4800680830115464214A480068DB
:102BC000093011544A490868C11700EB1161C1F37B
:102BD00007224B4B444909680A315A544449086852
:102BE000C11700EB11610912A0EB0121CAB23E49E5
:102BF00009680B315A541A463B4909680C31501880
:102C00003B490A683F49FDF768FD3A490868C11722
:102C100000EB1161C1F30722334909680C31344BD1
:102C20001B681944364B5A5432490868C11700EBE7
:102C300011610912A0EB0121CAB22B4909680D31BB
:102C40002B4B1B6819442E4B5A54274909680E31E7
:102C5000274A126811441A46881826490A682A49E0
:102C6000FDF73BFD24490868C11700EB1161C1F372
:102C700007221D4909680E311D4B1B6819441D4B65
:102C80001B6819441E4B5A541B490868C11700EBB6
:102C900011610912A0EB0121CAB2134909680F3171
:102CA000134B1B681944134B1B681944144B5A549B
:102CB0000D49096810310E4A126811440D4A126814
:102CC00011441A4688180C490A681049FDF705FD99
:102CD00005480068054A12681044084A12688118BD
:102CE000074801F009FA70BD3400002038000020C8
:102CF00024000020280000202C0000203C000020A0
:102D00007818002078160020F81600207817002088
:102D10002DE9F04FD1B0804698F8011098F80000E6
:102D200001EB0020509008F1020700208146054683
:102D30000646834601244FF0010A00BF0BF1010B48
:102D400000BF281917F8009009F07F0000FB0A6601
:102D50004FEACA1A641C09F080000028F1D130192A
:102D6000054431195098401A50900124A24600267B
:102D700050980028E2D1594620A001F075FF0020AC
:102D80000546064600BF00BF4C9030E000BF281942
:102D900017F8009009F07F0000FB0A664FEACA1A94
:102DA000641C09F080000028F1D1601C2844395CC3
:102DB0006019385C01EB0020801C4F904F98301A4E
:102DC0004E9029194F9808444D904D98391801A8F4
:102DD0004E9AFDF782FC01A84E99FFF7B5F930191C
:102DE00005440124A24600264C98401C4C904C9867
:102DF0005845CBDB51B0BDE8F08F0000B1BEB4CE7A
:102E0000BDD3CAD5C1CB2564B8F6CDC6CBCDCAFDDE
:102E1000BEDD0D0A0000000010B5C0200449087096
:102E2000002048700221024801F066F910BD000040
:102E3000781800202DE9F0470546884616460120FF
:102E4000334908602846FDF729FC801C3149086099
:102E500031480660084600682F4909684418302048
:102E60002E49087000BF2046E11704EB5161C911DB
:102E7000A4EBC117E11704EB5161CC11002C01DD6B
:102E800047F080072548224A126887542048006886
:102E9000401C1F490860002CE5DC2846FDF7FEFBBE
:102EA000C0F307211D4A1A48006811542846FDF74F
:102EB000F5FBC1B2194A16480068401C1154284657
:102EC000FDF7ECFB8146154A11490968891C501829
:102ED0004A462946FDF701FC2846FDF7DFFB0C4971
:102EE0000968891C08440D4900EB01093246414636
:102EF0004846FDF7F2FB06480068064A126810448F
:102F0000054A12688118054801F0F6F8BDE8F08717
:102F100034000020380000203C00002078180020F9
:102F200070B504460D4602201F4908601F4908601D
:102F30002046FDF7B3FBC01C1D49086082201D49D7
:102F400008701A4800781A490978084419494870E5
:102F5000002088700120C8702046FDF79FFB000A02
:102F6000144908712046FDF799FB12494871204623
:102F7000FDF794FB0646324621460E48801DFDF7BC
:102F8000ACFB2046FDF78AFB801D0A490D5406481C
:102F90000068064A12681044054A126881180548FC
:102FA00001F0AAF870BD00003400002038000020B5
:102FB0003C000020781800207047704770B5002151
:102FC00000230F22C47804B3154C246804F4E06491
:102FD000C4F5E064210AC1F10403CA40447804FA4C
:102FE00003F184781440214309010E4C0678A15561
:102FF000047804F01F050124AC4005786D11AD0084
:1030000005F1E025C5F8004109E0047804F01F054A
:103010000124AC40044D0678761145F8264070BD79
:103020000CED00E000E400E080E100E00249014333
:10303000024A1160704700000000FA050CED00E044
:103040007047000029B1064AD2690243044BDA6195
:1030500004E0034AD2698243014BDA617047000001
:103060000010024029B1064A12690243044B1A615A
:1030700004E0034A12698243014B1A617047000061
:103080000010024029B1064A92690243044B9A613A
:1030900004E0034A92698243014B9A617047000041
:1030A0000010024029B1064AD2680243044BDA609C
:1030B00004E0034AD2688243014BDA6070470000A3
:1030C0000010024030B500210022002400232D4DC5
:1030D0006D6805F00C0121B1042905D0082923D120
:1030E00005E0294D056022E0274D05601FE0254DD4
:1030F0006D6805F47012234D6D6805F48034022567
:1031000005EB92421CB9214D554305600BE01D4D66
:103110006D6805F400351DB11C4D5543056002E096
:10312000194D5543056002E0174D056000BF00BF13
:10313000144D6D6805F0F0010909154D6B5C0568CB
:10314000DD4045600F4D6D6805F4E061090A104DE2
:103150006B5C4568DD4085600A4D6D6805F4605123
:10316000C90A0B4D6B5C4568DD40C560054D6D6857
:1031700005F44041890B074D6B5CC568B5FBF3F561
:10318000056130BD0010024000127A0000093D00C8
:103190004C0000205C00002010B519A001F064FD77
:1031A0003C211DA000F0B4FB20B123A001F05CFD88
:1031B000012010BD24A001F057FD27A001F054FD0F
:1031C0003C212BA000F0A4FB20B130A001F04CFD6D
:1031D0000220EEE732A001F047FD36A001F044FDE9
:1031E0003C213BA000F094FB20B13DA001F03CFD50
:1031F0000320DEE73FA001F037FD0020D9E7000003
:10320000B5C8B4FDBCA4BBEE475052532E2E2E20A1
:103210002E2E2E0D0A00000041542B5341504252D5
:103220003D332C312C22434F4E54595045222C22F1
:103230004750525322000000BCA4BBEE47505253EB
:10324000CAA7B0DC0D0A0000BCA4BBEE4750525325
:10325000B3C9B9A60D0A0000B5C8B4FDC9E8D6C304
:10326000BDD3C8EBB5E32E2E2E202E2E2E0D0A0038
:1032700041542B53415042523D332C312C2241506A
:103280004E222C22434D494F54220000C9E8D6C398
:10329000BDD3C8EBB5E3CAA7B0DC0D0A000000003F
:1032A000C9E8D6C3BDD3C8EBB5E3B3C9B9A60D0A07
:1032B00000000000B5C8B4FDB4F2BFAA4750525395
:1032C000CDF8C2E72E2E2E202E2E2E0D0A00000045
:1032D00041542B53415042523D312C3100000000EB
:1032E000B4F2BFAA47505253CDF8C2E7CAA7B0DC28
:1032F0000D0A0000B4F2BFAA47505253CDF8C2E7FE
:10330000B3C9B9A60D0A000010B5044618E00020A4
:10331000124908604FF480611148FDF755FA11A079
:1033200001F0F0FC4FF47A70FEF74CFF10A10C484E
:10333000FDF7A2F900B107E0214610A001F094FCCE
:103340002000A4F10104E2D100BF0DA001F08CFC2B
:10335000002C01DC012010BD0020FCE7480000200B
:10336000A819002041542B43474154543F0D0A00F3
:103370002B43474154543A2031000000256420007B
:103380000D0A000010B5044618E00020124908603C
:103390004FF480611148FDF717FA11A001F0B2FC5B
:1033A0004FF47A70FEF70EFF10A10C48FDF764F998
:1033B00000B107E0214610A001F056FC2000A4F166
:1033C0000104E2D100BF08A001F04EFC002C01DC9A
:1033D000012010BD0020FCE748000020A8190020B3
:1033E00041542B435245473F0D0A00002B435245A1
:1033F000473A20302C3100002564200010B58AB0F7
:10340000044600201A4908604FF480611948FDF70E
:10341000DBF919A001F076FC1BE06420FEF7D2FE78
:1034200018A11448FDF728F978B101A804AB07AA40
:1034300016A100900F48FDF791F819A001F014FCB7
:1034400004A91FA001F010FC07E0214620A001F014
:103450000BFC2000A4F10104DFD100BF1BA001F090
:1034600003FC002C02DC01200AB010BD0020FBE7A9
:1034700048000020A819002041542B4353510D0A45
:10348000000000002B4353513A000000255B5E20F2
:103490005D20255B5E2C5D2C255B5E2C5D000000B5
:1034A000D0C5BAC5C7BFB6C8B7B6CEA7307E333110
:1034B0002C3939B1EDCABECEDED0C5BAC50D0A0071
:1034C000D0C5BAC5C7BFB6C8A3BA25730D0A0000D8
:1034D0002564200010B500F07BF900F09BF908B1DD
:1034E000012010BD36A001F0BFFB1E20FFF74AFFF0
:1034F00020B13AA001F0B8FB0220F2E73EA001F0B3
:10350000B3FB3C20FFF77AFF20B13FA001F0ACFBFA
:103510000320E6E744A001F0A7FB1E20FFF7F4FE1E
:1035200020B148A001F0A0FB0420DAE74DA001F093
:103530009BFB50A001F098FB3C2155A000F0E8F95E
:1035400020B156A001F090FB0520CAE75AA001F077
:103550008BFB5FA001F088FB3C2163A000F0D8F951
:1035600020B165A001F080FB0620BAE769A001F058
:103570007BFBFFF711FE20B16AA001F075FB07206D
:10358000AFE76FA001F070FB3C2174A000F0C0F920
:1035900020B175A001F068FB0820A2E77AA001F035
:1035A00063FB7EA001F060FB1E2000F0EBF920B170
:1035B00081A001F059FB092093E7002091E700006A
:1035C000C7EBB5C8B4FDD7A2B2E1C9CFCDF8C2E709
:1035D0002E2E2E202E2E2E0D0A000000D7A2B2E194
:1035E000CDF8C2E7B3ACCAB1A3ACD7BCB1B8D6D89A
:1035F000C6F40D0A00000000D7A2B2E1C9CFCDF891
:10360000C2E70D0A00000000B2E9D1AFD0C5BAC5CB
:10361000C7BFB6C8B3ACCAB1A3ACD7BCB1B8D6D8D3
:10362000C6F40D0A00000000C7EBB5C8B4FDB8BD74
:10363000D7C5C9CF475052532E2E2E202E2E2E0DD9
:103640000A000000B2E9D1AFB8BDD7C54750525308
:10365000B3ACCAB1A3ACD7BCB1B8D6D8C6F40D0AC6
:1036600000000000B8BDD7C5C9CF475052530D0A5E
:1036700000000000C7EBB5C8B4FDC9E8D6C3B5A5C6
:10368000C1B4BDD32E2E2E202E2E2E0D0A000000EA
:1036900041542B4349504D55583D3000C9E8D6C3DD
:1036A000B5A5C1B4BDD3CAA7B0DCA3ACD7BCB1B873
:1036B000D6D8C6F40D0A0000C9E8D6C3B5A5C1B472
:1036C000BDD3C4A3CABDB3C9B9A60D0A000000008A
:1036D000C7EBB5C8B4FDC9E8D6C3CDB8B4AB2E2E80
:1036E0002E202E2E2E0D0A0041542B4349504D4FB3
:1036F00044453D3100000000C9E8D6C3CDB8B4ABA5
:10370000CAA7B0DCA3ACD7BCB1B8D6D8C6F40D0AF2
:1037100000000000C9E8D6C3CDB8B4ABB3C9B9A6A0
:103720000D0A0000BCA4BBEECDF8C2E7CAA7B0DC0E
:10373000A3ACD7BCB1B8D6D8C6F40D0A00000000BF
:10374000C7EBB5C8B4FDC9E8D6C3BCD3C3DCC1ACB4
:10375000BDD32E2E2E202E2E2E0D0A0041542B438B
:10376000495053534C3D3100C9E8D6C3BCD3C3DCE8
:10377000C1ACBDD3CAA7B0DCA3ACD7BCB1B8D6D856
:10378000C6F40D0A00000000C9E8D6C3BCD3C3DCF0
:10379000C1ACBDD3B3C9B9A60D0A0000C7EBB5C80B
:1037A000B4FDC1ACBDD3C9CFB7FECEF1C6F72E2E46
:1037B0002E202E2E2E0D0A00C1ACBDD3D2ECB3A309
:1037C000A3ACD7BCB1B8D6D8C6F40D0A000000002F
:1037D00008B501211020FFF755FC0120ADF80000CD
:1037E00003208DF8020010208DF803006946084878
:1037F000FEF785FD0220ADF8000003208DF80200E1
:1038000028208DF8030069460148FEF778FD08BDC1
:103810000010014010B502212648FEF7FBFD88B9D3
:1038200025A001F021FA012211462248FEF708FEE8
:1038300040F2DC50FEF7C6FC002201211D48FEF7D5
:10384000FFFD22E024A001F00FFA012211461948E1
:10385000FEF7F6FD40F2DC50FEF7B4FC0022012139
:103860001448FEF7EDFD4FF49660FEF7ABFC012225
:1038700011461048FEF7E4FD40F2DC50FEF7A2FCD2
:10388000002201210B48FEF7DBFD4FF4FA60FEF742
:1038900099FC02210748FEF7BDFD18B116A001F002
:1038A000E3F904E017A001F0DFF9012010BD0020CA
:1038B000FCE70000001001400D0AC4BFC7B0B4A669
:1038C000D3DAB9D8BBFAD7B4CCACA3ACD7BCB1B8B7
:1038D000BFAABBFA0D0A00000D0AC4BFC7B0B4A648
:1038E000D3DABFAABBFAD7B4CCACA3ACD7BCB1B8BF
:1038F000D6D8C6F40D0A0000BFAABBFAB3C9B9A650
:103900000D0A0000BFAABBFACAA7B0DC0D0A00006E
:1039100070B505460C460020134908604FF48061DD
:103920001248FCF751FF294611A001F0EBF90CE019
:103930006420FEF747FC10A10C48FCF79DFE00B187
:1039400007E021460DA001F08FF92000A4F1010449
:10395000EED100BF0AA001F087F9002C01DC0120A4
:1039600070BD0020FCE7000048000020A8190020DE
:1039700025730D0A000000004F4B00002564200055
:103980000D0A000010B504460020154908604FF4E8
:1039900080611448FCF718FF13481449026814A00A
:1039A00001F0B0F90DE04FF47A70FEF70BFC18A1AE
:1039B0000C48FCF761FE00B107E0214616A001F0BB
:1039C00053F92000A4F10104EDD100BF13A001F0D0
:1039D0004BF9002C01DC012010BD0020FCE70000A9
:1039E00048000020A819002030000020F81700200F
:1039F00041542B43495053544152543D2254435057
:103A0000222C222573222C222564220D0A0000007C
:103A1000434F4E4E45435400256420000D0A0000DC
:103A2000704710B500F002F810BD00000CB5002082
:103A3000019000903348006840F4803031490860BC
:103A400000BF3048006800F4003000900198401C2E
:103A50000190009818B90198B0F5A06FF1D12948EC
:103A6000006800F4003010B10120009001E0002057
:103A700000900098012843D12348006840F01000CE
:103A8000214908600846006820F0030008600846E5
:103A9000006840F0020008601A4840681949486010
:103AA0000846406848600846406840F480604860C6
:103AB0000846406820F47C1048600846406840F49E
:103AC000E81048600846006840F08070086000BF59
:103AD0000C48006800F000700028F9D009484068E0
:103AE00020F00300074948600846406840F00200A3
:103AF000486000BF0348406800F00C000828F9D176
:103B00000CBD0000001002400020024010B5044629
:103B1000042C08D14FF0E020006940F004004FF081
:103B2000E021086107E04FF0E020006920F0040088
:103B30004FF0E0210861FEF7ADFC00BFFF20FEF76B
:103B4000F5F95528FAD110BD7047000010B513489B
:103B5000006840F0010011490860084640681049BB
:103B600008400E494860084600680E4908400B4965
:103B700008600846006820F4802008600846406815
:103B800020F4FE0048604FF41F008860FFF749FFF3
:103B90004FF000600449086010BD000000100240B2
:103BA0000000FFF8FFFFF6FE08ED00E010B5012170
:103BB0001D4800F033FA002834D01C481C49026824
:103BC0001C480068801CFCF788FD18480088000A23
:103BD000184909680870154800781649096848703E
:103BE0001448006800F5967012490860084600689D
:103BF00011490968884202D110480E490860002026
:103C00000A49086000210E4800F022FA0021064807
:103C100000F003F90021044800F01AFA01210248DB
:103C200000F0F8F810BD0000000800404800002037
:103C3000A8190020000000200800002060010020DA
:103C4000000400407FB505460C464FF4A060FFF726
:103C5000EDF901210420FFF7F5F9164800F0EAF824
:103C6000ADF80850ADF804400020ADF80600ADF8FE
:103C70000A0001A90F4800F0EDF901210D4800F0FC
:103C8000C9F8012211460B4800F0D9F90021094872
:103C900000F0C3F81E208DF8000000208DF8010010
:103CA00001208DF802008DF803006846FFF786F9C1
:103CB0007FBD0000000800401FB54FF4A060FFF773
:103CC000B5F901211020FFF7BDF9184800F0B2F84E
:103CD00044F61F60ADF8080041F61F40ADF804003F
:103CE0000020ADF80600ADF80A0001A90F4800F069
:103CF000B1F901210D4800F08DF8012211460B4861
:103D000000F09DF90121094800F087F836208DF870
:103D1000000001208DF8010000208DF80200012034
:103D20008DF803006846FFF749F91FBD00100040F9
:103D30001FB54FF4A060FFF779F901211020FFF7BC
:103D400081F9184800F076F84EF65F20ADF80800CB
:103D500048F69F40ADF804000020ADF80600ADF82D
:103D60000A0001A90F4800F075F901210D4800F083
:103D700051F8012211460B4800F061F90121094870
:103D800000F04BF836208DF8000002208DF801007D
:103D900001208DF802008DF803006846FFF70EF948
:103DA0001FBD00000010004010B50121164800F0B2
:103DB00035F938B315480078062819D2DFE800F045
:103DC00003060B0C0D10FFF727F811E0FFF774FF47
:103DD000FFF722F80CE000BF00BFFFF71DF807E077
:103DE00000200B4908700021074800F016F800BFBA
:103DF00000BF06480078401C0449087001210248B1
:103E000000F008F810BD0000001000404000002045
:103E100041000020CA430282704721B1028842F06B
:103E20000102028004E002884FF6FE731A4002800D
:103E30007047000010B504466848844208D101214B
:103E4000C014FFF72FF90021E014FFF72BF9C4E0AD
:103E5000B4F1804F08D101210846FFF703F9002192
:103E60000120FFF7FFF8B8E05D48844208D1012146
:103E70000220FFF7F7F800210220FFF7F3F8ACE08B
:103E80005848844208D101210420FFF7EBF80021B3
:103E90000420FFF7E7F8A0E05348844208D101214D
:103EA0000820FFF7DFF800210820FFF7DBF894E097
:103EB0004E48844208D101211020FFF7D3F8002199
:103EC0001020FFF7CFF888E04948844208D101214B
:103ED0002020FFF7C7F800212020FFF7C3F87CE07F
:103EE0004448844208D101214014FFF7DBF8002147
:103EF0006014FFF7D7F870E03F48844209D10121F0
:103F0000C804FFF7CFF800214FF40020FFF7CAF8EC
:103F100063E03A48844209D101210805FFF7C2F85D
:103F200000214FF48010FFF7BDF856E0344884427A
:103F300009D101214805FFF7B5F800214FF4001021
:103F4000FFF7B0F849E02F48844208D10121402012
:103F5000FFF788F800214020FFF784F83DE02A4869
:103F6000844208D101218020FFF77CF800218020C5
:103F7000FFF778F831E02548844208D10121801507
:103F8000FFF770F80021A015FFF76CF825E0204836
:103F9000844209D101210804FFF784F800214FF47D
:103FA0008030FFF77FF818E01A48844209D10121D8
:103FB0004804FFF777F800214FF40030FFF772F85C
:103FC0000BE01548844208D101218804FFF76AF804
:103FD00000214FF48020FFF765F810BD002C014050
:103FE0000004004000080040000C004000100040A9
:103FF0000014004000340140004C014000500140DA
:104000000054014000180040001C00400020004007
:1040100000400140004401400048014030B50246E4
:10402000002000230024158A05EA0103958905EA8A
:10403000010413B10CB1012000E0002030BD1AB121
:1040400083890B43838102E083898B43838170479B
:1040500081847047002202881D4B98420ED01D4B70
:1040600098420BD0B0F1804F08D01B4B984205D03E
:104070001A4B984202D01A4B984204D14FF68F73D4
:104080001A404B881A43174B984207D0164B984258
:1040900004D04FF6FF431A40CB881A4302808B8826
:1040A00083850B8803850A4B98420BD0094B9842B5
:1040B00008D00E4B984205D00D4B984202D00D4BC4
:1040C000984201D10B7A0386012383827047000056
:1040D000002C014000340140000400400008004072
:1040E000000C00400010004000140040004001405F
:1040F000004401400048014070B505460C46224688
:10410000294613480068801CFCF7E7FA2046E117AF
:1041100004EB1161090A0E4A12681170E11704EBF1
:1041200011610912A4EB0121094A12685170084873
:10413000006800F596700649086008460068054961
:104140000968884202D104480149086070BD000036
:104150000C000020140000203C07002010B540F2A5
:104160002551184800F0A4F858B31748007880B9D2
:104170001448001D008820B31248001D0088134910
:10418000134A1268885412480068401C104908609D
:1041900017E00C48001D00880C490D4A126888542D
:1041A0000B48006820B901210A48FFF736FE03E0FA
:1041B00000210848FFF74CFF05480068401C0449EF
:1041C000086010BD0048004041000020A8190020F0
:1041D000480000200008004001F40072B2F5007FA2
:1041E00000D100BFCA430280704721B1828942F4E6
:1041F0000052828104E082894DF6FF731A40828169
:1042000070471AB1838A0B43838202E0838A8B430F
:104210008382704710B504462048844209D10121A9
:104220008803FEF73FFF00214FF48040FEF73AFF7E
:1042300032E01B48844209D101214804FEF712FFF5
:1042400000214FF40030FEF70DFF25E015488442B1
:1042500009D101218804FEF705FF00214FF48020D9
:10426000FEF700FF18E01048844209D10121C8047C
:10427000FEF7F8FE00214FF40020FEF7F3FE0BE0FE
:104280000A48844208D101210805FEF7EBFE00210F
:104290004FF48010FEF7E6FE10BD0000003801402C
:1042A0000044004000480040004C004000500040E6
:1042B00070B50246002400230025002040F66A164F
:1042C000B14200D100BFC1F3421501F01F03012626
:1042D00006FA03F3012D02D19689334006E0022D40
:1042E00002D1168A334001E0968A33400C1201262F
:1042F00006FA04F41688344013B10CB1012000E032
:10430000002070BDF0B503460024002600250020E3
:1043100040F66A17B94200D100BF1846C1F34214F3
:1043200001F01F06012707FA06F5012C01D10C3018
:1043300004E0022C01D1103000E014301AB10768FB
:104340002F43076002E00768AF430760F0BD00003D
:104350002DE9F04786B005460E460024A24600BF70
:10436000A1460027B08900B100BF2F462C8A4CF629
:10437000FF700440F08804432C82AC894EF6F310A1
:104380000440B08831890843718908430443AC81F3
:10439000AC8A4FF6FF400440B0890443AC8201A8C8
:1043A000FEF790FE1F48874202D1DDF810A001E021
:1043B000DDF80CA0A88900F4004040B10AEBCA0067
:1043C00000EB0A1031684900B0FBF1F807E00AEB96
:1043D000CA0000EB0A1031688900B0FBF1F86420D4
:1043E000B8FBF0F004012009642101FB1089A889C1
:1043F00000F4004040B1322000EBC900B0FBF1F006
:1044000000F00700044308E0322000EB09106421AB
:10441000B0FBF1F000F00F0004432C8106B0BDE8C2
:10442000F0870000003801407047000010B586B0EA
:10443000044601218803FEF725FE01210420FEF732
:1044400021FE1948FFF7E6FE4FF40070ADF81400A6
:1044500003208DF8160018208DF8170005A91348C1
:10446000FDF74DFF4FF48060ADF8140004208DF887
:10447000170005A90D48FDF742FF01940020ADF893
:104480000800ADF80A00ADF80C00ADF810000820E7
:10449000ADF80E0001A90448FFF75AFF01210248B8
:1044A000FFF7A3FE06B010BD003801400008014030
:1044B00010B586B004464FF4A060FEF7B7FD0121A9
:1044C0008804FEF7BFFD01210820FEF7DBFD4FF455
:1044D0008060ADF8140003208DF8160018208DF8C8
:1044E000170005A92148FDF70AFF4FF40060ADF859
:1044F000140004208DF8170005A91C48FDF7FFFEE5
:1045000001940020ADF80800ADF80A00ADF80C00E9
:10451000ADF810000C20ADF80E0001A91448FFF70B
:1045200017FF20211248FFF757FE012240F22551C4
:104530000F48FFF7E7FE27208DF8000001208DF8D7
:10454000010000208DF8020001208DF8030068466C
:10455000FEF734FD012280210548FFF752FE0121BC
:104560000348FFF742FE06B010BD0000000C0140FA
:1045700000480040490050EAC12018BF04204A0DFD
:1045800018BF40F0010040F2FF72B2EB515F08BF6C
:1045900040F00200012808BF0520704730380A2883
:1045A00001D201207047002070470000FDF703FE94
:1045B0004FF41650FFF73AFF4FF4E130FFF778FF62
:1045C0004FF4E1514FF49670FFF73CFBFEF7A8F96A
:1045D000FDF760FFFDF7CCFCBCE1DF480078012867
:1045E00072D1DE480068DE49096888422AD0DB487B
:1045F0000068807810280CD0D8480068807882281D
:1046000003D1D8480078012803D0D7480078012882
:1046100018D1D24800688178D4A000F025FBCF489B
:10462000006800F04FFBCD48006800F59670CB495C
:10463000086008460068D1490968884202D1D0481C
:10464000C6490860CF480068CF490968884277D0DA
:10465000CEA000F009FBCB480068807820283CD130
:10466000C8480068407906282FD2DFE800F0030A26
:1046700011181F26C8A000F0F7FA0120B9490870E8
:104680002AE0CAA000F0F0FA0020B349087023E045
:10469000D1A000F0E9FA0020AF4908701CE0DAA0D0
:1046A00000F0E2FA0020AC49087015E0E0A000F04C
:1046B000DBFA0020A84908700EE0E8A000F0D4FA68
:1046C0000020A549087007E01EE1ECA000F0CCFA3C
:1046D0000020A149087000BF7AE0AA4800688078ED
:1046E00090281DD1A7480068807910B101280FD10A
:1046F00000E000BFEAA000F0B7FA01209A49087074
:104700000020EA490870FFF713FBFEF733F906E0D3
:10471000E7A000F0A9FA00208F49087000BF57E019
:10472000984800688078D02815D1E7A000F09CFA5E
:10473000DE480078012804D10020DC49087047E0F9
:1047400055E0DA480078012842DD0020D74908709A
:10475000FFF7EEFA3CE08B4800688078302807D1FC
:10476000DDA000F081FA87480068FEF7D1FA2FE05B
:104770008448006840780A2811D18248006880780F
:104780000D280CD100207F4909680873D7A1D948AA
:10479000FBF772FFE0B100206F49087018E079481C
:1047A000006840780F2813D17648006840780D28BB
:1047B0000ED10020734909684874CFA000F054FA64
:1047C000D0A1CC48FBF758FF10B100206249087017
:1047D0006C48006800F596706A49086008460068F1
:1047E000CB490968884202D1CA4866490860CA486C
:1047F0000068CA49096888427ED0C7480168891C98
:10480000C7A000F031FAC9A1C3480068801CFBF7BB
:1048100033FF30B10221CC48FDF70EFEFDF782FFD9
:1048200060E0CAA1BC480068801CFBF725FF30B1DE
:104830000221C548FDF702FEFDF774FF52E0CAA150
:10484000B5480068801CFBF717FF30B10121BE4856
:10485000FDF7F2FDFDF7A0FF44E0CBA1AE480068F4
:10486000801CFBF709FF30B10121B748FDF7E6FDD9
:10487000FDF792FF36E0CCA1A7480068801CFBF74B
:10488000FBFE30B12021D048FDF7D6FDFDF7BEFF7D
:1048900028E0CEA1A0480068801CFBF7EDFE30B1F7
:1048A0002021C948FDF7CAFDFDF7B0FF1AE0CFA1EE
:1048B00099480068801CFBF7DFFE30B11021C24828
:1048C000FDF7BAFDFDF7DCFF0CE0D0A192480068CF
:1048D000801CFBF7D1FE28B11021BB48FDF7AEFDCF
:1048E000FDF7CEFF8C48006800F596708A49086095
:1048F00008460068CD4900E005E00968884229D1F2
:10490000CB488549086025E0CAA000F0ADF9002138
:10491000CD48FFF782FA0021CC48FFF77EFA00204D
:10492000CB4908604FF480617248FBF74DFFFEF7FA
:10493000D1FD78B9C7A000F097F9012006490870A9
:104940000020C34908604FF480616A48FBF73CFFD0
:10495000FEF766F841E6000041000020100000204C
:104960000C0000204200002043000020B7A2CBCD65
:10497000CAFDBEDD3A307825780D0A00140000200B
:104980003C0700200400002000000020BDD3CAD551
:10499000B5BDCAFDBEDD3A00434F4E4E454354B14E
:1049A000A8CEC4B3C9B9A60D0A000000C1ACBDD3DE
:1049B000D2D1BEDCBEF8A3ACB2BBD6A7B3D6B5C4C9
:1049C000D0ADD2E9B0E6B1BEA3ACD7BCB1B8D6D8B1
:1049D000C6F40D0A00000000C1ACBDD3D2D1BEDCCC
:1049E000BEF8A3ACB2BBBACFB8F1B5C4BFCDBBA7BC
:1049F000B6CBB1EACAB6B7FBA3ACD7BCB1B8D6D870
:104A0000C6F40D0A00000000C1ACBDD3D2D1BEDC9B
:104A1000BEF8A3ACB7FECEF1B6CBB2BBBFC9D3C311
:104A2000A3ACD7BCB1B8D6D8C6F40D0A00000000BC
:104A3000C1ACBDD3D2D1BEDCBEF8A3ACCEDED0A714
:104A4000B5C4D3C3BBA7C3FBBBF2C3DCC2EBA3ACEF
:104A5000D7BCB1B8D6D8C6F40D0A0000C1ACBDD3DE
:104A6000D2D1BEDCBEF8A3ACCEB4CADAC8A8A3AC1F
:104A7000D7BCB1B8D6D8C6F40D0A0000C1ACBDD3BE
:104A8000D2D1BEDCBEF8A3ACCEB4D6AAD7B4CCACDF
:104A9000A3ACD7BCB1B8D6D8C6F40D0A000000004C
:104AA000B6A9D4C4B3C9B9A60D0A000040000020BD
:104AB000B6A9D4C4CAA7B0DCA3ACD7BCB1B8D6D809
:104AC000C6F40D0A0000000050494E47B1A8CEC4FC
:104AD000BBD8B8B40D0A0000B7FECEF1C6F7B5C812
:104AE000BCB630CDC6CBCD0D0A000000434C4F53B1
:104AF00045440000A819002047505253B6CFBFAA22
:104B00000D0A00002B5044503A20444541435400C4
:104B100008000020600100201C0000201800002078
:104B2000C3FCC1EE3A25730D0A00000022706172C9
:104B3000616D73223A7B22506F7765725377697487
:104B40006368223A317D0000000C014022706172DE
:104B5000616D73223A7B22506F7765725377697467
:104B60006368223A307D000022706172616D7322A9
:104B70003A7B22506F7765725377697463685F324E
:104B8000223A317D0000000022706172616D732253
:104B90003A7B22506F7765725377697463685F322E
:104BA000223A307D0000000022706172616D732234
:104BB0003A7B22506F7765725377697463685F330D
:104BC000223A317D00000000001001402270617225
:104BD000616D73223A7B22506F77657253776974E7
:104BE00063685F33223A307D0000000022706172FA
:104BF000616D73223A7B22506F77657253776974C7
:104C000063685F34223A317D0000000022706172D7
:104C1000616D73223A7B22506F77657253776974A6
:104C200063685F34223A307D0000000020000020DD
:104C3000180D0020D0E8D2AAC1ACBDD3B7FECEF18A
:104C4000C6F70D0A000000000008004000100040F8
:104C500048000020BDA8C1A2544350C1ACBDD3B38D
:104C6000C9B9A60D0A0000000FB438B505A8009018
:104C70001248009A0499FBF71FFB002000900F4890
:104C8000FBF70CFD054600BF0D48008800F0400012
:104C90000028F9D000240CE00848005D0849091DEF
:104CA000088000BF0648008800F040000028F9D0C6
:104CB000641CAC42F0D338BC5DF814FB60000020EB
:104CC0000038014000BF0E4A128802F04002002A5C
:104CD000F9D001210CE04A1C825C094B1B1D1A8093
:104CE00000BF074A128802F04002002AF9D0491C8E
:104CF0004378027803EB02228A42ECDA7047000024
:104D0000004800400FB438B505A800901248009A3A
:104D10000499FBF7D1FA002000900F48FBF7BEFC86
:104D2000054600BF0D48008800F040000028F9D07B
:104D300000240CE00848005D0849091D088000BFF8
:104D40000648008800F040000028F9D0641CAC42FE
:104D5000F0D338BC5DF814FBA81D002000480040CB
:104D6000014601F00F010A2902DA01F1300001E0E9
:104D700001F1570040B270472DE9F043BDB006463F
:104D8000884615461F46DDF810910EB105B117B9DA
:104D90003DB0BDE8F083B9F1400F00DDF8E74021F8
:104DA00016A8FBF733FD402106A8FBF72FFD4A4666
:104DB000394616A8FBF791FC4A46394606A8FBF788
:104DC0008CFC00240CE016A8005D80F0360016A9CB
:104DD000085506A8005D80F05C0006A90855641C13
:104DE000402CF0DB26A800F0AFF826A801F042FD29
:104DF000402216A926A801F053FD4246314626A8B6
:104E000001F04EFD01A926A800F02AF826A800F01E
:104E10009BF826A801F02EFD402206A926A801F045
:104E20003FFD142201A926A801F03AFD01A926A8F8
:104E300000F016F800240FE001A9095D0811FFF742
:104E40008FFF05F8140001A9085DFFF789FF012114
:104E500001EB44016854641C142CEDDB00BF97E7A0
:104E60002DE9FC4704460D462068400F616840EA82
:104E7000C1062068C700300E8DF80000300C8DF898
:104E80000100300A8DF80200F0B28DF80300380EF0
:104E90008DF80400380C8DF80500380A8DF80600EE
:104EA000F8B28DF80700207800F03F08B8F1380F0D
:104EB00002D2C8F1380001E0C8F1780081464A46C4
:104EC0002049204601F0ECFC08226946204601F00A
:104ED000E7FCA068000E2870A068000C68702089AC
:104EE000000AA870207AE870E068000E2871E06877
:104EF000000C6871A089000AA871207BE871206904
:104F0000000E28722069000C6872208A000AA872BC
:104F1000207CE8726069000E28736069000C687379
:104F2000A08A000AA873207DE873A069000E287487
:104F3000A069000C6874208B000AA874207EE874B5
:104F4000BDE8FC877869000810B504465C2120465E
:104F5000FBF75CFC10BD00002DE9F04390B0074664
:104F60000E4696F800C04FEA0C6C96F801804CEAA9
:104F7000084C96F802804CEA082C96F803804CEA1C
:104F8000080CCDF800C096F804C04FEA0C6C96F8F7
:104F900005804CEA084C96F806804CEA082C96F8F6
:104FA00007804CEA080CCDF804C096F808C04FEA18
:104FB0000C6C96F809804CEA084C96F80A804CEA8A
:104FC000082C96F80B804CEA080CCDF808C096F82F
:104FD0000CC04FEA0C6C96F80D804CEA084C96F821
:104FE0000E804CEA082C96F80F804CEA080CCDF89D
:104FF0000CC096F810C04FEA0C6C96F811804CEA81
:10500000084C96F812804CEA082C96F813804CEA6B
:10501000080CCDF810C096F814C04FEA0C6C96F846
:1050200015804CEA084C96F816804CEA082C96F845
:1050300017804CEA080CCDF814C096F818C04FEA57
:105040000C6C96F819804CEA084C96F81A804CEAD9
:10505000082C96F81B804CEA080CCDF818C096F87E
:105060001CC04FEA0C6C96F81D804CEA084C96F870
:105070001E804CEA082C96F81F804CEA080CCDF8EC
:105080001CC096F820C04FEA0C6C96F821804CEAC0
:10509000084C96F822804CEA082C96F823804CEABB
:1050A000080CCDF820C096F824C04FEA0C6C96F896
:1050B00025804CEA084C96F826804CEA082C96F895
:1050C00027804CEA080CCDF824C096F828C04FEA97
:1050D0000C6C96F829804CEA084C96F82A804CEA29
:1050E000082C96F82B804CEA080CCDF828C096F8CE
:1050F0002CC04FEA0C6C96F82D804CEA084C96F8C0
:105100002E804CEA082C96F82F804CEA080CCDF83B
:105110002CC096F830C04FEA0C6C96F831804CEAFF
:10512000084C96F832804CEA082C96F833804CEA0A
:10513000080CCDF830C096F834C04FEA0C6C96F8E5
:1051400035804CEA084C96F836804CEA082C96F8E4
:1051500037804CEA080CCDF834C096F838C04FEAD6
:105160000C6C96F839804CEA084C96F83A804CEA78
:10517000082C96F83B804CEA080CCDF838C096F81D
:105180003CC04FEA0C6C96F83D804CEA084C96F80F
:105190003E804CEA082C96F83F804CEA080CCDF88B
:1051A0003CC0B868F9683A697B69BC694FEA401C41
:1051B0004CEAD06882EA030C0CEA010C8CEA030C7E
:1051C000C444DFF8F88FC444DDF80080C44464446C
:1051D0004FEA817C4CEA91014FEA441C4CEAD468C6
:1051E00081EA020C0CEA000C8CEA020CC444DFF8E1
:1051F000CC8FC444DDF80480C44463444FEA807C0F
:105200004CEA90004FEA431C4CEAD36880EA010C58
:105210000CEA040C8CEA010CC444DFF8A08FC444EF
:10522000DDF80880C44462444FEA847C4CEA94046C
:105230004FEA421C4CEAD26884EA000C0CEA030CE8
:105240008CEA000CC444DFF8748FC444DDF80C8091
:10525000C44461444FEA837C4CEA93034FEA411C07
:105260004CEAD16883EA040C0CEA020C8CEA040CC8
:10527000C444DFF8488FC444DDF81080C44460445F
:105280004FEA827C4CEA92024FEA401C4CEAD0681A
:1052900082EA030C0CEA010C8CEA030CC444DFF82C
:1052A0001C8FC444DDF81480C44464444FEA817CFC
:1052B0004CEA91014FEA441C4CEAD46881EA020CA2
:1052C0000CEA000C8CEA020CC444DFF8F08EC444F3
:1052D000DDF81880C44463444FEA807C4CEA9000B7
:1052E0004FEA431C4CEAD36880EA010C0CEA040C38
:1052F0008CEA010CC444DFF8C48EC444DDF81C8081
:10530000C44462444FEA847C4CEA94044FEA421C51
:105310004CEAD26884EA000C0CEA030C8CEA000C1C
:10532000C444DFF8988EC444DDF82080C44461444E
:105330004FEA837C4CEA93034FEA411C4CEAD16864
:1053400083EA040C0CEA020C8CEA040CC444DFF877
:105350006C8EC444DDF82480C44460444FEA827CEF
:105360004CEA92024FEA401C4CEAD06882EA030CF5
:105370000CEA010C8CEA030CC444DFF8408EC444F0
:10538000DDF82880C44464444FEA817C4CEA9101F2
:105390004FEA441C4CEAD46881EA020C0CEA000C87
:1053A0008CEA020CC444DFF8148EC444DDF82C806F
:1053B000C44463444FEA807C4CEA90004FEA431CAB
:1053C0004CEAD36880EA010C0CEA040C8CEA010C6C
:1053D000C444DFF8E88DC444DDF83080C44462443E
:1053E0004FEA847C4CEA94044FEA421C4CEAD268AF
:1053F00084EA000C0CEA030C8CEA000CC444DFF8CD
:10540000BC8DC444DDF83480C44461444FEA837CDD
:105410004CEA93034FEA411C4CEAD16883EA040C3E
:105420000CEA020C8CEA040CC444DFF8908DC444EE
:10543000DDF83880C44460444FEA827C4CEA920232
:105440004FEA401C4CEAD06882EA030C0CEA010CDB
:105450008CEA030CC444DFF8648DC444DDF83C805E
:10546000C44464444FEA817C4CEA9101DDF834C0C5
:10547000DDF820808CEA080CDDF808808CEA080C46
:10548000DDF800808CEA08054FEA450C4CEAD57837
:105490004FEA441C4CEAD46981EA020C0CEA000C85
:1054A0008CEA020CCC44DFF8149DCC44C444634421
:1054B000CDF800804FEA807C4CEA9000DDF838C0DF
:1054C000DDF824808CEA080CDDF80C808CEA080CEE
:1054D000DDF804808CEA08054FEA450C4CEAD578E3
:1054E0004FEA431C4CEAD36980EA010C0CEA040C35
:1054F0008CEA010CCC44DFF8C49CCC44C444624424
:10550000CDF804804FEA847C4CEA9404DDF83CC07A
:10551000DDF828808CEA080CDDF810808CEA080C95
:10552000DDF808808CEA08054FEA450C4CEAD5788E
:105530004FEA421C4CEAD26984EA000C0CEA030CE4
:105540008CEA000CCC44DFF8749CCC44C444614425
:10555000CDF808804FEA837C4CEA9303DDF800C065
:10556000DDF82C808CEA080CDDF814808CEA080C3D
:10557000DDF80C808CEA08054FEA450C4CEAD5783A
:105580004FEA411C4CEAD16983EA040C0CEA020C94
:105590008CEA040CCC44DFF8249CCC44C444604422
:1055A000CDF80C804FEA827C4CEA9202DDF804C010
:1055B000DDF830808CEA080CDDF818808CEA080CE5
:1055C000DDF810808CEA08054FEA450C4CEAD578E6
:1055D0004FEA401C4CEAD06981EA020C8CEA030CC9
:1055E000CC44DFF8DC9BCC44C4446444CDF8108048
:1055F0004FEA817C4CEA9101DDF808C0DDF8348087
:105600008CEA080CDDF81C808CEA080CDDF81480AC
:105610008CEA08054FEA450C4CEAD5784FEA441C61
:105620004CEAD46980EA010C8CEA020CCC44DFF825
:10563000909BCC44C4446344CDF814804FEA807CF2
:105640004CEA9000DDF80CC0DDF838808CEA080CDC
:10565000DDF820808CEA080CDDF818808CEA08055B
:105660004FEA450C4CEAD5784FEA431C4CEAD36923
:1056700084EA000C8CEA010CCC44DFF8449BCC4457
:10568000C4446244CDF818804FEA847C4CEA940408
:10569000DDF810C0DDF83C808CEA080CDDF82480D1
:1056A0008CEA080CDDF81C808CEA08054FEA450CF2
:1056B0004CEAD5784FEA421C4CEAD26983EA040CE2
:1056C0008CEA000CCC44DFF8F89ACC44C444614422
:1056D000CDF81C804FEA837C4CEA9303DDF814C0BC
:1056E000DDF800808CEA080CDDF828808CEA080CD4
:1056F000DDF820808CEA08054FEA450C4CEAD578A5
:105700004FEA411C4CEAD16982EA030C8CEA040C92
:10571000CC44DFF8AC9ACC44C4446044CDF820803B
:105720004FEA827C4CEA9202DDF818C0DDF8048072
:105730008CEA080CDDF82C808CEA080CDDF824805B
:105740008CEA08054FEA450C4CEAD5784FEA401C34
:105750004CEAD06981EA020C8CEA030CCC44DFF8F5
:10576000609ACC44C4446444CDF824804FEA817CE0
:105770004CEA9101DDF81CC0DDF808808CEA080CC9
:10578000DDF830808CEA080CDDF828808CEA08050A
:105790004FEA450C4CEAD5784FEA441C4CEAD469F0
:1057A00080EA010C8CEA020CCC44DFF8149ACC4459
:1057B000C4446344CDF828804FEA807C4CEA9000D2
:1057C000DDF820C0DDF80C808CEA080CDDF83480B0
:1057D0008CEA080CDDF82C808CEA08054FEA450CB1
:1057E0004CEAD5784FEA431C4CEAD36984EA000CB2
:1057F0008CEA010CCC44DFF8C899CC44C444624420
:10580000CDF82C804FEA847C4CEA9404DDF824C067
:10581000DDF810808CEA080CDDF838808CEA080C82
:10582000DDF830808CEA08054FEA450C4CEAD57863
:105830004FEA421C4CEAD26983EA040C8CEA000C61
:10584000CC44DFF87C99CC44C4446144CDF830802A
:105850004FEA837C4CEA9303DDF828C0DDF814801E
:105860008CEA080CDDF83C808CEA080CDDF834800A
:105870008CEA08054FEA450C4CEAD5784FEA411C02
:105880004CEAD16982EA030C8CEA040CCC44DFF8C0
:105890003099CC44C4446044CDF834804FEA827CD3
:1058A0004CEA9202DDF82CC0DDF818808CEA080C76
:1058B000DDF800808CEA080CDDF838808CEA0805F9
:1058C0004FEA450C4CEAD5784FEA401C4CEAD069C7
:1058D00081EA020C8CEA030CCC44DFF8E498CC4457
:1058E000C4446444CDF838804FEA817C4CEA91018D
:1058F000DDF830C0DDF81C808CEA080CDDF804808F
:105900008CEA080CDDF83C808CEA08054FEA450C6F
:105910004CEAD5784FEA441C4CEAD46980EA010C81
:105920008CEA020CCC44DFF89898CC44C44463441D
:10593000CDF83C804FEA807C4CEA9000DDF834C022
:10594000DDF820808CEA080CDDF808808CEA080C71
:10595000DDF800808CEA08054FEA450C4CEAD57862
:105960004FEA431C4CEAD36984EA000C8CEA010C30
:10597000CC44DFF84C98CC44C4446244CDF8008059
:105980004FEA847C4CEA9404DDF838C0DDF82480CA
:105990008CEA080CDDF80C808CEA080CDDF8048039
:1059A0008CEA08054FEA450C4CEAD5784FEA421CD0
:1059B0004CEAD26983EA040C8CEA000CCC44DFF890
:1059C0000098CC44C4446144CDF804804FEA837C01
:1059D0004CEA9303DDF83CC0DDF828808CEA080C23
:1059E000DDF810808CEA080CDDF808808CEA0805E8
:1059F0004FEA450C4CEAD5784FEA411C4CEAD16994
:105A000082EA030C8CEA040CCC44DFF8B497CC4453
:105A1000C4446044CDF808804FEA827C4CEA92028C
:105A2000DDF800C0DDF82C808CEA080CDDF814806D
:105A30008CEA080CDDF80C808CEA08054FEA450C6E
:105A40004CEAD5784FEA401C4CEAD06981EA020C56
:105A50008CEA030CCC44DFF86897CC44C44464441B
:105A6000CDF80C804FEA817C4CEA9101DDF804C04E
:105A7000DDF830808CEA080CDDF818808CEA080C20
:105A8000DDF810808CEA08054FEA450C4CEAD57821
:105A90004FEA441C4CEAD46980EA010C8CEA020CFF
:105AA000CC44DFF81C97CC44C4446344CDF8108048
:105AB0004FEA807C4CEA9000DDF808C0DDF83480C5
:105AC0008CEA080CDDF81C808CEA080CDDF81480E8
:105AD0008CEA08054FEA450C4CEAD5784FEA431C9E
