:020000040800F2
:10000000A0240020790200085F280008BB1D00081A
:100010005D280008B71A000831340008000000000D
:100020000000000000000000000000003D2A000861
:10003000251B000800000000E5280008652B0008CB
:10004000930200089302000893020008930200083C
:10005000930200089302000893020008930200082C
:10006000930200089302000893020008930200081C
:10007000930200089302000893020008930200080C
:1000800093020008930200089302000893020008FC
:1000900093020008930200089302000893020008EC
:1000A00093020008930200089302000893020008DC
:1000B00093020008B92C0008252D000893020008BF
:1000C00093020008930200089302000893020008BC
:1000D000930200089302000875310008930200089B
:1000E000930200089302000893020008930200089C
:1000F000930200089302000893020008930200088C
:10010000930200089302000893020008930200087B
:10011000930200089302000893020008930200086B
:10012000930200089302000893020008930200085B
:1001300000F002F800F090F80AA090E8000C824469
:100140008344AAF10107DA4501D100F085F8AFF246
:10015000090EBAE80F0013F0010F18BFFB1A43F0A5
:1001600001031847C4450000E4450000103A24BFCD
:1001700078C878C1FAD8520724BF30C830C144BF0C
:1001800004680C607047000000230024002500264E
:10019000103A28BF78C1FBD8520728BF30C148BFEA
:1001A0000B6070476E2900F03383702900F08B8458
:1001B000662904F01382652904F01082672904F08F
:1001C0000D826129AFF3008003681B0A28BF41F04C
:1001D0008001692900F0E082642900F0DD82752940
:1001E00000F0DA826F2900F01984782900F0578432
:1001F000E92900F0B383E42900F0B083F52900F089
:10020000AD83EF2900F01684F82900F056840368C6
:10021000DB0928BF41F08001632900F03483732992
:1002200000F03983E32900F00E87F32900F01387EB
:10023000002070471FB500F05FFF04000020002180
:1002400004F0B6F9401C60600020002104F09AF927
:10025000E0601FBD10B510BD00F021FF1146FFF793
:10026000E9FF03F017FE00F0F9FF03B4FFF7F2FF18
:1002700003BC01F03DF800000948804709480047E9
:10028000FEE7FEE7FEE7FEE7FEE7FEE7FEE7FEE746
:10029000FEE7FEE704480549054A064B70470000A3
:1002A000692B000831010008A01E0020A0240020B6
:1002B000A0200020A02000201CB50C46064B7B444B
:1002C00069460090204600F0BCFA044600206946CA
:1002D00000F0CAFA20461CBDA70500000FB41CB5EB
:1002E000084B06AA7B4469460090059800F0A9FADD
:1002F00004460020694600F0B7FA20461CBC5DF8B1
:1003000014FB00008105000070B50C460546012A6B
:1003100005D02878800600D5EA69002302E0012391
:1003200005E05B1C934202D2E05C0028F9D1A86989
:10033000E618C01AA861286A18442862284600F006
:10034000F1F904E0D5E9012114F8010B9047B4421A
:10035000F8D3284600F0FCF970BD00002DE9F05FED
:10036000894604464FF0000ADFF874B1FB44C0F838
:1003700020A02046E1688847002874D0252806D0B0
:10038000D4E901219047206A401C2062F1E7002651
:100390005F462046E16888472028054607DB312D67
:1003A00005D2781910F8200C08B10643F1E7B00720
:1003B00001D526F00406C4F81CA00027C4F818A034
:1003C0002A2D09D0284603F05DFD38B304EB8708D9
:1003D000303DC8F8185019E059F8041B204604EBCA
:1003E00087029161E1688847012F054618D1E069CD
:1003F000002820DA26F020061DE0D8F8180000EBCF
:10040000800005EB40003038C8F818002046E1684D
:100410008847054603F036FD0028EED1012F0AD0AB
:100420002E2D08D12046E16888477F1C0546022F03
:1004300046F02006C4DBA069002803DA404246F0FB
:100440000106A061F00701D026F010066C2D0BD03C
:10045000682D09D04C2D39D06A2D35D0742D35D06A
:100460007A2D33D016E038E0E1682F4620468847E1
:10047000B842054609D16C2F26D04FF48060E16860
:10048000064320468847054604E06C2F1AD04FF4F7
:10049000807006430DB3A5F14100192802D820351C
:1004A00046F400664A462946204626604E46FFF737
:1004B00079FE80B101280BD0F61D26F0070000F16F
:1004C000080956E74020E4E78020D8E70020D6E777
:1004D00006F104094DE7284652E7206ABDE8F09F7F
:1004E0007042000030B505460B462A4613F8014B12
:1004F00012F8010B08B1A042F8D01CB1002802D0BC
:100500006D1CF1E7284630BD40EA010310B59B079A
:100510000FD1042A0DD310C808C9121F9C42F8D06D
:1005200020BA19BA884201D9012010BD4FF0FF301E
:1005300010BD1AB1D30703D0521C07E0002010BD34
:1005400010F8013B11F8014B1B1B07D110F8013BC0
:1005500011F8014B1B1B01D1921EF1D1184610BDA1
:1005600010B5431C02E010F8011B71B18107FAD1EC
:100570004FF0013202C88C1A8C4314EAC211F9D030
:10058000C01A0A0603D0C01E10BDC01A10BD0A044E
:1005900001D0801E10BD0902FCD0401E10BD032AF0
:1005A00040F2308010F0030C00F0158011F8013B90
:1005B000BCF1020F624498BF11F801CB00F8013B77
:1005C00038BF11F8013BA2F1040298BF00F801CB3B
:1005D00038BF00F8013B11F0030300F02580083A12
:1005E000C0F0088051F8043B083A51F804CBA0E869
:1005F0000810F5E7121D5CBF51F8043B40F8043BBE
:10060000AFF30080D20724BF11F8013B11F801CBF2
:1006100048BF11F8012B24BF00F8013B00F801CBC3
:1006200048BF00F8012B704710B5203AC0F00B808E
:10063000B1E81850203AA0E81850B1E81850A0E8E6
:100640001850BFF4F5AF5FEA027C24BFB1E8185040
:10065000A0E8185044BF18C918C0BDE810405FEAB0
:10066000827C24BF51F8043B40F8043B08BF70472C
:10067000D20728BF31F8023B48BF11F8012B28BF31
:1006800020F8023B48BF00F8012B70474FF00002F2
:100690000429C0F0128010F0030C00F01B80CCF194
:1006A000040CBCF1020F18BF00F8012BA8BF20F802
:1006B000022BA1EB0C0100F00DB85FEAC17C24BF56
:1006C00000F8012B00F8012B48BF00F8012B704700
:1006D0004FF0000200B5134694469646203922BFDB
:1006E000A0E80C50A0E80C50B1F12001BFF4F7AF26
:1006F000090728BFA0E80C5048BF0CC05DF804EB08
:10070000890028BF40F8042B08BF704748BF20F875
:10071000022B11F0804F18BF00F8012B7047704773
:100720007047704770B5044685690068C10601D5F9
:10073000302600E02026C00707D070BDD4E9012193
:1007400030469047206A401C20626D1EF6D570BD71
:1007500070B5044685690078C00707D170BDD4E93B
:10076000012120209047206A401C20626D1EF6D592
:1007700070BD09684A0501D540B27047C905FCD56E
:1007800000B2704709684A0501D5C0B27047C90573
:10079000FCD580B2704700002DE9F04106460024E8
:1007A00010687529314616A510D0FFF7E2FF002822
:1007B00002DA404213A507E031688A0701D512A585
:1007C00002E0490704D511A5012401E0FFF7DAFF93
:1007D00000210A2206F1240709E0B0FBF2FCB0FB7D
:1007E000F2F302FB1C00303078541846491C0028F4
:1007F000F3D123462A463046BDE8F04100F0B3B9B4
:10080000000000002D0000002B0000002000000070
:1008100011680268006A530501D508700AE0D30523
:1008200001D5088006E0130603D5C217C1E900020E
:1008300000E008600120704701694A1C02610878E5
:10084000704700B58FB0CDE9013100210591054910
:100850007944CDE9031011466846FFF77FFD0FB0DC
:1008600000BD0000E5FFFFFF0A6802F8010B0A6007
:10087000704710B5436913B1AFF3008001E0FFF793
:1008800043FD012010BD127800F124010A700022FE
:100890004A700122EDE711684FF0FF32E9E70000EE
:1008A0002DE9FF5F15468A460446DFF8AC80F84420
:1008B0000027D8E900103E46CDE9001010E03AF8D4
:1008C00016106A4602A800F0CAFB411C07D0217826
:1008D000890603D5E269391891420DD80744761C80
:1008E0002078800602D5E069B84205DDAE42E6DB3D
:1008F0003AF816000028E2D1A069C01BA06120468A
:10090000FFF710FFD8E90010CDE90010002017E034
:100910003AF818106A4602A800F0A1FBB0F1FF3FB8
:1009200081460BD000250DF1080B05E0D4E901212B
:100930001BF8050090476D1C4D45F7D308F10100E9
:10094000B0428046E4DB206A384420622046FFF74C
:10095000FFFEBDE8FF9F0000423D00002DE9F04191
:100960008046D21D22F007020025D2E90002F529B7
:1009700015A614D0011E72F1000106DA0023D0EB97
:10098000030063EB020211A608E0D8F800108B0701
:1009900001D50FA602E0490701D50EA60125114693
:1009A000002408F1240704E000F098F830323A55AA
:1009B000641C50EA0102F7D12B46324621464046DC
:1009C000BDE8F04100F0CFB8000000002D000000AD
:1009D0002B0000002000000030B4002100F12404AE
:1009E00008E002F00705D208303542EA4372DB081E
:1009F0006554491C52EA0305F3D10468002310A290
:100A0000250708D504F020040C4304D0C469012351
:100A10000CA2641EC46130BC00F0A5B810B5044639
:100A200021461068FFF7AEFE02462046BDE81040A2
:100A30000023D1E7D21D22F00701D1E90023CBE743
:100A40000000000030000000F0B40D4601880905E8
:100A500002D5214C7C4402E01F4C7C440E34002122
:100A600000F1240608E002F00F071209E75D42EAF0
:100A700003721B097754491C52EA0307F3D1027829
:100A80000023120704D5702D06D009B102231134BA
:100A90002246F0BC00F067B801231034F8E770B5C7
:100AA00004460D4621461068FFF76CFE02462946B3
:100AB0002046BDE870400023C6E7D21D22F00703A0
:100AC000D3E90023C0E70368126843F02003036002
:100AD0000823C3610023B7E7A43B000030B5B0F1A1
:100AE0000A024FEA900E71F100034EEA817EB0EBEC
:100AF0000E0061EB91014FEA101E4EEA017E10EBF1
:100B00000E0041EB11114FEA102E4EEA016E10EB70
:100B10000E0041EB11214FEA104E4EEA014E10EB50
:100B20000E0041EB1141401841F100014FEAD000A5
:100B300040EA41704FEAD10110EB80054FEA810491
:100B400044EA907444EB01046D1944EB0404521B15
:100B5000A3414FF0000348BF0A3200D530BD401C0E
:100B600041F1000130BD2DE9F0470D46994692460E
:100B7000044600F124080168880604D5E06921F0E4
:100B80001001216000E00120A84201DD471B00E0C8
:100B90000027A1697A1902EB0900081AA0612078E0
:100BA000C00602D42046FFF7BDFD002608E0D4E9C8
:100BB00001211AF806009047206A401C761C20622A
:100BC0004E45F4DB2078C0060AD52046FFF7AAFD83
:100BD00006E0D4E9012130209047206A401C2062C1
:100BE000381EA7F10107F4DC07E0D4E9012118F869
:100BF00005009047206A401C2062281EA5F10105CF
:100C0000F3DC2046FFF7A4FD2078000602D5022081
:100C1000BDE8F0870120FBE770472DE9FF4F0C4648
:100C20001E464FF0FF378BB0D2E90001DDF860803F
:100C30000A908A46C1F30A5505B93D460021084687
:100C40004FF00000BAF1000F00F4400005DA00EBAD
:100C500080004FF4400101EA50004FEA9059B9F189
:100C6000010F00DDB9460A9850EA4A000ED044F65A
:100C70001050A5F2FF3545432F14B8F1000F1ED0D8
:100C80007542291E1EDDC9F100021CE0B8F1010FFA
:100C90004FF0000001D0302103E0F24305E0215481
:100CA000401CB042FBDB30460022002121540B994E
:100CB000C1F80880C1E900200FB0BDE8F08FBD1B6E
:100CC0006D1CDEE74A4600DA694206A800F058FAD1
:100CD00006AB93E8070003AB83E8070050460A9988
:100CE00000F00DFB8DE80700A0F500501F380090C4
:100CF0000398002D09DD42F21F014A46084403A96A
:100D00000390684600F06CFD08E0A0F500504A46EC
:100D10001F3803A90390684600F076FD8DE80700B0
:100D20000004000C03D04FF0FF30410800E01046F3
:100D3000B8F1000F03D00022009215461EE0751E88
:100D400005D4FFF7CBFE303262556D1EF9D5B346A0
:100D50000122084302D000227F1C04E020783028C2
:100D600001D100227F1E002A099786D01DE0112D97
:100D700007DAFFF7B3FE303262556D1C50EA01020C
:100D8000F5D1084302D00098C8B10EE00021681EDA
:100D900005E0235C625C63542254401E491C81427E
:100DA000F7DBAB46A81B401E0990002004F80B009F
:100DB0000B98099AC0F80880C0E9002B7CE711263F
:100DC0004FF0000859E72DE9F04F88460446D21D40
:100DD00022F0070191B0D1E90001CDE90A0103F049
:100DE0003DF802460B98C00F01D02D2007E0206887
:100DF000810701D52B2002E0202101EAC000032A4F
:100E0000099001D0072A05DB03464146204600F041
:100E100077F90BE12078800601D5E06900E0062033
:100E2000B8F1650F814606D0B8F1660F18D0B8F159
:100E3000670F70D131E00020B9F1110F009001DB94
:100E4000112301E009F101030AAA01A90CA8FFF787
:100E5000E4FEDDE90C70002609F10105834647E058
:100E600001204B4600904FF000470AAA01A90CA8A8
:100E7000FFF7D3FEDDE90DB00C995D46002610B9F1
:100E800009F101000D18B9EB050003D4C0F1FF36DC
:100E900009F10105A5EB09002BE0B9F1010F01DA19
:100EA0004FF001090020B9F1110F0090484601DD13
:100EB000112300E003460AAA01A90CA8FFF7ADFE22
:100EC000DDE90C704D4600268346207800070AD4E1
:100ED000AB4500DA5D4601A8012D04DD411911F88A
:100EE000011C302907D04F4502DA17F1040F04DA4C
:100EF000012082460FE06D1EEEE7002F02DCED1BA5
:100F00003E4403E0781CA84200DD7D1CB81B00F1C4
:100F1000010A4FF000472078000703D4AA4501DBFF
:100F20004FF0FF3A0021B7F1004F0DF143088DF863
:100F3000431024D002202B23002F01DA7F422D23DF
:100F40000A21021EA0F1010000DC5FB197FBF1FC59
:100F500097FBF1F201FB1C7C17460CF1300C08F8F2
:100F600001CDEEE7A8F1010003702188090501D544
:100F7000452100E06521A0F1010800F8011C099855
:100F80000FA9A1EB0807FF1D00B10120411901EBDA
:100F9000EA70A1693844081A401EA0612078C00692
:100FA00002D42046FFF7BEFB099828B1D4E90121FD
:100FB0009047206A401C20622078C00622D5204637
:100FC000FFF7B0FB1EE0002E04DBB34502DD01A8F5
:100FD000805D00E03020D4E901219047206A401C68
:100FE0002062761CAAF101005FEA000A0AD100F033
:100FF00083F8C0680168405CD4E901219047206A09
:10100000401C2062281EA5F10105DCDC07E0D4E9C4
:10101000012118F8010B9047206A401C2062381EFD
:10102000A7F10107F3DC2046FFF792FB032011B084
:1010300043E610B5436913B1AFF3008001E0FFF759
:101040002FFC012010BD128800F1240182840022AF
:10105000C2840122EDE711684FF0FF32E9E770B575
:1010600016460C46054600F03FF8036893F8010168
:10107000012806D0FF2C0FD8185D68B101202C7014
:1010800070BDD3F807013246214603F2071303442B
:101090002846BDE8704018474FF0FF3070BD7546D8
:1010A00000F0E2F8AE4605006946534620F007001E
:1010B000854618B020B5FFF7EDF8BDE820404FF0A9
:1010C00000064FF000074FF000084FF0000B21F032
:1010D0000701AC46ACE8C009ACE8C009ACE8C009FF
:1010E000ACE8C0098D46704710B500F005F8001D4A
:1010F00010BD00BFBD34000000487047601E0020D6
:101100002DE9F0411F46044603260168072A01F431
:10111000006004DB08B116A505E016A503E008B1E0
:1011200015A500E015A521F010002060A069C01EE3
:10113000A0610FB1401EA0612046FFF7F3FA4FB146
:10114000D4E9012138469047206A401C2062C01C27
:10115000206206E0206AFAE7D4E9012115F8010BC4
:101160009047761EF8D22046FFF7F2FABDE8F081EC
:101170004E414E006E616E00494E4600696E66003B
:101180002DE9F047814616468AB0334878440DC8A9
:101190008DE80D0030487844801C03AC0DC884E80D
:1011A0000D0041F69B300844372190FBF1F290FB93
:1011B000F1F5A5F1800501FB12041B3C02D5644248
:1011C000012000E00020DFF890A080460027FA44CC
:1011D000AAF1BE0A0DE0E00709D03246684607EBE7
:1011E00047010AEB810100F00FFB8DE80700641056
:1011F0007F1C002CEFD1184F7F44AC3F18E0E8076C
:1012000014D007EB04100DF1180A90E80E008AE8DC
:101210000E00C068F04201D198190890324606A924
:1012200003A800F0F1FA03AB83E807006D10641C1B
:10123000002DE4D132466946B8F1000F03A802D070
:1012400000F0CEFA01E000F0DFFAC9E90001C9F8C8
:1012500008200AB0BDE8F087103500000446AFF35F
:1012600000802046FFF701F800487047401E00202C
:101270004FF0013C50F8042B51F8043B9A4221D125
:10128000A2EB0C03934313EACC1317D150F8042BB1
:1012900051F8043B9A4215D1A2EB0C03934313EA95
:1012A000CC130BD150F8042B51F8043B9A4209D1CE
:1012B000A2EB0C03934313EACC13DBD04FF00000F6
:1012C000704700BFD01A01BAB1FA81F101F01801DC
:1012D00022FA01F0CB40C1F12001DBB2C0B2C01A4A
:1012E0002CFA01F3D11A914311EAC311E6D17047E8
:1012F00001491820ABBEFEE72600020070475FEAF6
:10130000400C08BF91F0000F4FEA8C234FEAC12236
:1013100043EA51514FEA1C5018BF00F5F0404FEA24
:10132000300018BF41F000415FEA6C5C00F029809A
:10133000BCF1FF3F08BF40F080407047130C06BF70
:1013400012044FF0100C4FF0000C130E04BF1202E9
:101350000CF1080C130F04BF12010CF1040C930FD5
:1013600004BF92000CF1020CD30F04BF52000CF129
:10137000010C11464FF00002A0F11F00A0EB0C0081
:10138000704711F0004F08BF704731F000413FF443
:10139000D5AF0B0C06BF09044FF0100C4FF0000C3A
:1013A0000B0E04BF09020CF1080C0B0F04BF09015E
:1013B0000CF1040C8B0F04BF89000CF1020CCB0F55
:1013C00004BF49000CF1010CCCF12003A0EB0C0090
:1013D00022FA03F302FA0CF241EA030100F10100E0
:1013E000704720F07F4C80EA030023F07F47ACEB8E
:1013F000070303F57C5300F0004003F1FF032DE9E0
:1014000080494FEA154B09B44FEA144325EA0B4EC5
:1014100024EA03480FF2042606EB132749083E7816
:101420005FEA320203FB0667C7F5000707FB06F613
:101430004FEA54374FEAD64606F1020607FB066C20
:10144000CCF1005C4FEA1C472CEA074C07FB06F482
:101450000CFB06F504EB15464FEA961634BF002048
:101460004FF000404FEAD13706FB07FC4FEA1C4C17
:101470000CFB0BF7D21B03FB0CF761EB07010CFB1A
:101480000EF7B0EB074072EB17420CFB08F734BFC6
:10149000A2EB0742B2EB074261EB17414FEA0C4463
:1014A0004FEA910706FB07FC4FEA1C4C0CFB0BF7BD
:1014B000B0EBC74072EB573203FB0CF734BFA2EB23
:1014C000C742B2EBC74261EB57310CFB0EF7B0EBF2
:1014D000C70072EB57720CFB08F734BFA2EBC702D0
:1014E000B2EBC70261EB5771039F4FEA816141EA9A
:1014F000921104EBCC044FEAD1374FEA826206FB2B
:1015000007FC42EA90124FEA80604FEA1C4C0CFB49
:101510000BF7D21B03FB0CF761EB07010CFB0EF77B
:10152000B0EB074072EB17420CFB08F734BFA2EB9D
:101530000742B2EB074261EB17414FEA8C554FEA85
:10154000910704EB9C2406FB07FC4FEA1C4C0CFBA8
:101550000BF7B0EBC74072EB573203FB0CF734BF0D
:10156000A2EBC742B2EBC74261EB57310CFB0EF75F
:10157000B0EBC70072EB57720CFB08F734BFA2EB5D
:10158000C702B2EBC70261EB577115EB4C254FEA6E
:10159000816141EA92114FEA82624FEAD13742EA11
:1015A000901206FB07FC44F100044FEA80604FEA0A
:1015B0001C4C0CFB0BF7D21B03FB0CF761EB070178
:1015C0000CFB0EF7B0EB074072EB17420CFB08F771
:1015D00034BFA2EB0742B2EB074261EB174115EBB8
:1015E0001C154FEA813141EA92414FEA823242EAC8
:1015F00090424FEA80304FEA0C7644F1000448EA0A
:1016000003434EEA0B484FF0000EB2EB080C71EBAF
:10161000030724BF624639464EEB0E0E4FF0000B17
:101620000018524149414BEB0B0BB2EB080C71EB2C
:1016300003077BF1000B24BF624639464EEB0E0ECA
:101640004FF0000B0018524149414BEB0B0BB2EB32
:10165000080C71EB03077BF1000B24BF624639468F
:101660004EEB0E0E51EA020718BF46F0010616EBCC
:101670000E7655F1000254F1000103D5BDE8890151
:10168000BDE80088BDE88901BDE80048B6195241AF
:1016900041EB0101A3F10103704780807F7E7D7CD7
:1016A0007B7A7978777676757473727171706F6EF4
:1016B0006E6D6C6C6B6A6A6968686766666564649F
:1016C000636362616160605F5F5E5E5D5D5C5C5B29
:1016D0005B5A5A5959585857575656555555545498
:1016E000535352525251515050504F4F4F4E4E4DF6
:1016F0004D4D4C4C4C4B4B4B4A4A4A494949484842
:101700004847474747464646454545444444444381
:1017100043434342424242414141002B26D4770099
:1017200021D01CB54FEA370703B44FF010004FF03B
:1017300010014FF000000FBCBDE810400BF1010B91
:10174000BBF1010F08BF5FEA170722BF12F10102C8
:1017500011F101014FF0004143F1000300F000409E
:1017600043EA00007047F9D35708DAE746EA06462D
:1017700013F1400F4FEA16461FDD13F1200FDFBFB4
:1017800016430A46002120335B42C8D0C3F120072C
:1017900046EA064602FA07F74FEA164646EA070601
:1017A000C3F1200722FA03F201FA07F721FA03F145
:1017B0004FF0000342EA0702B1E746EA020646EAB2
:1017C00006464FEA164646EA0106BCBF46EA06460A
:1017D000360C4FF000034FF000024FF000019EE77F
:1017E0002DE9C048934630B491E8380007C831EA83
:1017F000400C48BF34EA430C03D5FFF7F2FDFFF776
:101800008CFFF0BCBDE800882DE9C048934630B499
:1018100091E8380007C810F0804F08BF13F0804FE0
:1018200003D100F005F8FFF778FFF0BCBDE80088B1
:1018300020F07F4780EA030023F07F4C07EB0C0386
:10184000A3F57C5300F00040A3F1FE0392F0000FDB
:1018500000F0B38095F0000F00F077802DE901498A
:101860004FEA11404FEA144621EA004800FB06FC0B
:1018700024EA064708FB06F607FB08F800FB07F713
:1018800018EB06484CEB164C4FEA124B18EB074886
:101890004FEA15464CEB174022EA0B4E0BFB06FCB9
:1018A00025EA06470EFB06F607FB0EFE0BFB07F7C5
:1018B0001EEB064E4CEB164C4FF000061EEB074E8F
:1018C0004CEB174B18EB0B0840F1000018EB0E0B1C
:1018D00058EB000840F100008F1A4FF000013CBFA8
:1018E000C943661B14BFB5EB040C00213CBFC943C0
:1018F000F61B4FEA17444EEA8E0E27EA04454FEADC
:101900001C4704FB07622CEA074C05FB07F70CFB9E
:1019100005F604FB0CFC16EB074642EB174216EBF0
:101920000C4642EB1C421BEB060658EB02024141FF
:1019300046EA9E0601D5BDE80189B619524141EB40
:101940000101A3F10103BDE801894FEA14454FEA03
:10195000114724EA054621EA074C05FB07F406FB7C
:1019600007F70CFB06F105FB0CFC11EB074144EB00
:1019700017444FEA124711EB0C4144EB1C4422EA96
:10198000074C05FB07F206FB07F70CFB06F605FB09
:101990000CFC16EB074642EB174216EB0C4642EBEB
:1019A0001C456A1854F1000148BF7047B6195241EE
:1019B00041EB0101A3F10103704795F0000F37D00F
:1019C0004FEA11424FEA144721EA024624EA074C43
:1019D00002FB07F106FB07F70CFB06F402FB0CFC0D
:1019E00014EB074441EB17414FEA154714EB0C4445
:1019F00041EB1C4125EA074C02FB07F506FB07F704
:101A00000CFB06F602FB0CFC16EB074645EB1745F4
:101A100016EB0C4645EB1C42121951F1000148BF70
:101A20007047B619524141EB0101A3F10103704720
:101A30004FEA14454FEA114724EA054621EA074CCC
:101A400005FB07F106FB07F70CFB06F24FF000065B
:101A500005FB0CFC12EB074241EB174112EB0C4269
:101A600051EB1C4148BF7047921841EB0101A3F1B3
:101A70000103704770B50446002500F06FFAA020FE
:101A800000F03AFA00F0AAFA204600F035FA00F029
:101A9000A5FA00F063FAA12000F02EFA00F09EFAF9
:101AA000002000F0ABF9054600F078FA052000F0C0
:101AB00041F8284670BD704770B505460C46224671
:101AC000294615480068801CFEF769FD2046E1178D
:101AD00004EB1161090A104A12681170E11704EB56
:101AE00011610912A4EB01210B4A12685170002107
:101AF00009480268A01C11540748006800F5967058
:101B0000054908600846006804490968884202D10E
:101B100003480149086070BD4000002048000020D3
:101B200038150020704710B56FF0040000F0FCFF7E
:101B300010BD000010B50146B1F5E16F22D201EBF6
:101B4000C1034FF47A7463434FF0E02463610023D0
:101B5000A36123461B6943F00103236100BF4FF0DB
:101B6000E023186900F001031BB100F48033002B5F
:101B7000F5D04FF0E0231B6923F001034FF0E02480
:101B800023614FE000221FE0274B4FF0E024636108
:101B90000023A36123461B6943F00103236100BFB7
:101BA0004FF0E023186900F001031BB100F480330B
:101BB000002BF5D04FF0E0231B6923F001034FF019
:101BC000E0242361531CDAB24FF4E163B1FBF3F379
:101BD0009342D9D84FF4E163B1FBF3F403FB141340
:101BE00003EBC3034FF47A7463434FF0E024636163
:101BF0000023A36123461B6943F00103236100BF57
:101C00004FF0E023186900F001031BB100F48033AA
:101C1000002BF5D04FF0E0231B6923F001034FF0B8
:101C2000E024236110BD00004031F700014601EBC4
:101C3000C1024FF0E0235A6100229A611A461269EC
:101C400042F001021A6100BF4FF0E022106900F07B
:101C500001021AB100F48032002AF5D04FF0E022E0
:101C6000126922F001024FF0E0231A6170472DE95A
:101C7000F041024600250026002000230024002712
:101C800091F803C00CF00F0591F803C00CF0100C94
:101C9000BCF1000F03D091F802C04CEA050591F8A1
:101CA00000C0BCF1000F31D0146800202BE04FF0D1
:101CB000010C0CFA00F3B1F800C00CEA03069E42D6
:101CC00020D183004FF00F0C0CFA03F7BC4305FA48
:101CD00003FC4CEA040491F803C0BCF1280F06D1C0
:101CE0004FF0010C0CFA00FCC2F814C00AE091F8A5
:101CF00003C0BCF1480F05D14FF0010C0CFA00FCF9
:101D0000C2F810C0401C0828D1D31460B1F800C03C
:101D1000BCF1FF0F34DD546800202EE000F1080C08
:101D20004FF0010808FA0CF3B1F800C00CEA030602
:101D30009E4221D183004FF00F0C0CFA03F7BC43F5
:101D400005FA03FC4CEA040491F803C0BCF1280F27
:101D500005D100F1080C08FA0CF8C2F8148091F8CB
:101D600003C0BCF1480F07D100F1080C4FF0010887
:101D700008FA0CF8C2F81080401C0828CED3546032
:101D8000BDE8F0810246002093680B400BB10120B2
:101D900000E00020704702460020D3680B400BB1E2
:101DA000012000E0002070474161704701617047E9
:101DB0000AB1016100E041617047704708B5012137
:101DC000102000F0B1FD4FF4C050ADF8000010201D
:101DD0008DF8030003208DF8020069460648FFF7DE
:101DE00046FF4FF480510448FFF7E0FF4FF40061D5
:101DF0000148FFF7DBFF08BD0010014070B5054644
:101E000000243C48406820F470403A494860084645
:101E1000406840F400404860C814086141003548FB
:101E2000FFF7C2FF1420FFF701FF00261EE04FF46A
:101E300080513048FFF7BAFF1420FFF7F7FE600625
:101E4000040E4FF400612B48FFF79CFF08B1601CA3
:101E5000C4B21420FFF7EAFE4FF480512548FFF783
:101E6000A3FF1420FFF7E2FE701CC6B2082EDEDBD3
:101E7000E5B92048406820F470401E494860084693
:101E8000406840F440504860C9141A48FFF78EFF7C
:101E90004FF480511748FFF789FF0220FFF7C6FE75
:101EA0004FF480511348FFF77FFF20E0114840684E
:101EB00020F470400F4948600846406840F44050A4
:101EC0004860C9140B48FFF76FFF4FF48051094871
:101ED000FFF76CFF0220FFF7A9FE4FF48051054881
:101EE000FFF762FF4FF400610248FFF75FFF2046F3
:101EF00070BD00000010014070B5044616484068EF
:101F000020F47040144948600846406840F440504E
:101F1000486089141048FFF747FF002519E0E209DF
:101F20004FF400610C48FFF743FF6006040E0220E7
:101F3000FFF77CFE4FF480510748FFF737FF022080
:101F4000FFF774FE4FF480510348FFF72DFF681C24
:101F5000C5B2082DE3DB70BD0010014010B50E487E
:101F6000406820F470400C4948600846406840F4DE
:101F700040504860C9140848FFF718FF4FF48051DB
:101F80000548FFF713FF0420FFF750FE4FF40061F0
:101F90000148FFF709FF10BD0010014010B50E48C1
:101FA000406820F470400C4948600846406840F49E
:101FB00040504860C9140848FFF7F6FE4FF48051BE
:101FC0000548FFF7F3FE0420FFF730FE4FF40061F1
:101FD0000148FFF7EBFE10BD0010014010B50024D2
:101FE0004FF400611848FFF7E1FE1748406820F4FD
:101FF0007040154948600846406840F40040486019
:10200000C814086141001048FFF7D0FE0AE0601CC8
:10201000C4B2FA2C03DDFFF7C1FF012010BD02207E
:10202000FFF704FE4FF400610748FFF7ABFE0028FE
:10203000EDD14FF480510448FFF7B6FE1420FFF7AE
:10204000F5FD0020EAE700000010014010B58021F6
:102050002448FEF71BFB24A225A12248FEF73EF9E7
:102060002048FEF77DFA2349086080212248FEF7C8
:102070000DFB1DA21EA12048FEF730F91E48FEF7F9
:102080006FFA1E49086080211D48FEF7FFFA16A26C
:1020900017A11B48FEF722F91948FEF761FA194902
:1020A000086080211848FEF7F1FA18A210A116481E
:1020B000FEF714F940F25B701849086008461249AF
:1020C000026817A002F0E2F906491AA002F0DEF950
:1020D00009491CA002F0DAF909491EA002F0D6F95C
:1020E00010BD0000141B00206B6662303031000010
:1020F000257300004C000020941B0020500000209D
:10210000141C002054000020941C00203139322E71
:102110003136382E38382E31333200005800002046
:10212000B7FE20CEF120C6F7A3BA25733A25640D79
:102130000A000000BFCDBBA7B6CB4944A3BA2573A4
:102140000D0A0000D3C320BBA720C3FBA3BA25738D
:102150000D0A0000C3DC20202020C2EBA3BA2573A7
:102160000D0A000008B50121042000F0DDFB01206C
:10217000ADF8000028208DF8030069460648FFF7F7
:1021800076FD0220ADF8000048208DF80300694676
:102190000148FFF76CFD08BD0008014010B50221A1
:1021A0000748FFF703FE01210548FFF7FFFD202147
:1021B0000448FFF7FBFD10210248FFF7F7FD10BDB3
:1021C000000C01400010014010B502210748FFF744
:1021D000EBFD01210548FFF7E7FD20210448FFF74B
:1021E000E3FD10210248FFF7DFFD10BD000C0140A8
:1021F0000010014008B50121082000F095FB0121E5
:10220000102000F091FB0320ADF800008DF80200D3
:1022100010208DF8030069460948FFF728FD30209B
:10222000ADF8000003208DF8020010208DF80300A7
:1022300069460448FFF71BFDFFF7B0FF08BD00002B
:10224000000C01400010014000B585B01421684623
:10225000FEF73EFA1DA16846FEF740F802211E482F
:10226000FFF799FD18B130208DF8080002E0312009
:102270008DF8080001211848FFF78DFD18B13020B6
:102280008DF8090002E031208DF809002021134863
:10229000FFF781FD18B130208DF80A0002E03120EF
:1022A0008DF80A0010210D48FFF775FD18B1302098
:1022B0008DF80B0002E031208DF80B000C226946EE
:1022C00007A000F009FA05B000BD00002B466F75AD
:1022D0007253573A00000000000C0140001001400A
:1022E0006B66625F746F70696300000010B516481A
:1022F00016490860084600681549086015481649DF
:1023000008601648164908600846006815490860C4
:1023100015481649086016481649086008460068BE
:102320001549086015481649086000F037F8002183
:1023300014A000F047FA00201549087015490870EC
:102340001549087010BD00008009002028000020F9
:102350002C000020300E0020300000205C0F0020F8
:1023600034000020380000200C1400203C00002025
:10237000381500204000002044000020E81900200B
:10238000480000206170705F746F70696300000026
:102390006B0000206A0000206800002070B501205A
:1023A0007A4908600A207A4908607A480068001D66
:1023B000794909680844801C7849096808447849C3
:1023C000086073480068096844181020754908704F
:1023D00000BF2046E11704EB5161C911A4EBC11500
:1023E000E11704EB5161CC11002C01DD45F08005B3
:1023F0006C48664A1268855464480068401C63490A
:102400000860002CE5DC0021664A60480068115431
:1024100004215E480068401C11544D215B4800684F
:10242000801C1154512159480068C01C115454217A
:1024300056480068001D115454480068401D11544E
:10244000042152480068801D1154C2214F48006881
:10245000C01D115400214D480068083011546421FA
:102460004A480068093011544A490868C11700EB0E
:102470001161C1F307224B4B444909680A315A5490
:1024800044490868C11700EB11610912A0EB012152
:10249000CAB23E4909680B315A541A463B49096889
:1024A0000C3150183B490A683F49FEF778F83A4921
:1024B0000868C11700EB1161C1F3072233490968AD
:1024C0000C31344B1B681944364B5A543249086856
:1024D000C11700EB11610912A0EB0121CAB22B490F
:1024E00009680D312B4B1B6819442E4B5A54274950
:1024F00009680E31274A126811441A46881826497D
:102500000A682A49FEF74BF824490868C11700EB0E
:102510001161C1F307221D4909680E311D4B1B686B
:1025200019441D4B1B6819441E4B5A541B4908681B
:10253000C11700EB11610912A0EB0121CAB21349C6
:1025400009680F31134B1B681944134B1B6819445E
:10255000144B5A540D49096810310E4A126811443F
:102560000D4A126811441A4688180C490A68104925
:10257000FEF715F805480068054A12681044084A35
:1025800012688118074800F0C3FD70BD5C00002090
:10259000600000204C00002050000020540000206B
:1025A00064000020141D0020141B0020941B002038
:1025B000141C00202DE9F04FD1B0804698F801108E
:1025C00098F8000001EB0020509008F1020700206D
:1025D000814605460646834601244FF0010A00BFA6
:1025E0000BF1010B00BF281917F8009009F07F00CC
:1025F00000FB0A664FEACA1A641C09F08000002832
:10260000F1D13019054431195098401A50900124E5
:10261000A246002650980028E2D1594620A001F099
:1026200035FF00200546064600BF00BF4C9030E055
:1026300000BF281917F8009009F07F0000FB0A6618
:102640004FEACA1A641C09F080000028F1D1601C0E
:102650002844395C6019385C01EB0020801C4F90E5
:102660004F98301A4E9029194F9808444D904D9824
:10267000391801A84E9AFDF792FF01A84E99FFF76D
:102680001BFA301905440124A24600264C98401C30
:102690004C904C985845CBDB51B0BDE8F08F000012
:1026A000B1BEB4CEBDD3CAD5C1CB2564B8F6CDC6B4
:1026B000CBCDCAFDBEDD0D0A0000000010B5C02064
:1026C00004490870002048700221024800F020FDF3
:1026D00010BD0000141D00202DE9F0470546884676
:1026E00016460120334908602846FDF739FF801C53
:1026F0003149086031480660084600682F4909687A
:10270000441830202E49087000BF2046E11704EB22
:102710005161C911A4EBC117E11704EB5161CC1150
:10272000002C01DD47F080072548224A12688754B3
:1027300020480068401C1F490860002CE5DC284642
:10274000FDF70EFFC0F307211D4A1A480068115417
:102750002846FDF705FFC1B2194A16480068401C1B
:1027600011542846FDF7FCFE8146154A11490968B7
:10277000891C50184A462946FDF711FF2846FDF7E7
:10278000EFFE0C490968891C08440D4900EB01095A
:10279000324641464846FDF702FF06480068064AB1
:1027A00012681044054A12688118054800F0B0FC10
:1027B000BDE8F0875C00002060000020640000207D
:1027C000141D002070B504460D4602201F49086004
:1027D0001F4908602046FDF7C3FEC01C1D49086064
:1027E00082201D4908701A4800781A49097808445F
:1027F00019494870002088700120C8702046FDF7F4
:10280000AFFE000A144908712046FDF7A9FE1249DF
:1028100048712046FDF7A4FE0646324621460E4882
:10282000801DFDF7BCFE2046FDF79AFE801D0A497B
:102830000D5406480068064A12681044054A12689A
:102840008118054800F064FC70BD00005C000020A9
:102850006000002064000020141D002070477047B5
:1028600070B5002100230F22C47804B3154C2468EE
:1028700004F4E064C4F5E064210AC1F10403CA4031
:10288000447804FA03F184781440214309010E4C82
:102890000678A155047804F01F050124AC400578A2
:1028A0006D11AD0005F1E025C5F8004109E004789F
:1028B00004F01F050124AC40044D0678761145F85C
:1028C000264070BD0CED00E000E400E080E100E097
:1028D00002490143024A1160704700000000FA05F6
:1028E0000CED00E07047000029B1064AD2690243AE
:1028F000044BDA6104E0034AD2698243014BDA6196
:10290000704700000010024029B1064A12690243D4
:10291000044B1A6104E0034A12698243014B1A61B5
:10292000704700000010024029B1064A9269024334
:10293000044B9A6104E0034A92698243014B9A6115
:10294000704700000010024029B1064AD2680243D5
:10295000044BDA6004E0034AD2688243014BDA6038
:10296000704700000010024030B500210022002412
:1029700000232D4D6D6805F00C0121B1042905D00F
:10298000082923D105E0294D056022E0274D056087
:102990001FE0254D6D6805F47012234D6D6805F438
:1029A0008034022505EB92421CB9214D5543056048
:1029B0000BE01D4D6D6805F400351DB11C4D5543F0
:1029C000056002E0194D5543056002E0174D0560B2
:1029D00000BF00BF144D6D6805F0F0010909154DE9
:1029E0006B5C0568DD4045600F4D6D6805F4E06186
:1029F000090A104D6B5C4568DD4085600A4D6D68C5
:102A000005F46051C90A0B4D6B5C4568DD40C5603B
:102A1000054D6D6805F44041890B074D6B5CC56839
:102A2000B5FBF3F5056130BD0010024000127A00DD
:102A300000093D006C0000207C000020704710B5AC
:102A400000F002F810BD00000CB5002001900090CD
:102A50003348006840F480303149086000BF304896
:102A6000006800F4003000900198401C019000982C
:102A700018B90198B0F5A06FF1D12948006800F4A9
:102A8000003010B10120009001E00020009000987B
:102A9000012843D12348006840F010002149086014
:102AA0000846006820F0030008600846006840F00F
:102AB000020008601A4840681949486008464068A2
:102AC00048600846406840F48060486008464068B6
:102AD00020F47C1048600846406840F4E8104860E4
:102AE0000846006840F08070086000BF0C4800682D
:102AF00000F000700028F9D00948406820F0030079
:102B0000074948600846406840F00200486000BF3E
:102B10000348406800F00C000828F9D10CBD000003
:102B2000001002400020024010B50446042C08D1D9
:102B30004FF0E020006940F004004FF0E021086110
:102B400007E04FF0E020006920F004004FF0E021A2
:102B50000861FFF733F900BFFF20FEF78BFF552810
:102B6000FAD110BD7047000010B51348006840F05E
:102B700001001149086008464068104908400E49A4
:102B80004860084600680E4908400B49086008463E
:102B9000006820F4802008600846406820F4FE00A9
:102BA00048604FF41F008860FFF749FF4FF0006056
:102BB0000449086010BD0000001002400000FFF84A
:102BC000FFFFF6FE08ED00E01FB54FF4A060FFF731
:102BD0007FFE01210220FFF787FE184800F036F93A
:102BE00044F61F60ADF8080041F61F40ADF8040040
:102BF0000020ADF80600ADF80A0001A90F4800F06A
:102C000035FA01210D4800F011F9012211460B4857
:102C100000F021FA0121094800F00BF91D208DF880
:102C2000000001208DF8010000208DF80200012035
:102C30008DF803006846FFF713FE1FBD0004004037
:102C40001FB54FF4A060FFF743FE01210220FFF7FC
:102C50004BFE184800F0FAF84EF65F20ADF8080079
:102C600048F69F40ADF804000020ADF80600ADF82E
:102C70000A0001A90F4800F0F9F901210D4800F000
:102C8000D5F8012211460B4800F0E5F90121094869
:102C900000F0CFF81D208DF8000002208DF8010013
:102CA00001208DF802008DF803006846FFF7D8FD7B
:102CB0001FBD00000004004010B50121164800F0BF
:102CC000B9F938B315480078062819D2DFE800F0C2
:102CD00003060B0C0D10FFF7F1FC11E0FFF774FF7A
:102CE000FFF7ECFC0CE000BF00BFFFF7E7FC07E0DC
:102CF00000200B4908700021074800F09AF800BF37
:102D000000BF06480078401C0449087001210248B1
:102D100000F08CF810BD00000004004068000020A6
:102D20006900002010B501211D4800F083F900283A
:102D300034D01C481C4902681C480068801CFDF700
:102D40002EFC18480088000A1849096808701548C0
:102D500000781649096848701448006800F59670B4
:102D6000124908600846006811490968884202D182
:102D700010480E49086000200A49086000210E48EA
:102D800000F072F90021064800F053F800210448D1
:102D900000F06AF90121024800F048F810BD000077
:102DA00000080040200000208001002028000020B2
:102DB0003000002080090020000400407FB5054657
:102DC0000C464FF4A060FFF783FD01210420FFF7BC
:102DD0008BFDADF80850ADF804400020ADF80600BA
:102DE000ADF80A0001A9104800F040F901210E4891
:102DF00000F01CF8012211460B4800F02CF90021CC
:102E0000094800F016F81E208DF8000001208DF80A
:102E1000010000208DF8020001208DF803006846B3
:102E2000FFF71EFD7FBD000000080040CA4302827C
:102E3000704721B1028842F00102028004E002885A
:102E40004FF6FE731A4002807047000010B504462A
:102E50006848844208D10121C014FFF775FD0021A4
:102E6000E014FFF771FDC4E0B4F1804F08D10121F7
:102E70000846FFF749FD00210120FFF745FDB8E0B6
:102E80005D48844208D101210220FFF73DFD002169
:102E90000220FFF739FDACE05848844208D10121F7
:102EA0000420FFF731FD00210420FFF72DFDA0E0F5
:102EB0005348844208D101210820FFF725FD002155
:102EC0000820FFF721FD94E04E48844208D10121FB
:102ED0001020FFF719FD00211020FFF715FD88E0F5
:102EE0004948844208D101212020FFF70DFD00212F
:102EF0002020FFF709FD7CE04448844208D10121ED
:102F00004014FFF721FD00216014FFF71DFD70E064
:102F10003F48844209D10121C804FFF715FD002173
:102F20004FF40020FFF710FD63E03A48844209D1D6
:102F300001210805FFF708FD00214FF48010FFF77D
:102F400003FD56E03448844209D101214805FFF7CA
:102F5000FBFC00214FF40010FFF7F6FC49E02F487E
:102F6000844208D101214020FFF7CEFC00214020FF
:102F7000FFF7CAFC3DE02A48844208D101218020A5
:102F8000FFF7C2FC00218020FFF7BEFC31E025489E
:102F9000844208D101218015FFF7B6FC0021A0155D
:102FA000FFF7B2FC25E02048844209D10121080442
:102FB000FFF7CAFC00214FF48030FFF7C5FC18E092
:102FC0001A48844209D101214804FFF7BDFC0021C1
:102FD0004FF40030FFF7B8FC0BE01548844208D1ED
:102FE00001218804FFF7B0FC00214FF48020FFF797
:102FF000ABFC10BD002C0140000400400008004064
:10300000000C00400010004000140040003401405B
:10301000004C0140005001400054014000180040A5
:10302000001C0040002000400040014000440140DE
:103030000048014030B50246002000230024158AD4
:1030400005EA0103958905EA010413B10CB10120D9
:1030500000E0002030BD1AB183890B43838102E078
:1030600083898B4383817047818470470022028863
:103070001D4B98420ED01D4B98420BD0B0F1804FA3
:1030800008D01B4B984205D01A4B984202D01A4BDD
:10309000984204D14FF68F731A404B881A43174B4E
:1030A000984207D0164B984204D04FF6FF431A407F
:1030B000CB881A4302808B8883850B8803850A4B53
:1030C00098420BD0094B984208D00E4B984205D03D
:1030D0000D4B984202D00D4B984201D10B7A0386DA
:1030E0000123838270470000002C0140003401401E
:1030F0000004004000080040000C004000100040A8
:1031000000140040004001400044014000480140DC
:1031100070B505460C462246294613480068801CB7
:10312000FDF73DFA2046E11704EB1161090A0E4A4A
:1031300012681170E11704EB11610912A4EB01216F
:10314000094A126851700848006800F596700649EF
:1031500008600846006805490968884202D10448A9
:103160000149086070BD0000340000203C000020D0
:103170005C0F002010B540F22551184800F09CF873
:1031800058B31748007880B91448001D008820B350
:103190001248001D00881349134A126888541248C7
:1031A0000068401C1049086017E00C48001D0088AA
:1031B0000C490D4A126888540B48006820B9012157
:1031C0000A48FFF736FE03E000210848FFF74CFFEE
:1031D00005480068401C0449086010BD00440040D8
:1031E000690000208001002020000020000800402D
:1031F00001F40072B2F5007F00D100BFCA43028023
:10320000704721B1828942F40052828104E08289B0
:103210004DF6FF731A4082817047000010B50446D6
:103220002048844209D101218803FFF78DFB00214A
:103230004FF48040FFF788FB32E01B48844209D1FD
:1032400001214804FFF760FB00214FF40030FFF735
:103250005BFB25E01548844209D101218804FFF772
:1032600053FB00214FF48020FFF74EFB18E010487D
:10327000844209D10121C804FFF746FB00214FF425
:103280000020FFF741FB0BE00A48844208D10121EE
:103290000805FFF739FB00214FF48010FFF734FBDE
:1032A00010BD0000003801400044004000480040CC
:1032B000004C00400050004070B50246002400233E
:1032C0000025002040F66A16B14200D100BFC1F3CC
:1032D000421501F01F03012606FA03F3012D02D166
:1032E0009689334006E0022D02D1168A334001E070
:1032F000968A33400C12012606FA04F416883440EC
:1033000013B10CB1012000E0002070BDF0B5034600
:10331000002400260025002040F66A17B94200D19B
:1033200000BF1846C1F3421401F01F06012707FA37
:1033300006F5012C01D10C3004E0022C01D1103033
:1033400000E014301AB107682F43076002E00768F5
:10335000AF430760F0BD00002DE9F04786B0054699
:103360000E460024A24600BFA1460027B08900B146
:1033700000BF2F462C8A4CF6FF700440F0880443AF
:103380002C82AC894EF6F3100440B0883189084392
:10339000718908430443AC81AC8A4FF6FF40044076
:1033A000B0890443AC8201A8FFF7DEFA1F488742C8
:1033B00002D1DDF810A001E0DDF80CA0A88900F42E
:1033C000004040B10AEBCA0000EB0A103168490026
:1033D000B0FBF1F807E00AEBCA0000EB0A10316815
:1033E0008900B0FBF1F86420B8FBF0F0040120097B
:1033F000642101FB1089A88900F4004040B132200B
:1034000000EBC900B0FBF1F000F00700044308E056
:10341000322000EB09106421B0FBF1F000F00F0046
:1034200004432C8106B0BDE8F0870000003801405D
:103430007047000010B586B0044601218803FFF7ED
:1034400073FA01210420FFF76FFA4FF40070ADF812
:10345000140003208DF8160018208DF8170005A918
:103460001248FEF704FC4FF48060ADF8140004200D
:103470008DF8170005A90D48FEF7F9FB019400200F
:10348000ADF80800ADF80A00ADF80C00ADF810007A
:103490000820ADF80E0001A90548FFF75DFF0121E6
:1034A0000348FFF7AEFE06B010BD00000008014063
:1034B0000038014010B586B004464FF4A060FFF715
:1034C00007FA01214804FFF70FFA01210420FFF752
:1034D0002BFA2448FFF7A2FE0420ADF814000320C5
:1034E0008DF8160018208DF8170005A91E48FEF764
:1034F000BEFB0820ADF8140004208DF8170005A9C4
:103500001948FEF7B4FB01940020ADF80800ADF8AF
:103510000A00ADF80C00ADF810000C20ADF80E005C
:1035200001A91048FFF718FF20210E48FFF760FEA1
:10353000012240F225510B48FFF7E8FE26208DF8C6
:10354000000000208DF801008DF8020001208DF8A8
:1035500003006846FFF784F901210248FFF751FE96
:1035600006B010BD004400400008014010B564A042
:1035700000F08CFF322000F083FB20B164A000F04B
:1035800085FF012010BD68A000F080FF69A000F059
:103590007DFF32216CA000F0C5FB20B16DA000F0D2
:1035A00075FF0220EEE772A000F070FF754800780A
:1035B00000281FD174A000F069FF322177A000F02D
:1035C000B1FB20B179A000F061FF0320DAE77FA012
:1035D00000F05CFF82A000F059FF1E2000F0F8FA16
:1035E00020B184A000F052FF0420CBE788A000F0B7
:1035F0004DFF54E002218B48FEF7C4FB00283FD169
:1036000089A000F043FF32218CA000F08BFB20B199
:103610008EA000F03BFF0320B4E794A000F036FF3B
:1036200097A000F033FF32219BA000F07BFB20B17C
:103630009DA000F02BFF0420A4E7A3A000F026FF2C
:10364000A7A000F023FF3C2000F0A6FB20B1AAA019
:1036500000F01CFF052095E7AEA000F017FFB1A019
:1036600000F014FF3221B5A000F05CFB20B1B7A040
:1036700000F00CFF062085E7BCA000F007FF0EE07D
:10368000C0A000F003FF1E2000F0BCFB20B159A039
:1036900000F0FCFE072075E75DA000F0F7FEBEA07D
:1036A00000F0F4FE3221C0A000F03CFB20B1C2A02B
:1036B00000F0ECFE082065E7C6A000F0E7FEC9A018
:1036C00000F0E4FE3221CCA000F02CFB20B1CDA014
:1036D00000F0DCFE092055E7D2A000F0D7FED6A00E
:1036E00000F0D4FE642000F0C9F920B1D7A000F0AA
:1036F000CDFE0A2046E7DCA000F0C8FE002041E72E
:10370000D7BCB1B8B8B4CEBBC4A3BFE90D0A0000A2
:10371000B8B4CEBBCAA7B0DCA3ACD7BCB1B8D6D8BE
:10372000C6F40D0A00000000B8B4CEBBB3C9B9A6F8
:103730000D0A0000D7BCB1B8C9E8D6C3535441C480
:10374000A3CABD0D0A00000041542B43574D4F44FE
:10375000453D3100C9E8D6C3535441C4A3CABDCACC
:10376000A7B0DCA3ACD7BCB1B8D6D8C6F40D0A005C
:10377000C9E8D6C3535441C4A3CABDB3C9B9A60D41
:103780000A00000024000020D7BCB1B8C8A1CFFBBC
:10379000D7D4B6AFC1ACBDD30D0A000041542B4302
:1037A000574155544F434F4E4E3D3000C8A1CFFBBB
:1037B000D7D4B6AFC1ACBDD3CAA7B0DCA3ACD7BC1D
:1037C000B1B8D6D8C6F40D0A00000000C8A1CFFBDE
:1037D000D7D4B6AFC1ACBDD3B3C9B9A60D0A0000EA
:1037E000D7BCB1B8C1ACBDD3C2B7D3C9C6F70D0AF7
:1037F00000000000C1ACBDD3C2B7D3C9C6F7CAA789
:10380000B0DCA3ACD7BCB1B8D6D8C6F40D0A000062
:10381000C1ACBDD3C2B7D3C9C6F7B3C9B9A60D0AE7
:103820000000000000080140D7BCB1B8C9E8D6C309
:10383000D7D4B6AFC1ACBDD30D0A000041542B4361
:10384000574155544F434F4E4E3D3100C9E8D6C302
:10385000D7D4B6AFC1ACBDD3CAA7B0DCA3ACD7BC7C
:10386000B1B8D6D8C6F40D0A00000000C9E8D6C326
:10387000D7D4B6AFC1ACBDD3B3C9B9A60D0A000049
:10388000D7BCB1B8BFAAC6F4536D617274636F6ED2
:103890006669670D0A00000041542B435753544199
:1038A0005254534D41525400BFAAC6F4536D617235
:1038B00074636F6E666967CAA7B0DCA3ACD7BCB18E
:1038C000B8D6D8C6F40D0A00BFAAC6F4536D61720B
:1038D00074636F6E666967B3C9B9A60D0A0000000C
:1038E000C7EBCAB9D3C3415050C8EDBCFEB4ABCA94
:1038F000E4C3DCC2EB0D0A00B4ABCAE4C3DCC2EB28
:10390000CAA7B0DCA3ACD7BCB1B8D6D8C6F40D0AF0
:1039100000000000B4ABCAE4C3DCC2EBB3C9B9A673
:103920000D0A0000D7BCB1B8B9D8B1D5536D6172DA
:1039300074636F6E6669670D0A00000041542B4383
:103940005753544F50534D4152540000B9D8B1D53C
:10395000536D617274636F6E666967CAA7B0DCA34A
:10396000ACD7BCB1B8D6D8C6F40D0A00B9D8B1D519
:10397000536D617274636F6E666967B3C9B9A60DE2
:103980000A000000B5C8B4FDC1ACBDD3C2B7D3C9ED
:10399000C6F70D0A00000000D7BCB1B8C9E8D6C30D
:1039A000CDB8B4AB0D0A000041542B4349504D4FE4
:1039B00044453D3100000000C9E8D6C3CDB8B4ABE2
:1039C000CAA7B0DCA3ACD7BCB1B8D6D8C6F40D0A30
:1039D00000000000C9E8D6C3CDB8B4ABB3C9B9A6DE
:1039E0000D0A0000D7BCB1B8B9D8B1D5B6E0C2B79E
:1039F000C1ACBDD30D0A000041542B4349504D5575
:103A0000583D3000B9D8B1D5B6E0C2B7C1ACBDD3CE
:103A1000CAA7B0DCA3ACD7BCB1B8D6D8C6F40D0ADF
:103A200000000000B9D8B1D5B6E0C2B7C1ACBDD373
:103A3000B3C9B9A60D0A0000D7BCB1B8C1ACBDD39B
:103A4000B7FECEF1C6F70D0A00000000C1ACBDD331
:103A5000B7FECEF1C6F7CAA7B0DCA3ACD7BCB1B8ED
:103A6000D6D8C6F40D0A0000C1ACBDD3B7FECEF166
:103A7000C6F7B3C9B9A60D0A0000000010B5044688
:103A800000202E4908604FF480612D48FCF7FEFDB0
:103A90002C482D4902682DA000F046FD1AE0642054
:103AA000FEF748F830A12648FCF71CFD00B115E0F0
:103AB0002FA12348FCF716FD08B1012010BD2EA14F
:103AC0001F48FCF70FFD08B10220F7E721462FA0A1
:103AD00000F0DCFC2000A4F10104E0D100BF2CA028
:103AE00000F0D4FC002C01DC0320E7E729A000F063
:103AF000CDFC0020114908604FF480611048FCF7AC
:103B0000C5FD2CA000F010FD0CE06420FEF712F8BB
:103B10002CA10B48FCF7E6FC00B107E021461BA0F6
:103B200000F0B4FC2000A4F10104EED100BF002C91
:103B300001DC0420C2E70020C0E7000020000020D4
:103B40008001002058000020941C002041542B4389
:103B5000495053544152543D22544350222C222563
:103B600073222C25640D0A00434F4E4E45435400EA
:103B7000434C4F5345440000414C52454144592069
:103B8000434F4E4E454354454400000025642000F9
:103B90000D0A0000C1ACBDD3B7FECEF1C6F7B3C964
:103BA000B9A6A3ACD7BCB1B8BDF8C8EBCDB8B4AB1F
:103BB0000D0A000041542B43495053454E440D0A11
:103BC000000000000D0A4F4B0D0A0D0A3E000000D8
:103BD00010B504460020144908604FF48061134872
:103BE000FCF754FD12A216A118A000F09DFC0DE0F8
:103BF0004FF47A70FDF79EFF1AA10C48FCF772FC97
:103C000000B107E021461CA000F040FC2000A4F118
:103C10000104EDD100BF19A000F038FC002C01DC3C
:103C2000012010BD0020FCE72000002080010020C2
:103C3000776331393837313130332E2E00000000B0
:103C4000757365724357445A0000000041542B437A
:103C5000574A41503D222573222C222573220D0AFA
:103C6000000000005749464920474F542049500D55
:103C70000A0D0A4F4B000000256420000D0A0000C9
:103C800010B50446002210211348FEF791F84FF4B6
:103C9000FA70FDF74FFF012210210F48FEF788F858
:103CA0000CE06420FDF746FF0CA10E48FCF71AFC5F
:103CB00000B107E021460CA000F0E8FB2000A4F1D1
:103CC0000104EED100BF09A000F0E0FB002C01DCF4
:103CD000012010BD0020FCE700080140726561640E
:103CE0007900000080010020256420000D0A0000FA
:103CF00008B501210420FEF717FE1020ADF80000E2
:103D000003208DF8020010208DF803006946044856
:103D1000FDF7ADFF012210210148FEF749F808BD6B
:103D20000008014070B505460C46002013490860A4
:103D30004FF480611248FCF7A9FC294611A000F05D
:103D4000F3FB0CE06420FDF7F5FE10A10C48FCF736
:103D5000C9FB00B107E021460DA000F097FB200051
:103D6000A4F10104EED100BF0AA000F08FFB002CEB
:103D700001DC012070BD0020FCE7000020000020D5
:103D80008001002025730D0A000000004F4B000049
:103D9000256420000D0A000010B5044600201249D9
:103DA00008604FF480611148FCF770FC0DE04FF49F
:103DB0007A70FDF7BFFE0EA10C48FCF793FB00B133
:103DC00007E021460DA000F061FB2000A4F10104F2
:103DD000EDD100BF0AA000F059FB002C01DC01204E
:103DE00010BD0020FCE70000200000208001002022
:103DF000636F6E6E65637465640000002564200067
:103E00000D0A000010B504460DE04FF47A70FDF77E
:103E100091FE0CA10E48FCF765FB00B107E02146BE
:103E20000CA000F033FB2000A4F10104EDD100BF91
:103E300009A000F02BFB002C01DC012010BD0020AC
:103E4000FCE700005749464920474F54204950009D
:103E500080010020256420000D0A0000490050EA7E
:103E6000C12018BF04204A0D18BF40F0010040F2E5
:103E7000FF72B2EB515F08BF40F00200012808BF9B
:103E80000520704730380A2801D2012070470020F1
:103E900070470000FDF747FE4FF41650FFF7CAFACF
:103EA0004FF4E130FFF706FB42F2D0014FF4FA7015
:103EB000FEF784FFFEF79EF9FEF754F9FFF718FFAF
:103EC000FEF7C4F8D1E1E9480078012872D1E8484A
:103ED0000068E849096888422AD0E5480068807887
:103EE00010280CD0E24800688078822803D1E2488C
:103EF0000078012803D0E1480078012818D1DC4877
:103F000000688178DEA000F0C1FAD948006800F0AE
:103F1000EBFAD748006800F59670D5490860084666
:103F20000068DB490968884202D1DA48D049086054
:103F3000D9480068D9490968884277D0D8A000F0EC
:103F4000A5FAD5480068807820283CD1D24800687E
:103F5000407906282FD2DFE800F0030A11181F2647
:103F6000D2A000F093FA0120C34908702AE0D4A03F
:103F700000F08CFA0020BD49087023E0DBA000F0BF
:103F800085FA0020B94908701CE0E4A000F07EFA30
:103F90000020B649087015E0EAA000F077FA00208A
:103FA000B24908700EE0F2A000F070FA0020AF49AC
:103FB000087007E033E1F6A000F068FA0020AB4992
:103FC000087000BF49E0B4480068807890281DD18F
:103FD000B1480068807910B101280FD100E000BF1E
:103FE000F4A000F053FA0120A44908700020F4491D
:103FF0000870FEF725FEFEF727F906E0F1A000F0B5
:1040000045FA00209949087000BF26E0A2480068E0
:104010008078D02815D1F1A000F038FAE84800786F
:10402000012804D10020E649087016E024E0E448A5
:104030000078012811DD0020E1490870FEF700FE3C
:104040000BE0954800688078302806D1E7A000F0A2
:104050001DFA91480068FEF7ADFA8F48006800F538
:1040600096708D49086008460068E54909688842ED
:1040700002D1E44888490860E3480068E3490968D8
:10408000884277D0E0480168891CE1A000F0FEF981
:10409000E2480068FCF764FA04462246DF480168FB
:1040A000D9480068801CFCF72FFA80B90221DC484F
:1040B000FDF771FE08B9012000E000200446224609
:1040C0000221D748FDF774FEFEF7BEF897E0D54809
:1040D0000068FCF745FA04462246D2480168CA48FF
:1040E0000068801CFCF710FA80B90121CC48FDF76C
:1040F00052FE08B9012000E00020044622460121BA
:10410000C748FDF755FEFEF79FF878E0C6480068FF
:10411000FCF726FA04462246C3480168BA480068FC
:10412000801CFCF7F1F980B92021C048FDF733FE6F
:1041300008B9012000E00020044622462021BB48A7
:10414000FDF736FEFEF780F859E0B9480068FCF745
:1041500007FA04462246B6480168AB480068801C4E
:10416000FCF7D2F988B91021B048FDF714FE10B958
:10417000012001E052E00020044622461021AB4815
:10418000FDF716FEFEF760F839E0AA480068FCF774
:10419000E7F904462246A74801689B480068801C4E
:1041A000FCF7B2F910B9FEF74FF828E0A248006812
:1041B000FCF7D6F9044622469F48016892480068F9
:1041C000801CFCF7A1F920B9FDF7FEFFFEF73CF8D3
:1041D00015E09A480068FCF7C3F904462246974860
:1041E000016889480068801CFCF78EF920B9FDF74A
:1041F000D5FFFEF729F802E091A000F047F98248C8
:10420000006800F5967080490860084600688F498C
:104210000968884229D18E487B49086025E08DA035
:1042200000F034F900219048FEF703FE00218F488A
:10423000FEF7FFFD00208E4908604FF480618D4835
:10424000FCF724FAFFF792F978B98BA000F01EF979
:104250000120064908700020854908604FF48061FC
:104260008448FCF713FAFEF741F82CE669000020B9
:1042700038000020340000206A0000206B0000207D
:10428000B7A2CBCDCAFDBEDD3A307825780D0A0045
:104290003C0000205C0F00202C00002028000020A3
:1042A000BDD3CAD5B5BDCAFDBEDD3A00434F4E4EA3
:1042B000454354B1A8CEC4B3C9B9A60D0A00000045
:1042C000C1ACBDD3D2D1BEDCBEF8A3ACB2BBD6A7C5
:1042D000B3D6B5C4D0ADD2E9B0E6B1BEA3ACD7BCBD
:1042E000B1B8D6D8C6F40D0A00000000C1ACBDD3E9
:1042F000D2D1BEDCBEF8A3ACB2BBBACFB8F1B5C464
:10430000BFCDBBA7B6CBB1EACAB6B7FBA3ACD7BC8F
:10431000B1B8D6D8C6F40D0A00000000C1ACBDD3B8
:10432000D2D1BEDCBEF8A3ACB7FECEF1B6CBB2BBE9
:10433000BFC9D3C3A3ACD7BCB1B8D6D8C6F40D0A95
:1043400000000000C1ACBDD3D2D1BEDCBEF8A3AC2E
:10435000CEDED0A7B5C4D3C3BBA7C3FBBBF2C3DCBF
:10436000C2EBA3ACD7BCB1B8D6D8C6F40D0A0000D6
:10437000C1ACBDD3D2D1BEDCBEF8A3ACCEB4CADAD8
:10438000C8A8A3ACD7BCB1B8D6D8C6F40D0A0000F3
:10439000C1ACBDD3D2D1BEDCBEF8A3ACCEB4D6AADC
:1043A000D7B4CCACA3ACD7BCB1B8D6D8C6F40D0A40
:1043B00000000000B6A9D4C4B3C9B9A60D0A000014
:1043C00068000020B6A9D4C4CAA7B0DCA3ACD7BC8F
:1043D000B1B8D6D8C6F40D0A0000000050494E47C7
:1043E000B1A8CEC4BBD8B8B40D0A0000B7FECEF158
:1043F000C6F7B5C8BCB630CDC6CBCD0D0A0000009F
:1044000030000020800900204400002040000020EF
:10441000C3FCC1EE3A25730D0A0000000000002025
:10442000000C0140040000200800002000100140A2
:104430000C000020100000201400002018000020B4
:10444000CEB4D6AAD6B8C1EE0D0A000048000020AE
:1044500038150020D0E8D2AAC1ACBDD3B7FECEF14A
:10446000C6F70D0A000000000008004000040040EC
:104470002000002080010020BDA8C1A2544350C1EB
:10448000ACBDD3B3C9B9A60D0A0000000FB438B54E
:1044900005A800901248009A0499FBF70DFF002030
:1044A00000900F48FCF75CF8054600BF0D480088F7
:1044B00000F040000028F9D000240CE00848005D1E
:1044C0000849091D088000BF0648008800F0400028
:1044D0000028F9D0641CAC42F0D338BC5DF814FB62
:1044E000800000200038014000BF0E4A128802F010
:1044F0004002002AF9D001210CE04A1C825C094BE1
:104500001B1D1A8000BF074A128802F04002002AD1
:10451000F9D0491C4378027803EB02228A42ECDA94
:1045200070470000004400400FB438B505A8009063
:104530001248009A0499FBF7BFFE002000900F4834
:10454000FCF70EF8054600BF0D48008800F040005B
:104550000028F9D000240CE00848005D0849091D36
:10456000088000BF0648008800F040000028F9D00D
:10457000641CAC42F0D338BC5DF814FB800500200D
:104580000044004010B500290AD00878002807D060
:1045900005487844FCF76CFE002801D0002010BDCF
:1045A0000248784410BD0000B6010000AE010000D2
:1045B00010B500290AD00878002807D005487844AB
:1045C000FCF756FE002801D0002010BD02487844B8
:1045D00010BD0000A60100009E010000FCF7F3BB27
:1045E00004000008000000000000000200010000BC
:1045F00010000000000000000000000030313233E5
:104600003435363738394142434445464030580006
:104610003031323334353637383961626364656638
:104620004030780002400000000000A000000000C0
:1046300005400000000000C8000000000C40000021
:104640000000409C00000000194000000020BCBE9B
:104650000000000034400000BFC91B8E00000004B1
:10466000B5400000504BCFD06607E2CF01000000FC
:104670006C4100003E8251AADFEEA7340100000029
:10468000D9420000DCB5A0E23A301F97FFFFFFFFE0
:10469000B4450000FD25A0C8E9A3C14FFFFFFFFFFF
:1046A000FF3F00000000008000000000FF3F00000E
:1046B00000000080000000004150502B466F7572D2
:1046C00041535730000000004150502B466F757227
:1046D00041535731000000004150502B466F757216
:1046E0004153573F000000004150502B466F7572F8
:1046F00053573143000000004150502B466F7572F4
:1047000053573243000000004150502B466F7572E2
:1047100053573343000000004150502B466F7572D1
:104720005357344300000000744800080000002084
:10473000800000006C010008F448000880000020A0
:1047400020240000880100081C0000004300000035
:10475000F8FFFFFF0C0000000E0000000F0000003B
:104760002E0000001001000043000000F8FFFFFFD2
:104770000040404040404040404041414141414074
:104780004040404040404040404040404040404029
:1047900040050202020202020202020202020202B8
:1047A00002202020202020202020200202020202BD
:1047B0000202909090909090101010101010101015
:1047C0001010101010101010101010100202020221
:1047D0000202888888888888080808080808080865
:1047E0000808080808080808080808080202020261
:1047F0004000000000000000000000000000000079
:1048000000000000000000000000000000000000A8
:104810000000000000000000000000000000000098
:104820000000000000000000000000000000000088
:104830000000000000000000000000000000000078
:104840000000000000000000000000000000000068
:104850000000000000000000000000000000000058
:104860000000000000000000000000000000000048
:1048700000000000E8460008F84600080847000865
:1048800018470008D8460008C8460008B84600087F
:104890000000000000000000000000000000000018
:1048A0000000000000000000000000000000000008
:1048B00000000000000000000000000000000000F8
:1048C00000000000000000000000000000000000E8
:1048D00000000000000000000000000000000000D8
:1048E0000000000001020304010203040607080996
:0448F00002040608B0
:040000050800027974
:00000001FF
