:020000040800F2
:100000008817002079020008671C00082B1C0008D4
:10001000651C0008F11900085924000800000000C0
:10002000000000000000000000000000451E000865
:10003000F319000800000000ED1C0008591F00081B
:10004000930200089302000893020008930200083C
:10005000930200089302000893020008930200082C
:10006000930200089302000893020008930200081C
:10007000930200089302000893020008930200080C
:1000800093020008930200089302000893020008FC
:1000900093020008930200089302000893020008EC
:1000A00093020008930200089302000893020008DC
:1000B0009302000893020008BD1F00089302000885
:1000C00093020008930200089302000893020008BC
:1000D00093020008930200089D2100089302000883
:1000E000930200089302000893020008930200089C
:1000F000930200089302000893020008930200088C
:10010000930200089302000893020008930200087B
:10011000930200089302000893020008930200086B
:10012000930200089302000893020008930200085B
:1001300000F002F800F090F80AA090E8000C824469
:100140008344AAF10107DA4501D100F085F8AFF246
:10015000090EBAE80F0013F0010F18BFFB1A43F0A5
:1001600001031847DC310000FC310000103A24BFC5
:1001700078C878C1FAD8520724BF30C830C144BF0C
:1001800004680C607047000000230024002500264E
:10019000103A28BF78C1FBD8520728BF30C148BFEA
:1001A0000B6070476E2900F09782702900F0EF8392
:1001B000662903F04F80652903F04C80672903F01E
:1001C00049806129AFF3008003681B0A28BF41F012
:1001D0008001692900F04482642900F04182752978
:1001E00000F03E826F2900F07D83782900F0BB8308
:1001F000E92900F01783E42900F01483F52900F0C1
:100200001183EF2900F07A83F82900F0BA8303689C
:10021000DB0928BF41F08001632900F0988273292F
:1002200000F09D82E32900F0CB86F32900F0D08610
:10023000002070471FB500F01DFF040000200021C2
:1002400002F0F2FF401C60600020002102F0D6FFA7
:10025000E0601FBD10B510BD00F0DEFE1146FFF7D7
:10026000E9FF02F0EDFE00F0B7FF03B4FFF7F2FF85
:1002700003BC00F0FBFF0000094880470948004725
:10028000FEE7FEE7FEE7FEE7FEE7FEE7FEE7FEE746
:10029000FEE7FEE704480549054A064B70470000A3
:1002A0005D1F000831010008881100208817002018
:1002B00088130020881300201CB50C46064B7B4495
:1002C00069460090204600F020FA04460020694666
:1002D00000F02EFA20461CBD6F04000070B50C46DD
:1002E0000546012A05D02878800600D5EA69002352
:1002F00002E0012305E05B1C934202D2E05C00288F
:10030000F9D1A869E618C01AA861286A18442862B9
:10031000284600F06CF904E0D5E9012114F8010B3E
:100320009047B442F8D3284600F077F970BD00003A
:100330002DE9F05F894604464FF0000ADFF874B1FA
:10034000FB44C0F820A02046E1688847002874D00C
:10035000252806D0D4E901219047206A401C20625C
:10036000F1E700265F462046E168884720280546D9
:1003700007DB312D05D2781910F8200C08B106439F
:10038000F1E7B00701D526F00406C4F81CA0002749
:10039000C4F818A02A2D09D0284602F049FE38B327
:1003A00004EB8708303DC8F8185019E059F8041BD1
:1003B000204604EB87029161E1688847012F0546DA
:1003C00018D1E069002820DA26F020061DE0D8F8D0
:1003D000180000EB800005EB40003038C8F818002A
:1003E0002046E1688847054602F022FE0028EED14B
:1003F000012F0AD02E2D08D12046E16888477F1CA6
:100400000546022F46F02006C4DBA069002803DA67
:10041000404246F00106A061F00701D026F0100628
:100420006C2D0BD0682D09D04C2D39D06A2D35D0CC
:10043000742D35D07A2D33D016E038E0E1682F46A0
:1004400020468847B842054609D16C2F26D04FF484
:100450008060E168064320468847054604E06C2F2B
:100460001AD04FF4807006430DB3A5F1410019284E
:1004700002D8203546F400664A46294620462660C2
:100480004E46FFF78FFE80B101280BD0F61D26F0F7
:10049000070000F1080956E74020E4E78020D8E78C
:1004A0000020D6E706F104094DE7284652E7206A06
:1004B000BDE8F09F142F000030B505460B462A46D4
:1004C00013F8014B12F8010B08B1A042F8D01CB18F
:1004D000002802D06D1CF1E7284630BD10B5431C42
:1004E00002E010F8011B71B18107FAD14FF001321F
:1004F00002C88C1A8C4314EAC211F9D0C01A0A0639
:1005000003D0C01E10BDC01A10BD0A0401D0801E49
:1005100010BD0902FCD0401E10BD032A40F23080FD
:1005200010F0030C00F0158011F8013BBCF1020F34
:10053000624498BF11F801CB00F8013B38BF11F8B5
:10054000013BA2F1040298BF00F801CB38BF00F8CC
:10055000013B11F0030300F02582083AC0F0088047
:1005600051F8043B083A51F804CBA0E80810F5E72D
:10057000121D5CBF51F8043B40F8043BAFF3008010
:10058000D20724BF11F8013B11F801CB48BF11F885
:10059000012B24BF00F8013B00F801CB48BF00F855
:1005A000012B70474FF000020429C0F0128010F0B8
:1005B000030C00F02B82CCF1040CBCF1020F18BF2D
:1005C00000F8012BA8BF20F8022BA1EB0C0100F0D2
:1005D0001DBA5FEAC17C24BF00F8012B00F8012B93
:1005E00048BF00F8012B704770477047704770B5DF
:1005F000044685690068C10601D5302600E0202642
:10060000C00707D070BDD4E9012130469047206A69
:10061000401C20626D1EF6D570BD70B5044685691C
:100620000078C00707D170BDD4E901212020904790
:10063000206A401C20626D1EF6D570BD09684A050F
:1006400001D540B27047C905FCD500B270470968B2
:100650004A0501D5C0B27047C905FCD580B27047C4
:100660002DE9F0410646002410687529314616A58B
:1006700010D0FFF7E3FF002802DA404213A507E09D
:1006800031688A0701D512A502E0490704D511A5F2
:10069000012401E0FFF7DBFF00210A2206F1240715
:1006A00009E0B0FBF2FCB0FBF2F302FB1C003030BF
:1006B00078541846491C0028F3D123462A46304670
:1006C000BDE8F04100F00CBA000000002D00000071
:1006D0002B0000002000000011680268006A53052A
:1006E00001D508700AE0D30501D5088006E013069D
:1006F00003D5C217C1E9000200E00860012070477D
:1007000001694A1C02610878704700B58FB0CDE9D5
:1007100001310021059105497944CDE903101146C5
:100720006846FFF705FE0FB000BD0000E5FFFFFFC4
:100730000A6802F8010B0A60704710B5436913B1EB
:10074000AFF3008001E0FFF7C9FD012010BD127872
:1007500000F124010A7000224A700122EDE71168BD
:100760004FF0FF32E9E700002DE9FF5F15468A46AA
:100770000446DFF8AC80F8440027D8E900103E4674
:10078000CDE9001010E03AF816106A4602A800F011
:1007900023FC411C07D02178890603D5E26939186A
:1007A00091420DD80744761C2078800602D5E06976
:1007B000B84205DDAE42E6DB3AF816000028E2D189
:1007C000A069C01BA0612046FFF711FFD8E9001007
:1007D000CDE90010002017E03AF818106A4602A888
:1007E00000F0FAFBB0F1FF3F81460BD000250DF180
:1007F000080B05E0D4E901211BF8050090476D1CAA
:100800004D45F7D308F10100B0428046E4DB206A91
:10081000384420622046FFF700FFBDE8FF9F00003C
:10082000F22A00002DE9F0418046D21D22F0070295
:100830000025D2E90002F52915A614D0011E72F197
:10084000000106DA0023D0EB030063EB020211A6DD
:1008500008E0D8F800108B0701D50FA602E0490781
:1008600001D50EA601251146002408F1240704E055
:1008700000F0F1F830323A55641C50EA0102F7D129
:100880002B46324621464046BDE8F04100F028B9EB
:10089000000000002D0000002B00000020000000E0
:1008A00030B4002100F1240408E002F00705D2086A
:1008B000303542EA4372DB086554491C52EA0305AD
:1008C000F3D10468002310A2250708D504F0200402
:1008D0000C4304D0C46901230CA2641EC46130BC63
:1008E00000F0FEB810B5044621461068FFF7AFFED1
:1008F00002462046BDE810400023D1E7D21D22F079
:100900000701D1E90023CBE7000000003000000020
:10091000F0B40D460188090502D5214C7C4402E063
:100920001F4C7C440E34002100F1240608E002F044
:100930000F071209E75D42EA03721B097754491C4D
:1009400052EA0307F3D102780023120704D5702D71
:1009500006D009B1022311342246F0BC00F0C0B821
:1009600001231034F8E770B504460D46214610689F
:10097000FFF76DFE024629462046BDE87040002381
:10098000C6E7D21D22F00703D3E90023C0E70368BE
:10099000126843F0200303600823C3610023B7E714
:1009A0005429000010B5203AC0F00B80B1E818506F
:1009B000203AA0E81850B1E81850A0E81850BFF449
:1009C000F5AF5FEA027C24BFB1E81850A0E81850E8
:1009D00044BF18C918C0BDE810405FEA827C24BF3C
:1009E00051F8043B40F8043B08BF7047D20728BFCA
:1009F00031F8023B48BF11F8012B28BF20F8023B19
:100A000048BF00F8012B70474FF0000200B51346B5
:100A100094469646203922BFA0E80C50A0E80C501E
:100A2000B1F12001BFF4F7AF090728BFA0E80C50CF
:100A300048BF0CC05DF804EB890028BF40F8042BC8
:100A400008BF704748BF20F8022B11F0804F18BF35
:100A500000F8012B704730B5B0F10A024FEA900E52
:100A600071F100034EEA817EB0EB0E0061EB910163
:100A70004FEA101E4EEA017E10EB0E0041EB111101
:100A80004FEA102E4EEA016E10EB0E0041EB1121E1
:100A90004FEA104E4EEA014E10EB0E0041EB1141B1
:100AA000401841F100014FEAD00040EA41704FEA9E
:100AB000D10110EB80054FEA810444EA907444EBC5
:100AC00001046D1944EB0404521BA3414FF00003D1
:100AD00048BF0A3200D530BD401C41F1000130BD95
:100AE0002DE9F0470D4699469246044600F1240848
:100AF0000168880604D5E06921F01001216000E05A
:100B00000120A84201DD471B00E00027A1697A19F6
:100B100002EB0900081AA0612078C00602D4204622
:100B2000FFF765FD002608E0D4E901211AF8060068
:100B30009047206A401C761C20624E45F4DB2078EA
:100B4000C0060AD52046FFF752FD06E0D4E9012190
:100B500030209047206A401C2062381EA7F1010710
:100B6000F4DC07E0D4E9012118F805009047206A79
:100B7000401C2062281EA5F10105F3DC2046FFF78A
:100B80004CFD2078000602D50220BDE8F087012048
:100B9000FBE770472DE9FF4F0C461E464FF0FF372D
:100BA0008BB0D2E90001DDF860800A908A46C1F37B
:100BB0000A5505B93D46002108464FF00000BAF13C
:100BC000000F00F4400005DA00EB80004FF4400114
:100BD00001EA50004FEA9059B9F1010F00DDB94622
:100BE0000A9850EA4A000ED044F61050A5F2FF359C
:100BF00045432F14B8F1000F1ED07542291E1EDD8B
:100C0000C9F100021CE0B8F1010F4FF0000001D063
:100C1000302103E0F24305E02154401CB042FBDBED
:100C200030460022002121540B99C1F80880C1E907
:100C300000200FB0BDE8F08FBD1B6D1CDEE74A46FB
:100C400000DA694206A800F059FA06AB93E80700FB
:100C500003AB83E8070050460A9900F00EFB8DE8CD
:100C60000700A0F500501F3800900398002D09DD03
:100C700042F21F014A46084403A90390684600F067
:100C80006DFD08E0A0F500504A461F3803A9039007
:100C9000684600F077FD8DE807000004000C03D0E3
:100CA0004FF0FF30410800E01046B8F1000F03D0CC
:100CB0000022009215461EE0751E05D4FFF7CBFEFC
:100CC000303262556D1EF9D5B3460122084302D079
:100CD00000227F1C04E02078302801D100227F1EF2
:100CE000002A099786D01DE0112D07DAFFF7B3FE21
:100CF000303262556D1C50EA0102F5D1084302D032
:100D00000098C8B10EE00021681E05E0235C625C1B
:100D100063542254401E491C8142F7DBAB46A81B9A
:100D2000401E0990002004F80B000B98099AC0F8A7
:100D30000880C0E9002B7CE711264FF0000859E736
:100D40002DE9F04F88460446D21D22F0070191B0EC
:100D5000D1E90001CDE90A0102F056F902460B98EB
:100D6000C00F01D02D2007E02068810701D52B207E
:100D700002E0202101EAC000032A099001D0072ADD
:100D800005DB03464146204600F078F90BE1207868
:100D9000800601D5E06900E00620B8F1650F8146C4
:100DA00006D0B8F1660F18D0B8F1670F70D131E0F6
:100DB0000020B9F1110F009001DB112301E009F1CE
:100DC00001030AAA01A90CA8FFF7E4FEDDE90C70F3
:100DD000002609F10105834647E001204B460090BB
:100DE0004FF000470AAA01A90CA8FFF7D3FEDDE9DE
:100DF0000DB00C995D46002610B909F101000D18DF
:100E0000B9EB050003D4C0F1FF3609F10105A5EBEC
:100E100009002BE0B9F1010F01DA4FF001090020C0
:100E2000B9F1110F0090484601DD112300E003469F
:100E30000AAA01A90CA8FFF7ADFEDDE90C704D462A
:100E400000268346207800070AD4AB4500DA5D46C9
:100E500001A8012D04DD411911F8011C302907D02A
:100E60004F4502DA17F1040F04DA012082460FE041
:100E70006D1EEEE7002F02DCED1B3E4403E0781C04
:100E8000A84200DD7D1CB81B00F1010A4FF00047AD
:100E90002078000703D4AA4501DB4FF0FF3A002178
:100EA000B7F1004F0DF143088DF8431024D0022014
:100EB0002B23002F01DA7F422D230A21021EA0F1ED
:100EC000010000DC5FB197FBF1FC97FBF1F201FB45
:100ED0001C7C17460CF1300C08F801CDEEE7A8F1A8
:100EE000010003702188090501D5452100E0652135
:100EF000A0F1010800F8011C09980FA9A1EB08074F
:100F0000FF1D00B10120411901EBEA70A1693844CD
:100F1000081A401EA0612078C00602D42046FFF7C0
:100F200066FB099828B1D4E901219047206A401C4A
:100F300020622078C00622D52046FFF758FB1EE02D
:100F4000002E04DBB34502DD01A8805D00E0302007
:100F5000D4E901219047206A401C2062761CAAF146
:100F600001005FEA000A0AD100F084F8C068016855
:100F7000405CD4E901219047206A401C2062281E71
:100F8000A5F10105DCDC07E0D4E9012118F8010B2B
:100F90009047206A401C2062381EA7F10107F3DC4D
:100FA0002046FFF73AFB032011B043E610B5436932
:100FB00013B1AFF3008001E0FFF7D6FB012010BDB5
:100FC000128800F1240182840022C2840122EDE70C
:100FD00011684FF0FF32E9E770B516460C4605463A
:100FE00000F040F8036893F80101012806D0FF2CB7
:100FF0000FD8185D68B101202C7070BDD3F80701BF
:101000003246214603F2071303442846BDE87040E8
:1010100018474FF0FF3070BD754600F0E3F8AE465C
:1010200005006946534620F00700854618B020B5F4
:10103000FFF730F9BDE820404FF000064FF0000701
:101040004FF000084FF0000B21F00701AC46ACE870
:10105000C009ACE8C009ACE8C009ACE8C0098D46DD
:101060007047000010B500F005F8001D10BD00BF6E
:10107000B921000000487047481100202DE9F041D7
:101080001F46044603260168072A01F4006004DBBA
:1010900008B116A505E016A503E008B115A500E006
:1010A00015A521F010002060A069C01EA0610FB13D
:1010B000401EA0612046FFF79AFA4FB1D4E9012102
:1010C00038469047206A401C2062C01C206206E01F
:1010D000206AFAE7D4E9012115F8010B9047761E42
:1010E000F8D22046FFF799FABDE8F0814E414E0054
:1010F0006E616E00494E4600696E66002DE9F0474C
:10110000814616468AB0334878440DC88DE80D00F4
:1011100030487844801C03AC0DC884E80D0041F6CB
:101120009B300844372190FBF1F290FBF1F5A5F1DB
:10113000800501FB12041B3C02D56442012000E043
:101140000020DFF890A080460027FA44AAF1BE0AEA
:101150000DE0E00709D03246684607EB47010AEB8D
:10116000810100F00FFB8DE8070064107F1C002C4C
:10117000EFD1184F7F44AC3F18E0E80714D007EBDD
:1011800004100DF1180A90E80E008AE80E00C068FD
:10119000F04201D198190890324606A903A800F040
:1011A000F1FA03AB83E807006D10641C002DE4D155
:1011B00032466946B8F1000F03A802D000F0CEFA1B
:1011C00001E000F0DFFAC9E90001C9F808200AB01F
:1011D000BDE8F0870C2200000446AFF300802046F3
:1011E000FFF743F800487047281100204FF0013CFA
:1011F00050F8042B51F8043B9A4221D1A2EB0C0386
:10120000934313EACC1317D150F8042B51F8043B45
:101210009A4215D1A2EB0C03934313EACC130BD1E2
:1012200050F8042B51F8043B9A4209D1A2EB0C036D
:10123000934313EACC13DBD04FF00000704700BF9C
:10124000D01A01BAB1FA81F101F0180122FA01F0C5
:10125000CB40C1F12001DBB2C0B2C01A2CFA01F3BD
:10126000D11A914311EAC311E6D170470149182000
:10127000ABBEFEE72600020070475FEA400C08BFE5
:1012800091F0000F4FEA8C234FEAC12243EA5151FB
:101290004FEA1C5018BF00F5F0404FEA300018BF6D
:1012A00041F000415FEA6C5C00F02980BCF1FF3F37
:1012B00008BF40F080407047130C06BF12044FF087
:1012C000100C4FF0000C130E04BF12020CF1080CAE
:1012D000130F04BF12010CF1040C930F04BF920012
:1012E0000CF1020CD30F04BF52000CF1010C11469B
:1012F0004FF00002A0F11F00A0EB0C00704711F0AE
:10130000004F08BF704731F000413FF4D5AF0B0CE0
:1013100006BF09044FF0100C4FF0000C0B0E04BF79
:1013200009020CF1080C0B0F04BF09010CF1040CAD
:101330008B0F04BF89000CF1020CCB0F04BF4900D6
:101340000CF1010CCCF12003A0EB0C0022FA03F30A
:1013500002FA0CF241EA030100F10100704720F0AB
:101360007F4C80EA030023F07F47ACEB070303F5D3
:101370007C5300F0004003F1FF032DE980494FEA60
:10138000154B09B44FEA144325EA0B4E24EA0348EF
:101390000FF2042606EB132749083E785FEA320273
:1013A00003FB0667C7F5000707FB06F64FEA54374D
:1013B0004FEAD64606F1020607FB066CCCF1005C4C
:1013C0004FEA1C472CEA074C07FB06F40CFB06F51A
:1013D00004EB15464FEA961634BF00204FF000404C
:1013E0004FEAD13706FB07FC4FEA1C4C0CFB0BF70E
:1013F000D21B03FB0CF761EB07010CFB0EF7B0EB04
:10140000074072EB17420CFB08F734BFA2EB074210
:10141000B2EB074261EB17414FEA0C444FEA9107E8
:1014200006FB07FC4FEA1C4C0CFB0BF7B0EBC7406C
:1014300072EB573203FB0CF734BFA2EBC742B2EB9F
:10144000C74261EB57310CFB0EF7B0EBC70072EBF4
:1014500057720CFB08F734BFA2EBC702B2EBC7020E
:1014600061EB5771039F4FEA816141EA921104EBEE
:10147000CC044FEAD1374FEA826206FB07FC42EA0E
:1014800090124FEA80604FEA1C4C0CFB0BF7D21B0A
:1014900003FB0CF761EB07010CFB0EF7B0EB074009
:1014A00072EB17420CFB08F734BFA2EB0742B2EB1A
:1014B000074261EB17414FEA8C554FEA910704EB65
:1014C0009C2406FB07FC4FEA1C4C0CFB0BF7B0EB13
:1014D000C74072EB573203FB0CF734BFA2EBC74295
:1014E000B2EBC74261EB57310CFB0EF7B0EBC70014
:1014F00072EB57720CFB08F734BFA2EBC702B2EBDA
:10150000C70261EB577115EB4C254FEA816141EA47
:1015100092114FEA82624FEAD13742EA901206FBFB
:1015200007FC44F100044FEA80604FEA1C4C0CFBBE
:101530000BF7D21B03FB0CF761EB07010CFB0EF75B
:10154000B0EB074072EB17420CFB08F734BFA2EB7D
:101550000742B2EB074261EB174115EB1C154FEA4E
:10156000813141EA92414FEA823242EA90424FEAA7
:1015700080304FEA0C7644F1000448EA03434EEA17
:101580000B484FF0000EB2EB080C71EB030724BFC1
:10159000624639464EEB0E0E4FF0000B00185241DA
:1015A00049414BEB0B0BB2EB080C71EB03077BF1E2
:1015B000000B24BF624639464EEB0E0E4FF0000B77
:1015C0000018524149414BEB0B0BB2EB080C71EB8D
:1015D00003077BF1000B24BF624639464EEB0E0E2B
:1015E00051EA020718BF46F0010616EB0E7655F1D8
:1015F000000254F1000103D5BDE88901BDE800886F
:10160000BDE88901BDE80048B619524141EB01012E
:10161000A3F10103704780807F7E7D7C7B7A79789F
:10162000777676757473727171706F6E6E6D6C6CA7
:101630006B6A6A6968686766666564646363626149
:101640006160605F5F5E5E5D5D5C5C5B5B5A5A59CA
:101650005958585757565655555554545353525236
:101660005251515050504F4F4F4E4E4D4D4D4C4C8E
:101670004C4B4B4B4A4A4A494949484848474747D7
:101680004746464645454544444444434343434214
:10169000424242414141002B26D4770021D01CB563
:1016A0004FEA370703B44FF010004FF010014FF02E
:1016B00000000FBCBDE810400BF1010BBBF1010FA6
:1016C00008BF5FEA170722BF12F1010211F1010101
:1016D0004FF0004143F1000300F0004043EA0000F6
:1016E0007047F9D35708DAE746EA064613F1400F88
:1016F0004FEA16461FDD13F1200FDFBF16430A46DF
:10170000002120335B42C8D0C3F1200746EA0646D9
:1017100002FA07F74FEA164646EA0706C3F1200722
:1017200022FA03F201FA07F721FA03F14FF000035E
:1017300042EA0702B1E746EA020646EA06464FEAEF
:10174000164646EA0106BCBF46EA0646360C4FF08E
:1017500000034FF000024FF000019EE72DE9C04862
:10176000934630B491E8380007C831EA400C48BFCE
:1017700034EA430C03D5FFF7F2FDFFF78CFFF0BC12
:10178000BDE800882DE9C048934630B491E83800A0
:1017900007C810F0804F08BF13F0804F03D100F04E
:1017A00005F8FFF778FFF0BCBDE8008820F07F4720
:1017B00080EA030023F07F4C07EB0C03A3F57C5376
:1017C00000F00040A3F1FE0392F0000F00F0B380A0
:1017D00095F0000F00F077802DE901494FEA1140A4
:1017E0004FEA144621EA004800FB06FC24EA0647BB
:1017F00008FB06F607FB08F800FB07F718EB06489E
:101800004CEB164C4FEA124B18EB07484FEA1546C3
:101810004CEB174022EA0B4E0BFB06FC25EA064771
:101820000EFB06F607FB0EFE0BFB07F71EEB064E44
:101830004CEB164C4FF000061EEB074E4CEB174BD3
:1018400018EB0B0840F1000018EB0E0B58EB0008EA
:1018500040F100008F1A4FF000013CBFC943661BE6
:1018600014BFB5EB040C00213CBFC943F61B4FEA83
:1018700017444EEA8E0E27EA04454FEA1C4704FB44
:1018800007622CEA074C05FB07F70CFB05F604FB87
:101890000CFC16EB074642EB174216EB0C4642EBEC
:1018A0001C421BEB060658EB0202414146EA9E062B
:1018B00001D5BDE80189B619524141EB0101A3F1FF
:1018C0000103BDE801894FEA14454FEA114724EAB4
:1018D000054621EA074C05FB07F406FB07F70CFB5E
:1018E00006F105FB0CFC11EB074144EB17444FEAF2
:1018F000124711EB0C4144EB1C4422EA074C05FB58
:1019000007F206FB07F70CFB06F605FB0CFC16EBD3
:10191000074642EB174216EB0C4642EB1C456A1891
:1019200054F1000148BF7047B619524141EB010123
:10193000A3F10103704795F0000F37D04FEA114231
:101940004FEA144721EA024624EA074C02FB07F15A
:1019500006FB07F70CFB06F402FB0CFC14EB074438
:1019600041EB17414FEA154714EB0C4441EB1C4186
:1019700025EA074C02FB07F506FB07F70CFB06F60A
:1019800002FB0CFC16EB074645EB174516EB0C4625
:1019900045EB1C42121951F1000148BF7047B619BE
:1019A000524141EB0101A3F1010370474FEA144595
:1019B0004FEA114724EA054621EA074C05FB07F1E7
:1019C00006FB07F70CFB06F24FF0000605FB0CFCCC
:1019D00012EB074241EB174112EB0C4251EB1C4159
:1019E00048BF7047921841EB0101A3F10103704712
:1019F0007047704710B56FF0040000F099FA10BD01
:101A000010B50146B1F5E16F22D201EBC1034FF4ED
:101A10007A7463434FF0E02463610023A36123469B
:101A20001B6943F00103236100BF4FF0E0231869F5
:101A300000F001031BB100F48033002BF5D04FF010
:101A4000E0231B6923F001034FF0E02423614FE002
:101A500000221FE0274B4FF0E02463610023A361C5
:101A600023461B6943F00103236100BF4FF0E023CD
:101A7000186900F001031BB100F48033002BF5D08E
:101A80004FF0E0231B6923F001034FF0E0242361B2
:101A9000531CDAB24FF4E163B1FBF3F39342D9D8AC
:101AA0004FF4E163B1FBF3F403FB141303EBC30343
:101AB0004FF47A7463434FF0E02463610023A36121
:101AC00023461B6943F00103236100BF4FF0E0236D
:101AD000186900F001031BB100F48033002BF5D02E
:101AE0004FF0E0231B6923F001034FF0E024236152
:101AF00010BD00004031F7002DE9F04102460025FD
:101B00000026002000230024002791F803C00CF0D9
:101B10000F0591F803C00CF0100CBCF1000F03D0BE
:101B200091F802C04CEA050591F800C0BCF1000F25
:101B300031D0146800202BE04FF0010C0CFA00F3B8
:101B4000B1F800C00CEA03069E4220D183004FF09A
:101B50000F0C0CFA03F7BC4305FA03FC4CEA04042F
:101B600091F803C0BCF1280F06D14FF0010C0CFA1C
:101B700000FCC2F814C00AE091F803C0BCF1480FA1
:101B800005D14FF0010C0CFA00FCC2F810C0401C4B
:101B90000828D1D31460B1F800C0BCF1FF0F34DDC8
:101BA000546800202EE000F1080C4FF0010808FAFC
:101BB0000CF3B1F800C00CEA03069E4221D1830069
:101BC0004FF00F0C0CFA03F7BC4305FA03FC4CEA88
:101BD000040491F803C0BCF1280F05D100F1080CF2
:101BE00008FA0CF8C2F8148091F803C0BCF1480F51
:101BF00007D100F1080C4FF0010808FA0CF8C2F800
:101C00001080401C0828CED35460BDE8F081024605
:101C1000002093680B400BB1012000E000207047CA
:101C20000AB1016100E041617047704708B50121C8
:101C3000042000F07DF80120ADF8000028208DF888
:101C4000030069460648FFF757FF0220ADF8000081
:101C500048208DF8030069460148FFF74DFF08BD95
:101C6000000801407047704770B5002100230F2223
:101C7000C47804B3154C246804F4E064C4F5E0644B
:101C8000210AC1F10403CA40447804FA03F18478BC
:101C90001440214309010E4C0678A155047804F044
:101CA0001F050124AC4005786D11AD0005F1E0255C
:101CB000C5F8004109E0047804F01F050124AC4098
:101CC000044D0678761145F8264070BD0CED00E015
:101CD00000E400E080E100E002490143024A1160B3
:101CE000704700000000FA050CED00E070470000AE
:101CF00029B1064AD2690243044BDA6104E0034A7F
:101D0000D2698243014BDA61704700000010024043
:101D100029B1064A12690243044B1A6104E0034ADE
:101D200012698243014B1A617047000000100240A3
:101D300029B1064A92690243044B9A6104E0034ABE
:101D400092698243014B9A61704700000010024083
:101D500029B1064AD2680243044BDA6004E0034A20
:101D6000D2688243014BDA607047000000100240E5
:101D700030B500210022002400232D4D6D6805F0B0
:101D80000C0121B1042905D0082923D105E0294DF2
:101D9000056022E0274D05601FE0254D6D6805F4C4
:101DA0007012234D6D6805F48034022505EB9242D4
:101DB0001CB9214D554305600BE01D4D6D6805F4C0
:101DC00000351DB11C4D5543056002E0194D5543CA
:101DD000056002E0174D056000BF00BF144D6D683F
:101DE00005F0F0010909154D6B5C0568DD404560A3
:101DF0000F4D6D6805F4E061090A104D6B5C456894
:101E0000DD4085600A4D6D6805F46051C90A0B4DCF
:101E10006B5C4568DD40C560054D6D6805F440416B
:101E2000890B074D6B5CC568B5FBF3F5056130BDEB
:101E30000010024000127A0000093D00120000204C
:101E400022000020704710B500F002F810BD00001D
:101E50000CB50020019000903348006840F48030B9
:101E60003149086000BF3048006800F4003000903D
:101E70000198401C0190009818B90198B0F5A06F26
:101E8000F1D12948006800F4003010B10120009021
:101E900001E0002000900098012843D12348006809
:101EA00040F01000214908600846006820F0030057
:101EB00008600846006840F0020008601A48406860
:101EC000194948600846406848600846406840F440
:101ED000806048600846406820F47C1048600846EE
:101EE000406840F4E81048600846006840F08070A0
:101EF000086000BF0C48006800F000700028F9D0AE
:101F00000948406820F003000749486008464068D7
:101F100040F00200486000BF0348406800F00C0039
:101F20000828F9D10CBD000000100240002002403A
:101F3000042808D14FF0E021096941F004014FF075
:101F4000E022116107E04FF0E021096921F004016E
:101F50004FF0E022116170477047000010B5134840
:101F6000006840F0010011490860084640681049C7
:101F700008400E494860084600680E4908400B4971
:101F800008600846006820F4802008600846406821
:101F900020F4FE0048604FF41F008860FFF753FFF5
:101FA0004FF000600449086010BD000000100240BE
:101FB0000000FFF8FFFFF6FE08ED00E010B501217C
:101FC000164800F07CF838B3012015490870154810
:101FD000154902681548FEF7A0FA12480088000A61
:101FE0001249891E08700F480078487000210F4A76
:101FF000921E0C480068801C11540020094908609A
:102000000021064800F04FF80021044800F071F864
:102010000121024800F044F810BD00000008004013
:10202000080000200C000020280900202A000020C1
:102030007FB505460C464FF4A060FFF74DFE012129
:102040000420FFF755FEADF80850ADF8044000201D
:10205000ADF80600ADF80A0001A9104800F04CF8F0
:1020600001210E4800F01CF8012211460B4800F037
:1020700037F80021094800F016F81E208DF80000FE
:1020800001208DF8010000208DF8020001208DF85C
:1020900003006846FFF7E8FD7FBD00000008004030
:1020A000CA430282704721B1028842F001020280D5
:1020B00004E002884FF6FE731A400280704730B584
:1020C0000246002000230024158A05EA01039589B1
:1020D00005EA010413B10CB1012000E0002030BD7D
:1020E0001AB183890B43838102E083898B43838107
:1020F0007047818470470000002202881D4B98427F
:102100000ED01D4B98420BD0B0F1804F08D01B4B26
:10211000984205D01A4B984202D01A4B984204D1EB
:102120004FF68F731A404B881A43174B984207D0CB
:10213000164B984204D04FF6FF431A40CB881A43FF
:1021400002808B8883850B8803850A4B98420BD0CD
:10215000094B984208D00E4B984205D00D4B98423F
:1021600002D00D4B984201D10B7A03860123838262
:1021700070470000002C0140003401400004004082
:1021800000080040000C0040001000400014004017
:1021900000400140004401400048014010B540F2B9
:1021A0002551184800F09CF858B31748007880B9BA
:1021B0001448001D008820B31248001D00881349F0
:1021C000134A1268885412480068401C104908607D
:1021D00017E00C48001D00880C490D4A126888540D
:1021E0000B48006820B901210A48FFF75CFF03E0B3
:1021F00000210848FFF77DFF05480068401C04499E
:10220000086010BD00440040110000202809002093
:102210000C0000200008004001F40072B2F5007FBD
:1022200000D100BFCA430280704721B1828942F4C5
:102230000052828104E082894DF6FF731A40828148
:102240007047000010B504462048844209D101219E
:102250008803FFF77DFD00214FF48040FFF778FDF4
:1022600032E01B48844209D101214804FFF750FDA8
:1022700000214FF40030FFF74BFD25E01548844264
:1022800009D101218804FFF743FD00214FF480208C
:10229000FFF73EFD18E01048844209D10121C8042F
:1022A000FFF736FD00214FF40020FFF731FD0BE072
:1022B0000A48844208D101210805FFF729FD0021C1
:1022C0004FF48010FFF724FD10BD000000380140DE
:1022D0000044004000480040004C004000500040D6
:1022E00070B50246002400230025002040F66A163F
:1022F000B14200D100BFC1F3421501F01F03012616
:1023000006FA03F3012D02D19689334006E0022D2F
:1023100002D1168A334001E0968A33400C1201261E
:1023200006FA04F41688344013B10CB1012000E021
:10233000002070BDF0B503460024002600250020D3
:1023400040F66A17B94200D100BF1846C1F34214E3
:1023500001F01F06012707FA06F5012C01D10C3008
:1023600004E0022C01D1103000E014301AB10768EB
:102370002F43076002E00768AF430760F0BD00002D
:102380002DE9F04786B005460E460024A24600BF60
:10239000A1460027B08900B100BF2F462C8A4CF619
:1023A000FF700440F08804432C82AC894EF6F31091
:1023B0000440B08831890843718908430443AC81E3
:1023C000AC8A4FF6FF400440B0890443AC8201A8B8
:1023D000FFF7CEFC1F48874202D1DDF810A001E0D4
:1023E000DDF80CA0A88900F4004040B10AEBCA0057
:1023F00000EB0A1031684900B0FBF1F807E00AEB86
:10240000CA0000EB0A1031688900B0FBF1F86420C3
:10241000B8FBF0F004012009642101FB1089A889B0
:1024200000F4004040B1322000EBC900B0FBF1F0F5
:1024300000F00700044308E0322000EB091064219B
:10244000B0FBF1F000F00F0004432C8106B0BDE8B2
:10245000F0870000003801407047000010B586B0DA
:10246000044601218803FFF763FC01210420FFF7E4
:102470005FFC4FF40070ADF8140003208DF81600D7
:1024800018208DF8170005A91248FFF735FB4FF407
:102490008060ADF8140004208DF8170005A90D48E0
:1024A000FFF72AFB01940020ADF80800ADF80A0000
:1024B000ADF80C00ADF810000820ADF80E0001A931
:1024C0000548FFF75DFF01210348FFF7AEFE06B0A8
:1024D00010BD0000000801400038014010B586B072
:1024E00004464FF4A060FFF7F7FB01214804FFF713
:1024F000FFFB01210420FFF71BFC2448FFF7A2FE8D
:102500000420ADF8140003208DF8160018208DF873
:10251000170005A91E48FFF7EFFA0820ADF81400D0
:1025200004208DF8170005A91948FFF7E5FA019472
:102530000020ADF80800ADF80A00ADF80C00ADF8C9
:1025400010000C20ADF80E0001A91048FFF718FF8D
:1025500020210E48FFF760FE012240F225510B4872
:10256000FFF7E8FE26208DF8000000208DF801001E
:102570008DF8020001208DF803006846FFF774FB18
:1025800001210248FFF751FE06B010BD0044004093
:102590000008014010B575A000F0D4FD322000F015
:1025A00045FC20B175A000F0CDFD012010BD79A043
:1025B00000F0C8FD7AA000F0C5FD32217DA000F03A
:1025C00087FC20B17EA000F0BDFD0220EEE783A0D5
:1025D00000F0B8FD8648007800281FD185A000F0E3
:1025E000B1FD322188A000F073FC20B18AA000F078
:1025F000A9FD0320DAE790A000F0A4FD93A000F06D
:10260000A1FD1E2000F0BAFB20B195A000F09AFDBC
:102610000420CBE799A000F095FD54E002219C48EE
:10262000FFF7F5FA00283FD19AA000F08BFD322188
:102630009DA000F04DFC20B19FA000F083FD032081
:10264000B4E7A5A000F07EFDA8A000F07BFD32213C
:10265000ACA000F03DFC20B1AEA000F073FD042062
:10266000A4E7B4A000F06EFDB8A000F06BFD3C2024
:1026700000F068FC20B1BBA000F064FD052095E7E8
:10268000BFA000F05FFDC2A000F05CFD3221C6A03B
:1026900000F01EFC20B1C8A000F054FD062085E724
:1026A000CDA000F04FFD0EE0D1A000F04BFD1E20AC
:1026B00000F07EFC20B16AA000F044FD072075E721
:1026C0006EA000F03FFDCFA000F03CFD322000F0F6
:1026D000F3FA20B1D0A000F035FD0A2066E7D5A0BE
:1026E00000F030FDD8A000F02DFD3221DAA000F07E
:1026F000EFFB20B1DCA000F025FD0B2056E7E1A0A8
:1027000000F020FDE3A000F01DFD3221E6A000F066
:10271000DFFB20B1E7A000F015FD0C2046E7EDA09F
:1027200000F010FDF0A000F00DFD642000F022FA92
:102730000446012C04D1F1A000F004FD0D2035E782
:10274000022C03D1F4A000F0FDFC03E2032C04D121
:10275000F5A000F0F7FC0E2028E7042C04D1F9A026
:1027600000F0F0FC0F2021E7F4E10000D7BCB1B885
:10277000B8B4CEBBC4A3BFE90D0A0000B8B4CEBB49
:10278000CAA7B0DCA3ACD7BCB1B8D6D8C6F40D0A82
:1027900000000000B8B4CEBBB3C9B9A60D0A000052
:1027A000D7BCB1B8C9E8D6C3535441C4A3CABD0D00
:1027B0000A00000041542B43574D4F44453D310022
:1027C000C9E8D6C3535441C4A3CABDCAA7B0DCA349
:1027D000ACD7BCB1B8D6D8C6F40D0A00C9E8D6C388
:1027E000535441C4A3CABDB3C9B9A60D0A00000021
:1027F00010000020D7BCB1B8C8A1CFFBD7D4B6AF6A
:10280000C1ACBDD30D0A000041542B435741555470
:102810004F434F4E4E3D3000C8A1CFFBD7D4B6AF8B
:10282000C1ACBDD3CAA7B0DCA3ACD7BCB1B8D6D8B5
:10283000C6F40D0A00000000C8A1CFFBD7D4B6AF84
:10284000C1ACBDD3B3C9B9A60D0A0000D7BCB1B89D
:10285000C1ACBDD3C2B7D3C9C6F70D0A0000000092
:10286000C1ACBDD3C2B7D3C9C6F7CAA7B0DCA3AC4D
:10287000D7BCB1B8D6D8C6F40D0A0000C1ACBDD3E0
:10288000C2B7D3C9C6F7B3C9B9A60D0A0000000084
:1028900000080140D7BCB1B8C9E8D6C3D7D4B6AF99
:1028A000C1ACBDD30D0A000041542B4357415554D0
:1028B0004F434F4E4E3D3100C9E8D6C3D7D4B6AFD3
:1028C000C1ACBDD3CAA7B0DCA3ACD7BCB1B8D6D815
:1028D000C6F40D0A00000000C9E8D6C3D7D4B6AFCD
:1028E000C1ACBDD3B3C9B9A60D0A0000D7BCB1B8FD
:1028F000BFAAC6F4536D617274636F6E6669670D2B
:102900000A00000041542B43575354415254534D35
:1029100041525400BFAAC6F4536D617274636F6E66
:10292000666967CAA7B0DCA3ACD7BCB1B8D6D8C6B5
:10293000F40D0A00BFAAC6F4536D617274636F6E22
:10294000666967B3C9B9A60D0A000000C7EBCAB92A
:10295000D3C3415050C8EDBCFEB4ABCAE4C3DCC223
:10296000EB0D0A00B4ABCAE4C3DCC2EBCAA7B0DC0F
:10297000A3ACD7BCB1B8D6D8C6F40D0A000000008D
:10298000B4ABCAE4C3DCC2EBB3C9B9A60D0A0000FC
:10299000D7BCB1B8B9D8B1D5536D617274636F6EDD
:1029A0006669670D0A00000041542B435753544F8A
:1029B00050534D4152540000B9D8B1D5536D617296
:1029C00074636F6E666967CAA7B0DCA3ACD7BCB18D
:1029D000B8D6D8C6F40D0A00B9D8B1D5536D617216
:1029E00074636F6E666967B3C9B9A60D0A0000000B
:1029F000B5C8B4FDC1ACBDD3C2B7D3C9C6F70D0AC3
:102A000000000000D7BCB1B8BBF1C8A14950B5D88F
:102A1000D6B70D0A00000000BBF1C8A14950B5D8D7
:102A2000D6B7CAA7B0DCA3ACD7BCB1B8D6D8C6F469
:102A30000D0A0000BBF1C8A14950B5D8D6B7B3C93B
:102A4000B9A60D0A00000000D7BCB1B8BFAAC6F4F1
:102A5000CDB8B4AB0D0A000041542B4349504D4F43
:102A600044453D3100000000BFAAC6F4CDB8B4AB68
:102A7000CAA7B0DCA3ACD7BCB1B8D6D8C6F40D0A8F
:102A800000000000B9D8B1D5CDB8B4ABB3C9B9A670
:102A90000D0A0000D7BCB1B8B9D8B1D5B6E0C2B7FD
:102AA000C1ACBDD30D0A000041542B4349504D55D4
:102AB000583D3000B9D8B1D5B6E0C2B7C1ACBDD32E
:102AC000CAA7B0DCA3ACD7BCB1B8D6D8C6F40D0A3F
:102AD00000000000B9D8B1D5B6E0C2B7C1ACBDD3D3
:102AE000B3C9B9A60D0A0000D7BCB1B8C1ACBDD3FB
:102AF000B7FECEF1C6F70D0A00000000B7FECEF11A
:102B0000C6F7CEB4BFAAC6F4A3ACD7BCB1B8D6D86A
:102B1000C6F40D0A00000000C1ACBDD3D2D1BEADD9
:102B2000B4E6D4DA0D0A0000C1ACBDD3B7FECEF1D5
:102B3000C6F7B3ACCAB1A3ACD7BCB1B8D6D8C6F44B
:102B40000D0A0000BDF8C8EBCDB8B4ABCAA7B0DC25
:102B50000D0A000002A000F0F5FA002026E50000B2
:102B6000C1ACBDD3B7FECEF1C6F7B3C9B9A60D0A45
:102B70000000000010B5044600202E4908604FF404
:102B800080612D48FDF70EFD2C4802682C48016835
:102B90002CA000F005FB1AE06420FEF731FF30A105
:102BA0002548FDF789FC00B115E02FA12248FDF76B
:102BB00083FC08B1012010BD2DA11F48FDF77CFC4E
:102BC00008B10220F7E721462EA000F0BBFA200052
:102BD000A4F10104E0D100BF2BA000F0B3FA002C57
:102BE00001DC0320E7E729A000F0ACFA002011493E
:102BF00008604FF480611048FDF7D4FC27A000F076
:102C0000CFFA0CE06420FEF7FBFE28A10A48FDF78E
:102C100053FC00B107E021461AA000F093FA20000F
:102C2000A4F10104EED100BF002C01DC0420C2E7B6
:102C30000020C0E70C00002028090020040000202C
:102C40000000002041542B43495053544152543DFD
:102C500022544350222C222573222C25640D0A0075
:102C6000434F4E4E45435400434C4F5345440000A0
:102C7000414C524541445920434F4E4E45435445E3
:102C800044000000256420000D0A0000D7BCB1B844
:102C9000BDF8C8EBCDB8B4AB0D0A000041542B43CE
:102CA000495053454E440D0A000000000D0A4F4B99
:102CB0000D0A0D0A3E00000070B58EB005460020DA
:102CC000204908604FF480611F48FDF76BFC1FA08E
:102CD00000F066FA0CE06420FEF792FE1EA11A488E
:102CE000FDF7EAFB00B108E029461CA000F02AFA33
:102CF0002800A5F101018DB2EDD100BF15A000F0B3
:102D000021FA002D02DC01200EB070BD14A10E4886
:102D1000FDF7D2FB04469CB111A1601CFDF7CCFB72
:102D200006465EB1301B421E611C01A8FDF7F5FB93
:102D300001A90CA000F006FA0020E5E70220E3E775
:102D40000320E1E70C0000202809002041542B4318
:102D5000494653520D0A00004F4B000025642000E5
:102D60002200000045535038323636B5C44950B5BC
:102D7000D8D6B7A3BA25730D0A00000010B50446D3
:102D80000020144908604FF480611348FDF70AFCE5
:102D900012A216A118A000F003FA0DE04FF47A7009
:102DA000FEF72EFE1AA10C48FDF786FB00B107E0E6
:102DB00021461CA000F0C6F92000A4F10104EDD1C9
:102DC00000BF19A000F0BEF9002C01DC012010BDED
:102DD0000020FCE70C00002028090020776331392F
:102DE0003837313130332E2E000000007573657294
:102DF0004357445A0000000041542B43574A415066
:102E00003D222573222C222573220D0A000000008A
:102E10005749464920474F542049500D0A0D0A4F43
:102E20004B000000256420000D0A000010B5044688
:102E3000002210211348FEF7F3FE4FF4FA70FEF75C
:102E4000DFFD012210210F48FEF7EAFE0CE06420AE
:102E5000FEF7D6FD0CA10E48FDF72EFB00B107E0F2
:102E600021460CA000F06EF92000A4F10104EED17F
:102E700000BF09A000F066F9002C01DC012010BDA4
:102E80000020FCE7000801407265616479000000E1
:102E900028090020256420000D0A000008B5012142
:102EA0000420FEF745FF1020ADF8000003208DF848
:102EB000020010208DF8030069460448FEF71CFE4E
:102EC000012210210148FEF7ABFE08BD00080140B9
:102ED00070B505460C460020134908604FF4806128
:102EE0001248FDF75FFB294611A000F059F90CE0EC
:102EF0006420FEF785FD10A10C48FDF7DDFA00B156
:102F000007E021460DA000F01DF92000A4F1010406
:102F1000EED100BF0AA000F015F9002C01DC012061
:102F200070BD0020FCE700000C00002028090020F4
:102F300025730D0A000000004F4B0000256420009F
:102F40000D0A000010B504460020124908604FF435
:102F500080611148FDF726FB0DE04FF47A70FEF713
:102F60004FFD0EA10C48FDF7A7FA00B107E021467E
:102F70000DA000F0E7F82000A4F10104EDD100BF9E
:102F80000AA000F0DFF8002C01DC012010BD0020B9
:102F9000FCE700000C00002028090020636F6E6E23
:102FA0006563746564000000256420000D0A00005C
:102FB00010B504460DE04FF47A70FEF721FD0CA128
:102FC0000E48FDF779FA00B107E021460CA000F0A9
:102FD000B9F82000A4F10104EDD100BF09A000F070
:102FE000B1F8002C01DC012010BD0020FCE700003E
:102FF0005749464920474F5420495000280900208E
:10300000256420000D0A0000490050EAC12018BFC5
:1030100004204A0D18BF40F0010040F2FF72B2EBED
:10302000515F08BF40F00200012808BF052070472B
:1030300030380A2801D20120704700207047000074
:10304000FEF7D8FC4FF41650FFF708FA4FF4E130C2
:10305000FFF744FA4FF4E1514FF49670FEF7E8FFA2
:10306000FEF7E4FDFFF71AFF03E04FF4FA60FEF706
:10307000C7FCFFF78FFA0028F7D1184908604FF412
:1030800080611748FDF78EFA01201649087023E089
:1030900015480078012814D10020134908701348FE
:1030A0004278007802EB002111A000F04BF80F49A4
:1030B000891C15A000F046F80C49891C15A000F0E9
:1030C0006FF8B4F57A7F03DB002417A000F068F8EE
:1030D0000120FEF795FC641CDAE700000C000020DC
:1030E00028090020110000200800002028000020EE
:1030F000B7FECEF1C6F7B7A2C0B42564D7D6BDDA05
:10310000CAFDBEDD0D0A0000CAFDBEDD3A25730D05
:103110000A000000C4FAB7A2CBCDB5C4CAFDBEDD1B
:10312000CAFD3A25730D0A00CED2CAC7BFCDBBA7D0
:10313000B6CBA3ACC7EBB7A2CBCDCAFDBEDD210D8C
:103140000A0000000FB438B505A800901248009A94
:103150000499FDF7B1F8002000900F48FDF7BEF983
:10316000054600BF0D48008800F040000028F9D057
:1031700000240CE00848005D0849091D088000BFD4
:103180000648008800F040000028F9D0641CAC42DA
:10319000F0D338BC5DF814FB28080020003801404B
:1031A0000FB438B505A800901248009A0499FDF7AD
:1031B00083F8002000900F48FDF790F9054600BF06
:1031C0000D48008800F040000028F9D000240CE0F1
:1031D0000848005D0849091D088000BF06480088AE
:1031E00000F040000028F9D0641CAC42F0D338BC99
:1031F0005DF814FB280D00200044004010B50029A4
:103200000AD00878002807D005487844FDF7EEFF7B
:10321000002801D0002010BD0248784410BD0000F5
:10322000560100004E01000010B500290AD00878B0
:10323000002807D005487844FDF7D8FF002801D0C2
:10324000002010BD0248784410BD00004601000077
:103250003E010000FDF774BD0400000800000000FE
:10326000000000020001000010000000000000004B
:1032700000000000303132333435363738394142BE
:1032800043444546403058003031323334353637C8
:10329000383961626364656640307800024000003E
:1032A000000000A00000000005400000000000C871
:1032B000000000000C4000000000409C00000000E6
:1032C000194000000020BCBE000000003440000097
:1032D000BFC91B8E00000004B5400000504BCFD08A
:1032E0006607E2CF010000006C4100003E8251AA57
:1032F000DFEEA73401000000D9420000DCB5A0E2F7
:103300003A301F97FFFFFFFFB4450000FD25A0C81E
:10331000E9A3C14FFFFFFFFFFF3F00000000008057
:1033200000000000FF3F00000000008000000000DF
:103330003139322E3136382E38382E3130330000C4
:103340008C34000800000020280000006C010008F8
:10335000B43400082800002060170000880100082D
:103360001C00000043000000F8FFFFFF0C000000FD
:103370000E0000000F0000002E00000010010000F1
:1033800043000000F8FFFFFF004040404040404045
:103390004040414141414140404040404040404028
:1033A00040404040404040404005020202020202CC
:1033B000020202020202020202202020202020201B
:1033C000202020020202020202029090909090902F
:1033D00010101010101010101010101010101010ED
:1033E0001010101002020202020288888888888861
:1033F000080808080808080808080808080808084D
:103400000808080802020202400000000000000054
:1034100000000000000000000000000000000000AC
:10342000000000000000000000000000000000009C
:10343000000000000000000000000000000000008C
:10344000000000000000000000000000000000007C
:10345000000000000000000000000000000000006C
:10346000000000000000000000000000000000005C
:10347000000000000000000000000000000000004C
:1034800000000000000000000000000030330008D1
:10349000BA1300000000000000000000000000005F
:1034A00000000102030401020304060708090204E4
:0434B000060800000A
:040000050800027974
:00000001FF
