:020000040800F2
:10000000901F00207902000813220008C51E000876
:1000100011220008771A00084D3000080000000087
:10002000000000000000000000000000F9250008AA
:10003000411C000800000000A1240008212700083E
:10004000930200089302000893020008930200083C
:10005000930200089302000893020008930200082C
:10006000930200089302000893020008930200081C
:10007000930200089302000893020008930200080C
:1000800093020008930200089302000893020008FC
:1000900093020008930200089302000893020008EC
:1000A0009302000805280008930200089302000844
:1000B000B528000865290008B9290008930200083E
:1000C00093020008930200089302000893020008BC
:1000D0009302000893020008912D00089302000883
:1000E000930200089302000893020008930200089C
:1000F000930200089302000893020008930200088C
:10010000930200089302000893020008930200087B
:10011000930200089302000893020008930200086B
:10012000930200089302000893020008930200085B
:1001300000F002F800F090F80AA090E8000C824469
:100140008344AAF10107DA4501D100F085F8AFF246
:10015000090EBAE80F0013F0010F18BFFB1A43F0A5
:1001600001031847B8400000D8400000103A24BFEF
:1001700078C878C1FAD8520724BF30C830C144BF0C
:1001800004680C607047000000230024002500264E
:10019000103A28BF78C1FBD8520728BF30C148BFEA
:1001A0000B6070476E2900F03983702900F091844C
:1001B000662903F0BD87652903F0BA87672903F034
:1001C000B7876129AFF3008003681B0A28BF41F09D
:1001D0008001692900F0C280642900F0BF80752980
:1001E00000F0BC806F2900F01F84782900F05D8446
:1001F000E92900F0B983E42900F0B683F52900F07D
:10020000B383EF2900F01C84F82900F05C840368B4
:10021000DB0928BF41F08001632900F03A8373298C
:1002200000F03F83E32900F0ED86F32900F0F28629
:10023000002070471FB500F03FFF040000200021A0
:1002400003F060FF401C60600020002103F044FFC9
:10025000E0601FBD10B510BD00F000FF1146FFF7B4
:10026000E9FF03F0CBFC00F0D9FF03B4FFF7F2FF86
:1002700003BC01F01DF80000094880470948004709
:10028000FEE7FEE7FEE7FEE7FEE7FEE7FEE7FEE746
:10029000FEE7FEE704480549054A064B70470000A3
:1002A000252700083101000890190020901F002028
:1002B000901B0020901B00201CB50C46064B7B4475
:1002C00069460090204600F0C2FA044600206946C4
:1002D00000F0D0FA20461CBDB30500000FB41CB5D9
:1002E000084B06AA7B4469460090059800F0AFFAD7
:1002F00004460020694600F0BDFA20461CBC5DF8AB
:1003000014FB00008D05000070B50C460546012A5F
:1003100005D02878800600D5EA69002302E0012391
:1003200005E05B1C934202D2E05C0028F9D1A86989
:10033000E618C01AA861286A18442862284600F006
:10034000DBF904E0D5E9012114F8010B9047B44230
:10035000F8D3284600F0E6F970BD00002DE9F04121
:100360000646002410687529314616A510D000F005
:10037000EAF9002802DA404213A507E031688A074B
:1003800001D512A502E0490704D511A5012401E019
:1003900000F0E2F900210A2206F1240709E0B0FB8F
:1003A000F2FCB0FBF2F302FB1C003030785418462C
:1003B000491C0028F3D123462A463046BDE8F041C7
:1003C00000F0D3B9000000002D0000002B00000059
:1003D000200000002DE9F05F894604464FF0000A36
:1003E000DFF874B1FB44C0F820A02046E1688847DC
:1003F000002874D0252806D0D4E901219047206A2E
:10040000401C2062F1E700265F462046E1688847ED
:100410002028054607DB312D05D2781910F8200C6D
:1004200008B10643F1E7B00701D526F00406C4F889
:100430001CA00027C4F818A02A2D09D0284603F0D4
:10044000D5FB38B304EB8708303DC8F8185019E0E5
:1004500059F8041B204604EB87029161E168884744
:10046000012F054618D1E069002820DA26F0200681
:100470001DE0D8F8180000EB800005EB4000303894
:10048000C8F818002046E1688847054603F0AEFB2F
:100490000028EED1012F0AD02E2D08D12046E16888
:1004A00088477F1C0546022F46F02006C4DBA06962
:1004B000002803DA404246F00106A061F00701D0AF
:1004C00026F010066C2D0BD0682D09D04C2D39D09C
:1004D0006A2D35D0742D35D07A2D33D016E038E022
:1004E000E1682F4620468847B842054609D16C2F5F
:1004F00026D04FF48060E1680643204688470546D1
:1005000004E06C2F1AD04FF4807006430DB3A5F1B0
:100510004100192802D8203546F400664A4629468B
:10052000204626604E46FFF73DFE80B101280BD0E5
:10053000F61D26F0070000F1080956E74020E4E721
:100540008020D8E70020D6E706F104094DE72846C9
:1005500052E7206ABDE8F09F4C3D000030B50546EB
:100560000B462A4613F8014B12F8010B08B1A042C2
:10057000F8D01CB1002802D06D1CF1E7284630BD30
:1005800010B5431C02E010F8011B71B18107FAD1CC
:100590004FF0013202C88C1A8C4314EAC211F9D010
:1005A000C01A0A0603D0C01E10BDC01A10BD0A042E
:1005B00001D0801E10BD0902FCD0401E10BD421E9D
:1005C00012F8013F002BFBD111F8013B002B02F880
:1005D000013BF9D17047032A40F2308010F0030C40
:1005E00000F0158011F8013BBCF1020F624498BF86
:1005F00011F801CB00F8013B38BF11F8013BA2F123
:10060000040298BF00F801CB38BF00F8013B11F09D
:10061000030300F06982083AC0F0088051F8043BF7
:10062000083A51F804CBA0E80810F5E7121D5CBFAA
:1006300051F8043B40F8043BAFF30080D20724BFDD
:1006400011F8013B11F801CB48BF11F8012B24BF71
:1006500000F8013B00F801CB48BF00F8012B7047C0
:100660004FF000020429C0F0128010F0030C00F0DB
:100670001B80CCF1040CBCF1020F18BF00F8012B59
:10068000A8BF20F8022BA1EB0C0100F00DB85FEA27
:10069000C17C24BF00F8012B00F8012B48BF00F8F3
:1006A000012B70474FF0000200B513469446964662
:1006B000203922BFA0E80C50A0E80C50B1F1200175
:1006C000BFF4F7AF090728BFA0E80C5048BF0CC023
:1006D0005DF804EB890028BF40F8042B08BF704781
:1006E00048BF20F8022B11F0804F18BF00F8012BF3
:1006F000704770477047704770B504468569006859
:10070000C10601D5302600E02026C00707D070BD05
:10071000D4E9012130469047206A401C20626D1EBA
:10072000F6D570BD70B5044685690078C00707D15D
:1007300070BDD4E9012120209047206A401C20622E
:100740006D1EF6D570BD09684A0501D540B27047E7
:10075000C905FCD500B2704709684A0501D5C0B289
:100760007047C905FCD580B270472DE9F0470D46AA
:1007700099469246044600F124080168880604D58B
:10078000E06921F01001216000E00120A84201DDB4
:10079000471B00E00027A1697A1902EB0900081A3B
:1007A000A0612078C00602D42046FFF7A5FF0026EE
:1007B00008E0D4E901211AF806009047206A401C9D
:1007C000761C20624E45F4DB2078C0060AD5204610
:1007D000FFF792FF06E0D4E9012130209047206A1C
:1007E000401C2062381EA7F10107F4DC07E0D4E9C1
:1007F000012118F805009047206A401C2062281E3D
:10080000A5F10105F3DC2046FFF78CFF20780006F8
:1008100002D50220BDE8F0870120FBE711680268DD
:10082000006A530501D508700AE0D30501D5088098
:1008300006E0130603D5C217C1E9000200E0086014
:100840000120704701694A1C02610878704700B5B1
:100850008FB0CDE901310021059105497944CDE9F9
:10086000031011466846FFF7B5FD0FB000BD00004C
:10087000E5FFFFFF0A6802F8010B0A60704710B538
:10088000436913B1AFF3008001E0FFF73DFD0120A4
:1008900010BD127800F124010A7000224A70012272
:1008A000EDE711684FF0FF32E9E700002DE9FF5F47
:1008B00015468A460446DFF8AC80F8440027D8E99C
:1008C00000103E46CDE9001010E03AF816106A46D6
:1008D00002A800F0A3FB411C07D02178890603D5AC
:1008E000E269391891420DD80744761C20788006B9
:1008F00002D5E069B84205DDAE42E6DB3AF8160003
:100900000028E2D1A069C01BA0612046FFF7F4FED9
:10091000D8E90010CDE90010002017E03AF81810CF
:100920006A4602A800F07AFBB0F1FF3F81460BD087
:1009300000250DF1080B05E0D4E901211BF80500A5
:1009400090476D1C4D45F7D308F10100B042804639
:10095000E4DB206A384420622046FFF7E3FEBDE86E
:10096000FF9F00008A3800002DE9F0418046D21D2B
:1009700022F007020025D2E90002F52915A614D0BD
:10098000011E72F1000106DA0023D0EB030063EBD5
:10099000020211A608E0D8F800108B0701D50FA6B7
:1009A00002E0490701D50EA601251146002408F1F1
:1009B000240704E000F0CAF830323A55641C50EACB
:1009C0000102F7D12B46324621464046BDE8F041B0
:1009D000FFF7CBBE000000002D0000002B00000040
:1009E0002000000030B4002100F1240408E002F0EF
:1009F0000705D208303542EA4372DB086554491CCA
:100A000052EA0305F3D10468002310A2250708D594
:100A100004F020040C4304D0C46901230CA2641E1A
:100A2000C46130BCFFF7A1BE10B504462146106872
:100A3000FFF792FE02462046BDE810400023D1E7B2
:100A4000D21D22F00701D1E90023CBE7000000000E
:100A500030000000F0B40D460188090502D5214C94
:100A60007C4402E01F4C7C440E34002100F124063B
:100A700008E002F00F071209E75D42EA03721B0962
:100A80007754491C52EA0307F3D102780023120776
:100A900004D5702D06D009B1022311342246F0BCD2
:100AA000FFF763BE01231034F8E770B504460D4626
:100AB00021461068FFF750FE024629462046BDE851
:100AC00070400023C6E7D21D22F00703D3E90023BC
:100AD000C0E70368126843F0200303600823C36182
:100AE0000023B7E7EC36000010B5203AC0F00B80C9
:100AF000B1E81850203AA0E81850B1E81850A0E822
:100B00001850BFF4F5AF5FEA027C24BFB1E818507B
:100B1000A0E8185044BF18C918C0BDE810405FEAEB
:100B2000827C24BF51F8043B40F8043B08BF704767
:100B3000D20728BF31F8023B48BF11F8012B28BF6C
:100B400020F8023B48BF00F8012B704730B5B0F1E8
:100B50000A024FEA900E71F100034EEA817EB0EB7B
:100B60000E0061EB91014FEA101E4EEA017E10EB80
:100B70000E0041EB11114FEA102E4EEA016E10EB00
:100B80000E0041EB11214FEA104E4EEA014E10EBE0
:100B90000E0041EB1141401841F100014FEAD00035
:100BA00040EA41704FEAD10110EB80054FEA810421
:100BB00044EA907444EB01046D1944EB0404521BA5
:100BC000A3414FF0000348BF0A3200D530BD401C9E
:100BD00041F1000130BD70472DE9FF4F0C461E4624
:100BE0004FF0FF378BB0D2E90001DDF860800A904A
:100BF0008A46C1F30A5505B93D46002108464FF023
:100C00000000BAF1000F00F4400005DA00EB8000AC
:100C10004FF4400101EA50004FEA9059B9F1010F39
:100C200000DDB9460A9850EA4A000ED044F610504A
:100C3000A5F2FF3545432F14B8F1000F1ED07542C1
:100C4000291E1EDDC9F100021CE0B8F1010F4FF0B2
:100C5000000001D0302103E0F24305E02154401CA4
:100C6000B042FBDB30460022002121540B99C1F831
:100C70000880C1E900200FB0BDE8F08FBD1B6D1CDE
:100C8000DEE74A4600DA694206A800F059FA06ABE8
:100C900093E8070003AB83E8070050460A9900F089
:100CA0000EFB8DE80700A0F500501F380090039858
:100CB000002D09DD42F21F014A46084403A90390B2
:100CC000684600F06DFD08E0A0F500504A461F3868
:100CD00003A90390684600F077FD8DE80700000443
:100CE000000C03D04FF0FF30410800E01046B8F18F
:100CF000000F03D00022009215461EE0751E05D499
:100D0000FFF724FF303262556D1EF9D5B34601223C
:100D1000084302D000227F1C04E02078302801D153
:100D200000227F1E002A099786D01DE0112D07DAC8
:100D3000FFF70CFF303262556D1C50EA0102F5D10D
:100D4000084302D00098C8B10EE00021681E05E0FB
:100D5000235C625C63542254401E491C8142F7DBD1
:100D6000AB46A81B401E0990002004F80B000B980E
:100D7000099AC0F80880C0E9002B7CE711264FF0E3
:100D8000000859E72DE9F04F88460446D21D22F0AD
:100D9000070191B0D1E90001CDE90A0102F012FF8B
:100DA00002460B98C00F01D02D2007E02068810774
:100DB00001D52B2002E0202101EAC000032A09907E
:100DC00001D0072A05DB03464146204600F078F9AA
:100DD0000BE12078800601D5E06900E00620B8F13B
:100DE000650F814606D0B8F1660F18D0B8F1670FCD
:100DF00070D131E00020B9F1110F009001DB112317
:100E000001E009F101030AAA01A90CA8FFF7E4FE19
:100E1000DDE90C70002609F10105834647E0012059
:100E20004B4600904FF000470AAA01A90CA8FFF713
:100E3000D3FEDDE90DB00C995D46002610B909F12D
:100E400001000D18B9EB050003D4C0F1FF3609F11C
:100E50000105A5EB09002BE0B9F1010F01DA4FF014
:100E600001090020B9F1110F0090484601DD11235E
:100E700000E003460AAA01A90CA8FFF7ADFEDDE9D0
:100E80000C704D4600268346207800070AD4AB45F7
:100E900000DA5D4601A8012D04DD411911F8011C9D
:100EA000302907D04F4502DA17F1040F04DA012088
:100EB00082460FE06D1EEEE7002F02DCED1B3E4484
:100EC00003E0781CA84200DD7D1CB81B00F1010A7C
:100ED0004FF000472078000703D4AA4501DB4FF00C
:100EE000FF3A0021B7F1004F0DF143088DF8431090
:100EF00024D002202B23002F01DA7F422D230A2148
:100F0000021EA0F1010000DC5FB197FBF1FC97FB32
:100F1000F1F201FB1C7C17460CF1300C08F801CDF6
:100F2000EEE7A8F1010003702188090501D54521EC
:100F300000E06521A0F1010800F8011C09980FA943
:100F4000A1EB0807FF1D00B10120411901EBEA7078
:100F5000A1693844081A401EA0612078C00602D456
:100F60002046FFF7C9FB099828B1D4E90121904731
:100F7000206A401C20622078C00622D52046FFF758
:100F8000BBFB1EE0002E04DBB34502DD01A8805D43
:100F900000E03020D4E901219047206A401C206203
:100FA000761CAAF101005FEA000A0AD100F084F879
:100FB000C0680168405CD4E901219047206A401C68
:100FC0002062281EA5F10105DCDC07E0D4E901213F
:100FD00018F8010B9047206A401C2062381EA7F1C8
:100FE0000107F3DC2046FFF79DFB032011B043E629
:100FF00010B5436913B1AFF3008001E0FFF756FC71
:10100000012010BD128800F1240182840022C284D4
:101010000122EDE711684FF0FF32E9E770B516469F
:101020000C46054600F040F8036893F801010128DA
:1010300006D0FF2C0FD8185D68B101202C7070BD50
:10104000D3F807013246214603F20713034428462A
:10105000BDE8704018474FF0FF3070BD754600F096
:10106000E3F8AE4605006946534620F00700854682
:1010700018B020B5FFF70EF9BDE820404FF000068C
:101080004FF000074FF000084FF0000B21F0070170
:10109000AC46ACE8C009ACE8C009ACE8C009ACE8B3
:1010A000C0098D467047000010B500F005F8001D1E
:1010B00010BD00BF5130000000487047501900209B
:1010C0002DE9F0411F46044603260168072A01F472
:1010D000006004DB08B116A505E016A503E008B121
:1010E00015A500E015A521F010002060A069C01E24
:1010F000A0610FB1401EA0612046FFF7FDFA4FB17D
:10110000D4E9012138469047206A401C2062C01C67
:10111000206206E0206AFAE7D4E9012115F8010B04
:101120009047761EF8D22046FFF7FCFABDE8F08122
:101130004E414E006E616E00494E4600696E66007B
:101140002DE9F047814616468AB0334878440DC8E9
:101150008DE80D0030487844801C03AC0DC884E84D
:101160000D0041F69B300844372190FBF1F290FBD3
:10117000F1F5A5F1800501FB12041B3C02D5644288
:10118000012000E00020DFF890A080460027FA440C
:10119000AAF1BE0A0DE0E00709D03246684607EB27
:1011A00047010AEB810100F00FFB8DE80700641096
:1011B0007F1C002CEFD1184F7F44AC3F18E0E807AC
:1011C00014D007EB04100DF1180A90E80E008AE81D
:1011D0000E00C068F04201D198190890324606A965
:1011E00003A800F0F1FA03AB83E807006D10641C5C
:1011F000002DE4D132466946B8F1000F03A802D0B1
:1012000000F0CEFA01E000F0DFFAC9E90001C9F808
:1012100008200AB0BDE8F087A43000000446AFF310
:1012200000802046FFF721F8004870473019002061
:101230004FF0013C50F8042B51F8043B9A4221D165
:10124000A2EB0C03934313EACC1317D150F8042BF1
:1012500051F8043B9A4215D1A2EB0C03934313EAD5
:10126000CC130BD150F8042B51F8043B9A4209D10E
:10127000A2EB0C03934313EACC13DBD04FF0000036
:10128000704700BFD01A01BAB1FA81F101F018011C
:1012900022FA01F0CB40C1F12001DBB2C0B2C01A8A
:1012A0002CFA01F3D11A914311EAC311E6D1704728
:1012B00001491820ABBEFEE72600020070475FEA36
:1012C000400C08BF91F0000F4FEA8C234FEAC12277
:1012D00043EA51514FEA1C5018BF00F5F0404FEA65
:1012E000300018BF41F000415FEA6C5C00F02980DB
:1012F000BCF1FF3F08BF40F080407047130C06BFB1
:1013000012044FF0100C4FF0000C130E04BF120229
:101310000CF1080C130F04BF12010CF1040C930F15
:1013200004BF92000CF1020CD30F04BF52000CF169
:10133000010C11464FF00002A0F11F00A0EB0C00C1
:10134000704711F0004F08BF704731F000413FF483
:10135000D5AF0B0C06BF09044FF0100C4FF0000C7A
:101360000B0E04BF09020CF1080C0B0F04BF09019E
:101370000CF1040C8B0F04BF89000CF1020CCB0F95
:1013800004BF49000CF1010CCCF12003A0EB0C00D0
:1013900022FA03F302FA0CF241EA030100F1010020
:1013A000704720F07F4C80EA030023F07F47ACEBCE
:1013B000070303F57C5300F0004003F1FF032DE920
:1013C00080494FEA154B09B44FEA144325EA0B4E06
:1013D00024EA03480FF2042606EB132749083E7857
:1013E0005FEA320203FB0667C7F5000707FB06F654
:1013F0004FEA54374FEAD64606F1020607FB066C61
:10140000CCF1005C4FEA1C472CEA074C07FB06F4C2
:101410000CFB06F504EB15464FEA961634BF002088
:101420004FF000404FEAD13706FB07FC4FEA1C4C57
:101430000CFB0BF7D21B03FB0CF761EB07010CFB5A
:101440000EF7B0EB074072EB17420CFB08F734BF06
:10145000A2EB0742B2EB074261EB17414FEA0C44A3
:101460004FEA910706FB07FC4FEA1C4C0CFB0BF7FD
:10147000B0EBC74072EB573203FB0CF734BFA2EB63
:10148000C742B2EBC74261EB57310CFB0EF7B0EB32
:10149000C70072EB57720CFB08F734BFA2EBC70210
:1014A000B2EBC70261EB5771039F4FEA816141EADA
:1014B000921104EBCC044FEAD1374FEA826206FB6B
:1014C00007FC42EA90124FEA80604FEA1C4C0CFB8A
:1014D0000BF7D21B03FB0CF761EB07010CFB0EF7BC
:1014E000B0EB074072EB17420CFB08F734BFA2EBDE
:1014F0000742B2EB074261EB17414FEA8C554FEAC6
:10150000910704EB9C2406FB07FC4FEA1C4C0CFBE8
:101510000BF7B0EBC74072EB573203FB0CF734BF4D
:10152000A2EBC742B2EBC74261EB57310CFB0EF79F
:10153000B0EBC70072EB57720CFB08F734BFA2EB9D
:10154000C702B2EBC70261EB577115EB4C254FEAAE
:10155000816141EA92114FEA82624FEAD13742EA51
:10156000901206FB07FC44F100044FEA80604FEA4A
:101570001C4C0CFB0BF7D21B03FB0CF761EB0701B8
:101580000CFB0EF7B0EB074072EB17420CFB08F7B1
:1015900034BFA2EB0742B2EB074261EB174115EBF8
:1015A0001C154FEA813141EA92414FEA823242EA08
:1015B00090424FEA80304FEA0C7644F1000448EA4A
:1015C00003434EEA0B484FF0000EB2EB080C71EBF0
:1015D000030724BF624639464EEB0E0E4FF0000B58
:1015E0000018524149414BEB0B0BB2EB080C71EB6D
:1015F00003077BF1000B24BF624639464EEB0E0E0B
:101600004FF0000B0018524149414BEB0B0BB2EB72
:10161000080C71EB03077BF1000B24BF62463946CF
:101620004EEB0E0E51EA020718BF46F0010616EB0C
:101630000E7655F1000254F1000103D5BDE8890191
:10164000BDE80088BDE88901BDE80048B6195241EF
:1016500041EB0101A3F10103704780807F7E7D7C17
:101660007B7A7978777676757473727171706F6E34
:101670006E6D6C6C6B6A6A696868676666656464DF
:10168000636362616160605F5F5E5E5D5D5C5C5B69
:101690005B5A5A59595858575756565555555454D8
:1016A000535352525251515050504F4F4F4E4E4D36
:1016B0004D4D4C4C4C4B4B4B4A4A4A494949484882
:1016C00048474747474646464545454444444443C2
:1016D00043434342424242414141002B26D47700DA
:1016E00021D01CB54FEA370703B44FF010004FF07C
:1016F00010014FF000000FBCBDE810400BF1010BD2
:10170000BBF1010F08BF5FEA170722BF12F1010208
:1017100011F101014FF0004143F1000300F00040DE
:1017200043EA00007047F9D35708DAE746EA06466D
:1017300013F1400F4FEA16461FDD13F1200FDFBFF4
:1017400016430A46002120335B42C8D0C3F120076C
:1017500046EA064602FA07F74FEA164646EA070641
:10176000C3F1200722FA03F201FA07F721FA03F185
:101770004FF0000342EA0702B1E746EA020646EAF2
:1017800006464FEA164646EA0106BCBF46EA06464A
:10179000360C4FF000034FF000024FF000019EE7BF
:1017A0002DE9C048934630B491E8380007C831EAC3
:1017B000400C48BF34EA430C03D5FFF7F2FDFFF7B6
:1017C0008CFFF0BCBDE800882DE9C048934630B4DA
:1017D00091E8380007C810F0804F08BF13F0804F21
:1017E00003D100F005F8FFF778FFF0BCBDE80088F2
:1017F00020F07F4780EA030023F07F4C07EB0C03C7
:10180000A3F57C5300F00040A3F1FE0392F0000F1B
:1018100000F0B38095F0000F00F077802DE90149CA
:101820004FEA11404FEA144621EA004800FB06FC4B
:1018300024EA064708FB06F607FB08F800FB07F753
:1018400018EB06484CEB164C4FEA124B18EB0748C6
:101850004FEA15464CEB174022EA0B4E0BFB06FCF9
:1018600025EA06470EFB06F607FB0EFE0BFB07F705
:101870001EEB064E4CEB164C4FF000061EEB074ECF
:101880004CEB174B18EB0B0840F1000018EB0E0B5C
:1018900058EB000840F100008F1A4FF000013CBFE8
:1018A000C943661B14BFB5EB040C00213CBFC94300
:1018B000F61B4FEA17444EEA8E0E27EA04454FEA1C
:1018C0001C4704FB07622CEA074C05FB07F70CFBDF
:1018D00005F604FB0CFC16EB074642EB174216EB31
:1018E0000C4642EB1C421BEB060658EB0202414140
:1018F00046EA9E0601D5BDE80189B619524141EB81
:101900000101A3F10103BDE801894FEA14454FEA43
:10191000114724EA054621EA074C05FB07F406FBBC
:1019200007F70CFB06F105FB0CFC11EB074144EB40
:1019300017444FEA124711EB0C4144EB1C4422EAD6
:10194000074C05FB07F206FB07F70CFB06F605FB49
:101950000CFC16EB074642EB174216EB0C4642EB2B
:101960001C456A1854F1000148BF7047B61952412E
:1019700041EB0101A3F10103704795F0000F37D04F
:101980004FEA11424FEA144721EA024624EA074C83
:1019900002FB07F106FB07F70CFB06F402FB0CFC4D
:1019A00014EB074441EB17414FEA154714EB0C4485
:1019B00041EB1C4125EA074C02FB07F506FB07F744
:1019C0000CFB06F602FB0CFC16EB074645EB174535
:1019D00016EB0C4645EB1C42121951F1000148BFB1
:1019E0007047B619524141EB0101A3F10103704761
:1019F0004FEA14454FEA114724EA054621EA074C0D
:101A000005FB07F106FB07F70CFB06F24FF000069B
:101A100005FB0CFC12EB074241EB174112EB0C42A9
:101A200051EB1C4148BF7047921841EB0101A3F1F3
:101A30000103704770B50446002500F015FBA02097
:101A400000F0E0FA00F050FB204600F0DBFA00F076
:101A50004BFB00F009FBA12000F0D4FA00F044FB9E
:101A6000002000F051FA054600F01EFB052000F0B2
:101A7000EFF8284670BD704710B500241A4800687A
:101A800020F00F00184908600846006840F0080080
:101A9000086004E0601CC4B2012000F055F94FF466
:101AA00080711148001F00F0FBF9012801D1462C7C
:101AB000F0DB462C01DB012010BD002404E0601C9B
:101AC000C4B2012000F040F94FF480710648001FB5
:101AD00000F0E6F908B9462CF1DB462C01DB0220C8
:101AE000EAE70020E8E700000408014008B501210A
:101AF000042000F0F7FC4FF48070ADF800000320E4
:101B00008DF8020010208DF803006946034800F0AC
:101B10003CF900F073F8FFF7AFFF08BD0008014083
:101B200010B5002404E0601CC4B2012000F00CF9E0
:101B30004FF48071114800F0B3F9012801D1282C2D
:101B4000F1DB002404E0601CC4B2012000F0FCF8CA
:101B50004FF48071094800F0A3F908B93C2CF2DB7E
:101B6000232000F0F1F84FF48071044800F098F958
:101B700008B1012010BD0020FCE700000008014072
:101B800070B50024002506E06006040EFFF7C8FFCC
:101B90000443681CC5B2082DF6DB204670BD7CB539
:101BA00005460E4600F02AF8FFF766FF08BB002442
:101BB00005E0FFF7E5FF0DF80400601CC4B2052C3A
:101BC000F7DB9DF800009DF8011008449DF8021015
:101BD00008449DF8031008449DF80410884206D17B
:101BE0009DF8000030709DF80200287003E001208D
:101BF0007CBD0220FCE70020FAE7000010B50F488A
:101C0000006820F00F000D4908600846006840F0A9
:101C100003000860002289150848001F00F04DF9F4
:101C20001E2000F015F8012211020448001F00F0E8
:101C300044F91E2000F088F810BD0000040801409F
:101C4000704710B56FF0040000F04CFD10BD0000AF
:101C500010B50146B1F5E16F22D201EBC1034FF49B
:101C60007A7463434FF0E02463610023A361234649
:101C70001B6943F00103236100BF4FF0E0231869A3
:101C800000F001031BB100F48033002BF5D04FF0BE
:101C9000E0231B6923F001034FF0E02423614FE0B0
:101CA00000221FE0274B4FF0E02463610023A36173
:101CB00023461B6943F00103236100BF4FF0E0237B
:101CC000186900F001031BB100F48033002BF5D03C
:101CD0004FF0E0231B6923F001034FF0E024236160
:101CE000531CDAB24FF4E163B1FBF3F39342D9D85A
:101CF0004FF4E163B1FBF3F403FB141303EBC303F1
:101D00004FF47A7463434FF0E02463610023A361CE
:101D100023461B6943F00103236100BF4FF0E0231A
:101D2000186900F001031BB100F48033002BF5D0DB
:101D30004FF0E0231B6923F001034FF0E0242361FF
:101D400010BD00004031F700014601EBC1024FF029
:101D5000E0235A6100229A611A46126942F0010298
:101D60001A6100BF4FF0E022106900F001021AB1C1
:101D700000F48032002AF5D04FF0E022126922F000
:101D800001024FF0E0231A6170472DE9F04102464D
:101D900000250026002000230024002791F803C01E
:101DA0000CF00F0591F803C00CF0100CBCF1000F03
:101DB00003D091F802C04CEA050591F800C0BCF1CF
:101DC000000F31D0146800202BE04FF0010C0CFA0A
:101DD00000F3B1F800C00CEA03069E4220D1830054
:101DE0004FF00F0C0CFA03F7BC4305FA03FC4CEA66
:101DF000040491F803C0BCF1280F06D14FF0010C88
:101E00000CFA00FCC2F814C00AE091F803C0BCF15F
:101E1000480F05D14FF0010C0CFA00FCC2F810C0BD
:101E2000401C0828D1D31460B1F800C0BCF1FF0FEA
:101E300034DD546800202EE000F1080C4FF001085A
:101E400008FA0CF3B1F800C00CEA03069E4221D157
:101E500083004FF00F0C0CFA03F7BC4305FA03FCA8
:101E60004CEA040491F803C0BCF1280F05D100F13D
:101E7000080C08FA0CF8C2F8148091F803C0BCF101
:101E8000480F07D100F1080C4FF0010808FA0CF8D0
:101E9000C2F81080401C0828CED35460BDE8F08101
:101EA0000246002093680B400BB1012000E00020A7
:101EB000704741617047016170470AB1016100E0FC
:101EC000416170477047000008B50121102000F003
:101ED00009FB4FF4C050ADF8000010208DF803004E
:101EE00003208DF8020069460648FFF74EFF4FF4C5
:101EF00080510448FFF7DFFF4FF400610148FFF70E
:101F0000DAFF08BD0010014070B5054600243C48CA
:101F1000406820F470403A4948600846406840F400
:101F200000404860C814086141003548FFF7C1FF10
:101F30001420FFF709FF00261EE04FF480513048BF
:101F4000FFF7B9FF1420FFF7FFFE6006040E4FF401
:101F500000612B48FFF7A4FF08B1601CC4B2142035
:101F6000FFF7F2FE4FF480512548FFF7A2FF14203F
:101F7000FFF7EAFE701CC6B2082EDEDBE5B920488A
:101F8000406820F470401E4948600846406840F4AC
:101F900040504860C9141A48FFF78DFF4FF4805134
:101FA0001748FFF788FF0220FFF7CEFE4FF480515D
:101FB0001348FFF77EFF20E01148406820F470408E
:101FC0000F4948600846406840F440504860C914D2
:101FD0000B48FFF76EFF4FF480510948FFF76BFF86
:101FE0000220FFF7B1FE4FF480510548FFF761FF73
:101FF0004FF400610248FFF75EFF204670BD00000D
:102000000010014070B504461648406820F4704046
:10201000144948600846406840F4405048608914BC
:102020001048FFF746FF002519E0E2094FF4006170
:102030000C48FFF742FF6006040E0220FFF784FE03
:102040004FF480510748FFF736FF0220FFF77CFE70
:102050004FF480510348FFF72CFF681CC5B2082DD0
:10206000E3DB70BD0010014010B50E48406820F45D
:1020700070400C4948600846406840F44050486051
:10208000C9140848FFF717FF4FF480510548FFF7C0
:1020900012FF0420FFF758FE4FF400610148FFF7DC
:1020A00008FF10BD0010014010B50E48406820F434
:1020B00070400C4948600846406840F44050486011
:1020C000C9140848FFF7F5FE4FF480510548FFF7A3
:1020D000F2FE0420FFF738FE4FF400610148FFF7DD
:1020E000EAFE10BD0010014010B500244FF400615D
:1020F0001848FFF7E0FE1748406820F47040154983
:1021000048600846406840F400404860C8140861D0
:1021100041001048FFF7CFFE0AE0601CC4B2FA2C61
:1021200003DDFFF7C1FF012010BD0220FFF70CFE09
:102130004FF400610748FFF7B3FE0028EDD14FF4DC
:1021400080510448FFF7B5FE1420FFF7FDFD002085
:10215000EAE700000010014008B50121042000F06A
:10216000C1F90120ADF8000028208DF80300694670
:102170000648FFF70AFE0220ADF8000048208DF85F
:10218000030069460148FFF700FE08BD0008014052
:1021900010B502210748FFF78EFE01210548FFF721
:1021A0008AFE20210448FFF786FE10210248FFF72F
:1021B00082FE10BD000C01400010014008B5012155
:1021C000082000F08FF90121102000F08BF9032086
:1021D000ADF800008DF8020010208DF8030069466C
:1021E0000948FFF7D2FD3020ADF8000003208DF83C
:1021F000020010208DF8030069460448FFF7C5FD72
:10220000FFF7C6FF08BD0000000C014000100140B0
:102210007047704770B5002100230F22C47804B3C3
:10222000154C246804F4E064C4F5E064210AC1F1AB
:102230000403CA40447804FA03F18478144021432B
:1022400009010E4C0678A155047804F01F050124FD
:10225000AC4005786D11AD0005F1E025C5F80041F1
:1022600009E0047804F01F050124AC40044D067811
:10227000761145F8264070BD0CED00E000E400E06A
:1022800080E100E002490143024A1160704700000A
:102290000000FA050CED00E010B5A0B004464FF4C4
:1022A00000610D48FEF7DCF980216846FEF7FAF977
:1022B00022460AA10848FEF711F812A219A16846A1
:1022C000FEF70CF869460448FEF779F919A10248AF
:1022D000FEF775F920B010BD30110020474554209D
:1022E0002F646576696365732F25732F646174614C
:1022F000706F696E747320485454502F312E310D15
:102300000A0000004E386C6A6B463D594670626E9A
:102310004F496644717A336E6C3849786C31383D78
:10232000000000006170692D6B65793A25730D0A14
:1023300000000000486F73743A6170692E6865632D
:102340006C6F7564732E636F6D0D0A0D0A000000CB
:1023500030B5C3B004464FF400612248FEF780F95F
:10236000802123A8FEF79EF9802103A8FEF79AF9A1
:1023700022461DA11B48FDF7B1FF27A22EA123A8CD
:10238000FDF7ACFF23A91748FEF719F92EA1154850
:10239000FEF715F902A901A8FFF701FC9DF8083026
:1023A0009DF804202EA103A8FDF798FF03A8FEF7CF
:1023B000E7F805462A4632A123A8FDF78FFF23A997
:1023C0000848FEF7FCF803AA33A123A8FDF786FF0F
:1023D00023A90448FEF7F3F803A919A001F020FE91
:1023E00043B030BD30110020504F5354202F64654E
:1023F00076696365732F25732F64617461706F69EB
:102400006E74733F747970653D3320485454502F77
:10241000312E310D0A0000004E386C6A6B463D5972
:102420004670626E4F496644717A336E6C384978F3
:102430006C31383D000000006170692D6B65793AA0
:1024400025730D0A00000000486F73743A617069CB
:102450002E6865636C6F7564732E636F6D0D0A0073
:102460007B2274656D705F64617461223A25642C0F
:102470002268756D695F64617461223A25647D002C
:10248000436F6E74656E742D4C656E6774683A2583
:10249000640D0A0D0A00000025730D0A0D0A0000E4
:1024A0007047000029B1064AD2690243044BDA6141
:1024B00004E0034AD2698243014BDA6170470000AD
:1024C0000010024029B1064A12690243044B1A6106
:1024D00004E0034A12698243014B1A61704700000D
:1024E0000010024029B1064A92690243044B9A61E6
:1024F00004E0034A92698243014B9A6170470000ED
:102500000010024029B1064AD2680243044BDA6047
:1025100004E0034AD2688243014BDA60704700004E
:102520000010024030B500210022002400232D4D70
:102530006D6805F00C0121B1042905D0082923D1CB
:1025400005E0294D056022E0274D05601FE0254D7F
:102550006D6805F47012234D6D6805F48034022512
:1025600005EB92421CB9214D554305600BE01D4D12
:102570006D6805F400351DB11C4D5543056002E042
:10258000194D5543056002E0174D056000BF00BFBF
:10259000144D6D6805F0F0010909154D6B5C056877
:1025A000DD4045600F4D6D6805F4E061090A104D8E
:1025B0006B5C4568DD4085600A4D6D6805F46051CF
:1025C000C90A0B4D6B5C4568DD40C560054D6D6803
:1025D00005F44041890B074D6B5CC568B5FBF3F50D
:1025E000056130BD0010024000127A0000093D0074
:1025F0001800002028000020704710B500F002F8F5
:1026000010BD00000CB50020019000903348006818
:1026100040F480303149086000BF3048006800F461
:10262000003000900198401C0190009818B9019862
:10263000B0F5A06FF1D12948006800F4003010B166
:102640000120009001E0002000900098012843D173
:102650002348006840F010002149086008460068DF
:1026600020F0030008600846006840F0020008609F
:102670001A4840681949486008464068486008465A
:10268000406840F4806048600846406820F47C1050
:1026900048600846406840F4E81048600846006812
:1026A00040F08070086000BF0C48006800F00070C7
:1026B0000028F9D00948406820F003000749486025
:1026C0000846406840F00200486000BF0348406888
:1026D00000F00C000828F9D10CBD000000100240E9
:1026E0000020024010B50446042C08D14FF0E02031
:1026F000006940F004004FF0E021086107E04FF06E
:10270000E020006920F004004FF0E0210861FFF7AD
:10271000DBFB00BFFF20FFF78DF95528FAD110BD74
:102720007047000010B51348006840F001001149DF
:10273000086008464068104908400E49486008464D
:1027400000680E4908400B4908600846006820F4FC
:10275000802008600846406820F4FE0048604FF47E
:102760001F008860FFF749FF4FF0006004490860D0
:1027700010BD0000001002400000FFF8FFFFF6FE51
:1027800008ED00E01FB54FF4A060FFF77BFD0121CD
:10279000C802FFF7A7FE1A4800F098F944F61F6038
:1027A000ADF8080048F69F40ADF8040001208DF810
:1027B0000C000020ADF80600ADF80A0001A9104891
:1027C00000F094FA01210E4800F070F90122114640
:1027D0000B4800F080FA19208DF8000002208DF8D7
:1027E000010000208DF8020001208DF803006846EA
:1027F000FFF710FD0121024800F05BF91FBD00004A
:10280000002C014010B501210A4800F053FA78B1BC
:102810000120094908700021064800F04AF900210A
:102820004FF0804000F045F90121024800F03EF9E8
:1028300010BD0000002C0140020000201FB54FF425
:10284000A060FFF71FFD01210846FFF72BFE4FF0A8
:10285000804000F03BF941F26F70ADF8080048F697
:102860009F40ADF804000020ADF80600ADF80A0066
:1028700001A94FF0804000F039FA0121880700F0EB
:1028800015F901221146900700F025FA0121880769
:1028900000F00FF91C208DF8000002208DF80100D7
:1028A00001208DF802008DF803006846FFF7B2FCA6
:1028B0001FBD000010B50121880700F0FBF978B1B9
:1028C0000120084908700021074800F0F2F80021B3
:1028D0004FF0804000F0EDF80121880700F0E6F8A5
:1028E00010BD000001000020002C01401FB54FF476
:1028F000A060FFF7C7FC01210220FFF7D3FD1848B5
:1029000000F0E4F842F20F70ADF8080048F69F407E
:10291000ADF804000020ADF80600ADF80A0001A9EA
:102920000F4800F0E3F901210D4800F0BFF8012243
:1029300011460B4800F0CFF90121094800F0B9F821
:102940001D208DF8000001208DF8010000208DF879
:10295000020001208DF803006846FFF75BFC1FBDF5
:102960000004004010B501210E4800F0A3F9B8B1F1
:1029700000200D4908700D4908700D4908700021AC
:102980000C4800F096F800214FF0804000F091F8DC
:102990000021044800F08DF80121024800F086F87B
:1029A00010BD0000000400400000002002000020D4
:1029B00001000020002C014010B50121174800F053
:1029C00079F950B316A001F02BFB012018490870CB
:1029D0001848194902681948FDF7FDFD1548008897
:1029E000000A1649891E08701248007848700021B4
:1029F000124A921E0F480068801C115400200D4995
:102A000008600021054800F054F80021034800F058
:102A10006BF90121014800F049F810BD00080040A1
:102A2000BDD3CAD5B5BDCAFDBEDD0D0A000000008C
:102A3000040000200800002030010020320900209E
:102A40007FB505460C464FF4A060FFF71BFC012143
:102A50000420FFF727FDADF80850ADF80440002032
:102A6000ADF80600ADF80A0001A90F4800F03EF9E4
:102A700001210D4800F01AF8012211460A4800F021
:102A80002AF90021084800F014F81E208DF80000F3
:102A900000208DF801008DF8020001208DF8030060
:102AA0006846FFF7B7FB7FBD00080040CA430282BB
:102AB000704721B1028842F00102028004E00288DE
:102AC0004FF6FE731A4002807047000010B50446AE
:102AD0006848844208D10121C014FFF713FD00218A
:102AE000E014FFF70FFDC4E0B4F1804F08D10121DD
:102AF0000846FFF7E7FC00210120FFF7E3FCB8E000
:102B00005D48844208D101210220FFF7DBFC00214F
:102B10000220FFF7D7FCACE05848844208D10121DD
:102B20000420FFF7CFFC00210420FFF7CBFCA0E03E
:102B30005348844208D101210820FFF7C3FC00213B
:102B40000820FFF7BFFC94E04E48844208D10121E1
:102B50001020FFF7B7FC00211020FFF7B3FC88E03E
:102B60004948844208D101212020FFF7ABFC002115
:102B70002020FFF7A7FC7CE04448844208D10121D3
:102B80004014FFF7BFFC00216014FFF7BBFC70E0AE
:102B90003F48844209D10121C804FFF7B3FC00215A
:102BA0004FF40020FFF7AEFC63E03A48844209D1BD
:102BB00001210805FFF7A6FC00214FF48010FFF764
:102BC000A1FC56E03448844209D101214805FFF7B1
:102BD00099FC00214FF40010FFF794FC49E02F48C6
:102BE000844208D101214020FFF76CFC00214020E5
:102BF000FFF768FC3DE02A48844208D1012180208B
:102C0000FFF760FC00218020FFF75CFC31E02548E5
:102C1000844208D101218015FFF754FC0021A01542
:102C2000FFF750FC25E02048844209D10121080427
:102C3000FFF768FC00214FF48030FFF763FC18E0D9
:102C40001A48844209D101214804FFF75BFC0021A6
:102C50004FF40030FFF756FC0BE01548844208D1D2
:102C600001218804FFF74EFC00214FF48020FFF77C
:102C700049FC10BD002C0140000400400008004049
:102C8000000C0040001000400014004000340140DF
:102C9000004C014000500140005401400018004029
:102CA000001C004000200040004001400044014062
:102CB0000048014030B50246002000230024158A58
:102CC00005EA0103958905EA010413B10CB101205D
:102CD00000E0002030BD1AB183890B43838102E0FC
:102CE00083898B43838170478184704700220288E7
:102CF0001D4B98420ED01D4B98420BD0B0F1804F27
:102D000008D01B4B984205D01A4B984202D01A4B60
:102D1000984204D14FF68F731A404B881A43174BD1
:102D2000984207D0164B984204D04FF6FF431A4002
:102D3000CB881A4302808B8883850B8803850A4BD6
:102D400098420BD0094B984208D00E4B984205D0C0
:102D50000D4B984202D00D4B984201D10B7A03865D
:102D60000123838270470000002C014000340140A1
:102D70000004004000080040000C0040001000402B
:102D80000014004000400140004401400048014060
:102D900010B540F22551184800F09CF858B3174878
:102DA000007880B91448001D008820B31248001D27
:102DB00000881349134A1268885412480068401C5E
:102DC0001049086017E00C48001D00880C490D4AA6
:102DD000126888540B48006820B901210A48FFF79F
:102DE00068FE03E000210848FFF77EFF0548006801
:102DF000401C0449086010BD004400400D00002044
:102E000030010020080000200008004001F400729A
:102E1000B2F5007F00D100BFCA430280704721B1E4
:102E2000828942F40052828104E082894DF6FF7368
:102E30001A4082817047000010B504462048844241
:102E400009D101218803FFF75DFB00214FF4804089
:102E5000FFF758FB32E01B48844209D101214804A6
:102E6000FFF730FB00214FF40030FFF72BFB25E08C
:102E70001548844209D101218804FFF723FB002172
:102E80004FF48020FFF71EFB18E01048844209D160
:102E90000121C804FFF716FB00214FF40020FFF7C3
:102EA00011FB0BE00A48844208D101210805FFF715
:102EB00009FB00214FF48010FFF704FB10BD000058
:102EC000003801400044004000480040004C0040F1
:102ED0000050004070B50246002400230025002069
:102EE00040F66A16B14200D100BFC1F3421501F0AD
:102EF0001F03012606FA03F3012D02D19689334000
:102F000006E0022D02D1168A334001E0968A334052
:102F10000C12012606FA04F41688344013B10CB1E1
:102F2000012000E0002070BDF0B50346002400261B
:102F30000025002040F66A17B94200D100BF1846AC
:102F4000C1F3421401F01F06012707FA06F5012C10
:102F500001D10C3004E0022C01D1103000E014301B
:102F60001AB107682F43076002E00768AF430760A4
:102F7000F0BD00002DE9F04786B005460E4600245E
:102F8000A24600BFA1460027B08900B100BF2F466E
:102F90002C8A4CF6FF700440F08804432C82AC89E4
:102FA0004EF6F3100440B088318908437189084314
:102FB0000443AC81AC8A4FF6FF400440B08904431F
:102FC000AC8201A8FFF7AEFA1F48874202D1DDF8B4
:102FD00010A001E0DDF80CA0A88900F4004040B189
:102FE0000AEBCA0000EB0A1031684900B0FBF1F8A7
:102FF00007E00AEBCA0000EB0A1031688900B0FB59
:10300000F1F86420B8FBF0F004012009642101FB11
:103010001089A88900F4004040B1322000EBC900BB
:10302000B0FBF1F000F00700044308E0322000EBB1
:1030300009106421B0FBF1F000F00F0004432C8173
:1030400006B0BDE8F087000000380140704700007E
:1030500010B586B0044601218803FFF743FA012129
:103060000420FFF73FFA4FF40070ADF8140003207E
:103070008DF8160018208DF8170005A91248FEF7E4
:1030800084FE4FF48060ADF8140004208DF8170022
:1030900005A90D48FEF779FE01940020ADF808005F
:1030A000ADF80A00ADF80C00ADF810000820ADF83E
:1030B0000E0001A90548FFF75DFF01210348FFF756
:1030C000AEFE06B010BD000000080140003801400F
:1030D00010B586B004464FF4A060FFF7D3F8012185
:1030E0004804FFF7DFF901210420FFF7FBF924482A
:1030F000FFF7A2FE0420ADF8140003208DF816009F
:1031000018208DF8170005A91E48FEF73EFE08207E
:10311000ADF8140004208DF8170005A91948FEF732
:1031200034FE01940020ADF80800ADF80A00ADF8B7
:103130000C00ADF810000C20ADF80E0001A91048ED
:10314000FFF718FF20210E48FFF760FE012240F232
:1031500025510B48FFF7E8FE26208DF800000020DF
:103160008DF801008DF8020001208DF803006846FB
:10317000FFF750F801210248FFF751FE06B010BDDD
:10318000004400400008014010B50446C820FEF786
:103190005FFD18A000F072FF40F2DC50FEF758FD12
:1031A000002015490870154908604FF480611448E3
:1031B000FDF756FA13A000F061FF0CE06420FEF763
:1031C00047FD14A10E48FDF7C9F900B107E02146FB
:1031D00011A000F025FF2000A4F10104EED100BFF2
:1031E0000EA000F01DFF002C01DC012010BD00200E
:1031F000FCE700002B2B2B000D0000200800002016
:103200003001002041542B434950434C4F53450D4E
:103210000A0000004F4B0000256420000D0A00004A
:1032200010B5044600202E4908604FF480612D48F7
:10323000FDF716FA2C4802682C4801682CA000F013
:103240001DFF1AE06420FEF703FD30A12548FDF7BD
:1032500085F900B115E02FA12248FDF77FF908B1EB
:10326000012010BD2DA11F48FDF778F908B10220FB
:10327000F7E721462EA000F0D3FE2000A4F10104C0
:10328000E0D100BF2BA000F0CBFE002C01DC03201E
:10329000E7E729A000F0C4FE0020114908604FF4C0
:1032A00080611048FDF7DCF927A000F0E7FE0CE094
:1032B0006420FEF7CDFC28A10A48FDF74FF900B1C4
:1032C00007E021461AA000F0ABFE2000A4F10104A3
:1032D000EED100BF002C01DC0420C2E70020C0E7D3
:1032E0000800002030010020140000201000002001
:1032F00041542B43495053544152543D225443505E
:10330000222C222573222C25640D0A00434F4E4E99
:1033100045435400434C4F5345440000414C5245F3
:1033200041445920434F4E4E45435445440000000C
:10333000256420000D0A0000D7BCB1B8BDF8C8EB69
:10334000CDB8B4AB0D0A000041542B43495053454E
:103350004E440D0A000000000D0A4F4B0D0A0D0AE5
:103360003E00000070B58EB0054600202049086080
:103370004FF480611F48FDF773F91FA000F07EFE37
:103380000CE06420FEF764FC1EA11A48FDF7E6F885
:1033900000B107E029461CA000F042FE2800A5F17C
:1033A0000105EED100BF16A000F03AFE002D02DCB0
:1033B00001200EB070BD15A10E48FDF7CFF80446F0
:1033C0009CB112A1601CFDF7C9F806465EB1301B26
:1033D000421E611C01A8FDF7FEF801A90CA000F037
:1033E0001FFE0020E5E70220E3E70320E1E70000FD
:1033F000080000203001002041542B43494653521D
:103400000D0A00004F4B0000256420002200000040
:1034100045535038323636B5C44950B5D8D6B7A31F
:10342000BA25730D0A00000010B564A000F0F8FD85
:10343000322000F0D9FA20B164A000F0F1FD0120A3
:1034400010BD68A000F0ECFD69A000F0E9FD32219C
:103450006CA000F01BFB20B16DA000F0E1FD02208C
:10346000EEE772A000F0DCFD7548007800281FD15F
:1034700074A000F0D5FD322177A000F007FB20B149
:1034800079A000F0CDFD0320DAE77FA000F0C8FDB1
:1034900082A000F0C5FD1E2000F04EFA20B184A0ED
:1034A00000F0BEFD0420CBE788A000F0B9FD54E099
:1034B00002218B48FEF7F4FC00283FD189A000F0E0
:1034C000AFFD32218CA000F0E1FA20B18EA000F017
:1034D000A7FD0320B4E794A000F0A2FD97A000F0A0
:1034E0009FFD32219BA000F0D1FA20B19DA000F0F9
:1034F00097FD0420A4E7A3A000F092FDA7A000F090
:103500008FFD3C2000F0FCFA20B1AAA000F088FD5D
:10351000052095E7AEA000F083FDB1A000F080FD8E
:103520003221B5A000F0B2FA20B1B7A000F078FDCA
:10353000062085E7BCA000F073FD0EE0C0A000F0FF
:103540006FFD1E2000F012FB20B159A000F068FDB5
:10355000072075E75DA000F063FDBEA000F060FDF0
:103560003220FFF7FFFE20B1BFA000F059FD0A2076
:1035700066E7C4A000F054FDC7A000F051FD322161
:10358000C9A000F083FA20B1CBA000F049FD0B20C8
:1035900056E7D0A000F044FDD2A000F041FD32215A
:1035A000D5A000F073FA20B1D6A000F039FD0C20B0
:1035B00046E7DCA000F034FD002041E7D7BCB1B8FD
:1035C000B8B4CEBBC4A3BFE90D0A0000B8B4CEBBEB
:1035D000CAA7B0DCA3ACD7BCB1B8D6D8C6F40D0A24
:1035E00000000000B8B4CEBBB3C9B9A60D0A0000F4
:1035F000D7BCB1B8C9E8D6C3535441C4A3CABD0DA2
:103600000A00000041542B43574D4F44453D3100C3
:10361000C9E8D6C3535441C4A3CABDCAA7B0DCA3EA
:10362000ACD7BCB1B8D6D8C6F40D0A00C9E8D6C329
:10363000535441C4A3CABDB3C9B9A60D0A000000C2
:103640000C000020D7BCB1B8C8A1CFFBD7D4B6AF0F
:10365000C1ACBDD30D0A000041542B435741555412
:103660004F434F4E4E3D3000C8A1CFFBD7D4B6AF2D
:10367000C1ACBDD3CAA7B0DCA3ACD7BCB1B8D6D857
:10368000C6F40D0A00000000C8A1CFFBD7D4B6AF26
:10369000C1ACBDD3B3C9B9A60D0A0000D7BCB1B83F
:1036A000C1ACBDD3C2B7D3C9C6F70D0A0000000034
:1036B000C1ACBDD3C2B7D3C9C6F7CAA7B0DCA3ACEF
:1036C000D7BCB1B8D6D8C6F40D0A0000C1ACBDD382
:1036D000C2B7D3C9C6F7B3C9B9A60D0A0000000026
:1036E00000080140D7BCB1B8C9E8D6C3D7D4B6AF3B
:1036F000C1ACBDD30D0A000041542B435741555472
:103700004F434F4E4E3D3100C9E8D6C3D7D4B6AF74
:10371000C1ACBDD3CAA7B0DCA3ACD7BCB1B8D6D8B6
:10372000C6F40D0A00000000C9E8D6C3D7D4B6AF6E
:10373000C1ACBDD3B3C9B9A60D0A0000D7BCB1B89E
:10374000BFAAC6F4536D617274636F6E6669670DCC
:103750000A00000041542B43575354415254534DD7
:1037600041525400BFAAC6F4536D617274636F6E08
:10377000666967CAA7B0DCA3ACD7BCB1B8D6D8C657
:10378000F40D0A00BFAAC6F4536D617274636F6EC4
:10379000666967B3C9B9A60D0A000000C7EBCAB9CC
:1037A000D3C3415050C8EDBCFEB4ABCAE4C3DCC2C5
:1037B000EB0D0A00B4ABCAE4C3DCC2EBCAA7B0DCB1
:1037C000A3ACD7BCB1B8D6D8C6F40D0A000000002F
:1037D000B4ABCAE4C3DCC2EBB3C9B9A60D0A00009E
:1037E000D7BCB1B8B9D8B1D5536D617274636F6E7F
:1037F0006669670D0A00000041542B435753544F2C
:1038000050534D4152540000B9D8B1D5536D617237
:1038100074636F6E666967CAA7B0DCA3ACD7BCB12E
:10382000B8D6D8C6F40D0A00B9D8B1D5536D6172B7
:1038300074636F6E666967B3C9B9A60D0A000000AC
:10384000B5C8B4FDC1ACBDD3C2B7D3C9C6F70D0A64
:1038500000000000D7BCB1B8BBF1C8A14950B5D831
:10386000D6B70D0A00000000BBF1C8A14950B5D879
:10387000D6B7CAA7B0DCA3ACD7BCB1B8D6D8C6F40B
:103880000D0A0000BBF1C8A14950B5D8D6B7B3C9DD
:10389000B9A60D0A00000000D7BCB1B8BFAAC6F493
:1038A000CDB8B4AB0D0A000041542B4349504D4FE5
:1038B00044453D3100000000BFAAC6F4CDB8B4AB0A
:1038C000CAA7B0DCA3ACD7BCB1B8D6D8C6F40D0A31
:1038D00000000000B9D8B1D5CDB8B4ABB3C9B9A612
:1038E0000D0A0000D7BCB1B8B9D8B1D5B6E0C2B79F
:1038F000C1ACBDD30D0A000041542B4349504D5576
:10390000583D3000B9D8B1D5B6E0C2B7C1ACBDD3CF
:10391000CAA7B0DCA3ACD7BCB1B8D6D8C6F40D0AE0
:1039200000000000B9D8B1D5B6E0C2B7C1ACBDD374
:10393000B3C9B9A60D0A000010B504460020144909
:1039400008604FF480611348FCF78AFE12A216A1AA
:1039500018A000F093FB0DE04FF47A70FEF778F9B1
:103960001AA10C48FCF7FAFD00B107E021461CA0A3
:1039700000F056FB2000A4F10104EDD100BF19A016
:1039800000F04EFB002C01DC012010BD0020FCE704
:103990000800002030010020776331393837313199
:1039A00030332E2E00000000757365724357445A61
:1039B0000000000041542B43574A41503D222573DB
:1039C000222C222573220D0A000000005749464987
:1039D00020474F542049500D0A0D0A4F4B0000005C
:1039E000256420000D0A000010B5044600221021B5
:1039F0001348FEF762FA4FF4FA70FEF729F9012234
:103A000010210F48FEF759FA0CE06420FEF720F968
:103A10000CA10E48FCF7A2FD00B107E021460CA066
:103A200000F0FEFA2000A4F10104EED100BF09A0CD
:103A300000F0F6FA002C01DC012010BD0020FCE7AC
:103A400000080140726561647900000030010020C7
:103A5000256420000D0A000008B501210420FEF7AE
:103A600041FD1020ADF8000003208DF80200102069
:103A70008DF8030069460448FEF787F901221021FA
:103A80000148FEF71AFA08BD0008014070B5054666
:103A90000C460020134908604FF480611248FCF77F
:103AA000DFFD294611A000F0E9FA0CE06420FEF7E2
:103AB000CFF810A10C48FCF751FD00B107E02146FA
:103AC0000DA000F0ADFA2000A4F10104EED100BF7A
:103AD0000AA000F0A5FA002C01DC012070BD002036
:103AE000FCE70000080000203001002025730D0ACB
:103AF000000000004F4B0000256420000D0A00006C
:103B000010B504460020124908604FF48061114846
:103B1000FCF7A6FD0DE04FF47A70FEF799F80EA1C0
:103B20000C48FCF71BFD00B107E021460DA000F09A
:103B300077FA2000A4F10104EDD100BF0AA000F043
:103B40006FFA002C01DC012010BD0020FCE7000012
:103B50000800002030010020636F6E6E656374659D
:103B600064000000256420000D0A000010B5044622
:103B70000DE04FF47A70FEF76BF80CA10E48FCF7DD
:103B8000EDFC00B107E021460CA000F049FA20004E
:103B9000A4F10104EDD100BF09A000F041FA002C0E
:103BA00001DC012010BD0020FCE700005749464918
:103BB00020474F5420495000300100202564200048
:103BC0000D0A0000490050EAC12018BF04204A0D28
:103BD00018BF40F0010040F2FF72B2EB515F08BF26
:103BE00040F00200012808BF0520704730380A283D
:103BF00001D201207047002070470000FEF721F835
:103C00004FF41650FFF724FA4FF4E130FFF760FA53
:103C10004FF4E1514FF49670FEF712FFFEF7CEFA23
:103C2000FEF79AFAFEF750F9FDF760FFFFF714FF71
:103C30003EE1A048007860B9FFF7F6FB48B99EA0C6
:103C400000F0EEF901209B490870FEF79BFDFEF79E
:103C5000F5FD9F48007801287DD100209C4908701F
:103C600000219C48FEF725FF9BA19D48FCF776FCB0
:103C700000285FD09BA19A48FCF770FC002860D018
:103C80009BA19748FCF76AFC00284FD09BA1944861
:103C9000FCF764FC044664B114F8040C302804D129
:103CA00002219A48FEF707F903E002219748FEF740
:103CB00000F997A18A48FCF751FC044664B114F856
:103CC000040C302804D101219048FEF7F4F803E0F9
:103CD00001218E48FEF7EDF891A18148FCF73EFCEA
:103CE000044664B114F8040C302804D12021904813
:103CF000FEF7E1F803E020218D48FEF7DAF88DA108
:103D00007748FCF72BFC044664B114F8040C302807
:103D100004D110218648FEF7CEF803E01021844834
:103D2000FEF7C7F887A000F07BF90AE08AA000F050
:103D300077F906E08EA000F073F969498FA000F0D2
:103D40006FF93220FFF720FAC8B100218D48FEF745
:103D5000B0FE002100E02FE04FF08040FEF7A9FE0A
:103D600000215C48FEF7A5FE0020874908708749BE
:103D700008705049087086A000F052F91CE08BA032
:103D800000F04EF981480078022808D100207F49D0
:103D90000870FEF753FD01217A48FEF78AFE7A4843
:103DA0000078022808D1002077490870FEF7EAFC65
:103DB00001218807FEF77DFE74480078012839D17B
:103DC0000220724908707DA000F02AF93220FFF726
:103DD00027FAC8B100216B48FEF76BFE00214FF0B7
:103DE0008040FEF766FE00213A48FEF762FE0020A2
:103DF0007749087064490870644908702D49087053
:103E000074A000F00DF915E077A000F009F900208A
:103E10007A4908604FF480617948FCF721FC012061
:103E20006B49087077A0FEF737FA794800F026F959
:103E3000FEF75CFD54480078012839D10220524930
:103E400008705EA000F0ECF83220FFF7E9F9C8B185
:103E500000214C48FEF72DFE00214FF08040FEF778
:103E600028FE00211B48FEF724FE00205849087058
:103E700045490870454908700E49087055A000F082
:103E8000CFF815E058A000F0CBF800205B4908609F
:103E90004FF480615A48FCF7E3FB01204C4908705D
:103EA0005CA0FEF755FA5A4800F0E8F8FEF71EFD50
:103EB000BFE600000000002045535038323636D7A8
:103EC000B4CCACB3F5CABCBBAFD5FDB3A30D0A00EF
:103ED0000400002000040040323030204F4B00002E
:103EE00032090020226572726E6F223A30000000A3
:103EF0006461746173747265616D73002269642218
:103F00003A227377697463685F312200000C0140C4
:103F1000226964223A227377697463685F322200EF
:103F2000226964223A227377697463685F332200DE
:103F300000100140226964223A2273776974636831
:103F40005F342200B2E9D1AFBFAAB9D8D7B4CCACA4
:103F5000D5FDC8B70D0A0000C9CFB1A8CEC2CAAA04
:103F6000B6C8CAFDBEDDD5FDC8B70D0A0000000009
:103F7000B1A8CEC4B4EDCEF30D0A000025730D0A2E
:103F800000000000002C0140020000200100002081
:103F9000B9D8B1D5C1ACBDD3CAA7B0DCA3ACD6D813
:103FA000D6C3455350383236360D0A00B9D8B1D58C
:103FB000C1ACBDD3B3C9B9A60D0A0000D7BCB1B816
:103FC000C1ACBDD3B7FECEF1C6F70D0A00000000AC
:103FD0000D000020C1ACBDD3B7FECEF1C6F7CAA715
:103FE000B0DC0D0A00000000C1ACBDD3B7FECEF1BD
:103FF000C6F7B3C9B9A60D0A0000000008000020EA
:10400000300100203533303338313534330000008F
:10401000301100203533303338323139310000006F
:104020000FB438B505A800901248009A0499FCF71F
:1040300043F9002000900F48FCF7A2FA054600BFA4
:104040000D48008800F040000028F9D000240CE062
:104050000848005D0849091D088000BF064800881F
:1040600000F040000028F9D0641CAC42F0D338BC0A
:104070005DF814FB30000020003801400FB438B563
:1040800005A800901248009A0499FCF715F9002041
:1040900000900F48FCF774FA054600BF0D480088F1
:1040A00000F040000028F9D000240CE00848005D32
:1040B0000849091D088000BF0648008800F040003C
:1040C0000028F9D0641CAC42F0D338BC5DF814FB76
:1040D000300500200044004010B500290AD00878BF
:1040E000002807D005487844FDF7A2F8002801D041
:1040F000002010BD0248784410BD000056010000A9
:104100004E01000010B500290AD00878002807D019
:1041100005487844FDF78CF8002801D0002010BD38
:104120000248784410BD0000460100003E01000036
:10413000FCF728BE04000008000000000000000298
:10414000000100001000000000000000000000005E
:1041500030313233343536373839414243444546BD
:1041600040305800303132333435363738396162B7
:10417000636465664030780002400000000000A0E3
:104180000000000005400000000000C80000000022
:104190000C4000000000409C00000000194000009E
:1041A0000020BCBE0000000034400000BFC91B8ED0
:1041B00000000004B5400000504BCFD06607E2CFAE
:1041C000010000006C4100003E8251AADFEEA734DE
:1041D00001000000D9420000DCB5A0E23A301F9790
:1041E000FFFFFFFFB4450000FD25A0C8E9A3C14FB4
:1041F000FFFFFFFFFF3F0000000000800000000005
:10420000FF3F000000000080000000003138332E26
:104210003233302E34302E33330000006843000830
:10422000000000202C0000006C01000894430008EE
:104230002C000020641F0000880100081C00000002
:1042400043000000F8FFFFFF0C0000000E0000001C
:104250000F0000002E0000001001000043000000CD
:10426000F8FFFFFF00404040404040404040414197
:10427000414141404040404040404040404040403B
:1042800040404040400502020202020202020202D5
:1042900002020202022020202020202020202002D2
:1042A0000202020202029090909090901010101062
:1042B00010101010101010101010101010101010FE
:1042C0000202020202028888888888880808080892
:1042D000080808080808080808080808080808085E
:1042E0000202020240000000000000000000000086
:1042F00000000000000000000000000000000000BE
:1043000000000000000000000000000000000000AD
:10431000000000000000000000000000000000009D
:10432000000000000000000000000000000000008D
:10433000000000000000000000000000000000007D
:10434000000000000000000000000000000000006D
:10435000000000000000000000000000000000005D
:10436000000000000000000000000000000000004D
:1043700000000000000000000C4200085000000097
:1043800000000000010203040102030406070809FB
:044390000204060815
:040000050800027974
:00000001FF
