:020000040800F2
:100000009824002079020008BB2900085F1F00081F
:10001000B9290008C71A000875360008000000005A
:10002000000000000000000000000000992B000804
:10003000C91C000800000000412A0008C12C00086B
:10004000930200089302000893020008930200083C
:10005000930200089302000893020008930200082C
:10006000930200089302000893020008930200081C
:10007000930200089302000893020008930200080C
:1000800093020008930200089302000893020008FC
:1000900093020008930200089302000893020008EC
:1000A00093020008930200089302000893020008DC
:1000B0009D2D0008FD2E0008692F000893020008FE
:1000C00093020008930200089302000893020008BC
:1000D0009302000893020008B93300089302000855
:1000E000930200089302000893020008930200089C
:1000F000930200089302000893020008930200088C
:10010000930200089302000893020008930200087B
:10011000930200089302000893020008930200086B
:10012000930200089302000893020008930200085B
:1001300000F002F800F090F80AA090E8000C824469
:100140008344AAF10107DA4501D100F085F8AFF246
:10015000090EBAE80F0013F0010F18BFFB1A43F0A5
:10016000010318473C4700005C470000103A24BFD9
:1001700078C878C1FAD8520724BF30C830C144BF0C
:1001800004680C607047000000230024002500264E
:10019000103A28BF78C1FBD8520728BF30C148BFEA
:1001A0000B6070476E2900F03B83702900F0938448
:1001B000662904F0EF82652904F0EC82672904F0D7
:1001C000E9826129AFF3008003681B0A28BF41F070
:1001D0008001692900F0E882642900F0E582752930
:1001E00000F0E2826F2900F02184782900F05F841A
:1001F000E92900F0BB83E42900F0B883F52900F079
:10020000B583EF2900F01E84F82900F05E840368AE
:10021000DB0928BF41F08001632900F03C8373298A
:1002200000F04183E32900F01687F32900F01B87D3
:10023000002070471FB500F067FF04000020002178
:1002400004F092FA401C60600020002104F076FA6D
:10025000E0601FBD10B510BD00F029FF1146FFF78B
:10026000E9FF03F039FF01F001F803B4FFF7F2FFF3
:1002700003BC01F045F800000948804709480047E1
:10028000FEE7FEE7FEE7FEE7FEE7FEE7FEE7FEE746
:10029000FEE7FEE704480549054A064B70470000A3
:1002A000C52C000831010008981E00209824002069
:1002B00098200020982000201CB50C46064B7B445B
:1002C00069460090204600F0C4FA044600206946C2
:1002D00000F0D2FA20461CBDB70500000FB41CB5D3
:1002E000084B06AA7B4469460090059800F0B1FAD5
:1002F00004460020694600F0BFFA20461CBC5DF8A9
:1003000014FB00009105000070B50C460546012A5B
:1003100005D02878800600D5EA69002302E0012391
:1003200005E05B1C934202D2E05C0028F9D1A86989
:10033000E618C01AA861286A18442862284600F006
:10034000F9F904E0D5E9012114F8010B9047B44212
:10035000F8D3284600F004FA70BD00002DE9F05FE4
:10036000894604464FF0000ADFF874B1FB44C0F838
:1003700020A02046E1688847002874D0252806D0B0
:10038000D4E901219047206A401C2062F1E7002651
:100390005F462046E16888472028054607DB312D67
:1003A00005D2781910F8200C08B10643F1E7B00720
:1003B00001D526F00406C4F81CA00027C4F818A034
:1003C0002A2D09D0284603F07FFE38B304EB8708B6
:1003D000303DC8F8185019E059F8041B204604EBCA
:1003E00087029161E1688847012F054618D1E069CD
:1003F000002820DA26F020061DE0D8F8180000EBCF
:10040000800005EB40003038C8F818002046E1684D
:100410008847054603F058FE0028EED1012F0AD088
:100420002E2D08D12046E16888477F1C0546022F03
:1004300046F02006C4DBA069002803DA404246F0FB
:100440000106A061F00701D026F010066C2D0BD03C
:10045000682D09D04C2D39D06A2D35D0742D35D06A
:100460007A2D33D016E038E0E1682F4620468847E1
:10047000B842054609D16C2F26D04FF48060E16860
:10048000064320468847054604E06C2F1AD04FF4F7
:10049000807006430DB3A5F14100192802D820351C
:1004A00046F400664A462946204626604E46FFF737
:1004B00079FE80B101280BD0F61D26F0070000F16F
:1004C000080956E74020E4E78020D8E70020D6E777
:1004D00006F104094DE7284652E7206ABDE8F09F7F
:1004E0002844000030B505460B462A4613F8014B58
:1004F00012F8010B08B1A042F8D01CB1002802D0BC
:100500006D1CF1E7284630BD40EA010310B59B079A
:100510000FD1042A0DD310C808C9121F9C42F8D06D
:1005200020BA19BA884201D9012010BD4FF0FF301E
:1005300010BD1AB1D30703D0521C07E0002010BD34
:1005400010F8013B11F8014B1B1B07D110F8013BC0
:1005500011F8014B1B1B01D1921EF1D1184610BDA1
:1005600010B5431C02E010F8011B71B18107FAD1EC
:100570004FF0013202C88C1A8C4314EAC211F9D030
:10058000C01A0A0603D0C01E10BDC01A10BD0A044E
:1005900001D0801E10BD0902FCD0401E10BD032AF0
:1005A00040F2308010F0030C00F0158011F8013B90
:1005B000BCF1020F624498BF11F801CB00F8013B77
:1005C00038BF11F8013BA2F1040298BF00F801CB3B
:1005D00038BF00F8013B11F0030300F02580083A12
:1005E000C0F0088051F8043B083A51F804CBA0E869
:1005F0000810F5E7121D5CBF51F8043B40F8043BBE
:10060000AFF30080D20724BF11F8013B11F801CBF2
:1006100048BF11F8012B24BF00F8013B00F801CBC3
:1006200048BF00F8012B704710B5203AC0F00B808E
:10063000B1E81850203AA0E81850B1E81850A0E8E6
:100640001850BFF4F5AF5FEA027C24BFB1E8185040
:10065000A0E8185044BF18C918C0BDE810405FEAB0
:10066000827C24BF51F8043B40F8043B08BF70472C
:10067000D20728BF31F8023B48BF11F8012B28BF31
:1006800020F8023B48BF00F8012B704702F0FF033F
:1006900043EA032242EA024200F002B84FF00002AD
:1006A0000429C0F0128010F0030C00F01B80CCF184
:1006B000040CBCF1020F18BF00F8012BA8BF20F8F2
:1006C000022BA1EB0C0100F00DB85FEAC17C24BF46
:1006D00000F8012B00F8012B48BF00F8012B7047F0
:1006E0004FF0000200B5134694469646203922BFCB
:1006F000A0E80C50A0E80C50B1F12001BFF4F7AF16
:10070000090728BFA0E80C5048BF0CC05DF804EBF7
:10071000890028BF40F8042B08BF704748BF20F865
:10072000022B11F0804F18BF00F8012B7047704763
:100730007047704770B5044685690068C10601D5E9
:10074000302600E02026C00707D070BDD4E9012183
:1007500030469047206A401C20626D1EF6D570BD61
:1007600070B5044685690078C00707D170BDD4E92B
:10077000012120209047206A401C20626D1EF6D582
:1007800070BD09684A0501D540B27047C905FCD55E
:1007900000B2704709684A0501D5C0B27047C90563
:1007A000FCD580B2704700002DE9F04106460024D8
:1007B00010687529314616A510D0FFF7E2FF002812
:1007C00002DA404213A507E031688A0701D512A575
:1007D00002E0490704D511A5012401E0FFF7DAFF83
:1007E00000210A2206F1240709E0B0FBF2FCB0FB6D
:1007F000F2F302FB1C00303078541846491C0028E4
:10080000F3D123462A463046BDE8F04100F0B3B9A3
:10081000000000002D0000002B0000002000000060
:1008200011680268006A530501D508700AE0D30513
:1008300001D5088006E0130603D5C217C1E90002FE
:1008400000E008600120704701694A1C02610878D5
:10085000704700B58FB0CDE9013100210591054900
:100860007944CDE9031011466846FFF777FD0FB0D4
:1008700000BD0000E5FFFFFF0A6802F8010B0A60F7
:10088000704710B5436913B1AFF3008001E0FFF783
:100890003BFD012010BD127800F124010A700022F6
:1008A0004A700122EDE711684FF0FF32E9E70000DE
:1008B0002DE9FF5F15468A460446DFF8AC80F84410
:1008C0000027D8E900103E46CDE9001010E03AF8C4
:1008D00016106A4602A800F0CAFB411C07D0217816
:1008E000890603D5E269391891420DD80744761C70
:1008F0002078800602D5E069B84205DDAE42E6DB2D
:100900003AF816000028E2D1A069C01BA061204679
:10091000FFF710FFD8E90010CDE90010002017E024
:100920003AF818106A4602A800F0A1FBB0F1FF3FA8
:1009300081460BD000250DF1080B05E0D4E901211B
:100940001BF8050090476D1C4D45F7D308F10100D9
:10095000B0428046E4DB206A384420622046FFF73C
:10096000FFFEBDE8FF9F0000EA3E00002DE9F041D8
:100970008046D21D22F007020025D2E90002F529A7
:1009800015A614D0011E72F1000106DA0023D0EB87
:10099000030063EB020211A608E0D8F800108B07F1
:1009A00001D50FA602E0490701D50EA60125114683
:1009B000002408F1240704E000F098F830323A559A
:1009C000641C50EA0102F7D12B46324621464046CC
:1009D000BDE8F04100F0CFB8000000002D0000009D
:1009E0002B0000002000000030B4002100F124049E
:1009F00008E002F00705D208303542EA4372DB080E
:100A00006554491C52EA0305F3D10468002310A27F
:100A1000250708D504F020040C4304D0C469012341
:100A20000CA2641EC46130BC00F0A5B810B5044629
:100A300021461068FFF7AEFE02462046BDE8104092
:100A40000023D1E7D21D22F00701D1E90023CBE733
:100A50000000000030000000F0B40D4601880905D8
:100A600002D5214C7C4402E01F4C7C440E34002112
:100A700000F1240608E002F00F071209E75D42EAE0
:100A800003721B097754491C52EA0307F3D1027819
:100A90000023120704D5702D06D009B102231134AA
:100AA0002246F0BC00F067B801231034F8E770B5B7
:100AB00004460D4621461068FFF76CFE02462946A3
:100AC0002046BDE870400023C6E7D21D22F0070390
:100AD000D3E90023C0E70368126843F020030360F2
:100AE0000823C3610023B7E74C3D000030B5B0F1E7
:100AF0000A024FEA900E71F100034EEA817EB0EBDC
:100B00000E0061EB91014FEA101E4EEA017E10EBE0
:100B10000E0041EB11114FEA102E4EEA016E10EB60
:100B20000E0041EB11214FEA104E4EEA014E10EB40
:100B30000E0041EB1141401841F100014FEAD00095
:100B400040EA41704FEAD10110EB80054FEA810481
:100B500044EA907444EB01046D1944EB0404521B05
:100B6000A3414FF0000348BF0A3200D530BD401CFE
:100B700041F1000130BD2DE9F0470D4699469246FE
:100B8000044600F124080168880604D5E06921F0D4
:100B90001001216000E00120A84201DD471B00E0B8
:100BA0000027A1697A1902EB0900081AA0612078D0
:100BB000C00602D42046FFF7BDFD002608E0D4E9B8
:100BC00001211AF806009047206A401C761C20621A
:100BD0004E45F4DB2078C0060AD52046FFF7AAFD73
:100BE00006E0D4E9012130209047206A401C2062B1
:100BF000381EA7F10107F4DC07E0D4E9012118F859
:100C000005009047206A401C2062281EA5F10105BE
:100C1000F3DC2046FFF7A4FD2078000602D5022071
:100C2000BDE8F0870120FBE770472DE9FF4F0C4638
:100C30001E464FF0FF378BB0D2E90001DDF860802F
:100C40000A908A46C1F30A5505B93D460021084677
:100C50004FF00000BAF1000F00F4400005DA00EB9D
:100C600080004FF4400101EA50004FEA9059B9F179
:100C7000010F00DDB9460A9850EA4A000ED044F64A
:100C80001050A5F2FF3545432F14B8F1000F1ED0C8
:100C90007542291E1EDDC9F100021CE0B8F1010FEA
:100CA0004FF0000001D0302103E0F24305E0215471
:100CB000401CB042FBDB30460022002121540B993E
:100CC000C1F80880C1E900200FB0BDE8F08FBD1B5E
:100CD0006D1CDEE74A4600DA694206A800F058FAC1
:100CE00006AB93E8070003AB83E8070050460A9978
:100CF00000F00DFB8DE80700A0F500501F380090B4
:100D00000398002D09DD42F21F014A46084403A959
:100D10000390684600F06CFD08E0A0F500504A46DC
:100D20001F3803A90390684600F076FD8DE80700A0
:100D30000004000C03D04FF0FF30410800E01046E3
:100D4000B8F1000F03D00022009215461EE0751E78
:100D500005D4FFF7CBFE303262556D1EF9D5B34690
:100D60000122084302D000227F1C04E020783028B2
:100D700001D100227F1E002A099786D01DE0112D87
:100D800007DAFFF7B3FE303262556D1C50EA0102FC
:100D9000F5D1084302D00098C8B10EE00021681ECA
:100DA00005E0235C625C63542254401E491C81426E
:100DB000F7DBAB46A81B401E0990002004F80B008F
:100DC0000B98099AC0F80880C0E9002B7CE711262F
:100DD0004FF0000859E72DE9F04F88460446D21D30
:100DE00022F0070191B0D1E90001CDE90A0103F039
:100DF00057F902460B98C00F01D02D2007E020685C
:100E0000810701D52B2002E0202101EAC000032A3E
:100E1000099001D0072A05DB03464146204600F031
:100E200077F90BE12078800601D5E06900E0062023
:100E3000B8F1650F814606D0B8F1660F18D0B8F149
:100E4000670F70D131E00020B9F1110F009001DB84
:100E5000112301E009F101030AAA01A90CA8FFF777
:100E6000E4FEDDE90C70002609F10105834647E048
:100E700001204B4600904FF000470AAA01A90CA898
:100E8000FFF7D3FEDDE90DB00C995D46002610B9E1
:100E900009F101000D18B9EB050003D4C0F1FF36CC
:100EA00009F10105A5EB09002BE0B9F1010F01DA09
:100EB0004FF001090020B9F1110F0090484601DD03
:100EC000112300E003460AAA01A90CA8FFF7ADFE12
:100ED000DDE90C704D4600268346207800070AD4D1
:100EE000AB4500DA5D4601A8012D04DD411911F87A
:100EF000011C302907D04F4502DA17F1040F04DA3C
:100F0000012082460FE06D1EEEE7002F02DCED1B94
:100F10003E4403E0781CA84200DD7D1CB81B00F1B4
:100F2000010A4FF000472078000703D4AA4501DBEF
:100F30004FF0FF3A0021B7F1004F0DF143088DF853
:100F4000431024D002202B23002F01DA7F422D23CF
:100F50000A21021EA0F1010000DC5FB197FBF1FC49
:100F600097FBF1F201FB1C7C17460CF1300C08F8E2
:100F700001CDEEE7A8F1010003702188090501D534
:100F8000452100E06521A0F1010800F8011C099845
:100F90000FA9A1EB0807FF1D00B10120411901EBCA
:100FA000EA70A1693844081A401EA0612078C00682
:100FB00002D42046FFF7BEFB099828B1D4E90121ED
:100FC0009047206A401C20622078C00622D5204627
:100FD000FFF7B0FB1EE0002E04DBB34502DD01A8E5
:100FE000805D00E03020D4E901219047206A401C58
:100FF0002062761CAAF101005FEA000A0AD100F023
:1010000083F8C0680168405CD4E901219047206AF8
:10101000401C2062281EA5F10105DCDC07E0D4E9B4
:10102000012118F8010B9047206A401C2062381EED
:10103000A7F10107F3DC2046FFF792FB032011B074
:1010400043E610B5436913B1AFF3008001E0FFF749
:101050002FFC012010BD128800F12401828400229F
:10106000C2840122EDE711684FF0FF32E9E770B565
:1010700016460C46054600F03FF8036893F8010158
:10108000012806D0FF2C0FD8185D68B101202C7004
:1010900070BDD3F807013246214603F2071303441B
:1010A0002846BDE8704018474FF0FF3070BD7546C8
:1010B00000F0E2F8AE4605006946534620F007000E
:1010C000854618B020B5FFF7E5F8BDE820404FF0A1
:1010D00000064FF000074FF000084FF0000B21F022
:1010E0000701AC46ACE8C009ACE8C009ACE8C009EF
:1010F000ACE8C0098D46704710B500F005F8001D3A
:1011000010BD00BF6536000000487047581E002023
:101110002DE9F0411F46044603260168072A01F421
:10112000006004DB08B116A505E016A503E008B1D0
:1011300015A500E015A521F010002060A069C01ED3
:10114000A0610FB1401EA0612046FFF7F3FA4FB136
:10115000D4E9012138469047206A401C2062C01C17
:10116000206206E0206AFAE7D4E9012115F8010BB4
:101170009047761EF8D22046FFF7F2FABDE8F081DC
:101180004E414E006E616E00494E4600696E66002B
:101190002DE9F047814616468AB0334878440DC899
:1011A0008DE80D0030487844801C03AC0DC884E8FD
:1011B0000D0041F69B300844372190FBF1F290FB83
:1011C000F1F5A5F1800501FB12041B3C02D5644238
:1011D000012000E00020DFF890A080460027FA44BC
:1011E000AAF1BE0A0DE0E00709D03246684607EBD7
:1011F00047010AEB810100F00FFB8DE80700641046
:101200007F1C002CEFD1184F7F44AC3F18E0E8075B
:1012100014D007EB04100DF1180A90E80E008AE8CC
:101220000E00C068F04201D198190890324606A914
:1012300003A800F0F1FA03AB83E807006D10641C0B
:10124000002DE4D132466946B8F1000F03A802D060
:1012500000F0CEFA01E000F0DFFAC9E90001C9F8B8
:1012600008200AB0BDE8F087B83600000446AFF3A6
:1012700000802046FEF7F9FF00487047381E002026
:101280004FF0013C50F8042B51F8043B9A4221D115
:10129000A2EB0C03934313EACC1317D150F8042BA1
:1012A00051F8043B9A4215D1A2EB0C03934313EA85
:1012B000CC130BD150F8042B51F8043B9A4209D1BE
:1012C000A2EB0C03934313EACC13DBD04FF00000E6
:1012D000704700BFD01A01BAB1FA81F101F01801CC
:1012E00022FA01F0CB40C1F12001DBB2C0B2C01A3A
:1012F0002CFA01F3D11A914311EAC311E6D17047D8
:1013000001491820ABBEFEE72600020070475FEAE5
:10131000400C08BF91F0000F4FEA8C234FEAC12226
:1013200043EA51514FEA1C5018BF00F5F0404FEA14
:10133000300018BF41F000415FEA6C5C00F029808A
:10134000BCF1FF3F08BF40F080407047130C06BF60
:1013500012044FF0100C4FF0000C130E04BF1202D9
:101360000CF1080C130F04BF12010CF1040C930FC5
:1013700004BF92000CF1020CD30F04BF52000CF119
:10138000010C11464FF00002A0F11F00A0EB0C0071
:10139000704711F0004F08BF704731F000413FF433
:1013A000D5AF0B0C06BF09044FF0100C4FF0000C2A
:1013B0000B0E04BF09020CF1080C0B0F04BF09014E
:1013C0000CF1040C8B0F04BF89000CF1020CCB0F45
:1013D00004BF49000CF1010CCCF12003A0EB0C0080
:1013E00022FA03F302FA0CF241EA030100F10100D0
:1013F000704720F07F4C80EA030023F07F47ACEB7E
:10140000070303F57C5300F0004003F1FF032DE9CF
:1014100080494FEA154B09B44FEA144325EA0B4EB5
:1014200024EA03480FF2042606EB132749083E7806
:101430005FEA320203FB0667C7F5000707FB06F603
:101440004FEA54374FEAD64606F1020607FB066C10
:10145000CCF1005C4FEA1C472CEA074C07FB06F472
:101460000CFB06F504EB15464FEA961634BF002038
:101470004FF000404FEAD13706FB07FC4FEA1C4C07
:101480000CFB0BF7D21B03FB0CF761EB07010CFB0A
:101490000EF7B0EB074072EB17420CFB08F734BFB6
:1014A000A2EB0742B2EB074261EB17414FEA0C4453
:1014B0004FEA910706FB07FC4FEA1C4C0CFB0BF7AD
:1014C000B0EBC74072EB573203FB0CF734BFA2EB13
:1014D000C742B2EBC74261EB57310CFB0EF7B0EBE2
:1014E000C70072EB57720CFB08F734BFA2EBC702C0
:1014F000B2EBC70261EB5771039F4FEA816141EA8A
:10150000921104EBCC044FEAD1374FEA826206FB1A
:1015100007FC42EA90124FEA80604FEA1C4C0CFB39
:101520000BF7D21B03FB0CF761EB07010CFB0EF76B
:10153000B0EB074072EB17420CFB08F734BFA2EB8D
:101540000742B2EB074261EB17414FEA8C554FEA75
:10155000910704EB9C2406FB07FC4FEA1C4C0CFB98
:101560000BF7B0EBC74072EB573203FB0CF734BFFD
:10157000A2EBC742B2EBC74261EB57310CFB0EF74F
:10158000B0EBC70072EB57720CFB08F734BFA2EB4D
:10159000C702B2EBC70261EB577115EB4C254FEA5E
:1015A000816141EA92114FEA82624FEAD13742EA01
:1015B000901206FB07FC44F100044FEA80604FEAFA
:1015C0001C4C0CFB0BF7D21B03FB0CF761EB070168
:1015D0000CFB0EF7B0EB074072EB17420CFB08F761
:1015E00034BFA2EB0742B2EB074261EB174115EBA8
:1015F0001C154FEA813141EA92414FEA823242EAB8
:1016000090424FEA80304FEA0C7644F1000448EAF9
:1016100003434EEA0B484FF0000EB2EB080C71EB9F
:10162000030724BF624639464EEB0E0E4FF0000B07
:101630000018524149414BEB0B0BB2EB080C71EB1C
:1016400003077BF1000B24BF624639464EEB0E0EBA
:101650004FF0000B0018524149414BEB0B0BB2EB22
:10166000080C71EB03077BF1000B24BF624639467F
:101670004EEB0E0E51EA020718BF46F0010616EBBC
:101680000E7655F1000254F1000103D5BDE8890141
:10169000BDE80088BDE88901BDE80048B61952419F
:1016A00041EB0101A3F10103704780807F7E7D7CC7
:1016B0007B7A7978777676757473727171706F6EE4
:1016C0006E6D6C6C6B6A6A6968686766666564648F
:1016D000636362616160605F5F5E5E5D5D5C5C5B19
:1016E0005B5A5A5959585857575656555555545488
:1016F000535352525251515050504F4F4F4E4E4DE6
:101700004D4D4C4C4C4B4B4B4A4A4A494949484831
:101710004847474747464646454545444444444371
:1017200043434342424242414141002B26D4770089
:1017300021D01CB54FEA370703B44FF010004FF02B
:1017400010014FF000000FBCBDE810400BF1010B81
:10175000BBF1010F08BF5FEA170722BF12F10102B8
:1017600011F101014FF0004143F1000300F000408E
:1017700043EA00007047F9D35708DAE746EA06461D
:1017800013F1400F4FEA16461FDD13F1200FDFBFA4
:1017900016430A46002120335B42C8D0C3F120071C
:1017A00046EA064602FA07F74FEA164646EA0706F1
:1017B000C3F1200722FA03F201FA07F721FA03F135
:1017C0004FF0000342EA0702B1E746EA020646EAA2
:1017D00006464FEA164646EA0106BCBF46EA0646FA
:1017E000360C4FF000034FF000024FF000019EE76F
:1017F0002DE9C048934630B491E8380007C831EA73
:10180000400C48BF34EA430C03D5FFF7F2FDFFF765
:101810008CFFF0BCBDE800882DE9C048934630B489
:1018200091E8380007C810F0804F08BF13F0804FD0
:1018300003D100F005F8FFF778FFF0BCBDE80088A1
:1018400020F07F4780EA030023F07F4C07EB0C0376
:10185000A3F57C5300F00040A3F1FE0392F0000FCB
:1018600000F0B38095F0000F00F077802DE901497A
:101870004FEA11404FEA144621EA004800FB06FCFB
:1018800024EA064708FB06F607FB08F800FB07F703
:1018900018EB06484CEB164C4FEA124B18EB074876
:1018A0004FEA15464CEB174022EA0B4E0BFB06FCA9
:1018B00025EA06470EFB06F607FB0EFE0BFB07F7B5
:1018C0001EEB064E4CEB164C4FF000061EEB074E7F
:1018D0004CEB174B18EB0B0840F1000018EB0E0B0C
:1018E00058EB000840F100008F1A4FF000013CBF98
:1018F000C943661B14BFB5EB040C00213CBFC943B0
:10190000F61B4FEA17444EEA8E0E27EA04454FEACB
:101910001C4704FB07622CEA074C05FB07F70CFB8E
:1019200005F604FB0CFC16EB074642EB174216EBE0
:101930000C4642EB1C421BEB060658EB02024141EF
:1019400046EA9E0601D5BDE80189B619524141EB30
:101950000101A3F10103BDE801894FEA14454FEAF3
:10196000114724EA054621EA074C05FB07F406FB6C
:1019700007F70CFB06F105FB0CFC11EB074144EBF0
:1019800017444FEA124711EB0C4144EB1C4422EA86
:10199000074C05FB07F206FB07F70CFB06F605FBF9
:1019A0000CFC16EB074642EB174216EB0C4642EBDB
:1019B0001C456A1854F1000148BF7047B6195241DE
:1019C00041EB0101A3F10103704795F0000F37D0FF
:1019D0004FEA11424FEA144721EA024624EA074C33
:1019E00002FB07F106FB07F70CFB06F402FB0CFCFD
:1019F00014EB074441EB17414FEA154714EB0C4435
:101A000041EB1C4125EA074C02FB07F506FB07F7F3
:101A10000CFB06F602FB0CFC16EB074645EB1745E4
:101A200016EB0C4645EB1C42121951F1000148BF60
:101A30007047B619524141EB0101A3F10103704710
:101A40004FEA14454FEA114724EA054621EA074CBC
:101A500005FB07F106FB07F70CFB06F24FF000064B
:101A600005FB0CFC12EB074241EB174112EB0C4259
:101A700051EB1C4148BF7047921841EB0101A3F1A3
:101A80000103704770B50446002500F039FBA02023
:101A900000F004FB00F074FB204600F0FFFA00F0B9
:101AA0006FFB00F02DFBA12000F0F8FA00F068FBBE
:101AB000002000F075FA054600F042FB052000F01A
:101AC0000BF9284670BD704770B505460C46224696
:101AD000294615480068801CFEF761FD2046E11785
:101AE00004EB1161090A104A12681170E11704EB46
:101AF00011610912A4EB01210B4A126851700021F7
:101B000009480268A01C11540748006800F5967047
:101B1000054908600846006804490968884202D1FE
:101B200003480149086070BD3800002040000020D3
:101B30003015002010B500241A48006820F00F006E
:101B4000184908600846006840F00800086004E092
:101B5000601CC4B2012000F03BF94FF480711148C1
:101B6000001F00F0E1F9012801D1462CF0DB462CE2
:101B700001DB012010BD002404E0601CC4B2012080
:101B800000F026F94FF480710648001F00F0CCF9F0
:101B900008B9462CF1DB462C01DB0220EAE70020E5
:101BA000E8E700000408014010B5002404E0601CD0
:101BB000C4B2012000F00CF94FF48071114800F01C
:101BC000B3F9012801D1282CF1DB002404E0601CCA
:101BD000C4B2012000F0FCF84FF48071094800F015
:101BE000A3F908B93C2CF2DB232000F0F1F84FF404
:101BF0008071044800F098F908B1012010BD002060
:101C0000FCE700000008014070B50024002506E054
:101C10006006040EFFF7C8FF0443681CC5B2082D18
:101C2000F6DB204670BD7CB505460E4600F02AF86E
:101C3000FFF780FF08BB002405E0FFF7E5FF0DF884
:101C40000400601CC4B2052CF7DB9DF800009DF871
:101C5000011008449DF8021008449DF80310084440
:101C60009DF80410884206D19DF8000030709DF860
:101C70000200287003E001207CBD0220FCE7002068
:101C8000FAE7000010B50F48006820F00F000D497A
:101C900008600846006840F00300086000228915CB
:101CA0000848001F00F056F91E2000F015F8012228
:101CB00011020448001F00F04DF91E2000F088F8C2
:101CC00010BD000004080140704710B56FF004001B
:101CD00000F0D8FF10BD000010B50146B1F5E16F6E
:101CE00022D201EBC1034FF47A7463434FF0E02436
:101CF00063610023A36123461B6943F00103236151
:101D000000BF4FF0E023186900F001031BB100F49D
:101D10008033002BF5D04FF0E0231B6923F0010343
:101D20004FF0E02423614FE000221FE0274B4FF0EB
:101D3000E02463610023A36123461B6943F0010390
:101D4000236100BF4FF0E023186900F001031BB1CD
:101D500000F48033002BF5D04FF0E0231B6923F013
:101D600001034FF0E0242361531CDAB24FF4E16326
:101D7000B1FBF3F39342D9D84FF4E163B1FBF3F431
:101D800003FB141303EBC3034FF47A7463434FF064
:101D9000E02463610023A36123461B6943F0010330
:101DA000236100BF4FF0E023186900F001031BB16D
:101DB00000F48033002BF5D04FF0E0231B6923F0B3
:101DC00001034FF0E024236110BD00004031F70013
:101DD000014601EBC1024FF0E0235A6100229A61F3
:101DE0001A46126942F001021A6100BF4FF0E02268
:101DF000106900F001021AB100F48032002AF5D017
:101E00004FF0E022126922F001024FF0E0231A6144
:101E100070472DE9F04102460025002600200023EE
:101E20000024002791F803C00CF00F0591F803C0BF
:101E30000CF0100CBCF1000F03D091F802C04CEA7A
:101E4000050591F800C0BCF1000F31D014680020E6
:101E50002BE04FF0010C0CFA00F3B1F800C00CEAD3
:101E600003069E4220D183004FF00F0C0CFA03F7BB
:101E7000BC4305FA03FC4CEA040491F803C0BCF12E
:101E8000280F06D14FF0010C0CFA00FCC2F814C068
:101E90000AE091F803C0BCF1480F05D14FF0010CE6
:101EA0000CFA00FCC2F810C0401C0828D1D3146002
:101EB000B1F800C0BCF1FF0F34DD546800202EE003
:101EC00000F1080C4FF0010808FA0CF3B1F800C05B
:101ED0000CEA03069E4221D183004FF00F0C0CFA4E
:101EE00003F7BC4305FA03FC4CEA040491F803C071
:101EF000BCF1280F05D100F1080C08FA0CF8C2F863
:101F0000148091F803C0BCF1480F07D100F1080C10
:101F10004FF0010808FA0CF8C2F81080401C08289D
:101F2000CED35460BDE8F0810246002093680B4098
:101F30000BB1012000E00020704702460020D3686A
:101F40000B400BB1012000E0002070474161704759
:101F5000016170470AB1016100E04161704770475B
:101F600008B50121102000F08DFD4FF4C050ADF8F0
:101F7000000010208DF8030003208DF80200694650
:101F80000648FFF746FF4FF480510448FFF7E0FF93
:101F90004FF400610148FFF7DBFF08BD001001406E
:101FA00070B5054600243C48406820F470403A492A
:101FB00048600846406840F400404860C814086122
:101FC00041003548FFF7C2FF1420FFF701FF00264C
:101FD0001EE04FF480513048FFF7BAFF1420FFF79E
:101FE000F7FE6006040E4FF400612B48FFF79CFFDC
:101FF00008B1601CC4B21420FFF7EAFE4FF4805110
:102000002548FFF7A3FF1420FFF7E2FE701CC6B2BD
:10201000082EDEDBE5B92048406820F470401E49F8
:1020200048600846406840F440504860C9141A4867
:10203000FFF78EFF4FF480511748FFF789FF02200A
:10204000FFF7C6FE4FF480511348FFF77FFF20E0F3
:102050001148406820F470400F49486008464068C5
:1020600040F440504860C9140B48FFF76FFF4FF42D
:1020700080510948FFF76CFF0220FFF7A9FE4FF4DB
:1020800080510548FFF762FF4FF400610248FFF7F7
:102090005FFF204670BD00000010014070B504468F
:1020A0001648406820F4704014494860084640686B
:1020B00040F44050486089141048FFF747FF00255E
:1020C00019E0E2094FF400610C48FFF743FF600696
:1020D000040E0220FFF77CFE4FF480510748FFF703
:1020E00037FF0220FFF774FE4FF480510348FFF7DB
:1020F0002DFF681CC5B2082DE3DB70BD0010014048
:1021000010B50E48406820F470400C4948600846FD
:10211000406840F440504860C9140848FFF718FF71
:102120004FF480510548FFF713FF0420FFF750FEDE
:102130004FF400610148FFF709FF10BD0010014096
:1021400010B50E48406820F470400C4948600846BD
:10215000406840F440504860C9140848FFF7F6FE54
:102160004FF480510548FFF7F3FE0420FFF730FEDF
:102170004FF400610148FFF7EBFE10BD0010014075
:1021800010B500244FF400611848FFF7E1FE17482E
:10219000406820F47040154948600846406840F4A3
:1021A00000404860C814086141001048FFF7D0FEA5
:1021B0000AE0601CC4B2FA2C03DDFFF7C1FF012066
:1021C00010BD0220FFF704FE4FF400610748FFF73F
:1021D000ABFE0028EDD14FF480510448FFF7B6FE66
:1021E0001420FFF7F5FD0020EAE700000010014091
:1021F00010B5802200212548FEF748FA24A226A126
:102200002248FEF76BF82148FEF7AAF92349086037
:10221000802200212248FEF739FA1DA21EA1204883
:10222000FEF75CF81E48FEF79BF91E490860802205
:1022300000211D48FEF72AFA15A217A11A48FEF739
:102240004DF81948FEF78CF91849086080211848A4
:10225000FEF724FA17A210A11548FEF73FF840F246
:102260005B701849086008461149026816A002F020
:10227000E9F9064919A002F0E5F909491BA002F0A5
:10228000E1F909491DA002F0DDF910BD0C1B002089
:102290006B6662303031000025730000440000207E
:1022A0008C1B0020480000200C1C00204C0000204B
:1022B0008C1C00203139322E3136382E38382E31F0
:1022C0003332000050000020B7FE20CEF120C6F7C8
:1022D000A3BA25733A25640D0A000000BFCDBBA741
:1022E000B6CB4944A3BA25730D0A0000D3C320BB63
:1022F000A720C3FBA3BA25730D0A0000C3DC20206E
:102300002020C2EBA3BA25730D0A000008B50121F5
:10231000042000F0B7FB0120ADF8000028208DF864
:10232000030069460648FFF774FD0220ADF800007F
:1023300048208DF8030069460148FFF76AFD08BD93
:102340000008014010B502210748FFF701FE0121F6
:102350000548FFF7FDFD20210448FFF7F9FD102196
:102360000248FFF7F5FD10BD000C014000100140D0
:1023700000B585B014216846FEF7B2F916A168468B
:10238000FDF7ACFF02211648FFF7D7FD18B130204A
:102390008DF8060002E031208DF80600012110487A
:1023A000FFF7CBFD18B130208DF8070002E0312097
:1023B0008DF807000B48007818B930208DF8080018
:1023C00002E031208DF808000922694606A000F0DD
:1023D00031FA05B000BD00002B445453573A0000B9
:1023E000000C0140100000206B66625F746F706922
:1023F0006300000008B50121082000F043FB012123
:10240000102000F03FFB0320ADF800008DF8020023
:1024100010208DF8030069460948FFF7FAFC3020C8
:10242000ADF8000003208DF8020010208DF80300A5
:1024300069460448FFF7EDFCFFF784FF08BD000084
:10244000000C01400010014010B516481649086004
:10245000084600681549086015481649086016487E
:10246000164908600846006815490860154816496D
:102470000860164816490860084600681549086053
:1024800015481649086000F037F8002114A000F044
:1024900047FA002015490870154908701549087059
:1024A00010BD00007809002020000020240000203A
:1024B000280E002028000020540F00202C000020AF
:1024C00030000020041400203400002030150020CB
:1024D000380000203C000020E019002040000020CF
:1024E0006170705F746F70696300000063000020AA
:1024F000620000206000002070B501207A49086069
:102500000A207A4908607A480068001D79490968FC
:102510000844801C78490968084478490860734871
:1025200000680968441810207549087000BF2046EB
:10253000E11704EB5161C911A4EBC115E11704EBDC
:102540005161CC11002C01DD45F080056C48664AD4
:102550001268855464480068401C63490860002C78
:10256000E5DC0021664A60480068115404215E4899
:102570000068401C11544D215B480068801C1154B8
:10258000512159480068C01C115454215648006814
:10259000001D115454480068401D11540421524834
:1025A0000068801D1154C2214F480068C01D11549D
:1025B00000214D4800680830115464214A480068E1
:1025C000093011544A490868C11700EB1161C1F381
:1025D00007224B4B444909680A315A544449086858
:1025E000C11700EB11610912A0EB0121CAB23E49EB
:1025F00009680B315A541A463B4909680C31501886
:102600003B490A683F49FDF7CAFF3A490868C117C4
:1026100000EB1161C1F30722334909680C31344BD7
:102620001B681944364B5A5432490868C11700EBED
:1026300011610912A0EB0121CAB22B4909680D31C1
:102640002B4B1B6819442E4B5A54274909680E31ED
:10265000274A126811441A46881826490A682A49E6
:10266000FDF79DFF24490868C11700EB1161C1F314
:1026700007221D4909680E311D4B1B6819441D4B6B
:102680001B6819441E4B5A541B490868C11700EBBC
:1026900011610912A0EB0121CAB2134909680F3177
:1026A000134B1B681944134B1B681944144B5A54A1
:1026B0000D49096810310E4A126811440D4A12681A
:1026C00011441A4688180C490A681049FDF767FF3B
:1026D00005480068054A12681044084A12688118C3
:1026E000074800F037FE70BD54000020580000205D
:1026F00044000020480000204C0000205C00002026
:102700000C1D00200C1B00208C1B00200C1C00202A
:102710002DE9F04FD1B0804698F8011098F80000EC
:1027200001EB0020509008F1020700208146054689
:102730000646834601244FF0010A00BF0BF1010B4E
:1027400000BF281917F8009009F07F0000FB0A6607
:102750004FEACA1A641C09F080000028F1D1301930
:10276000054431195098401A50900124A246002681
:1027700050980028E2D1594620A001F063FF0020C4
:102780000546064600BF00BF4C9030E000BF281948
:1027900017F8009009F07F0000FB0A664FEACA1A9A
:1027A000641C09F080000028F1D1601C2844395CC9
:1027B0006019385C01EB0020801C4F904F98301A54
:1027C0004E9029194F9808444D904D98391801A8FA
:1027D0004E9AFDF7E4FE01A84E99FFF775F93019FE
:1027E00005440124A24600264C98401C4C904C986D
:1027F0005845CBDB51B0BDE8F08F0000B1BEB4CE80
:10280000BDD3CAD5C1CB2564B8F6CDC6CBCDCAFDE4
:10281000BEDD0D0A0000000010B5C020044908709C
:10282000002048700221024800F094FD10BD000015
:102830000C1D00202DE9F04705468846164601206C
:10284000334908602846FDF78BFE801C314908603B
:1028500031480660084600682F490968441830204E
:102860002E49087000BF2046E11704EB5161C911E1
:10287000A4EBC117E11704EB5161CC11002C01DD71
:1028800047F080072548224A12688754204800688C
:10289000401C1F490860002CE5DC2846FDF760FE5F
:1028A000C0F307211D4A1A48006811542846FDF755
:1028B00057FEC1B2194A16480068401C11542846F8
:1028C000FDF74EFE8146154A11490968891C5018CA
:1028D0004A462946FDF763FE2846FDF741FE0C49AE
:1028E0000968891C08440D4900EB0109324641463C
:1028F0004846FDF754FE06480068064A1268104430
:10290000054A12688118054800F024FDBDE8F087EB
:1029100054000020580000205C0000200C1D002006
:1029200070B504460D4602201F4908601F49086023
:102930002046FDF715FEC01C1D49086082201D4978
:1029400008701A4800781A490978084419494870EB
:10295000002088700120C8702046FDF701FE000AA3
:10296000144908712046FDF7FBFD124948712046C5
:10297000FDF7F6FD0646324621460E48801DFDF75E
:102980000EFE2046FDF7ECFD801D0A490D54064859
:102990000068064A12681044054A12688118054802
:1029A00000F0D8FC70BD000054000020580000204A
:1029B0005C0000200C1D00207047704770B500219E
:1029C00000230F22C47804B3154C246804F4E06497
:1029D000C4F5E064210AC1F10403CA40447804FA52
:1029E00003F184781440214309010E4C0678A15567
:1029F000047804F01F050124AC4005786D11AD008A
:102A000005F1E025C5F8004109E0047804F01F0550
:102A10000124AC40044D0678761145F8264070BD7F
:102A20000CED00E000E400E080E100E00249014339
:102A3000024A1160704700000000FA050CED00E04A
:102A40007047000029B1064AD2690243044BDA619B
:102A500004E0034AD2698243014BDA617047000007
:102A60000010024029B1064A12690243044B1A6160
:102A700004E0034A12698243014B1A617047000067
:102A80000010024029B1064A92690243044B9A6140
:102A900004E0034A92698243014B9A617047000047
:102AA0000010024029B1064AD2680243044BDA60A2
:102AB00004E0034AD2688243014BDA6070470000A9
:102AC0000010024030B500210022002400232D4DCB
:102AD0006D6805F00C0121B1042905D0082923D126
:102AE00005E0294D056022E0274D05601FE0254DDA
:102AF0006D6805F47012234D6D6805F4803402256D
:102B000005EB92421CB9214D554305600BE01D4D6C
:102B10006D6805F400351DB11C4D5543056002E09C
:102B2000194D5543056002E0174D056000BF00BF19
:102B3000144D6D6805F0F0010909154D6B5C0568D1
:102B4000DD4045600F4D6D6805F4E061090A104DE8
:102B50006B5C4568DD4085600A4D6D6805F4605129
:102B6000C90A0B4D6B5C4568DD40C560054D6D685D
:102B700005F44041890B074D6B5CC568B5FBF3F567
:102B8000056130BD0010024000127A0000093D00CE
:102B90006400002074000020704710B500F002F8B7
:102BA00010BD00000CB50020019000903348006873
:102BB00040F480303149086000BF3048006800F4BC
:102BC000003000900198401C0190009818B90198BD
:102BD000B0F5A06FF1D12948006800F4003010B1C1
:102BE0000120009001E0002000900098012843D1CE
:102BF0002348006840F0100021490860084600683A
:102C000020F0030008600846006840F002000860F9
:102C10001A484068194948600846406848600846B4
:102C2000406840F4806048600846406820F47C10AA
:102C300048600846406840F4E8104860084600686C
:102C400040F08070086000BF0C48006800F0007021
:102C50000028F9D00948406820F00300074948607F
:102C60000846406840F00200486000BF03484068E2
:102C700000F00C000828F9D10CBD00000010024043
:102C80000020024010B50446042C08D14FF0E0208B
:102C9000006940F004004FF0E021086107E04FF0C8
:102CA000E020006920F004004FF0E0210861FFF708
:102CB00057F900BFFF20FEF7E5FE5528FAD110BDF9
:102CC0007047000010B51348006840F0010011493A
:102CD000086008464068104908400E4948600846A8
:102CE00000680E4908400B4908600846006820F457
:102CF000802008600846406820F4FE0048604FF4D9
:102D00001F008860FFF749FF4FF00060044908602A
:102D100010BD0000001002400000FFF8FFFFF6FEAB
:102D200008ED00E01FB54FF4A060FFF77FFE012122
:102D30000846FFF787FE4FF0804000F0A9F944F6FF
:102D40001F60ADF8080048F69F40ADF80400002071
:102D5000ADF80600ADF80A0001A94FF0804000F080
:102D6000A7FA0121880700F083F901221146900794
:102D700000F093FA0121880700F07DF91C208DF8FE
:102D8000000002208DF8010001208DF802008DF86E
:102D900003006846FFF712FE1FBD000000B587B0B4
:102DA0000121880700F068FA10B306A905A8FEF70C
:102DB0003AFF14216846FDF793FC0EA16846FDF723
:102DC0008DFA9DF814008DF8090000208DF80A0096
:102DD0009DF818008DF80B0000208DF80C000D22D6
:102DE000694607A0FFF726FD0121880700F040F99A
:102DF00007B000BD2B445453574441543A000000DF
:102E00006B66625F746F7069630000001FB54FF4FA
:102E1000A060FFF70BFE01210220FFF713FE184808
:102E200000F036F944F61F60ADF8080041F61F4087
:102E3000ADF804000020ADF80600ADF80A0001A9C5
:102E40000F4800F035FA01210D4800F011F9012278
:102E500011460B4800F021FA0121094800F00BF956
:102E60001D208DF8000001208DF8010000208DF854
:102E7000020001208DF803006846FFF79FFD1FBD8B
:102E8000000400401FB54FF4A060FFF7CFFD012103
:102E90000220FFF7D7FD184800F0FAF84EF65F2041
:102EA000ADF8080048F69F40ADF804000020ADF8EA
:102EB0000600ADF80A0001A90F4800F0F9F9012158
:102EC0000D4800F0D5F8012211460B4800F0E5F955
:102ED0000121094800F0CFF81D208DF800000220E4
:102EE0008DF8010001208DF802008DF8030068467E
:102EF000FFF764FD1FBD00000004004010B5012174
:102F0000164800F0B9F938B315480078062819D2E8
:102F1000DFE800F003060B0C0D10FFF77DFC11E05D
:102F2000FFF774FFFFF778FC0CE000BF00BFFFF76E
:102F300073FC07E000200B4908700021074800F0EF
:102F40009AF800BF00BF06480078401C044908708A
:102F50000121024800F08CF810BD00000004004080
:102F6000600000206100002010B501211D4800F024
:102F700083F9002834D01C481C4902681C480068AA
:102F8000801CFDF70CFB18480088000A18490968E6
:102F90000870154800781649096848701448006898
:102FA00000F59670124908600846006811490968E2
:102FB000884202D110480E49086000200A49086082
:102FC00000210E4800F072F90021064800F053F885
:102FD0000021044800F06AF90121024800F048F895
:102FE00010BD0000000800401800002078010020FB
:102FF0002000002028000020780900200004004064
:103000007FB505460C464FF4A060FFF70FFD012188
:103010000420FFF717FDADF80850ADF8044000207C
:10302000ADF80600ADF80A0001A9104800F040F91B
:1030300001210E4800F01CF8012211460B4800F057
:103040002CF90021094800F016F81E208DF8000028
:1030500001208DF8010000208DF8020001208DF87C
:1030600003006846FFF7AAFC7FBD0000000800408F
:10307000CA430282704721B1028842F001020280F5
:1030800004E002884FF6FE731A4002807047000089
:1030900010B504466848844208D10121C014FFF7E6
:1030A00001FD0021E014FFF7FDFCC4E0B4F1804F06
:1030B00008D101210846FFF7D5FC00210120FFF7C8
:1030C000D1FCB8E05D48844208D101210220FFF71D
:1030D000C9FC00210220FFF7C5FCACE0584884423F
:1030E00008D101210420FFF7BDFC00210420FFF7D7
:1030F000B9FCA0E05348844208D101210820FFF721
:10310000B1FC00210820FFF7ADFC94E04E4884425A
:1031100008D101211020FFF7A5FC00211020FFF7A6
:10312000A1FC88E04948844208D101212020FFF712
:1031300099FC00212020FFF795FC7CE04448844264
:1031400008D101214014FFF7ADFC00216014FFF706
:10315000A9FC70E03F48844209D10121C804FFF76F
:10316000A1FC00214FF40020FFF79CFC63E03A48EB
:10317000844209D101210805FFF794FC00214FF496
:103180008010FFF78FFC56E03448844209D10121BA
:103190004805FFF787FC00214FF40010FFF782FC81
:1031A00049E02F48844208D101214020FFF75AFC12
:1031B00000214020FFF756FC3DE02A48844208D118
:1031C00001218020FFF74EFC00218020FFF74AFC00
:1031D00031E02548844208D101218015FFF742FCE7
:1031E0000021A015FFF73EFC25E02048844209D1CC
:1031F00001210804FFF756FC00214FF48030FFF74F
:1032000051FC18E01A48844209D101214804FFF713
:1032100049FC00214FF40030FFF744FC0BE0154857
:10322000844208D101218804FFF73CFC00214FF4BF
:103230008020FFF737FC10BD002C01400004004047
:1032400000080040000C0040001000400014004046
:1032500000340140004C0140005001400054014046
:1032600000180040001C00400020004000400140C9
:10327000004401400048014030B5024600200023D0
:103280000024158A05EA0103958905EA010413B1B2
:103290000CB1012000E0002030BD1AB183890B433E
:1032A000838102E083898B438381704781847047E7
:1032B000002202881D4B98420ED01D4B98420BD025
:1032C000B0F1804F08D01B4B984205D01A4B984262
:1032D00002D01A4B984204D14FF68F731A404B8894
:1032E0001A43174B984207D0164B984204D04FF61A
:1032F000FF431A40CB881A4302808B8883850B8852
:1033000003850A4B98420BD0094B984208D00E4BCC
:10331000984205D00D4B984202D00D4B984201D1F6
:103320000B7A03860123838270470000002C014042
:10333000003401400004004000080040000C004040
:1033400000100040001400400040014000440140D3
:103350000048014070B505460C46224629461348F0
:103360000068801CFDF71BF92046E11704EB116192
:10337000090A0E4A12681170E11704EB1161091273
:10338000A4EB0121094A126851700848006800F551
:103390009670064908600846006805490968884231
:1033A00002D104480149086070BD00002C000020D3
:1033B00034000020540F002010B540F22551184869
:1033C00000F09CF858B31748007880B91448001DE5
:1033D000008820B31248001D00881349134A126860
:1033E000885412480068401C1049086017E00C48D7
:1033F000001D00880C490D4A126888540B4800686B
:1034000020B901210A48FFF736FE03E000210848F1
:10341000FFF74CFF05480068401C0449086010BDD8
:1034200000440040610000207801002018000020C6
:103430000008004001F40072B2F5007F00D100BF27
:10344000CA430280704721B1828942F400528281CE
:1034500004E082894DF6FF731A40828170470000B4
:1034600010B504462048844209D101218803FFF7A2
:1034700019FB00214FF48040FFF714FB32E01B489A
:10348000844209D101214804FFF7ECFA00214FF4EE
:103490000030FFF7E7FA25E01548844209D1012101
:1034A0008804FFF7DFFA00214FF48020FFF7DAFAF3
:1034B00018E01048844209D10121C804FFF7D2FA6C
:1034C00000214FF40020FFF7CDFA0BE00A488442B8
:1034D00008D101210805FFF7C5FA00214FF480103B
:1034E000FFF7C0FA10BD0000003801400044004062
:1034F00000480040004C00400050004070B50246BB
:10350000002400230025002040F66A16B14200D1B5
:1035100000BFC1F3421501F01F03012606FA03F3B1
:10352000012D02D19689334006E0022D02D1168A80
:10353000334001E0968A33400C12012606FA04F467
:103540001688344013B10CB1012000E0002070BD9A
:10355000F0B50346002400260025002040F66A1737
:10356000B94200D100BF1846C1F3421401F01F0652
:10357000012707FA06F5012C01D10C3004E0022CDA
:1035800001D1103000E014301AB107682F430760F2
:1035900002E00768AF430760F0BD00002DE9F04787
:1035A00086B005460E460024A24600BFA14600276D
:1035B000B08900B100BF2F462C8A4CF6FF70044042
:1035C000F08804432C82AC894EF6F3100440B08896
:1035D00031890843718908430443AC81AC8A4FF6B2
:1035E000FF400440B0890443AC8201A8FFF76AFAA7
:1035F0001F48874202D1DDF810A001E0DDF80CA0E1
:10360000A88900F4004040B10AEBCA0000EB0A10A0
:1036100031684900B0FBF1F807E00AEBCA0000EBA3
:103620000A1031688900B0FBF1F86420B8FBF0F0B3
:1036300004012009642101FB1089A88900F40040DD
:1036400040B1322000EBC900B0FBF1F000F0070000
:10365000044308E0322000EB09106421B0FBF1F0D4
:1036600000F00F0004432C8106B0BDE8F087000095
:10367000003801407047000010B586B004460121B3
:103680008803FFF7FFF901210420FFF7FBF94FF44E
:103690000070ADF8140003208DF8160018208DF886
:1036A000170005A91248FEF7B4FB4FF48060ADF88F
:1036B000140004208DF8170005A90D48FEF7A9FB9A
:1036C00001940020ADF80800ADF80A00ADF80C0038
:1036D000ADF810000820ADF80E0001A90548FFF76D
:1036E0005DFF01210348FFF7AEFE06B010BD0000EC
:1036F000000801400038014010B586B004464FF480
:10370000A060FFF793F901214804FFF79BF901211D
:103710000420FFF7B7F92448FFF7A2FE0420ADF814
:10372000140003208DF8160018208DF8170005A945
:103730001E48FEF76EFB0820ADF8140004208DF83B
:10374000170005A91948FEF764FB01940020ADF8A5
:103750000800ADF80A00ADF80C00ADF810000C2020
:10376000ADF80E0001A91048FFF718FF20210E4800
:10377000FFF760FE012240F225510B48FFF7E8FEFB
:1037800026208DF8000000208DF801008DF8020041
:1037900001208DF803006846FFF710F90121024867
:1037A000FFF751FE06B010BD004400400008014084
:1037B00010B564A000F046FF322000F083FB20B17A
:1037C00064A000F03FFF012010BD68A000F03AFFA8
:1037D00069A000F037FF32216CA000F0C5FB20B1DA
:1037E0006DA000F02FFF0220EEE772A000F02AFF8C
:1037F0007548007800281FD174A000F023FF322103
:1038000077A000F0B1FB20B179A000F01BFF0320EE
:10381000DAE77FA000F016FF82A000F013FF1E2061
:1038200000F0F8FA20B184A000F00CFF0420CBE7F0
:1038300088A000F007FF54E002218B48FEF774FBDC
:1038400000283FD189A000F0FDFE32218CA000F0BD
:103850008BFB20B18EA000F0F5FE0320B4E794A00E
:1038600000F0F0FE97A000F0EDFE32219BA000F0EA
:103870007BFB20B19DA000F0E5FE0420A4E7A3A0FF
:1038800000F0E0FEA7A000F0DDFE3C2000F0A6FB6B
:1038900020B1AAA000F0D6FE052095E7AEA000F06A
:1038A000D1FEB1A000F0CEFE3221B5A000F05CFB4D
:1038B00020B1B7A000F0C6FE062085E7BCA000F04E
:1038C000C1FE0EE0C0A000F0BDFE1E2000F0BCFB5B
:1038D00020B159A000F0B6FE072075E75DA000F00A
:1038E000B1FEBEA000F0AEFE3221C0A000F03CFB55
:1038F00020B1C2A000F0A6FE082065E7C6A000F037
:10390000A1FEC9A000F09EFE3221CCA000F02CFB4D
:1039100020B1CDA000F096FE092055E7D2A000F01E
:1039200091FED6A000F08EFE642000F0C9F920B10F
:10393000D7A000F087FE0A2046E7DCA000F082FE58
:10394000002041E7D7BCB1B8B8B4CEBBC4A3BFE92F
:103950000D0A0000B8B4CEBBCAA7B0DCA3ACD7BC7C
:10396000B1B8D6D8C6F40D0A00000000B8B4CEBB7A
:10397000B3C9B9A60D0A0000D7BCB1B8C9E8D6C30F
:10398000535441C4A3CABD0D0A00000041542B4347
:10399000574D4F44453D3100C9E8D6C3535441C447
:1039A000A3CABDCAA7B0DCA3ACD7BCB1B8D6D8C631
:1039B000F40D0A00C9E8D6C3535441C4A3CABDB329
:1039C000C9B9A60D0A0000001C000020D7BCB1B880
:1039D000C8A1CFFBD7D4B6AFC1ACBDD30D0A000090
:1039E00041542B43574155544F434F4E4E3D3000A9
:1039F000C8A1CFFBD7D4B6AFC1ACBDD3CAA7B0DC8A
:103A0000A3ACD7BCB1B8D6D8C6F40D0A00000000EC
:103A1000C8A1CFFBD7D4B6AFC1ACBDD3B3C9B9A68B
:103A20000D0A0000D7BCB1B8C1ACBDD3C2B7D3C971
:103A3000C6F70D0A00000000C1ACBDD3C2B7D3C9A0
:103A4000C6F7CAA7B0DCA3ACD7BCB1B8D6D8C6F409
:103A50000D0A0000C1ACBDD3C2B7D3C9C6F7B3C904
:103A6000B9A60D0A0000000000080140D7BCB1B89B
:103A7000C9E8D6C3D7D4B6AFC1ACBDD30D0A0000D8
:103A800041542B43574155544F434F4E4E3D310007
:103A9000C9E8D6C3D7D4B6AFC1ACBDD3CAA7B0DCD2
:103AA000A3ACD7BCB1B8D6D8C6F40D0A000000004C
:103AB000C9E8D6C3D7D4B6AFC1ACBDD3B3C9B9A6D4
:103AC0000D0A0000D7BCB1B8BFAAC6F4536D61722D
:103AD00074636F6E6669670D0A00000041542B43E2
:103AE000575354415254534D41525400BFAAC6F447
:103AF000536D617274636F6E666967CAA7B0DCA3A9
:103B0000ACD7BCB1B8D6D8C6F40D0A00BFAAC6F46B
:103B1000536D617274636F6E666967B3C9B9A60D40
:103B20000A000000C7EBCAB9D3C3415050C8EDBC6E
:103B3000FEB4ABCAE4C3DCC2EB0D0A00B4ABCAE40A
:103B4000C3DCC2EBCAA7B0DCA3ACD7BCB1B8D6D833
:103B5000C6F40D0A00000000B4ABCAE4C3DCC2EB3B
:103B6000B3C9B9A60D0A0000D7BCB1B8B9D8B1D550
:103B7000536D617274636F6E6669670D0A000000B1
:103B800041542B435753544F50534D41525400000E
:103B9000B9D8B1D5536D617274636F6E666967CAC7
:103BA000A7B0DCA3ACD7BCB1B8D6D8C6F40D0A0018
:103BB000B9D8B1D5536D617274636F6E666967B3BE
:103BC000C9B9A60D0A000000B5C8B4FDC1ACBDD38B
:103BD000C2B7D3C9C6F70D0A00000000D7BCB1B800
:103BE000C9E8D6C3CDB8B4AB0D0A000041542B438D
:103BF00049504D4F44453D3100000000C9E8D6C34F
:103C0000CDB8B4ABCAA7B0DCA3ACD7BCB1B8D6D8DA
:103C1000C6F40D0A00000000C9E8D6C3CDB8B4ABA5
:103C2000B3C9B9A60D0A0000D7BCB1B8B9D8B1D58F
:103C3000B6E0C2B7C1ACBDD30D0A000041542B435E
:103C400049504D55583D3000B9D8B1D5B6E0C2B74E
:103C5000C1ACBDD3CAA7B0DCA3ACD7BCB1B8D6D871
:103C6000C6F40D0A00000000B9D8B1D5B6E0C2B75D
:103C7000C1ACBDD3B3C9B9A60D0A0000D7BCB1B859
:103C8000C1ACBDD3B7FECEF1C6F70D0A00000000EF
:103C9000C1ACBDD3B7FECEF1C6F7CAA7B0DCA3ACAA
:103CA000D7BCB1B8D6D8C6F40D0A0000C1ACBDD39C
:103CB000B7FECEF1C6F7B3C9B9A60D0A00000000E1
:103CC00010B5044600202E4908604FF480612D484D
:103CD000FCF7E4FC2C482D4902682DA000F000FD03
:103CE0001AE06420FDF7F8FF30A12648FCF7FAFB44
:103CF00000B115E02FA12348FCF7F4FB08B1012027
:103D000010BD2EA11F48FCF7EDFB08B10220F7E71C
:103D100021462FA000F096FC2000A4F10104E0D180
:103D200000BF2CA000F08EFC002C01DC0320E7E794
:103D300029A000F087FC0020114908604FF4806141
:103D40001048FCF7ABFC2CA000F0CAFC0CE064208F
:103D5000FDF7C2FF2CA10B48FCF7C4FB00B107E044
:103D600021461BA000F06EFC2000A4F10104EED15E
:103D700000BF002C01DC0420C2E70020C0E70000E7
:103D80001800002078010020500000208C1C00202A
:103D900041542B43495053544152543D22544350B3
:103DA000222C222573222C25640D0A00434F4E4EEF
:103DB00045435400434C4F5345440000414C524549
:103DC00041445920434F4E4E454354454400000062
:103DD000256420000D0A0000C1ACBDD3B7FECEF1B2
:103DE000C6F7B3C9B9A6A3ACD7BCB1B8BDF8C8EB88
:103DF000CDB8B4AB0D0A000041542B434950534594
:103E00004E440D0A000000000D0A4F4B0D0A0D0A2A
:103E10003E00000010B504460020144908604FF42D
:103E200080611348FCF73AFC12A216A118A000F01A
:103E300057FC0DE04FF47A70FDF74EFF1AA10C48C5
:103E4000FCF750FB00B107E021461CA000F0FAFB94
:103E50002000A4F10104EDD100BF19A000F0F2FB95
:103E6000002C01DC012010BD0020FCE71800002020
:103E700078010020776331393837313130332E2ED5
:103E800000000000757365724357445A000000003B
:103E900041542B43574A41503D222573222C222561
:103EA00073220D0A000000005749464920474F542D
:103EB0002049500D0A0D0A4F4B00000025642000D8
:103EC0000D0A000010B50446002210211348FEF729
:103ED00041F84FF4FA70FDF7FFFE012210210F4860
:103EE000FEF738F80CE06420FDF7F6FE0CA10E4852
:103EF000FCF7F8FA00B107E021460CA000F0A2FBA5
:103F00002000A4F10104EED100BF09A000F09AFB4B
:103F1000002C01DC012010BD0020FCE7000801405E
:103F2000726561647900000078010020256420003A
:103F30000D0A000008B501210420FEF7A3FD1020A2
:103F4000ADF8000003208DF8020010208DF803006A
:103F500069460448FDF75DFF012210210148FDF785
:103F6000F9FF08BD0008014070B505460C46002069
:103F7000134908604FF480611248FCF78FFB294613
:103F800011A000F0ADFB0CE06420FDF7A5FE10A130
:103F90000C48FCF7A7FA00B107E021460DA000F09D
:103FA00051FB2000A4F10104EED100BF0AA000F0F3
:103FB00049FB002C01DC012070BD0020FCE7000063
:103FC000180000207801002025730D0A0000000071
:103FD0004F4B0000256420000D0A000010B5044678
:103FE0000020124908604FF480611148FCF756FB2D
:103FF0000DE04FF47A70FDF76FFE0EA10C48FCF750
:1040000071FA00B107E021460DA000F01BFB200073
:10401000A4F10104EDD100BF0AA000F013FB002CB5
:1040200001DC012010BD0020FCE70000180000208A
:1040300078010020636F6E6E656374656400000034
:10404000256420000D0A000010B504460DE04FF471
:104050007A70FDF741FE0CA10E48FCF743FA00B15F
:1040600007E021460CA000F0EDFA2000A4F10104C5
:10407000EDD100BF09A000F0E5FA002C01DC012021
:1040800010BD0020FCE700005749464920474F5427
:104090002049500078010020256420000D0A00000E
:1040A000490050EAC12018BF04204A0D18BF40F053
:1040B000010040F2FF72B2EB515F08BF40F0020016
:1040C000012808BF0520704730380A2801D2012096
:1040D0007047002070470000FDF7F7FD4FF41650C1
:1040E000FFF7CAFA4FF4E130FFF706FB4FF4E15156
:1040F0004FF4FA70FEF784FFFEF77CF9FEF706F93D
:10410000FDF72EFFFFF716FFFEF772F88FE1C848A4
:104110000078012872D1C7480068C74909688842F9
:104120002AD0C4480068807810280CD0C1480068A4
:104130008078822803D1C1480078012803D0C04884
:104140000078012818D1BB4800688178BDA000F034
:1041500079FAB848006800F0A3FAB648006800F59C
:104160009670B449086008460068BA4909688842F0
:1041700002D1B948AF490860B8480068B849096831
:10418000884277D0B7A000F05DFAB4480068807824
:1041900020283CD1B1480068407906282FD2DFE8BA
:1041A00000F0030A11181F26B1A000F04BFA0120FD
:1041B000A24908702AE0B3A000F044FA00209C490C
:1041C000087023E0BAA000F03DFA0020984908707A
:1041D0001CE0C3A000F036FA00209549087015E0F5
:1041E000C9A000F02FFA0020914908700EE0D1A07C
:1041F00000F028FA00208E49087007E0F1E0D5A011
:1042000000F020FA00208A49087000BF49E0934876
:104210000068807890281DD190480068807910B19E
:1042200001280FD100E000BFD3A000F00BFA01205D
:10423000834908700020D3490870FEF723FEFEF77B
:1042400097F806E0D0A000F0FDF90020784908704A
:1042500000BF26E0814800688078D02815D1D0A022
:1042600000F0F0F9C7480078012804D10020C549C2
:10427000087016E024E0C3480078012811DD002012
:10428000C0490870FEF7FEFD0BE0744800688078B6
:10429000302806D1C6A000F0D5F970480068FEF7B6
:1042A00037FA6E48006800F596706C490860084659
:1042B0000068C4490968884202D1C3486749086058
:1042C000C2480068C2490968884276D0BF48016880
:1042D000891CC0A000F0B6F9C1480068FCF740F99D
:1042E00004462246BE480168B8480068801CFCF7B6
:1042F0000BF980B90221BB48FDF71FFE08B9012068
:1043000000E00020044622460221B648FDF722FEC6
:10431000FEF72EF855E0B4480068FCF721F9044692
:104320002246B1480168A9480068801CFCF7ECF8F7
:1043300080B90121AB48FDF700FE08B9012000E07B
:104340000020044622460121A648FDF703FEFEF7A1
:104350000FF836E0A5480068FCF702F9044622464B
:10436000A248016899480068801CFCF7CDF898B90C
:104370009F48007828B901209D490870FEF7D2FCBB
:1043800007E000209A49087000214FF08040FEF7B6
:1043900072FEFDF7EDFF14E096480068FCF7E0F8C8
:1043A000044622469348016888480068801CFCF750
:1043B000ABF818B9FDF7DCFF03E011E08EA000F0C8
:1043C00041F98248006800F5967080490860084607
:1043D00000688C490968884229D18B487B4908606C
:1043E00025E08AA000F02EF900218D48FEF743FE5B
:1043F00000218C48FEF73FFE00208B4908604FF4F7
:1044000080618A48FCF74AF9FFF7D2F978B988A0A9
:1044100000F018F901200649087000208249086060
:104420004FF480618148FCF739F9FEF70DF86EE62C
:1044300061000020300000202C00002062000020DD
:1044400063000020B7A2CBCDCAFDBEDD3A3078258F
:10445000780D0A0034000020540F002024000020B2
:1044600020000020BDD3CAD5B5BDCAFDBEDD3A00CF
:10447000434F4E4E454354B1A8CEC4B3C9B9A60D5F
:104480000A000000C1ACBDD3D2D1BEDCBEF8A3ACE3
:10449000B2BBD6A7B3D6B5C4D0ADD2E9B0E6B1BEF3
:1044A000A3ACD7BCB1B8D6D8C6F40D0A0000000042
:1044B000C1ACBDD3D2D1BEDCBEF8A3ACB2BBBACFC7
:1044C000B8F1B5C4BFCDBBA7B6CBB1EACAB6B7FB8E
:1044D000A3ACD7BCB1B8D6D8C6F40D0A0000000012
:1044E000C1ACBDD3D2D1BEDCBEF8A3ACB7FECEF119
:1044F000B6CBB2BBBFC9D3C3A3ACD7BCB1B8D6D8B7
:10450000C6F40D0A00000000C1ACBDD3D2D1BEDCA0
:10451000BEF8A3ACCEDED0A7B5C4D3C3BBA7C3FB44
:10452000BBF2C3DCC2EBA3ACD7BCB1B8D6D8C6F4DF
:104530000D0A0000C1ACBDD3D2D1BEDCBEF8A3AC25
:10454000CEB4CADAC8A8A3ACD7BCB1B8D6D8C6F422
:104550000D0A0000C1ACBDD3D2D1BEDCBEF8A3AC05
:10456000CEB4D6AAD7B4CCACA3ACD7BCB1B8D6D84D
:10457000C6F40D0A00000000B6A9D4C4B3C9B9A698
:104580000D0A000060000020B6A9D4C4CAA7B0DCA0
:10459000A3ACD7BCB1B8D6D8C6F40D0A0000000051
:1045A00050494E47B1A8CEC4BBD8B8B40D0A0000DC
:1045B000B7FECEF1C6F7B5C8BCB630CDC6CBCD0D73
:1045C0000A00000028000020780900203C0000209C
:1045D00038000020C3FCC1EE3A25730D0A0000002C
:1045E00000000020000C0140040000200800002012
:1045F000100000200C000020CEB4D6AAD6B8C1EE20
:104600000D0A00004000002030150020D0E8D2AA9A
:10461000C1ACBDD3B7FECEF1C6F70D0A0000000055
:10462000000800400004004018000020780100202D
:10463000BDA8C1A2544350C1ACBDD3B3C9B9A60DE6
:104640000A0000000FB438B505A800901248009A7F
:104650000499FBF731FE002000900F48FBF780FF24
:10466000054600BF0D48008800F040000028F9D042
:1046700000240CE00848005D0849091D088000BFBF
:104680000648008800F040000028F9D0641CAC42C5
:10469000F0D338BC5DF814FB7800002000380140EE
:1046A00000BF0E4A128802F04002002AF9D0012110
:1046B0000CE04A1C825C094B1B1D1A8000BF074A94
:1046C000128802F04002002AF9D0491C437802788F
:1046D00003EB02228A42ECDA7047000000440040FB
:1046E0000FB438B505A800901248009A0499FBF75A
:1046F000E3FD002000900F48FBF732FF054600BFA6
:104700000D48008800F040000028F9D000240CE09B
:104710000848005D0849091D088000BF0648008858
:1047200000F040000028F9D0641CAC42F0D338BC43
:104730005DF814FB780500200044004010B5002906
:104740000AD00878002807D005487844FCF798FD7F
:10475000002801D0002010BD0248784410BD0000A0
:10476000760100006E01000010B500290AD008781B
:10477000002807D005487844FCF782FD002801D0C6
:10478000002010BD0248784410BD00006601000002
:104790005E010000FCF71FBB0400000800000000E1
:1047A00000000002000100001000000000000000F6
:1047B0000000000030313233343536373839414269
:1047C0004344454640305800303132333435363773
:1047D00038396162636465664030780002400000E9
:1047E000000000A00000000005400000000000C81C
:1047F000000000000C4000000000409C0000000091
:10480000194000000020BCBE000000003440000041
:10481000BFC91B8E00000004B5400000504BCFD034
:104820006607E2CF010000006C4100003E8251AA01
:10483000DFEEA73401000000D9420000DCB5A0E2A1
:104840003A301F97FFFFFFFFB4450000FD25A0C8C9
:10485000E9A3C14FFFFFFFFFFF3F00000000008002
:1048600000000000FF3F000000000080000000008A
:104870004150502B445453573D3F3F004150502B23
:10488000445453573D3143004150502B44545357E7
:104890003D3243004150502B445453573D44430054
:1048A000EC49000800000020780000006C010008BE
:1048B000644A0008780000202024000088010008D5
:1048C0001C00000043000000F8FFFFFF0C00000088
:1048D0000E0000000F0000002E000000100100007C
:1048E00043000000F8FFFFFF0040404040404040D0
:1048F00040404141414141404040404040404040B3
:104900004040404040404040400502020202020256
:1049100002020202020202020220202020202020A5
:1049200020202002020202020202909090909090B9
:104930001010101010101010101010101010101077
:1049400010101010020202020202888888888888EB
:1049500008080808080808080808080808080808D7
:1049600008080808020202024000000000000000DF
:104970000000000000000000000000000000000037
:104980000000000000000000000000000000000027
:104990000000000000000000000000000000000017
:1049A0000000000000000000000000000000000007
:1049B00000000000000000000000000000000000F7
:1049C00000000000000000000000000000000000E7
:1049D00000000000000000000000000000000000D7
:1049E0000000000000000000000000007C480008FB
:1049F000884800089448000870480008000000003B
:104A000000000000000000000000000000000000A6
:104A10000000000000000000000000000000000096
:104A20000000000000000000000000000000000086
:104A30000000000000000000000000000000000076
:104A40000000000000000000000000000000000066
:104A50000000000001020304010203040607080924
:044A6000020406083E
:040000050800027974
:00000001FF
