:020000040800F2
:10000000901700207902000827220008EB21000841
:10001000252200082D1F0008F92700080000000015
:10002000000000000000000000000000052400089F
:10003000B11F000800000000AD22000819250008CB
:10004000930200089302000893020008930200083C
:10005000930200089302000893020008930200082C
:10006000930200089302000893020008930200081C
:10007000930200089302000893020008930200080C
:1000800093020008930200089302000893020008FC
:1000900093020008930200089302000893020008EC
:1000A00093020008930200089302000893020008DC
:1000B00093020008930200089302000893020008CC
:1000C00093020008930200089302000893020008BC
:1000D00093020008930200087D250008930200089F
:1000E000930200089302000893020008930200089C
:1000F000930200089302000893020008930200088C
:10010000930200089302000893020008930200087B
:10011000930200089302000893020008930200086B
:10012000930200089302000893020008930200085B
:1001300000F002F800F090F80AA090E8000C824469
:100140008344AAF10107DA4501D100F085F8AFF246
:10015000090EBAE80F0013F0010F18BFFB1A43F0A5
:10016000010318470836000028360000103A24BF63
:1001700078C878C1FAD8520724BF30C830C144BF0C
:1001800004680C607047000000230024002500264E
:10019000103A28BF78C1FBD8520728BF30C148BFEA
:1001A0000B6070476E2900F03B83702900F0938448
:1001B000662903F06D82652903F06A82672903F0DE
:1001C00067826129AFF3008003681B0A28BF41F0F2
:1001D0008001692900F0E882642900F0E582752930
:1001E00000F0E2826F2900F02184782900F05F841A
:1001F000E92900F0BB83E42900F0B883F52900F079
:10020000B583EF2900F01E84F82900F05E840368AE
:10021000DB0928BF41F08001632900F03C8373298A
:1002200000F04183E32900F0AE87F32900F0B387A3
:10023000002070471FB501F0BBF904000020002129
:1002400003F010FA401C60600020002103F0F4F974
:10025000E0601FBD10B510BD01F07CF91146FFF73D
:10026000E9FF03F02BF901F055FA03B4FFF7F2FFB1
:1002700003BC01F099FA000009488047094800478B
:10028000FEE7FEE7FEE7FEE7FEE7FEE7FEE7FEE746
:10029000FEE7FEE704480549054A064B70470000A3
:1002A0001D25000831010008901100209017002042
:1002B00090130020901300201CB50C46064B7B4485
:1002C00069460090204600F0C4FA044600206946C2
:1002D00000F0D2FA20461CBDB70500000FB41CB5D3
:1002E000084B06AA7B4469460090059800F0B1FAD5
:1002F00004460020694600F0BFFA20461CBC5DF8A9
:1003000014FB00009105000070B50C460546012A5B
:1003100005D02878800600D5EA69002302E0012391
:1003200005E05B1C934202D2E05C0028F9D1A86989
:10033000E618C01AA861286A18442862284600F006
:10034000FAF904E0D5E9012114F8010B9047B44211
:10035000F8D3284600F005FA70BD00002DE9F05FE3
:10036000894604464FF0000ADFF874B1FB44C0F838
:1003700020A02046E1688847002874D0252806D0B0
:10038000D4E901219047206A401C2062F1E7002651
:100390005F462046E16888472028054607DB312D67
:1003A00005D2781910F8200C08B10643F1E7B00720
:1003B00001D526F00406C4F81CA00027C4F818A034
:1003C0002A2D09D0284603F071F838B304EB8708CA
:1003D000303DC8F8185019E059F8041B204604EBCA
:1003E00087029161E1688847012F054618D1E069CD
:1003F000002820DA26F020061DE0D8F8180000EBCF
:10040000800005EB40003038C8F818002046E1684D
:100410008847054603F04AF80028EED1012F0AD09C
:100420002E2D08D12046E16888477F1C0546022F03
:1004300046F02006C4DBA069002803DA404246F0FB
:100440000106A061F00701D026F010066C2D0BD03C
:10045000682D09D04C2D39D06A2D35D0742D35D06A
:100460007A2D33D016E038E0E1682F4620468847E1
:10047000B842054609D16C2F26D04FF48060E16860
:10048000064320468847054604E06C2F1AD04FF4F7
:10049000807006430DB3A5F14100192802D820351C
:1004A00046F400664A462946204626604E46FFF737
:1004B00079FE80B101280BD0F61D26F0070000F16F
:1004C000080956E74020E4E78020D8E70020D6E777
:1004D00006F104094DE7284652E7206ABDE8F09F7F
:1004E000243300000FB400B58DB010A9099000911D
:1004F0000B904FF0FF300A9000200C900648784493
:100500000690064878446A4607900F9909A800F0BB
:10051000F3FA0DB05DF814FB170600002F0600007B
:100520002DE9FF5F4FF00008994614464646916951
:10053000D2E901A7DDF838B001988847054659EAA5
:100540000B0005D009E0A1690198761C8847054693
:10055000216A284688470028F5D1681C03D05FEA45
:10056000CA7005D015E04FF0FF3004B0BDE8F09F31
:100570002068011D2160D0F800800AE05FEACA709F
:1005800001D108F8015BA169761C01987F1E88479C
:100590000546002F1ADD681C18D0B9F1000F0DD0E8
:1005A000E81705EBD060421120F01F0059F8221027
:1005B0002A1A012090400142E0D107E0BBF1000F70
:1005C000DCD12846216A88470028D7D0E169019804
:1005D0008847BBF1000F07D1002E05DD5FEACA7026
:1005E00002D1002188F80010A068B84203DDBBF1F9
:1005F000000F03D017B16FF00100B6E73046B4E743
:1006000030B505460B462A4613F8014B12F8010B8C
:1006100008B1A042F8D01CB1002802D06D1CF1E74F
:10062000284630BD10B5431C02E010F8011B71B123
:100630008107FAD14FF0013202C88C1A8C4314EAB8
:10064000C211F9D0C01A0A0603D0C01E10BDC01ACC
:1006500010BD0A0401D0801E10BD0902FCD0401E4E
:1006600010BD032A40F2308010F0030C00F015801A
:1006700011F8013BBCF1020F624498BF11F801CBA5
:1006800000F8013B38BF11F8013BA2F1040298BF0A
:1006900000F801CB38BF00F8013B11F0030300F074
:1006A0005B82083AC0F0088051F8043B083A51F8E0
:1006B00004CBA0E80810F5E7121D5CBF51F8043B1D
:1006C00040F8043BAFF30080D20724BF11F8013B90
:1006D00011F801CB48BF11F8012B24BF00F8013BF2
:1006E00000F801CB48BF00F8012B70474FF0000223
:1006F0000429C0F0128010F0030C00F06182CCF1EC
:10070000040CBCF1020F18BF00F8012BA8BF20F8A1
:10071000022BA1EB0C0100F053BA5FEAC17C24BFAD
:1007200000F8012B00F8012B48BF00F8012B70479F
:1007300070477047704770B5044685690068C10608
:1007400001D5302600E02026C00707D070BDD4E9CF
:10075000012130469047206A401C20626D1EF6D56C
:1007600070BD70B5044685690078C00707D170BDBB
:10077000D4E9012120209047206A401C20626D1E90
:10078000F6D570BD09684A0501D540B27047C90564
:10079000FCD500B2704709684A0501D5C0B2704760
:1007A000C905FCD580B270472DE9F041064600240A
:1007B00010687529314616A510D0FFF7E3FF002811
:1007C00002DA404213A507E031688A0701D512A575
:1007D00002E0490704D511A5012401E0FFF7DBFF82
:1007E00000210A2206F1240709E0B0FBF2FCB0FB6D
:1007F000F2F302FB1C00303078541846491C0028E4
:10080000F3D123462A463046BDE8F04100F04BBA0A
:10081000000000002D0000002B0000002000000060
:1008200011680268006A530501D508700AE0D30513
:1008300001D5088006E0130603D5C217C1E90002FE
:1008400000E008600120704701694A1C02610878D5
:10085000704700B58FB0CDE9013100210591054900
:100860007944CDE9031011466846FFF777FD0FB0D4
:1008700000BD0000E5FFFFFF0A6802F8010B0A60F7
:10088000704710B5436913B1AFF3008001E0FFF783
:100890003BFD012010BD127800F124010A700022F6
:1008A0004A700122EDE711684FF0FF32E9E70000DE
:1008B0002DE9FF5F15468A460446DFF8AC80F84410
:1008C0000027D8E900103E46CDE9001010E03AF8C4
:1008D00016106A4602A800F01DFE411C07D02178C0
:1008E000890603D5E269391891420DD80744761C70
:1008F0002078800602D5E069B84205DDAE42E6DB2D
:100900003AF816000028E2D1A069C01BA061204679
:10091000FFF711FFD8E90010CDE90010002017E023
:100920003AF818106A4602A800F0F4FDB0F1FF3F53
:1009300081460BD000250DF1080B05E0D4E901211B
:100940001BF8050090476D1C4D45F7D308F10100D9
:10095000B0428046E4DB206A384420622046FFF73C
:1009600000FFBDE8FF9F0000E62D00002DE9F041EB
:100970008046D21D22F007020025D2E90002F529A7
:1009800015A614D0011E72F1000106DA0023D0EB87
:10099000030063EB020211A608E0D8F800108B07F1
:1009A00001D50FA602E0490701D50EA60125114683
:1009B000002408F1240704E000F027F930323A550A
:1009C000641C50EA0102F7D12B46324621464046CC
:1009D000BDE8F04100F067B9000000002D00000004
:1009E0002B0000002000000030B4002100F124049E
:1009F00008E002F00705D208303542EA4372DB080E
:100A00006554491C52EA0305F3D10468002310A27F
:100A1000250708D504F020040C4304D0C469012341
:100A20000CA2641EC46130BC00F03DB910B5044690
:100A300021461068FFF7AFFE02462046BDE8104091
:100A40000023D1E7D21D22F00701D1E90023CBE733
:100A50000000000030000000F0B40D4601880905D8
:100A600002D5214C7C4402E01F4C7C440E34002112
:100A700000F1240608E002F00F071209E75D42EAE0
:100A800003721B097754491C52EA0307F3D1027819
:100A90000023120704D5702D06D009B102231134AA
:100AA0002246F0BC00F0FFB801231034F8E770B51F
:100AB00004460D4621461068FFF76DFE02462946A2
:100AC0002046BDE870400023C6E7D21D22F0070390
:100AD000D3E90023C0E70368126843F020030360F2
:100AE0000823C3610023B7E7482C000002681144C3
:100AF0001378016018467047D16005497944516107
:100B000004497944116200211161114600F048BB8B
:100B1000EDFFFFFF8F010000426842B1016811F84C
:100B2000013B23B1521EC0E9001218467047012153
:100B3000C160881E704742685AB1C368016843B9F2
:100B400083688B4205D0491E521CC0E90012002068
:100B500070474FF0FF30704710B5203AC0F00B805F
:100B6000B1E81850203AA0E81850B1E81850A0E8B1
:100B70001850BFF4F5AF5FEA027C24BFB1E818500B
:100B8000A0E8185044BF18C918C0BDE810405FEA7B
:100B9000827C24BF51F8043B40F8043B08BF7047F7
:100BA000D20728BF31F8023B48BF11F8012B28BFFC
:100BB00020F8023B48BF00F8012B70474FF00002BD
:100BC00000B5134694469646203922BFA0E80C5043
:100BD000A0E80C50B1F12001BFF4F7AF090728BF1E
:100BE000A0E80C5048BF0CC05DF804EB890028BF9A
:100BF00040F8042B08BF704748BF20F8022B11F0C3
:100C0000804F18BF00F8012B704730B5B0F10A02D1
:100C10004FEA900E71F100034EEA817EB0EB0E00B8
:100C200061EB91014FEA101E4EEA017E10EB0E00BF
:100C300041EB11114FEA102E4EEA016E10EB0E003F
:100C400041EB11214FEA104E4EEA014E10EB0E001F
:100C500041EB1141401841F100014FEAD00040EA58
:100C600041704FEAD10110EB80054FEA810444EA5C
:100C7000907444EB01046D1944EB0404521BA3412E
:100C80004FF0000348BF0A3200D530BD401C41F18F
:100C9000000130BD10B5044600F082FC0068005D24
:100CA00000F0010010BD2DE9F0470D46994692462F
:100CB000044600F124080168880604D5E06921F0A3
:100CC0001001216000E00120A84201DD471B00E087
:100CD0000027A1697A1902EB0900081AA06120789F
:100CE000C00602D42046FFF726FD002608E0D4E91E
:100CF00001211AF806009047206A401C761C2062E9
:100D00004E45F4DB2078C0060AD52046FFF713FDD8
:100D100006E0D4E9012130209047206A401C20627F
:100D2000381EA7F10107F4DC07E0D4E9012118F827
:100D300005009047206A401C2062281EA5F101058D
:100D4000F3DC2046FFF70DFD2078000602D50220D7
:100D5000BDE8F0870120FBE770472DE9FF4F0C4607
:100D60001E464FF0FF378BB0D2E90001DDF86080FE
:100D70000A908A46C1F30A5505B93D460021084646
:100D80004FF00000BAF1000F00F4400005DA00EB6C
:100D900080004FF4400101EA50004FEA9059B9F148
:100DA000010F00DDB9460A9850EA4A000ED044F619
:100DB0001050A5F2FF3545432F14B8F1000F1ED097
:100DC0007542291E1EDDC9F100021CE0B8F1010FB9
:100DD0004FF0000001D0302103E0F24305E0215440
:100DE000401CB042FBDB30460022002121540B990D
:100DF000C1F80880C1E900200FB0BDE8F08FBD1B2D
:100E00006D1CDEE74A4600DA694206A800F014FCD1
:100E100006AB93E8070003AB83E8070050460A9946
:100E200000F0C9FC8DE80700A0F500501F380090C5
:100E30000398002D09DD42F21F014A46084403A928
:100E40000390684600F028FF08E0A0F500504A46ED
:100E50001F3803A90390684600F032FF8DE80700B1
:100E60000004000C03D04FF0FF30410800E01046B2
:100E7000B8F1000F03D00022009215461EE0751E47
:100E800005D4FFF7C2FE303262556D1EF9D5B34668
:100E90000122084302D000227F1C04E02078302881
:100EA00001D100227F1E002A099786D01DE0112D56
:100EB00007DAFFF7AAFE303262556D1C50EA0102D4
:100EC000F5D1084302D00098C8B10EE00021681E99
:100ED00005E0235C625C63542254401E491C81423D
:100EE000F7DBAB46A81B401E0990002004F80B005E
:100EF0000B98099AC0F80880C0E9002B7CE71126FE
:100F00004FF0000859E72DE9F04F88460446D21DFE
:100F100022F0070191B0D1E90001CDE90A0102F008
:100F2000B1FA02460B98C00F01D02D2007E02068CF
:100F3000810701D52B2002E0202101EAC000032A0D
:100F4000099001D0072A05DB03464146204600F000
:100F500033FB0BE12078800601D5E06900E0062034
:100F6000B8F1650F814606D0B8F1660F18D0B8F118
:100F7000670F70D131E00020B9F1110F009001DB53
:100F8000112301E009F101030AAA01A90CA8FFF746
:100F9000E4FEDDE90C70002609F10105834647E017
:100FA00001204B4600904FF000470AAA01A90CA867
:100FB000FFF7D3FEDDE90DB00C995D46002610B9B0
:100FC00009F101000D18B9EB050003D4C0F1FF369B
:100FD00009F10105A5EB09002BE0B9F1010F01DAD8
:100FE0004FF001090020B9F1110F0090484601DDD2
:100FF000112300E003460AAA01A90CA8FFF7ADFEE1
:10100000DDE90C704D4600268346207800070AD49F
:10101000AB4500DA5D4601A8012D04DD411911F848
:10102000011C302907D04F4502DA17F1040F04DA0A
:10103000012082460FE06D1EEEE7002F02DCED1B63
:101040003E4403E0781CA84200DD7D1CB81B00F183
:10105000010A4FF000472078000703D4AA4501DBBE
:101060004FF0FF3A0021B7F1004F0DF143088DF822
:10107000431024D002202B23002F01DA7F422D239E
:101080000A21021EA0F1010000DC5FB197FBF1FC18
:1010900097FBF1F201FB1C7C17460CF1300C08F8B1
:1010A00001CDEEE7A8F1010003702188090501D503
:1010B000452100E06521A0F1010800F8011C099814
:1010C0000FA9A1EB0807FF1D00B10120411901EB99
:1010D000EA70A1693844081A401EA0612078C00651
:1010E00002D42046FFF727FB099828B1D4E9012153
:1010F0009047206A401C20622078C00622D52046F6
:10110000FFF719FB1EE0002E04DBB34502DD01A84A
:10111000805D00E03020D4E901219047206A401C26
:101120002062761CAAF101005FEA000A0AD100F0F1
:101130003FFAC0680168405CD4E901219047206A09
:10114000401C2062281EA5F10105DCDC07E0D4E983
:10115000012118F8010B9047206A401C2062381EBC
:10116000A7F10107F3DC2046FFF7FBFA032011B0DB
:1011700043E610B5436913B1AFF3008001E0FFF718
:1011800097FB012010BD128800F124018284002207
:10119000C2840122EDE711684FF0FF32E9E7000059
:1011A0002DE9F34F4FF0000A0C4656468DB0012052
:1011B0000C9001F10C000B9062690B980121904793
:1011C00005002DD0252D2CD0216A8847C0B1626939
:1011D0000B9801219047216A88470028F7D162695E
:1011E000411E0B98904700E0761CA1690D98884736
:1011F000216A88470028F7D1E1690D988847DBE725
:10120000A1690D988847A842074601D1761CD3E70B
:10121000E1690D9888477F1C02D1BAF1000F6FD0A9
:101220006BE162690B9800273D46394690472A28B2
:1012300004D162690B98012190470125DFF8D08223
:1012400062690B9801219047A0F130010A290AD266
:101250004745E5DC07EB870100EB4107303FDFD472
:1012600045F01005ECE7E90601D46FF000476C2863
:101270000AD04C2814D0682815D06A280DD07428BC
:101280001CD07A281AD01DE062690B980121904782
:101290006C2802D045F0040514E045F002050DE08D
:1012A00045F020050AE062690B9801219047682803
:1012B00002D045F0080505E045F4006562690B9829
:1012C00001219047C4E9015765283DD019DC582811
:1012D0007AD00CDC452837D004DC252826D04128DC
:1012E0009ED131E046282FD0472899D12CE05B28A9
:1012F00077D0612828D063287CD0642823D15AE095
:10130000F6E06F2848D008DC66281DD067281BD07F
:10131000692821D06E2816D127E0702845D073287F
:1013200068D0752847D078280DD14DE0A1690D9877
:101330008847252805463FF469AFE1690D9888473D
:101340006D1C3FF46AAFD8E00D9923466A466FF0F2
:101350000100AFF30080C5E045F0400023464FF0A8
:1013600000026060A80736D43EE0E8077FF447AF8C
:101370002068011D21600068290501D506701BE762
:10138000290701D5068017E7A90703D5F117C0E99A
:10139000006111E706600FE745F0400023464FF07B
:1013A00008026060A80716D41EE040F60E0125EA88
:1013B0000100606016E045F0400023464FF00A024D
:1013C0006060A80707D40FE045F040006060A80700
:1013D00008D5234610220D996FF00100AFF300806D
:1013E00080E007E0102223460D996FF00100AFF373
:1013F000008077E04FF0000963284F46C8464B460F
:10140000CB4602D05B2806D038E0E80601D40120A4
:10141000A060012732E06269D4F80CB00B9801217A
:1014200090475E2807D14FF0010949466269D4F818
:101430000CB00B989047216939B900210A4603ABDB
:1014400043F82120491C0829FADBD8B3216949B3A4
:1014500008F1010862690B98012190475D28F4D1D9
:10146000B9F1000F09D0002003A951F82020D24380
:1014700041F82020401C0828F7DB03AB2069002836
:1014800020794FEA40701ED05B462246CDF800809E
:10149000CDE901970D9900286FF0010020DAAFF334
:1014A00000801FE0C11703AA00EBD1614B1121F0AE
:1014B0001F0102EB8302411A136801208840034395
:1014C0001360C7E719E00D99224600286FF001006C
:1014D000009702DAAFF3008004E0FFF721F801E0A3
:1014E000AFF3008000280ADA401C06D10C9820B126
:1014F0004FF0FF300FB0BDE8F08F5046FAE7E90734
:1015000001D10AF1010A064400200C9054E60000C3
:10151000CCCCCC0C70B516460C46054600F040F815
:10152000036893F80101012806D0FF2C0FD8185D3D
:1015300068B101202C7070BDD3F8070132462146F6
:1015400003F2071303442846BDE8704018474FF0E4
:10155000FF3070BD754600F0E3F8AE460500694601
:10156000534620F00700854618B020B5FEF792FEDE
:10157000BDE820404FF000064FF000074FF0000894
:101580004FF0000B21F00701AC46ACE8C009ACE815
:10159000C009ACE8C009ACE8C0098D46704700003E
:1015A00010B500F005F8001D10BD00BFB920000007
:1015B00000487047501100202DE9F0411F460446B5
:1015C00003260168072A01F4006004DB08B116A5B0
:1015D00005E016A503E008B115A500E015A521F06A
:1015E00010002060A069C01EA0610FB1401EA06164
:1015F0002046FFF7A0F84FB1D4E9012138469047C3
:10160000206A401C2062C01C206206E0206AFAE7C3
:10161000D4E9012115F8010B9047761EF8D2204637
:10162000FFF79FF8BDE8F0814E414E006E616E00FD
:10163000494E4600696E66002DE9F0478146164620
:101640008AB0334878440DC88DE80D00304878449E
:10165000801C03AC0DC884E80D0041F69B300844A3
:10166000372190FBF1F290FBF1F5A5F1800501FB2C
:1016700012041B3C02D56442012000E00020DFF888
:1016800090A080460027FA44AAF1BE0A0DE0E007C8
:1016900009D03246684607EB47010AEB810100F0AA
:1016A0000FFB8DE8070064107F1C002CEFD1184F52
:1016B0007F44AC3F18E0E80714D007EB04100DF1AD
:1016C000180A90E80E008AE80E00C068F04201D1C6
:1016D00098190890324606A903A800F0F1FA03AB66
:1016E00083E807006D10641C002DE4D13246694682
:1016F000B8F1000F03A802D000F0CEFA01E000F02C
:10170000DFFAC9E90001C9F808200AB0BDE8F0878E
:101710000C2100000446AFF300802046FEF7A5FD33
:1017200000487047301100204FF0013C50F8042B66
:1017300051F8043B9A4221D1A2EB0C03934313EAE4
:10174000CC1317D150F8042B51F8043B9A4215D111
:10175000A2EB0C03934313EACC130BD150F8042BE8
:1017600051F8043B9A4209D1A2EB0C03934313EACC
:10177000CC13DBD04FF00000704700BFD01A01BA85
:10178000B1FA81F101F0180122FA01F0CB40C1F168
:101790002001DBB2C0B2C01A2CFA01F3D11A914376
:1017A00011EAC311E6D1704701491820ABBEFEE72C
:1017B0002600020070475FEA400C08BF91F0000F5E
:1017C0004FEA8C234FEAC12243EA51514FEA1C50A1
:1017D00018BF00F5F0404FEA300018BF41F000415B
:1017E0005FEA6C5C00F02980BCF1FF3F08BF40F06D
:1017F00080407047130C06BF12044FF0100C4FF0DE
:10180000000C130E04BF12020CF1080C130F04BFDE
:1018100012010CF1040C930F04BF92000CF1020CA6
:10182000D30F04BF52000CF1010C11464FF000021F
:10183000A0F11F00A0EB0C00704711F0004F08BF93
:10184000704731F000413FF4D5AF0B0C06BF0904DF
:101850004FF0100C4FF0000C0B0E04BF09020CF1FE
:10186000080C0B0F04BF09010CF1040C8B0F04BF13
:1018700089000CF1020CCB0F04BF49000CF1010CE4
:10188000CCF12003A0EB0C0022FA03F302FA0CF2D5
:1018900041EA030100F10100704720F07F4C80EA2B
:1018A000030023F07F47ACEB070303F57C5300F004
:1018B000004003F1FF032DE980494FEA154B09B4BD
:1018C0004FEA144325EA0B4E24EA03480FF204269C
:1018D00006EB132749083E785FEA320203FB0667EE
:1018E000C7F5000707FB06F64FEA54374FEAD6461E
:1018F00006F1020607FB066CCCF1005C4FEA1C47C0
:101900002CEA074C07FB06F40CFB06F504EB154626
:101910004FEA961634BF00204FF000404FEAD1370F
:1019200006FB07FC4FEA1C4C0CFB0BF7D21B03FB1E
:101930000CF761EB07010CFB0EF7B0EB074072EB05
:1019400017420CFB08F734BFA2EB0742B2EB074289
:1019500061EB17414FEA0C444FEA910706FB07FC85
:101960004FEA1C4C0CFB0BF7B0EBC74072EB573245
:1019700003FB0CF734BFA2EBC742B2EBC74261EBEB
:1019800057310CFB0EF7B0EBC70072EB57720CFB34
:1019900008F734BFA2EBC702B2EBC70261EB577185
:1019A000039F4FEA816141EA921104EBCC044FEAB4
:1019B000D1374FEA826206FB07FC42EA90124FEAF7
:1019C00080604FEA1C4C0CFB0BF7D21B03FB0CF79F
:1019D00061EB07010CFB0EF7B0EB074072EB17420F
:1019E0000CFB08F734BFA2EB0742B2EB074261EBF6
:1019F00017414FEA8C554FEA910704EB9C2406FBF4
:101A000007FC4FEA1C4C0CFB0BF7B0EBC74072EB2A
:101A1000573203FB0CF734BFA2EBC742B2EBC7420D
:101A200061EB57310CFB0EF7B0EBC70072EB57724E
:101A30000CFB08F734BFA2EBC702B2EBC70261EBA5
:101A4000577115EB4C254FEA816141EA92114FEA3B
:101A500082624FEAD13742EA901206FB07FC44F15A
:101A600000044FEA80604FEA1C4C0CFB0BF7D21BC2
:101A700003FB0CF761EB07010CFB0EF7B0EB074023
:101A800072EB17420CFB08F734BFA2EB0742B2EB34
:101A9000074261EB174115EB1C154FEA813141EA12
:101AA00092414FEA823242EA90424FEA80304FEA56
:101AB0000C7644F1000448EA03434EEA0B484FF029
:101AC000000EB2EB080C71EB030724BF62463946E7
:101AD0004EEB0E0E4FF0000B0018524149414BEBFC
:101AE0000B0BB2EB080C71EB03077BF1000B24BF6F
:101AF000624639464EEB0E0E4FF0000B0018524175
:101B000049414BEB0B0BB2EB080C71EB03077BF17C
:101B1000000B24BF624639464EEB0E0E51EA020717
:101B200018BF46F0010616EB0E7655F1000254F18F
:101B3000000103D5BDE88901BDE80088BDE8890141
:101B4000BDE80048B619524141EB0101A3F1010380
:101B5000704780807F7E7D7C7B7A7978777676751A
:101B60007473727171706F6E6E6D6C6C6B6A6A6992
:101B70006868676666656464636362616160605F2C
:101B80005F5E5E5D5D5C5C5B5B5A5A5959585857A5
:101B9000575656555555545453535252525151500D
:101BA00050504F4F4F4E4E4D4D4D4C4C4C4B4B4B60
:101BB0004A4A4A49494948484847474747464646A6
:101BC00045454544444444434343434242424241E1
:101BD0004141002B26D4770021D01CB54FEA3707AE
:101BE00003B44FF010004FF010014FF000000FBC95
:101BF000BDE810400BF1010BBBF1010F08BF5FEA1C
:101C0000170722BF12F1010211F101014FF000414B
:101C100043F1000300F0004043EA00007047F9D3AD
:101C20005708DAE746EA064613F1400F4FEA164630
:101C30001FDD13F1200FDFBF16430A4600212033BA
:101C40005B42C8D0C3F1200746EA064602FA07F70E
:101C50004FEA164646EA0706C3F1200722FA03F2C6
:101C600001FA07F721FA03F14FF0000342EA0702F5
:101C7000B1E746EA020646EA06464FEA164646EA53
:101C80000106BCBF46EA0646360C4FF000034FF093
:101C900000024FF000019EE72DE9C048934630B4A2
:101CA00091E8380007C831EA400C48BF34EA430CD9
:101CB00003D5FFF7F2FDFFF78CFFF0BCBDE800880D
:101CC0002DE9C048934630B491E8380007C810F0B9
:101CD000804F08BF13F0804F03D100F005F8FFF7E5
:101CE00078FFF0BCBDE8008820F07F4780EA030061
:101CF00023F07F4C07EB0C03A3F57C5300F000406E
:101D0000A3F1FE0392F0000F00F0B38095F0000FF6
:101D100000F077802DE901494FEA11404FEA14465F
:101D200021EA004800FB06FC24EA064708FB06F609
:101D300007FB08F800FB07F718EB06484CEB164CBE
:101D40004FEA124B18EB07484FEA15464CEB174089
:101D500022EA0B4E0BFB06FC25EA06470EFB06F6B5
:101D600007FB0EFE0BFB07F71EEB064E4CEB164C6B
:101D70004FF000061EEB074E4CEB174B18EB0B0811
:101D800040F1000018EB0E0B58EB000840F100008A
:101D90008F1A4FF000013CBFC943661B14BFB5EB5F
:101DA000040C00213CBFC943F61B4FEA17444EEA1E
:101DB0008E0E27EA04454FEA1C4704FB07622CEA13
:101DC000074C05FB07F70CFB05F604FB0CFC16EBB8
:101DD000074642EB174216EB0C4642EB1C421BEB4C
:101DE000060658EB0202414146EA9E0601D5BDE8CF
:101DF0000189B619524141EB0101A3F10103BDE88C
:101E000001894FEA14454FEA114724EA054621EAC1
:101E1000074C05FB07F406FB07F70CFB06F105FB77
:101E20000CFC11EB074144EB17444FEA124711EB4E
:101E30000C4144EB1C4422EA074C05FB07F206FB6D
:101E400007F70CFB06F605FB0CFC16EB074642EB0E
:101E5000174216EB0C4642EB1C456A1854F1000180
:101E600048BF7047B619524141EB0101A3F101038C
:101E7000704795F0000F37D04FEA11424FEA1447F0
:101E800021EA024624EA074C02FB07F106FB07F7AA
:101E90000CFB06F402FB0CFC14EB074441EB17416E
:101EA0004FEA154714EB0C4441EB1C4125EA074C63
:101EB00002FB07F506FB07F70CFB06F602FB0CFC22
:101EC00016EB074645EB174516EB0C4645EB1C4257
:101ED000121951F1000148BF7047B619524141EB48
:101EE0000101A3F1010370474FEA14454FEA11477E
:101EF00024EA054621EA074C05FB07F106FB07F734
:101F00000CFB06F24FF0000605FB0CFC12EB07423F
:101F100041EB174112EB0C4251EB1C4148BF70479B
:101F2000921841EB0101A3F101037047704710B50E
:101F30000246012906D0022908D003290FD004291E
:101F400034D11BE01378A3F130002FE01378303B3D
:101F500003EB830358005378303B184426E0137892
:101F6000303B642403FB04F09378303B03EB8303A2
:101F700000EB4300D378303B184417E01378303B34
:101F80004FF47A7403FB04F05378303B03EBC30443
:101F900004EB031300EB83009378303B03EB8303E4
:101FA00000EB4300D378303B184400BF00BF10BDA6
:101FB000704710B56FF0040000F09AFA10BD0000F1
:101FC00010B50146B1F5E16F22D201EBC1034FF428
:101FD0007A7463434FF0E02463610023A3612346D6
:101FE0001B6943F00103236100BF4FF0E023186930
:101FF00000F001031BB100F48033002BF5D04FF04B
:10200000E0231B6923F001034FF0E02423614FE03C
:1020100000221FE0274B4FF0E02463610023A361FF
:1020200023461B6943F00103236100BF4FF0E02307
:10203000186900F001031BB100F48033002BF5D0C8
:102040004FF0E0231B6923F001034FF0E0242361EC
:10205000531CDAB24FF4E163B1FBF3F39342D9D8E6
:102060004FF4E163B1FBF3F403FB141303EBC3037D
:102070004FF47A7463434FF0E02463610023A3615B
:1020800023461B6943F00103236100BF4FF0E023A7
:10209000186900F001031BB100F48033002BF5D068
:1020A0004FF0E0231B6923F001034FF0E02423618C
:1020B00010BD00004031F7002DE9F0410246002537
:1020C0000026002000230024002791F803C00CF014
:1020D0000F0591F803C00CF0100CBCF1000F03D0F9
:1020E00091F802C04CEA050591F800C0BCF1000F60
:1020F00031D0146800202BE04FF0010C0CFA00F3F3
:10210000B1F800C00CEA03069E4220D183004FF0D4
:102110000F0C0CFA03F7BC4305FA03FC4CEA040469
:1021200091F803C0BCF1280F06D14FF0010C0CFA56
:1021300000FCC2F814C00AE091F803C0BCF1480FDB
:1021400005D14FF0010C0CFA00FCC2F810C0401C85
:102150000828D1D31460B1F800C0BCF1FF0F34DD02
:10216000546800202EE000F1080C4FF0010808FA36
:102170000CF3B1F800C00CEA03069E4221D18300A3
:102180004FF00F0C0CFA03F7BC4305FA03FC4CEAC2
:10219000040491F803C0BCF1280F05D100F1080C2C
:1021A00008FA0CF8C2F8148091F803C0BCF1480F8B
:1021B00007D100F1080C4FF0010808FA0CF8C2F83A
:1021C0001080401C0828CED35460BDE8F081024640
:1021D000002093680B400BB1012000E00020704705
:1021E0000AB1016100E041617047704708B5012103
:1021F000042000F07DF80120ADF8000028208DF8C3
:10220000030069460648FFF757FF0220ADF80000BB
:1022100048208DF8030069460148FFF74DFF08BDCF
:10222000000801407047704770B5002100230F225D
:10223000C47804B3154C246804F4E064C4F5E06485
:10224000210AC1F10403CA40447804FA03F18478F6
:102250001440214309010E4C0678A155047804F07E
:102260001F050124AC4005786D11AD0005F1E02596
:10227000C5F8004109E0047804F01F050124AC40D2
:10228000044D0678761145F8264070BD0CED00E04F
:1022900000E400E080E100E002490143024A1160ED
:1022A000704700000000FA050CED00E070470000E8
:1022B00029B1064AD2690243044BDA6104E0034AB9
:1022C000D2698243014BDA6170470000001002407E
:1022D00029B1064A12690243044B1A6104E0034A19
:1022E00012698243014B1A617047000000100240DE
:1022F00029B1064A92690243044B9A6104E0034AF9
:1023000092698243014B9A617047000000100240BD
:1023100029B1064AD2680243044BDA6004E0034A5A
:10232000D2688243014BDA6070470000001002401F
:1023300030B500210022002400232D4D6D6805F0EA
:102340000C0121B1042905D0082923D105E0294D2C
:10235000056022E0274D05601FE0254D6D6805F4FE
:102360007012234D6D6805F48034022505EB92420E
:102370001CB9214D554305600BE01D4D6D6805F4FA
:1023800000351DB11C4D5543056002E0194D554304
:10239000056002E0174D056000BF00BF144D6D6879
:1023A00005F0F0010909154D6B5C0568DD404560DD
:1023B0000F4D6D6805F4E061090A104D6B5C4568CE
:1023C000DD4085600A4D6D6805F46051C90A0B4D0A
:1023D0006B5C4568DD40C560054D6D6805F44041A6
:1023E000890B074D6B5CC568B5FBF3F5056130BD26
:1023F0000010024000127A0000093D001500002084
:1024000025000020704710B500F002F810BD000054
:102410000CB50020019000903348006840F48030F3
:102420003149086000BF3048006800F40030009077
:102430000198401C0190009818B90198B0F5A06F60
:10244000F1D12948006800F4003010B1012000905B
:1024500001E0002000900098012843D12348006843
:1024600040F01000214908600846006820F0030091
:1024700008600846006840F0020008601A4840689A
:10248000194948600846406848600846406840F47A
:10249000806048600846406820F47C104860084628
:1024A000406840F4E81048600846006840F08070DA
:1024B000086000BF0C48006800F000700028F9D0E8
:1024C0000948406820F00300074948600846406812
:1024D00040F00200486000BF0348406800F00C0074
:1024E0000828F9D10CBD0000001002400020024075
:1024F000042808D14FF0E021096941F004014FF0B0
:10250000E022116107E04FF0E021096921F00401A8
:102510004FF0E022116170477047000010B513487A
:10252000006840F001001149086008464068104901
:1025300008400E494860084600680E4908400B49AB
:1025400008600846006820F480200860084640685B
:1025500020F4FE0048604FF41F008860FFF753FF2F
:102560004FF000600449086010BD000000100240F8
:102570000000FFF8FFFFF6FE08ED00E010B540F2A6
:1025800025510A4800F07CF878B10848001D008801
:1025900058B10648001D00880549064A126888544B
:1025A00004480068401C0349086010BD0044004016
:1025B000300900201000002001F40072B2F5007F05
:1025C00000D100BFCA430280704721B1828942F422
:1025D0000052828104E082894DF6FF731A408281A5
:1025E0007047000010B504462048844209D10121FB
:1025F0008803FFF78DFE00214FF48040FFF788FE2F
:1026000032E01B48844209D101214804FFF760FEF3
:1026100000214FF40030FFF75BFE25E015488442AF
:1026200009D101218804FFF753FE00214FF48020D7
:10263000FFF74EFE18E01048844209D10121C8047A
:10264000FFF746FE00214FF40020FFF741FE0BE0AC
:102650000A48844208D101210805FFF739FE00210C
:102660004FF48010FFF734FE10BD00000038014029
:102670000044004000480040004C00400050004032
:1026800070B50246002400230025002040F66A169B
:10269000B14200D100BFC1F3421501F01F03012672
:1026A00006FA03F3012D02D19689334006E0022D8C
:1026B00002D1168A334001E0968A33400C1201267B
:1026C00006FA04F41688344013B10CB1012000E07E
:1026D000002070BDF0B50346002400260025002030
:1026E00040F66A17B94200D100BF1846C1F3421440
:1026F00001F01F06012707FA06F5012C01D10C3065
:1027000004E0022C01D1103000E014301AB1076847
:102710002F43076002E00768AF430760F0BD000089
:102720002DE9F04786B005460E460024A24600BFBC
:10273000A1460027B08900B100BF2F462C8A4CF675
:10274000FF700440F08804432C82AC894EF6F310ED
:102750000440B08831890843718908430443AC813F
:10276000AC8A4FF6FF400440B0890443AC8201A814
:10277000FFF7DEFD1F48874202D1DDF810A001E01F
:10278000DDF80CA0A88900F4004040B10AEBCA00B3
:1027900000EB0A1031684900B0FBF1F807E00AEBE2
:1027A000CA0000EB0A1031688900B0FBF1F8642020
:1027B000B8FBF0F004012009642101FB1089A8890D
:1027C00000F4004040B1322000EBC900B0FBF1F052
:1027D00000F00700044308E0322000EB09106421F8
:1027E000B0FBF1F000F00F0004432C8106B0BDE80F
:1027F000F0870000003801407047000010B586B037
:10280000044601218803FFF773FD01210420FFF72F
:102810006FFD4FF40070ADF8140003208DF8160022
:1028200018208DF8170005A91248FFF745FC4FF452
:102830008060ADF8140004208DF8170005A90D483C
:10284000FFF73AFC01940020ADF80800ADF80A004B
:10285000ADF80C00ADF810000820ADF80E0001A98D
:102860000548FFF75DFF01210348FFF7AEFE06B004
:1028700010BD0000000801400038014010B586B0CE
:1028800004464FF4A060FFF707FD01214804FFF75D
:102890000FFD01210420FFF72BFD2448FFF7A2FEC6
:1028A0000420ADF8140003208DF8160018208DF8D0
:1028B000170005A91E48FFF7FFFB0820ADF814001C
:1028C00004208DF8170005A91948FFF7F5FB0194BE
:1028D0000020ADF80800ADF80A00ADF80C00ADF826
:1028E00010000C20ADF80E0001A91048FFF718FFEA
:1028F00020210E48FFF760FE012240F225510B48CF
:10290000FFF7E8FE26208DF8000000208DF801007A
:102910008DF8020001208DF803006846FFF784FC63
:1029200001210248FFF751FE06B010BD00440040EF
:102930000008014070B58EB00546002020490860AF
:102940004FF480611F48FDF7D1FE1FA000F046FE46
:102950000CE06420FFF734FB1EA11A48FDF750FE7F
:1029600000B108E029461CA000F00AFE2800A5F1ED
:1029700001018DB2EDD100BF15A000F001FE002DC8
:1029800002DC01200EB070BD14A10E48FDF738FE28
:1029900004469CB111A1601CFDF732FE06465EB1F3
:1029A000301B421E611C01A8FDF75BFE01A90CA0B3
:1029B00000F0E6FD0020E5E70220E3E70320E1E781
:1029C000100000203009002041542B434946535247
:1029D0000D0A00004F4B000025642000220000007B
:1029E00045535038323636B5C44950B5D8D6B7A35A
:1029F000BA25730D0A0000002DE9FF4107460D4678
:102A00001646002001900290039012A11348FDF792
:102A1000F7FDE8B1334601AA11A110480095FDF772
:102A200061FD14A10D48FDF7EBFD044624B1621CC5
:102A300011A13846FDF752FC0020104908604FF400
:102A400080610648FDF752FE012004B0BDE8F08128
:102A50000020FAE70D0A0D0A0000000030090020EE
:102A6000255B5E2C5D2C255B5E2C5D2C255B5E3A28
:102A70005D0000003A0000002573000010000020F7
:102A800000B587B000200490059006900190029058
:102A900003901AA11B48FDF7B3FDA0B101AB04AA36
:102AA00019A11848FDF71EFD04A91AA000F068FD41
:102AB00000201E4908604FF480611248FDF716FEA1
:102AC000012007B000BD1AA10E48FDF799FD98B18D
:102AD00001AB04AA0CA10B48FDF704FD04A916A044
:102AE00000F04EFD0020114908604FF48061054858
:102AF000FDF7FCFD0220E4E70020E2E7434F4E4EE5
:102B00004543540030090020255B5E2C5D2C255B7D
:102B10005E2C5D00D3D0BFCDBBA7B6CBBDD3C8EB79
:102B2000A3AC49443D25730D0A00000010000020AD
:102B3000434C4F5345440000D3D0BFCDBBA7B6CBC9
:102B4000B6CFBFAAA3AC49443D25730D0A000000CF
:102B500010B56CA000F014FD322000F01BFB20B17A
:102B60006CA000F00DFD012010BD70A000F008FD6C
:102B700071A000F005FD322174A000F05DFB20B1D2
:102B800075A000F0FDFC0220EEE77AA000F0F8FC52
:102B90007D48007800281FD17CA000F0F1FC322194
:102BA0007FA000F049FB20B181A000F0E9FC0320E8
:102BB000DAE787A000F0E4FC8AA000F0E1FC1E2028
:102BC00000F090FA20B18CA000F0DAFC0420CBE7F2
:102BD00090A000F0D5FC54E002219348FFF7F7FAEB
:102BE00000283FD191A000F0CBFC322194A000F04E
:102BF00023FB20B196A000F0C3FC0320B4E79CA007
:102C000000F0BEFC9FA000F0BBFC3221A3A000F0AE
:102C100013FB20B1A5A000F0B3FC0420A4E7ABA0F7
:102C200000F0AEFCAFA000F0ABFC3C2000F0C8FB15
:102C300020B1B2A000F0A4FC052095E7B6A000F0FA
:102C40009FFCB9A000F09CFC3221BDA000F0F4FA7A
:102C500020B1BFA000F094FC062085E7C4A000F0DE
:102C60008FFC0EE0C8A000F08BFC1E2000F0DEFB05
:102C700020B161A000F084FC072075E765A000F09A
:102C80007FFCC6A000F07CFC3220FFF753FE20B191
:102C9000C7A000F075FC0A2066E7CCA000F070FC2D
:102CA000CFA000F06DFC3221D1A000F0C5FA20B118
:102CB000D3A000F065FC0B2056E7D8A000F060FC24
:102CC000DAA000F05DFC3221DDA000F0B5FA20B101
:102CD000DEA000F055FC0C2046E7E4A000F050FC1C
:102CE000E7A000F04DFC3221EAA000F0A5FA20B1E7
:102CF000EDA000F045FC0D2036E7F2A000F040FC0E
:102D0000002031E7D7BCB1B8B8B4CEBBC4A3BFE98B
:102D10000D0A0000B8B4CEBBCAA7B0DCA3ACD7BCC8
:102D2000B1B8D6D8C6F40D0A00000000B8B4CEBBC6
:102D3000B3C9B9A60D0A0000D7BCB1B8C9E8D6C35B
:102D4000535441C4A3CABD0D0A00000041542B4393
:102D5000574D4F44453D3100C9E8D6C3535441C493
:102D6000A3CABDCAA7B0DCA3ACD7BCB1B8D6D8C67D
:102D7000F40D0A00C9E8D6C3535441C4A3CABDB375
:102D8000C9B9A60D0A00000014000020D7BCB1B8D4
:102D9000C8A1CFFBD7D4B6AFC1ACBDD30D0A0000DC
:102DA00041542B43574155544F434F4E4E3D3000F5
:102DB000C8A1CFFBD7D4B6AFC1ACBDD3CAA7B0DCD6
:102DC000A3ACD7BCB1B8D6D8C6F40D0A0000000039
:102DD000C8A1CFFBD7D4B6AFC1ACBDD3B3C9B9A6D8
:102DE0000D0A0000D7BCB1B8C1ACBDD3C2B7D3C9BE
:102DF000C6F70D0A00000000C1ACBDD3C2B7D3C9ED
:102E0000C6F7CAA7B0DCA3ACD7BCB1B8D6D8C6F455
:102E10000D0A0000C1ACBDD3C2B7D3C9C6F7B3C950
:102E2000B9A60D0A0000000000080140D7BCB1B8E7
:102E3000C9E8D6C3D7D4B6AFC1ACBDD30D0A000024
:102E400041542B43574155544F434F4E4E3D310053
:102E5000C9E8D6C3D7D4B6AFC1ACBDD3CAA7B0DC1E
:102E6000A3ACD7BCB1B8D6D8C6F40D0A0000000098
:102E7000C9E8D6C3D7D4B6AFC1ACBDD3B3C9B9A620
:102E80000D0A0000D7BCB1B8BFAAC6F4536D617279
:102E900074636F6E6669670D0A00000041542B432E
:102EA000575354415254534D41525400BFAAC6F493
:102EB000536D617274636F6E666967CAA7B0DCA3F5
:102EC000ACD7BCB1B8D6D8C6F40D0A00BFAAC6F4B8
:102ED000536D617274636F6E666967B3C9B9A60D8D
:102EE0000A000000C7EBCAB9D3C3415050C8EDBCBB
:102EF000FEB4ABCAE4C3DCC2EB0D0A00B4ABCAE457
:102F0000C3DCC2EBCAA7B0DCA3ACD7BCB1B8D6D87F
:102F1000C6F40D0A00000000B4ABCAE4C3DCC2EB87
:102F2000B3C9B9A60D0A0000D7BCB1B8B9D8B1D59C
:102F3000536D617274636F6E6669670D0A000000FD
:102F400041542B435753544F50534D41525400005A
:102F5000B9D8B1D5536D617274636F6E666967CA13
:102F6000A7B0DCA3ACD7BCB1B8D6D8C6F40D0A0064
:102F7000B9D8B1D5536D617274636F6E666967B30A
:102F8000C9B9A60D0A000000B5C8B4FDC1ACBDD3D7
:102F9000C2B7D3C9C6F70D0A00000000D7BCB1B84C
:102FA000BBF1C8A14950B5D8D6B70D0A0000000042
:102FB000BBF1C8A14950B5D8D6B7CAA7B0DCA3ACFD
:102FC000D7BCB1B8D6D8C6F40D0A0000BBF1C8A171
:102FD0004950B5D8D6B7B3C9B9A60D0A000000004C
:102FE000D7BCB1B8B9D8B1D5CDB8B4AB0D0A0000D3
:102FF00041542B4349504D4F44453D3000000000A3
:10300000B9D8B1D5CDB8B4ABCAA7B0DCA3ACD7BCE6
:10301000B1B8D6D8C6F40D0A00000000B9D8B1D5B1
:10302000CDB8B4ABB3C9B9A60D0A0000D7BCB1B8CE
:10303000BFAAC6F4B6E0C2B7C1ACBDD30D0A00004A
:1030400041542B4349504D55583D3100BFAAC6F459
:10305000B6E0C2B7C1ACBDD3CAA7B0DCA3ACD7BC85
:10306000B1B8D6D8C6F40D0A00000000BFAAC6F455
:10307000B6E0C2B7C1ACBDD3B3C9B9A60D0A000052
:10308000D7BCB1B8BFAAC6F4B7FECEF1C6F70D0AD9
:103090000000000041542B434950534552564552BD
:1030A0003D312C3530353000BFAAC6F4B7FECEF125
:1030B000C6F7CAA7B0DCA3ACD7BCB1B8D6D8C6F4A3
:1030C0000D0A0000BFAAC6F4B7FECEF1C6F7B3C919
:1030D000B9A6A3ACB6CBBFDABAC5353035300D0AC8
:1030E0000000000010B504460020144908604FF4A9
:1030F00080611348FDF7FAFA12A216A118A000F099
:103100006DFA0DE04FF47A70FEF75AFF1AA10C48E1
:10311000FDF776FA00B107E021461CA000F030FA76
:103120002000A4F10104EDD100BF19A000F028FA9D
:10313000002C01DC012010BD0020FCE71000002065
:1031400030090020776331393837313130332E2E52
:1031500000000000757365724357445A0000000078
:1031600041542B43574A41503D222573222C22259E
:1031700073220D0A000000005749464920474F546A
:103180002049500D0A0D0A4F4B0000002564200015
:103190000D0A000010B50446002210211348FFF765
:1031A0001FF84FF4FA70FEF70BFF012210210F48B1
:1031B000FFF716F80CE06420FEF702FF0CA10E48A2
:1031C000FDF71EFA00B107E021460CA000F0D8F987
:1031D0002000A4F10104EED100BF09A000F0D0F955
:1031E000002C01DC012010BD0020FCE7000801409C
:1031F00072656164790000003009002025642000B8
:103200000D0A000008B501210420FFF771F8102015
:10321000ADF8000003208DF8020010208DF80300A7
:1032200069460448FEF748FF012210210148FEF7D5
:10323000D7FF08BD0008014070B505460C460020C8
:10324000134908604FF480611248FDF74FFA294690
:1032500011A000F0C3F90CE06420FEF7B1FE10A14C
:103260000C48FDF7CDF900B107E021460DA000F0B4
:1032700087F92000A4F10104EED100BF0AA000F0FC
:103280007FF9002C01DC012070BD0020FCE700006C
:10329000100000203009002025730D0A00000000F6
:1032A0004F4B0000256420000D0A00002DE9F0417D
:1032B00006460F4690461C460020304908604FF4F1
:1032C00080612F48FDF712FA424631462DA000F0EA
:1032D00085F90CE00A20FEF773FE2FA12848FDF7C0
:1032E0008FF900B107E021462CA000F049F9200039
:1032F000A4F10104EED100BF002C02DC0120BDE8E6
:10330000F08100201D4908604FF480611C48FDF7E2
:10331000EDF9002504E0795D21A000F05FF96D1C56
:103320004545F8DB1FE00A20FEF74AFE1DA11448C0
:10333000FDF766F940B10020104908604FF4806144
:103340000F48FDF7D3F912E018A10D48FDF758F921
:1033500048B10020094908604FF480610848FDF732
:10336000C5F90220CBE72000A4F10104DBD100BFA6
:10337000002C01DC0320C2E70020C0E71000002081
:103380003009002041542B43495053454E443D25BC
:10339000642C25640D0A00003E0000002564200016
:1033A0002563000053454E44204F4B006C696E6B03
:1033B000206973206E6F742076616C696400000070
:1033C00010B504460020124908604FF4806111488E
:1033D000FDF78CF90DE04FF47A70FEF7F1FD0EA1C8
:1033E0000C48FDF70DF900B107E021460DA000F0F3
:1033F000C7F82000A4F10104EDD100BF0AA000F03D
:10340000BFF8002C01DC012010BD0020FCE700000B
:103410001000002030090020636F6E6E65637465D4
:1034200064000000256420000D0A000010B5044669
:103430000DE04FF47A70FEF7C3FD0CA10E48FDF7C6
:10344000DFF800B107E021460CA000F099F8200059
:10345000A4F10104EDD100BF09A000F091F8002C07
:1034600001DC012010BD0020FCE70000574946495F
:1034700020474F5420495000300900202564200087
:103480000D0A0000490050EAC12018BF04204A0D6F
:1034900018BF40F0010040F2FF72B2EB515F08BF6D
:1034A00040F00200012808BF0520704730380A2884
:1034B00001D201207047002070470000FEF779FD1F
:1034C0004FF41650FFF79AF94FF4E130FFF7D6F9B1
:1034D000FEF78CFEFFF796FE02E0C820FEF770FDB7
:1034E000FFF736FB0028F8D1164908604FF48061D9
:1034F0001548FDF7FBF824E0FFF7C2FA134A144918
:103500001448FFF779FAE0B1114A104912A000F00F
:1035100037F8104917A000F033F80E48FDF782F88D
:1035200005460A48FDF77EF8064631460748FEF78D
:10353000FEFCC4B24FF4FA732A4606492046FFF750
:10354000B5FED9E71000002030090020050000205A
:10355000000000202C000020C1ACBDD369643A25D6
:1035600073D3D02573D7D6BDDACAFDBEDDB5BDC0D5
:10357000B40D0A00CAFDBEDD3A25730D0A00000035
:103580000FB438B505A800901248009A0499FCF7CA
:1035900093FE002000900F48FDF744F8054600BF59
:1035A0000D48008800F040000028F9D000240CE00D
:1035B0000848005D0849091D088000BF06480088CA
:1035C00000F040000028F9D0641CAC42F0D338BCB5
:1035D0005DF814FB30080020003801400FB438B506
:1035E00005A800901248009A0499FCF765FE002097
:1035F00000900F48FDF716F8054600BF0D480088FB
:1036000000F040000028F9D000240CE00848005DDC
:103610000849091D088000BF0648008800F04000E6
:103620000028F9D0641CAC42F0D338BC5DF814FB20
:10363000300D00200044004010B500290AD0087861
:10364000002807D005487844FEF76EF8002801D01E
:10365000002010BD0248784410BD00004601000063
:103660003E01000010B500290AD00878002807D0D4
:1036700005487844FEF758F8002801D0002010BD16
:103680000248784410BD0000360100002E01000001
:10369000FDF739BC04000008000000000000000233
:1036A0000001000010000000000000000000000009
:1036B0003031323334353637383941424344454668
:1036C0004030580030313233343536373839616262
:1036D000636465664030780002400000000000A08E
:1036E0000000000005400000000000C800000000CD
:1036F0000C4000000000409C000000001940000049
:103700000020BCBE0000000034400000BFC91B8E7A
:1037100000000004B5400000504BCFD06607E2CF58
:10372000010000006C4100003E8251AADFEEA73488
:1037300001000000D9420000DCB5A0E23A301F973A
:10374000FFFFFFFFB4450000FD25A0C8E9A3C14F5E
:10375000FFFFFFFFFF3F00000000008000000000AF
:10376000FF3F00000000008000000000B8380008A3
:10377000000000202C0000006C010008E438000864
:103780002C00002064170000880100081C000000C5
:1037900043000000F8FFFFFF0C0000000E000000D7
:1037A0000F0000002E000000100100004300000088
:1037B000F8FFFFFF00404040404040404040414152
:1037C00041414140404040404040404040404040F6
:1037D0004040404040050202020202020202020290
:1037E000020202020220202020202020202020028D
:1037F000020202020202909090909090101010101D
:1038000010101010101010101010101010101010B8
:10381000020202020202888888888888080808084C
:103820000808080808080808080808080808080818
:103830000202020240000000000000000000000040
:103840000000000000000000000000000000000078
:103850000000000000000000000000000000000068
:103860000000000000000000000000000000000058
:103870000000000000000000000000000000000048
:103880000000000000000000000000000000000038
:103890000000000000000000000000000000000028
:1038A0000000000000000000000000000000000018
:1038B0000000000000000000000000000000000008
:1038C00000000000000000000000000000000000F8
:1038D00000010203040102030406070809020406AA
:0438E00008000000DC
:040000050800027974
:00000001FF
